{
  "_format": "hh-sol-artifact-1",
  "contractName": "Athl3teBots",
  "sourceName": "contracts/Athl3teBots.sol",
  "abi": [
    {
      "inputs": [
        {
          "internalType": "address",
          "name": "_coreContract",
          "type": "address"
        }
      ],
      "stateMutability": "nonpayable",
      "type": "constructor"
    },
    {
      "anonymous": false,
      "inputs": [
        {
          "indexed": true,
          "internalType": "address",
          "name": "userAddress",
          "type": "address"
        },
        {
          "indexed": false,
          "internalType": "string",
          "name": "activityId",
          "type": "string"
        }
      ],
      "name": "ActivityAdded",
      "type": "event"
    },
    {
      "anonymous": false,
      "inputs": [
        {
          "indexed": true,
          "internalType": "address",
          "name": "userAddress",
          "type": "address"
        },
        {
          "indexed": false,
          "internalType": "string",
          "name": "botName",
          "type": "string"
        },
        {
          "indexed": false,
          "internalType": "uint256",
          "name": "messagesId",
          "type": "uint256"
        }
      ],
      "name": "BotPurchased",
      "type": "event"
    },
    {
      "anonymous": false,
      "inputs": [
        {
          "indexed": true,
          "internalType": "string",
          "name": "communityName",
          "type": "string"
        },
        {
          "indexed": true,
          "internalType": "address",
          "name": "creator",
          "type": "address"
        },
        {
          "indexed": false,
          "internalType": "string",
          "name": "botName",
          "type": "string"
        },
        {
          "indexed": false,
          "internalType": "uint256",
          "name": "messagesId",
          "type": "uint256"
        }
      ],
      "name": "CommunityRoomCreated",
      "type": "event"
    },
    {
      "anonymous": false,
      "inputs": [
        {
          "indexed": true,
          "internalType": "address",
          "name": "userAddress",
          "type": "address"
        },
        {
          "indexed": false,
          "internalType": "string",
          "name": "communityName",
          "type": "string"
        }
      ],
      "name": "CommunityRoomJoined",
      "type": "event"
    },
    {
      "anonymous": false,
      "inputs": [
        {
          "indexed": true,
          "internalType": "address",
          "name": "userAddress",
          "type": "address"
        },
        {
          "indexed": false,
          "internalType": "string",
          "name": "injuryId",
          "type": "string"
        }
      ],
      "name": "InjuryUpdated",
      "type": "event"
    },
    {
      "anonymous": false,
      "inputs": [
        {
          "indexed": true,
          "internalType": "address",
          "name": "owner",
          "type": "address"
        },
        {
          "indexed": true,
          "internalType": "uint256",
          "name": "tokenId",
          "type": "uint256"
        },
        {
          "indexed": false,
          "internalType": "string",
          "name": "tokenUri",
          "type": "string"
        }
      ],
      "name": "Minted",
      "type": "event"
    },
    {
      "anonymous": false,
      "inputs": [
        {
          "indexed": true,
          "internalType": "address",
          "name": "userAddress",
          "type": "address"
        },
        {
          "indexed": false,
          "internalType": "string",
          "name": "goalId",
          "type": "string"
        }
      ],
      "name": "NutritionGoalAdded",
      "type": "event"
    },
    {
      "anonymous": false,
      "inputs": [
        {
          "indexed": true,
          "internalType": "address",
          "name": "previousOwner",
          "type": "address"
        },
        {
          "indexed": true,
          "internalType": "address",
          "name": "newOwner",
          "type": "address"
        }
      ],
      "name": "OwnershipTransferred",
      "type": "event"
    },
    {
      "anonymous": false,
      "inputs": [
        {
          "indexed": true,
          "internalType": "address",
          "name": "userAddress",
          "type": "address"
        },
        {
          "indexed": false,
          "internalType": "string",
          "name": "goalId",
          "type": "string"
        }
      ],
      "name": "SportGoalAdded",
      "type": "event"
    },
    {
      "anonymous": false,
      "inputs": [
        {
          "indexed": true,
          "internalType": "address",
          "name": "userAddress",
          "type": "address"
        },
        {
          "indexed": false,
          "internalType": "string",
          "name": "metadata",
          "type": "string"
        }
      ],
      "name": "UserRegistered",
      "type": "event"
    },
    {
      "inputs": [
        {
          "internalType": "string",
          "name": "_botName",
          "type": "string"
        },
        {
          "internalType": "uint256",
          "name": "_unlockCostInWei",
          "type": "uint256"
        }
      ],
      "name": "addBot",
      "outputs": [],
      "stateMutability": "nonpayable",
      "type": "function"
    },
    {
      "inputs": [
        {
          "internalType": "uint256",
          "name": "",
          "type": "uint256"
        }
      ],
      "name": "allBotNames",
      "outputs": [
        {
          "internalType": "string",
          "name": "",
          "type": "string"
        }
      ],
      "stateMutability": "view",
      "type": "function"
    },
    {
      "inputs": [
        {
          "internalType": "string",
          "name": "",
          "type": "string"
        }
      ],
      "name": "bots",
      "outputs": [
        {
          "internalType": "string",
          "name": "botName",
          "type": "string"
        },
        {
          "internalType": "uint256",
          "name": "unlockCostInWei",
          "type": "uint256"
        },
        {
          "internalType": "bool",
          "name": "exists",
          "type": "bool"
        }
      ],
      "stateMutability": "view",
      "type": "function"
    },
    {
      "inputs": [
        {
          "internalType": "string",
          "name": "_botName",
          "type": "string"
        }
      ],
      "name": "buyBot",
      "outputs": [
        {
          "internalType": "uint256",
          "name": "",
          "type": "uint256"
        }
      ],
      "stateMutability": "payable",
      "type": "function"
    },
    {
      "inputs": [],
      "name": "coreContract",
      "outputs": [
        {
          "internalType": "address",
          "name": "",
          "type": "address"
        }
      ],
      "stateMutability": "view",
      "type": "function"
    },
    {
      "inputs": [],
      "name": "getAllBotNames",
      "outputs": [
        {
          "internalType": "string[]",
          "name": "",
          "type": "string[]"
        }
      ],
      "stateMutability": "view",
      "type": "function"
    },
    {
      "inputs": [],
      "name": "getBotCount",
      "outputs": [
        {
          "internalType": "uint256",
          "name": "",
          "type": "uint256"
        }
      ],
      "stateMutability": "view",
      "type": "function"
    },
    {
      "inputs": [
        {
          "internalType": "string",
          "name": "_botName",
          "type": "string"
        }
      ],
      "name": "getBotDetails",
      "outputs": [
        {
          "components": [
            {
              "internalType": "string",
              "name": "botName",
              "type": "string"
            },
            {
              "internalType": "uint256",
              "name": "unlockCostInWei",
              "type": "uint256"
            },
            {
              "internalType": "bool",
              "name": "exists",
              "type": "bool"
            }
          ],
          "internalType": "struct IAthl3teStructs.Bot",
          "name": "",
          "type": "tuple"
        }
      ],
      "stateMutability": "view",
      "type": "function"
    },
    {
      "inputs": [],
      "name": "messageIdGenerator",
      "outputs": [
        {
          "internalType": "uint256",
          "name": "",
          "type": "uint256"
        }
      ],
      "stateMutability": "view",
      "type": "function"
    },
    {
      "inputs": [],
      "name": "owner",
      "outputs": [
        {
          "internalType": "address",
          "name": "",
          "type": "address"
        }
      ],
      "stateMutability": "view",
      "type": "function"
    },
    {
      "inputs": [
        {
          "internalType": "string",
          "name": "_botName",
          "type": "string"
        }
      ],
      "name": "removeBot",
      "outputs": [],
      "stateMutability": "nonpayable",
      "type": "function"
    },
    {
      "inputs": [],
      "name": "renounceOwnership",
      "outputs": [],
      "stateMutability": "nonpayable",
      "type": "function"
    },
    {
      "inputs": [
        {
          "internalType": "address",
          "name": "newOwner",
          "type": "address"
        }
      ],
      "name": "transferOwnership",
      "outputs": [],
      "stateMutability": "nonpayable",
      "type": "function"
    },
    {
      "inputs": [
        {
          "internalType": "string",
          "name": "_botName",
          "type": "string"
        },
        {
          "internalType": "uint256",
          "name": "_newCost",
          "type": "uint256"
        }
      ],
      "name": "updateBotCost",
      "outputs": [],
      "stateMutability": "nonpayable",
      "type": "function"
    },
    {
      "inputs": [],
      "name": "withdraw",
      "outputs": [],
      "stateMutability": "nonpayable",
      "type": "function"
    }
  ],
  "bytecode": "0x60806040523480156200001157600080fd5b5060405162002a5638038062002a568339818101604052810190620000379190620001dc565b620000576200004b620000a660201b60201c565b620000ae60201b60201c565b6001808190555080600560006101000a81548173ffffffffffffffffffffffffffffffffffffffff021916908373ffffffffffffffffffffffffffffffffffffffff160217905550506200020e565b600033905090565b60008060009054906101000a900473ffffffffffffffffffffffffffffffffffffffff169050816000806101000a81548173ffffffffffffffffffffffffffffffffffffffff021916908373ffffffffffffffffffffffffffffffffffffffff1602179055508173ffffffffffffffffffffffffffffffffffffffff168173ffffffffffffffffffffffffffffffffffffffff167f8be0079c531659141344cd1fd0a4f28419497f9722a3daafe3b4186f6b6457e060405160405180910390a35050565b600080fd5b600073ffffffffffffffffffffffffffffffffffffffff82169050919050565b6000620001a48262000177565b9050919050565b620001b68162000197565b8114620001c257600080fd5b50565b600081519050620001d681620001ab565b92915050565b600060208284031215620001f557620001f462000172565b5b60006200020584828501620001c5565b91505092915050565b612838806200021e6000396000f3fe6080604052600436106100e85760003560e01c80639f9783e41161008a578063c687027d11610059578063c687027d146102c1578063d098709714610300578063e80db5db1461032b578063f2fde38b14610356576100e8565b80639f9783e414610214578063b028e9671461023d578063b84f14b714610268578063b8b86a3014610298576100e8565b8063709d42bb116100c6578063709d42bb1461016c578063715018a61461019557806379181eea146101ac5780638da5cb5b146101e9576100e8565b8063162dbcc6146100ed5780633ccfd60b1461012a57806351d19a4e14610141575b600080fd5b3480156100f957600080fd5b50610114600480360381019061010f919061153b565b61037f565b60405161012191906115f8565b60405180910390f35b34801561013657600080fd5b5061013f61042b565b005b34801561014d57600080fd5b506101566105a6565b6040516101639190611629565b60405180910390f35b34801561017857600080fd5b50610193600480360381019061018e91906116a9565b6105b3565b005b3480156101a157600080fd5b506101aa61065f565b005b3480156101b857600080fd5b506101d360048036038101906101ce91906116a9565b6106e7565b6040516101e091906117ba565b60405180910390f35b3480156101f557600080fd5b506101fe61082e565b60405161020b919061181d565b60405180910390f35b34801561022057600080fd5b5061023b60048036038101906102369190611838565b610857565b005b34801561024957600080fd5b506102526108f0565b60405161025f919061195a565b60405180910390f35b610282600480360381019061027d91906116a9565b6109c9565b60405161028f9190611629565b60405180910390f35b3480156102a457600080fd5b506102bf60048036038101906102ba9190611838565b610c1e565b005b3480156102cd57600080fd5b506102e860048036038101906102e39190611aac565b610cf5565b6040516102f793929190611b04565b60405180910390f35b34801561030c57600080fd5b50610315610dca565b6040516103229190611629565b60405180910390f35b34801561033757600080fd5b50610340610dd0565b60405161034d919061181d565b60405180910390f35b34801561036257600080fd5b5061037d60048036038101906103789190611b6e565b610df6565b005b6003818154811061038f57600080fd5b9060005260206000200160009150905080546103aa90611bca565b80601f01602080910402602001604051908101604052809291908181526020018280546103d690611bca565b80156104235780601f106103f857610100808354040283529160200191610423565b820191906000526020600020905b81548152906001019060200180831161040657829003601f168201915b505050505081565b610433610eed565b73ffffffffffffffffffffffffffffffffffffffff1661045161082e565b73ffffffffffffffffffffffffffffffffffffffff16146104a7576040517f08c379a000000000000000000000000000000000000000000000000000000000815260040161049e90611c47565b60405180910390fd5b6000479050600081116104ef576040517f08c379a00000000000000000000000000000000000000000000000000000000081526004016104e690611cb3565b60405180910390fd5b60006104f961082e565b73ffffffffffffffffffffffffffffffffffffffff168260405161051c90611d04565b60006040518083038185875af1925050503d8060008114610559576040519150601f19603f3d011682016040523d82523d6000602084013e61055e565b606091505b50509050806105a2576040517f08c379a000000000000000000000000000000000000000000000000000000000815260040161059990611d65565b60405180910390fd5b5050565b6000600380549050905090565b6105bb610eed565b73ffffffffffffffffffffffffffffffffffffffff166105d961082e565b73ffffffffffffffffffffffffffffffffffffffff161461062f576040517f08c379a000000000000000000000000000000000000000000000000000000000815260040161062690611c47565b60405180910390fd5b61064582826002610ef59092919063ffffffff16565b61065b82826003610fb79092919063ffffffff16565b5050565b610667610eed565b73ffffffffffffffffffffffffffffffffffffffff1661068561082e565b73ffffffffffffffffffffffffffffffffffffffff16146106db576040517f08c379a00000000000000000000000000000000000000000000000000000000081526004016106d290611c47565b60405180910390fd5b6106e560006110b9565b565b6106ef611471565b6107058383600261117d9092919063ffffffff16565b610744576040517f08c379a000000000000000000000000000000000000000000000000000000000815260040161073b90611dd1565b60405180910390fd5b60028383604051610756929190611e21565b908152602001604051809103902060405180606001604052908160008201805461077f90611bca565b80601f01602080910402602001604051908101604052809291908181526020018280546107ab90611bca565b80156107f85780601f106107cd576101008083540402835291602001916107f8565b820191906000526020600020905b8154815290600101906020018083116107db57829003601f168201915b50505050508152602001600182015481526020016002820160009054906101000a900460ff161515151581525050905092915050565b60008060009054906101000a900473ffffffffffffffffffffffffffffffffffffffff16905090565b61085f610eed565b73ffffffffffffffffffffffffffffffffffffffff1661087d61082e565b73ffffffffffffffffffffffffffffffffffffffff16146108d3576040517f08c379a00000000000000000000000000000000000000000000000000000000081526004016108ca90611c47565b60405180910390fd5b6108eb83838360026111b8909392919063ffffffff16565b505050565b60606003805480602002602001604051908101604052809291908181526020016000905b828210156109c057838290600052602060002001805461093390611bca565b80601f016020809104026020016040519081016040528092919081815260200182805461095f90611bca565b80156109ac5780601f10610981576101008083540402835291602001916109ac565b820191906000526020600020905b81548152906001019060200180831161098f57829003601f168201915b505050505081526020019060010190610914565b50505050905090565b6000600560009054906101000a900473ffffffffffffffffffffffffffffffffffffffff1673ffffffffffffffffffffffffffffffffffffffff1663163f7522336040518263ffffffff1660e01b8152600401610a26919061181d565b602060405180830381865afa158015610a43573d6000803e3d6000fd5b505050506040513d601f19601f82011682018060405250810190610a679190611e66565b610aa6576040517f08c379a0000000000000000000000000000000000000000000000000000000008152600401610a9d90611edf565b60405180910390fd5b600260015403610aeb576040517f08c379a0000000000000000000000000000000000000000000000000000000008152600401610ae290611f4b565b60405180910390fd5b6002600181905550610b098383600261117d9092919063ffffffff16565b610b48576040517f08c379a0000000000000000000000000000000000000000000000000000000008152600401610b3f90611dd1565b60405180910390fd5b610b5e838360026112549092919063ffffffff16565b341015610ba0576040517f08c379a0000000000000000000000000000000000000000000000000000000008152600401610b9790611fb7565b60405180910390fd5b60046000815480929190610bb390612006565b91905055503373ffffffffffffffffffffffffffffffffffffffff167f92904d8c10560a367e402f96fc80c79668c5a9850462a718473e9f671b28ea388484600454604051610c049392919061207b565b60405180910390a260045490506001808190555092915050565b610c26610eed565b73ffffffffffffffffffffffffffffffffffffffff16610c4461082e565b73ffffffffffffffffffffffffffffffffffffffff1614610c9a576040517f08c379a0000000000000000000000000000000000000000000000000000000008152600401610c9190611c47565b60405180910390fd5b610cb283838360026112f1909392919063ffffffff16565b6003838390918060018154018082558091505060019003906000526020600020016000909192909192909192909192509182610cef929190612264565b50505050565b600281805160208101820180518482526020830160208501208183528095505050505050600091509050806000018054610d2e90611bca565b80601f0160208091040260200160405190810160405280929190818152602001828054610d5a90611bca565b8015610da75780601f10610d7c57610100808354040283529160200191610da7565b820191906000526020600020905b815481529060010190602001808311610d8a57829003601f168201915b5050505050908060010154908060020160009054906101000a900460ff16905083565b60045481565b600560009054906101000a900473ffffffffffffffffffffffffffffffffffffffff1681565b610dfe610eed565b73ffffffffffffffffffffffffffffffffffffffff16610e1c61082e565b73ffffffffffffffffffffffffffffffffffffffff1614610e72576040517f08c379a0000000000000000000000000000000000000000000000000000000008152600401610e6990611c47565b60405180910390fd5b600073ffffffffffffffffffffffffffffffffffffffff168173ffffffffffffffffffffffffffffffffffffffff1603610ee1576040517f08c379a0000000000000000000000000000000000000000000000000000000008152600401610ed8906123a6565b60405180910390fd5b610eea816110b9565b50565b600033905090565b828282604051610f06929190611e21565b908152602001604051809103902060020160009054906101000a900460ff16610f64576040517f08c379a0000000000000000000000000000000000000000000000000000000008152600401610f5b90611dd1565b60405180910390fd5b828282604051610f75929190611e21565b908152602001604051809103902060008082016000610f949190611494565b60018201600090556002820160006101000a81549060ff02191690555050505050565b60005b83805490508110156110b3578282604051610fd69291906123eb565b6040518091039020848281548110610ff157610ff0612404565b5b9060005260206000200160405161100891906124cb565b6040518091039020036110a057836001858054905061102791906124e2565b8154811061103857611037612404565b5b9060005260206000200184828154811061105557611054612404565b5b90600052602060002001908161106b9190612541565b508380548061107d5761107c612629565b5b6001900381819060005260206000200160006110999190611494565b90556110b3565b80806110ab90612006565b915050610fba565b50505050565b60008060009054906101000a900473ffffffffffffffffffffffffffffffffffffffff169050816000806101000a81548173ffffffffffffffffffffffffffffffffffffffff021916908373ffffffffffffffffffffffffffffffffffffffff1602179055508173ffffffffffffffffffffffffffffffffffffffff168173ffffffffffffffffffffffffffffffffffffffff167f8be0079c531659141344cd1fd0a4f28419497f9722a3daafe3b4186f6b6457e060405160405180910390a35050565b6000838383604051611190929190611e21565b908152602001604051809103902060020160009054906101000a900460ff1690509392505050565b8383836040516111c9929190611e21565b908152602001604051809103902060020160009054906101000a900460ff16611227576040517f08c379a000000000000000000000000000000000000000000000000000000000815260040161121e90611dd1565b60405180910390fd5b80848484604051611239929190611e21565b90815260200160405180910390206001018190555050505050565b6000838383604051611267929190611e21565b908152602001604051809103902060020160009054906101000a900460ff166112c5576040517f08c379a00000000000000000000000000000000000000000000000000000000081526004016112bc90611dd1565b60405180910390fd5b8383836040516112d6929190611e21565b90815260200160405180910390206001015490509392505050565b60008383905011611337576040517f08c379a000000000000000000000000000000000000000000000000000000000815260040161132e906126a4565b60405180910390fd5b838383604051611348929190611e21565b908152602001604051809103902060020160009054906101000a900460ff16156113a7576040517f08c379a000000000000000000000000000000000000000000000000000000000815260040161139e90612710565b60405180910390fd5b604051806060016040528084848080601f016020809104026020016040519081016040528093929190818152602001838380828437600081840152601f19601f8201169050808301925050505050505081526020018281526020016001151581525084848460405161141a929190611e21565b9081526020016040518091039020600082015181600001908161143d9190612730565b506020820151816001015560408201518160020160006101000a81548160ff02191690831515021790555090505050505050565b604051806060016040528060608152602001600081526020016000151581525090565b5080546114a090611bca565b6000825580601f106114b257506114d1565b601f0160209004906000526020600020908101906114d091906114d4565b5b50565b5b808211156114ed5760008160009055506001016114d5565b5090565b6000604051905090565b600080fd5b600080fd5b6000819050919050565b61151881611505565b811461152357600080fd5b50565b6000813590506115358161150f565b92915050565b600060208284031215611551576115506114fb565b5b600061155f84828501611526565b91505092915050565b600081519050919050565b600082825260208201905092915050565b60005b838110156115a2578082015181840152602081019050611587565b60008484015250505050565b6000601f19601f8301169050919050565b60006115ca82611568565b6115d48185611573565b93506115e4818560208601611584565b6115ed816115ae565b840191505092915050565b6000602082019050818103600083015261161281846115bf565b905092915050565b61162381611505565b82525050565b600060208201905061163e600083018461161a565b92915050565b600080fd5b600080fd5b600080fd5b60008083601f84011261166957611668611644565b5b8235905067ffffffffffffffff81111561168657611685611649565b5b6020830191508360018202830111156116a2576116a161164e565b5b9250929050565b600080602083850312156116c0576116bf6114fb565b5b600083013567ffffffffffffffff8111156116de576116dd611500565b5b6116ea85828601611653565b92509250509250929050565b600082825260208201905092915050565b600061171282611568565b61171c81856116f6565b935061172c818560208601611584565b611735816115ae565b840191505092915050565b61174981611505565b82525050565b60008115159050919050565b6117648161174f565b82525050565b600060608301600083015184820360008601526117878282611707565b915050602083015161179c6020860182611740565b5060408301516117af604086018261175b565b508091505092915050565b600060208201905081810360008301526117d4818461176a565b905092915050565b600073ffffffffffffffffffffffffffffffffffffffff82169050919050565b6000611807826117dc565b9050919050565b611817816117fc565b82525050565b6000602082019050611832600083018461180e565b92915050565b600080600060408486031215611851576118506114fb565b5b600084013567ffffffffffffffff81111561186f5761186e611500565b5b61187b86828701611653565b9350935050602061188e86828701611526565b9150509250925092565b600081519050919050565b600082825260208201905092915050565b6000819050602082019050919050565b60006118d08383611707565b905092915050565b6000602082019050919050565b60006118f082611898565b6118fa81856118a3565b93508360208202850161190c856118b4565b8060005b85811015611948578484038952815161192985826118c4565b9450611934836118d8565b925060208a01995050600181019050611910565b50829750879550505050505092915050565b6000602082019050818103600083015261197481846118e5565b905092915050565b600080fd5b7f4e487b7100000000000000000000000000000000000000000000000000000000600052604160045260246000fd5b6119b9826115ae565b810181811067ffffffffffffffff821117156119d8576119d7611981565b5b80604052505050565b60006119eb6114f1565b90506119f782826119b0565b919050565b600067ffffffffffffffff821115611a1757611a16611981565b5b611a20826115ae565b9050602081019050919050565b82818337600083830152505050565b6000611a4f611a4a846119fc565b6119e1565b905082815260208101848484011115611a6b57611a6a61197c565b5b611a76848285611a2d565b509392505050565b600082601f830112611a9357611a92611644565b5b8135611aa3848260208601611a3c565b91505092915050565b600060208284031215611ac257611ac16114fb565b5b600082013567ffffffffffffffff811115611ae057611adf611500565b5b611aec84828501611a7e565b91505092915050565b611afe8161174f565b82525050565b60006060820190508181036000830152611b1e81866115bf565b9050611b2d602083018561161a565b611b3a6040830184611af5565b949350505050565b611b4b816117fc565b8114611b5657600080fd5b50565b600081359050611b6881611b42565b92915050565b600060208284031215611b8457611b836114fb565b5b6000611b9284828501611b59565b91505092915050565b7f4e487b7100000000000000000000000000000000000000000000000000000000600052602260045260246000fd5b60006002820490506001821680611be257607f821691505b602082108103611bf557611bf4611b9b565b5b50919050565b7f4f776e61626c653a2063616c6c6572206973206e6f7420746865206f776e6572600082015250565b6000611c31602083611573565b9150611c3c82611bfb565b602082019050919050565b60006020820190508181036000830152611c6081611c24565b9050919050565b7f4e6f2066756e647320746f207769746864726177000000000000000000000000600082015250565b6000611c9d601483611573565b9150611ca882611c67565b602082019050919050565b60006020820190508181036000830152611ccc81611c90565b9050919050565b600081905092915050565b50565b6000611cee600083611cd3565b9150611cf982611cde565b600082019050919050565b6000611d0f82611ce1565b9150819050919050565b7f5769746864726177616c206661696c6564000000000000000000000000000000600082015250565b6000611d4f601183611573565b9150611d5a82611d19565b602082019050919050565b60006020820190508181036000830152611d7e81611d42565b9050919050565b7f426f7420646f6573206e6f742065786973740000000000000000000000000000600082015250565b6000611dbb601283611573565b9150611dc682611d85565b602082019050919050565b60006020820190508181036000830152611dea81611dae565b9050919050565b600081905092915050565b6000611e088385611df1565b9350611e15838584611a2d565b82840190509392505050565b6000611e2e828486611dfc565b91508190509392505050565b611e438161174f565b8114611e4e57600080fd5b50565b600081519050611e6081611e3a565b92915050565b600060208284031215611e7c57611e7b6114fb565b5b6000611e8a84828501611e51565b91505092915050565b7f4e6f742072656769737465726564000000000000000000000000000000000000600082015250565b6000611ec9600e83611573565b9150611ed482611e93565b602082019050919050565b60006020820190508181036000830152611ef881611ebc565b9050919050565b7f5265656e7472616e637947756172643a207265656e7472616e742063616c6c00600082015250565b6000611f35601f83611573565b9150611f4082611eff565b602082019050919050565b60006020820190508181036000830152611f6481611f28565b9050919050565b7f496e73756666696369656e74207061796d656e74000000000000000000000000600082015250565b6000611fa1601483611573565b9150611fac82611f6b565b602082019050919050565b60006020820190508181036000830152611fd081611f94565b9050919050565b7f4e487b7100000000000000000000000000000000000000000000000000000000600052601160045260246000fd5b600061201182611505565b91507fffffffffffffffffffffffffffffffffffffffffffffffffffffffffffffffff820361204357612042611fd7565b5b600182019050919050565b600061205a8385611573565b9350612067838584611a2d565b612070836115ae565b840190509392505050565b6000604082019050818103600083015261209681858761204e565b90506120a5602083018461161a565b949350505050565b600082905092915050565b60008190508160005260206000209050919050565b60006020601f8301049050919050565b600082821b905092915050565b60006008830261211a7fffffffffffffffffffffffffffffffffffffffffffffffffffffffffffffffff826120dd565b61212486836120dd565b95508019841693508086168417925050509392505050565b6000819050919050565b600061216161215c61215784611505565b61213c565b611505565b9050919050565b6000819050919050565b61217b83612146565b61218f61218782612168565b8484546120ea565b825550505050565b600090565b6121a4612197565b6121af818484612172565b505050565b5b818110156121d3576121c860008261219c565b6001810190506121b5565b5050565b601f821115612218576121e9816120b8565b6121f2846120cd565b81016020851015612201578190505b61221561220d856120cd565b8301826121b4565b50505b505050565b600082821c905092915050565b600061223b6000198460080261221d565b1980831691505092915050565b6000612254838361222a565b9150826002028217905092915050565b61226e83836120ad565b67ffffffffffffffff81111561228757612286611981565b5b6122918254611bca565b61229c8282856121d7565b6000601f8311600181146122cb57600084156122b9578287013590505b6122c38582612248565b86555061232b565b601f1984166122d9866120b8565b60005b82811015612301578489013582556001820191506020850194506020810190506122dc565b8683101561231e578489013561231a601f89168261222a565b8355505b6001600288020188555050505b50505050505050565b7f4f776e61626c653a206e6577206f776e657220697320746865207a65726f206160008201527f6464726573730000000000000000000000000000000000000000000000000000602082015250565b6000612390602683611573565b915061239b82612334565b604082019050919050565b600060208201905081810360008301526123bf81612383565b9050919050565b60006123d28385611cd3565b93506123df838584611a2d565b82840190509392505050565b60006123f88284866123c6565b91508190509392505050565b7f4e487b7100000000000000000000000000000000000000000000000000000000600052603260045260246000fd5b60008190508160005260206000209050919050565b6000815461245581611bca565b61245f8186611cd3565b9450600182166000811461247a576001811461248f576124c2565b60ff19831686528115158202860193506124c2565b61249885612433565b60005b838110156124ba5781548189015260018201915060208101905061249b565b838801955050505b50505092915050565b60006124d78284612448565b915081905092915050565b60006124ed82611505565b91506124f883611505565b92508282039050818111156125105761250f611fd7565b5b92915050565b60008154905061252581611bca565b9050919050565b60008190508160005260206000209050919050565b81810361254f575050612627565b61255882612516565b67ffffffffffffffff81111561257157612570611981565b5b61257b8254611bca565b6125868282856121d7565b6000601f8311600181146125b557600084156125a3578287015490505b6125ad8582612248565b865550612620565b601f1984166125c38761252c565b96506125ce866120b8565b60005b828110156125f6578489015482556001820191506001850194506020810190506125d1565b86831015612613578489015461260f601f89168261222a565b8355505b6001600288020188555050505b5050505050505b565b7f4e487b7100000000000000000000000000000000000000000000000000000000600052603160045260246000fd5b7f426f74206e616d652063616e6e6f7420626520656d7074790000000000000000600082015250565b600061268e601883611573565b915061269982612658565b602082019050919050565b600060208201905081810360008301526126bd81612681565b9050919050565b7f426f7420616c7265616479206578697374730000000000000000000000000000600082015250565b60006126fa601283611573565b9150612705826126c4565b602082019050919050565b60006020820190508181036000830152612729816126ed565b9050919050565b61273982611568565b67ffffffffffffffff81111561275257612751611981565b5b61275c8254611bca565b6127678282856121d7565b600060209050601f83116001811461279a5760008415612788578287015190505b6127928582612248565b8655506127fa565b601f1984166127a8866120b8565b60005b828110156127d0578489015182556001820191506020850194506020810190506127ab565b868310156127ed57848901516127e9601f89168261222a565b8355505b6001600288020188555050505b50505050505056fea2646970667358221220df55b4b1fb8c42ff69d2abacd93297bb4fb880ae138318e112f8cd5f00f89cf764736f6c63430008140033",
  "linkReferences": {},
  "deployedLinkReferences": {}
}