{
  "_format": "hh-sol-artifact-1",
  "contractName": "Athl3teCore",
  "sourceName": "contracts/Athl3teCore.sol",
  "abi": [
    {
      "anonymous": false,
      "inputs": [
        {
          "indexed": true,
          "internalType": "address",
          "name": "userAddress",
          "type": "address"
        },
        {
          "indexed": false,
          "internalType": "string",
          "name": "activityId",
          "type": "string"
        }
      ],
      "name": "ActivityAdded",
      "type": "event"
    },
    {
      "anonymous": false,
      "inputs": [
        {
          "indexed": true,
          "internalType": "address",
          "name": "userAddress",
          "type": "address"
        },
        {
          "indexed": false,
          "internalType": "string",
          "name": "botName",
          "type": "string"
        },
        {
          "indexed": false,
          "internalType": "uint256",
          "name": "messagesId",
          "type": "uint256"
        }
      ],
      "name": "BotPurchased",
      "type": "event"
    },
    {
      "anonymous": false,
      "inputs": [
        {
          "indexed": true,
          "internalType": "string",
          "name": "communityName",
          "type": "string"
        },
        {
          "indexed": true,
          "internalType": "address",
          "name": "creator",
          "type": "address"
        },
        {
          "indexed": false,
          "internalType": "string",
          "name": "botName",
          "type": "string"
        },
        {
          "indexed": false,
          "internalType": "uint256",
          "name": "messagesId",
          "type": "uint256"
        }
      ],
      "name": "CommunityRoomCreated",
      "type": "event"
    },
    {
      "anonymous": false,
      "inputs": [
        {
          "indexed": true,
          "internalType": "address",
          "name": "userAddress",
          "type": "address"
        },
        {
          "indexed": false,
          "internalType": "string",
          "name": "communityName",
          "type": "string"
        }
      ],
      "name": "CommunityRoomJoined",
      "type": "event"
    },
    {
      "anonymous": false,
      "inputs": [
        {
          "indexed": true,
          "internalType": "address",
          "name": "userAddress",
          "type": "address"
        },
        {
          "indexed": false,
          "internalType": "string",
          "name": "injuryId",
          "type": "string"
        }
      ],
      "name": "InjuryUpdated",
      "type": "event"
    },
    {
      "anonymous": false,
      "inputs": [
        {
          "indexed": true,
          "internalType": "address",
          "name": "owner",
          "type": "address"
        },
        {
          "indexed": true,
          "internalType": "uint256",
          "name": "tokenId",
          "type": "uint256"
        },
        {
          "indexed": false,
          "internalType": "string",
          "name": "tokenUri",
          "type": "string"
        }
      ],
      "name": "Minted",
      "type": "event"
    },
    {
      "anonymous": false,
      "inputs": [
        {
          "indexed": true,
          "internalType": "address",
          "name": "userAddress",
          "type": "address"
        },
        {
          "indexed": false,
          "internalType": "string",
          "name": "goalId",
          "type": "string"
        }
      ],
      "name": "NutritionGoalAdded",
      "type": "event"
    },
    {
      "anonymous": false,
      "inputs": [
        {
          "indexed": true,
          "internalType": "address",
          "name": "userAddress",
          "type": "address"
        },
        {
          "indexed": false,
          "internalType": "string",
          "name": "goalId",
          "type": "string"
        }
      ],
      "name": "SportGoalAdded",
      "type": "event"
    },
    {
      "anonymous": false,
      "inputs": [
        {
          "indexed": true,
          "internalType": "address",
          "name": "userAddress",
          "type": "address"
        },
        {
          "indexed": false,
          "internalType": "string",
          "name": "metadata",
          "type": "string"
        }
      ],
      "name": "UserRegistered",
      "type": "event"
    },
    {
      "inputs": [
        {
          "internalType": "string",
          "name": "_activityId",
          "type": "string"
        }
      ],
      "name": "addActivity",
      "outputs": [],
      "stateMutability": "nonpayable",
      "type": "function"
    },
    {
      "inputs": [
        {
          "internalType": "string",
          "name": "_goalId",
          "type": "string"
        }
      ],
      "name": "addNutritionGoal",
      "outputs": [],
      "stateMutability": "nonpayable",
      "type": "function"
    },
    {
      "inputs": [
        {
          "internalType": "string",
          "name": "_goalId",
          "type": "string"
        }
      ],
      "name": "addSportGoal",
      "outputs": [],
      "stateMutability": "nonpayable",
      "type": "function"
    },
    {
      "inputs": [
        {
          "internalType": "uint256",
          "name": "",
          "type": "uint256"
        }
      ],
      "name": "allUsers",
      "outputs": [
        {
          "internalType": "address",
          "name": "",
          "type": "address"
        }
      ],
      "stateMutability": "view",
      "type": "function"
    },
    {
      "inputs": [],
      "name": "getAllUsers",
      "outputs": [
        {
          "internalType": "address[]",
          "name": "",
          "type": "address[]"
        }
      ],
      "stateMutability": "view",
      "type": "function"
    },
    {
      "inputs": [],
      "name": "getUserCount",
      "outputs": [
        {
          "internalType": "uint256",
          "name": "",
          "type": "uint256"
        }
      ],
      "stateMutability": "view",
      "type": "function"
    },
    {
      "inputs": [],
      "name": "getUserDetails",
      "outputs": [
        {
          "components": [
            {
              "internalType": "string",
              "name": "metadata",
              "type": "string"
            },
            {
              "internalType": "string[]",
              "name": "activityIds",
              "type": "string[]"
            },
            {
              "internalType": "string[]",
              "name": "sportGoalIds",
              "type": "string[]"
            },
            {
              "internalType": "string[]",
              "name": "nutritionGoalIds",
              "type": "string[]"
            },
            {
              "components": [
                {
                  "internalType": "string",
                  "name": "botName",
                  "type": "string"
                },
                {
                  "internalType": "uint256",
                  "name": "messagesId",
                  "type": "uint256"
                }
              ],
              "internalType": "struct IAthl3teStructs.PersonalAssistant[]",
              "name": "purchasedAssistants",
              "type": "tuple[]"
            },
            {
              "internalType": "string",
              "name": "injuriesDescriptionId",
              "type": "string"
            },
            {
              "internalType": "uint256[]",
              "name": "nftTokenIds",
              "type": "uint256[]"
            },
            {
              "internalType": "bool",
              "name": "isRegistered",
              "type": "bool"
            },
            {
              "internalType": "string[]",
              "name": "joinedCommunities",
              "type": "string[]"
            }
          ],
          "internalType": "struct IAthl3teStructs.User",
          "name": "",
          "type": "tuple"
        }
      ],
      "stateMutability": "view",
      "type": "function"
    },
    {
      "inputs": [
        {
          "internalType": "address",
          "name": "_userAddress",
          "type": "address"
        }
      ],
      "name": "getUserDetails",
      "outputs": [
        {
          "components": [
            {
              "internalType": "string",
              "name": "metadata",
              "type": "string"
            },
            {
              "internalType": "string[]",
              "name": "activityIds",
              "type": "string[]"
            },
            {
              "internalType": "string[]",
              "name": "sportGoalIds",
              "type": "string[]"
            },
            {
              "internalType": "string[]",
              "name": "nutritionGoalIds",
              "type": "string[]"
            },
            {
              "components": [
                {
                  "internalType": "string",
                  "name": "botName",
                  "type": "string"
                },
                {
                  "internalType": "uint256",
                  "name": "messagesId",
                  "type": "uint256"
                }
              ],
              "internalType": "struct IAthl3teStructs.PersonalAssistant[]",
              "name": "purchasedAssistants",
              "type": "tuple[]"
            },
            {
              "internalType": "string",
              "name": "injuriesDescriptionId",
              "type": "string"
            },
            {
              "internalType": "uint256[]",
              "name": "nftTokenIds",
              "type": "uint256[]"
            },
            {
              "internalType": "bool",
              "name": "isRegistered",
              "type": "bool"
            },
            {
              "internalType": "string[]",
              "name": "joinedCommunities",
              "type": "string[]"
            }
          ],
          "internalType": "struct IAthl3teStructs.User",
          "name": "",
          "type": "tuple"
        }
      ],
      "stateMutability": "view",
      "type": "function"
    },
    {
      "inputs": [
        {
          "internalType": "address",
          "name": "_user",
          "type": "address"
        }
      ],
      "name": "isUserRegistered",
      "outputs": [
        {
          "internalType": "bool",
          "name": "",
          "type": "bool"
        }
      ],
      "stateMutability": "view",
      "type": "function"
    },
    {
      "inputs": [
        {
          "internalType": "string",
          "name": "_metadata",
          "type": "string"
        }
      ],
      "name": "registerUser",
      "outputs": [],
      "stateMutability": "nonpayable",
      "type": "function"
    },
    {
      "inputs": [
        {
          "internalType": "string",
          "name": "_injuryId",
          "type": "string"
        }
      ],
      "name": "updateInjury",
      "outputs": [],
      "stateMutability": "nonpayable",
      "type": "function"
    },
    {
      "inputs": [
        {
          "internalType": "address",
          "name": "",
          "type": "address"
        }
      ],
      "name": "users",
      "outputs": [
        {
          "internalType": "string",
          "name": "metadata",
          "type": "string"
        },
        {
          "internalType": "string",
          "name": "injuriesDescriptionId",
          "type": "string"
        },
        {
          "internalType": "bool",
          "name": "isRegistered",
          "type": "bool"
        }
      ],
      "stateMutability": "view",
      "type": "function"
    }
  ],
  "bytecode": "0x608060405234801561001057600080fd5b50612a29806100206000396000f3fe608060405234801561001057600080fd5b50600436106100b45760003560e01c8063a2bdedf411610071578063a2bdedf414610177578063a87430ba146101a7578063b5cb15f7146101d9578063b841e45a146101f7578063cc3d967b14610213578063e2842d7914610243576100b4565b8063163f7522146100b95780633fccb4a5146100e9578063610693e714610105578063704f1b9414610121578063903d36261461013d578063942886be14610159575b600080fd5b6100d360048036038101906100ce9190611c18565b610261565b6040516100e09190611c60565b60405180910390f35b61010360048036038101906100fe9190611ce0565b6102b9565b005b61011f600480360381019061011a9190611ce0565b6103ed565b005b61013b60048036038101906101369190611ce0565b610521565b005b61015760048036038101906101529190611ce0565b610721565b005b610161610855565b60405161016e919061214b565b60405180910390f35b610191600480360381019061018c9190612199565b610f30565b60405161019e91906121d5565b60405180910390f35b6101c160048036038101906101bc9190611c18565b610f6f565b6040516101d09392919061223a565b60405180910390f35b6101e16110b6565b6040516101ee919061228e565b60405180910390f35b610211600480360381019061020c9190611ce0565b6110c3565b005b61022d60048036038101906102289190611c18565b6111f7565b60405161023a919061214b565b60405180910390f35b61024b6118d4565b6040516102589190612367565b60405180910390f35b60008060008373ffffffffffffffffffffffffffffffffffffffff1673ffffffffffffffffffffffffffffffffffffffff16815260200190815260200160002060070160009054906101000a900460ff169050919050565b6000803373ffffffffffffffffffffffffffffffffffffffff1673ffffffffffffffffffffffffffffffffffffffff16815260200190815260200160002060070160009054906101000a900460ff16610347576040517f08c379a000000000000000000000000000000000000000000000000000000000815260040161033e906123d5565b60405180910390fd5b61039982826000803373ffffffffffffffffffffffffffffffffffffffff1673ffffffffffffffffffffffffffffffffffffffff1681526020019081526020016000206119629092919063ffffffff16565b3373ffffffffffffffffffffffffffffffffffffffff167fb8e50056db55e8c4b78f3aee6869149cc55c970443c6bfc700fa83a0b793ae2a83836040516103e1929190612431565b60405180910390a25050565b6000803373ffffffffffffffffffffffffffffffffffffffff1673ffffffffffffffffffffffffffffffffffffffff16815260200190815260200160002060070160009054906101000a900460ff1661047b576040517f08c379a0000000000000000000000000000000000000000000000000000000008152600401610472906123d5565b60405180910390fd5b6104cd82826000803373ffffffffffffffffffffffffffffffffffffffff1673ffffffffffffffffffffffffffffffffffffffff1681526020019081526020016000206119ed9092919063ffffffff16565b3373ffffffffffffffffffffffffffffffffffffffff167ffb02f8b5008bb4e6551ac10938980a836239b9187014ad8bd7d4166234196a998383604051610515929190612431565b60405180910390a25050565b6000803373ffffffffffffffffffffffffffffffffffffffff1673ffffffffffffffffffffffffffffffffffffffff16815260200190815260200160002060070160009054906101000a900460ff16156105b0576040517f08c379a00000000000000000000000000000000000000000000000000000000081526004016105a7906124a1565b60405180910390fd5b600082829050116105f6576040517f08c379a00000000000000000000000000000000000000000000000000000000081526004016105ed9061250d565b60405180910390fd5b60008060003373ffffffffffffffffffffffffffffffffffffffff1673ffffffffffffffffffffffffffffffffffffffff168152602001908152602001600020905060018160070160006101000a81548160ff0219169083151502179055508282826000019182610668929190612773565b506001339080600181540180825580915050600190039060005260206000200160009091909190916101000a81548173ffffffffffffffffffffffffffffffffffffffff021916908373ffffffffffffffffffffffffffffffffffffffff1602179055503373ffffffffffffffffffffffffffffffffffffffff167f48cac28ad4dc618e15f4c2dd5e97751182f166de97b25618318b2112aa951a2f8484604051610714929190612431565b60405180910390a2505050565b6000803373ffffffffffffffffffffffffffffffffffffffff1673ffffffffffffffffffffffffffffffffffffffff16815260200190815260200160002060070160009054906101000a900460ff166107af576040517f08c379a00000000000000000000000000000000000000000000000000000000081526004016107a6906123d5565b60405180910390fd5b61080182826000803373ffffffffffffffffffffffffffffffffffffffff1673ffffffffffffffffffffffffffffffffffffffff168152602001908152602001600020611a4c9092919063ffffffff16565b3373ffffffffffffffffffffffffffffffffffffffff167f9fea722a78bc03b22869a8fa8db043e542f7b63a042973693e67dfb1c5baaea48383604051610849929190612431565b60405180910390a25050565b61085d611b62565b6000803373ffffffffffffffffffffffffffffffffffffffff1673ffffffffffffffffffffffffffffffffffffffff16815260200190815260200160002060070160009054906101000a900460ff166108eb576040517f08c379a00000000000000000000000000000000000000000000000000000000081526004016108e2906123d5565b60405180910390fd5b6000803373ffffffffffffffffffffffffffffffffffffffff1673ffffffffffffffffffffffffffffffffffffffff1681526020019081526020016000206040518061012001604052908160008201805461094590612596565b80601f016020809104026020016040519081016040528092919081815260200182805461097190612596565b80156109be5780601f10610993576101008083540402835291602001916109be565b820191906000526020600020905b8154815290600101906020018083116109a157829003601f168201915b5050505050815260200160018201805480602002602001604051908101604052809291908181526020016000905b82821015610a98578382906000526020600020018054610a0b90612596565b80601f0160208091040260200160405190810160405280929190818152602001828054610a3790612596565b8015610a845780601f10610a5957610100808354040283529160200191610a84565b820191906000526020600020905b815481529060010190602001808311610a6757829003601f168201915b5050505050815260200190600101906109ec565b50505050815260200160028201805480602002602001604051908101604052809291908181526020016000905b82821015610b71578382906000526020600020018054610ae490612596565b80601f0160208091040260200160405190810160405280929190818152602001828054610b1090612596565b8015610b5d5780601f10610b3257610100808354040283529160200191610b5d565b820191906000526020600020905b815481529060010190602001808311610b4057829003601f168201915b505050505081526020019060010190610ac5565b50505050815260200160038201805480602002602001604051908101604052809291908181526020016000905b82821015610c4a578382906000526020600020018054610bbd90612596565b80601f0160208091040260200160405190810160405280929190818152602001828054610be990612596565b8015610c365780601f10610c0b57610100808354040283529160200191610c36565b820191906000526020600020905b815481529060010190602001808311610c1957829003601f168201915b505050505081526020019060010190610b9e565b50505050815260200160048201805480602002602001604051908101604052809291908181526020016000905b82821015610d455783829060005260206000209060020201604051806040016040529081600082018054610caa90612596565b80601f0160208091040260200160405190810160405280929190818152602001828054610cd690612596565b8015610d235780601f10610cf857610100808354040283529160200191610d23565b820191906000526020600020905b815481529060010190602001808311610d0657829003601f168201915b5050505050815260200160018201548152505081526020019060010190610c77565b505050508152602001600582018054610d5d90612596565b80601f0160208091040260200160405190810160405280929190818152602001828054610d8990612596565b8015610dd65780601f10610dab57610100808354040283529160200191610dd6565b820191906000526020600020905b815481529060010190602001808311610db957829003601f168201915b5050505050815260200160068201805480602002602001604051908101604052809291908181526020018280548015610e2e57602002820191906000526020600020905b815481526020019060010190808311610e1a575b505050505081526020016007820160009054906101000a900460ff1615151515815260200160088201805480602002602001604051908101604052809291908181526020016000905b82821015610f23578382906000526020600020018054610e9690612596565b80601f0160208091040260200160405190810160405280929190818152602001828054610ec290612596565b8015610f0f5780601f10610ee457610100808354040283529160200191610f0f565b820191906000526020600020905b815481529060010190602001808311610ef257829003601f168201915b505050505081526020019060010190610e77565b5050505081525050905090565b60018181548110610f4057600080fd5b906000526020600020016000915054906101000a900473ffffffffffffffffffffffffffffffffffffffff1681565b6000602052806000526040600020600091509050806000018054610f9290612596565b80601f0160208091040260200160405190810160405280929190818152602001828054610fbe90612596565b801561100b5780601f10610fe05761010080835404028352916020019161100b565b820191906000526020600020905b815481529060010190602001808311610fee57829003601f168201915b50505050509080600501805461102090612596565b80601f016020809104026020016040519081016040528092919081815260200182805461104c90612596565b80156110995780601f1061106e57610100808354040283529160200191611099565b820191906000526020600020905b81548152906001019060200180831161107c57829003601f168201915b5050505050908060070160009054906101000a900460ff16905083565b6000600180549050905090565b6000803373ffffffffffffffffffffffffffffffffffffffff1673ffffffffffffffffffffffffffffffffffffffff16815260200190815260200160002060070160009054906101000a900460ff16611151576040517f08c379a0000000000000000000000000000000000000000000000000000000008152600401611148906123d5565b60405180910390fd5b6111a382826000803373ffffffffffffffffffffffffffffffffffffffff1673ffffffffffffffffffffffffffffffffffffffff168152602001908152602001600020611ad79092919063ffffffff16565b3373ffffffffffffffffffffffffffffffffffffffff167f9dc5c994cee1ffa2e2c3fc4d4d0d9e24511eb0ceef3efe59ff6f57eda374bb2783836040516111eb929190612431565b60405180910390a25050565b6111ff611b62565b6000808373ffffffffffffffffffffffffffffffffffffffff1673ffffffffffffffffffffffffffffffffffffffff16815260200190815260200160002060070160009054906101000a900460ff1661128d576040517f08c379a00000000000000000000000000000000000000000000000000000000081526004016112849061288f565b60405180910390fd5b6000808373ffffffffffffffffffffffffffffffffffffffff1673ffffffffffffffffffffffffffffffffffffffff168152602001908152602001600020604051806101200160405290816000820180546112e790612596565b80601f016020809104026020016040519081016040528092919081815260200182805461131390612596565b80156113605780601f1061133557610100808354040283529160200191611360565b820191906000526020600020905b81548152906001019060200180831161134357829003601f168201915b5050505050815260200160018201805480602002602001604051908101604052809291908181526020016000905b8282101561143a5783829060005260206000200180546113ad90612596565b80601f01602080910402602001604051908101604052809291908181526020018280546113d990612596565b80156114265780601f106113fb57610100808354040283529160200191611426565b820191906000526020600020905b81548152906001019060200180831161140957829003601f168201915b50505050508152602001906001019061138e565b50505050815260200160028201805480602002602001604051908101604052809291908181526020016000905b8282101561151357838290600052602060002001805461148690612596565b80601f01602080910402602001604051908101604052809291908181526020018280546114b290612596565b80156114ff5780601f106114d4576101008083540402835291602001916114ff565b820191906000526020600020905b8154815290600101906020018083116114e257829003601f168201915b505050505081526020019060010190611467565b50505050815260200160038201805480602002602001604051908101604052809291908181526020016000905b828210156115ec57838290600052602060002001805461155f90612596565b80601f016020809104026020016040519081016040528092919081815260200182805461158b90612596565b80156115d85780601f106115ad576101008083540402835291602001916115d8565b820191906000526020600020905b8154815290600101906020018083116115bb57829003601f168201915b505050505081526020019060010190611540565b50505050815260200160048201805480602002602001604051908101604052809291908181526020016000905b828210156116e7578382906000526020600020906002020160405180604001604052908160008201805461164c90612596565b80601f016020809104026020016040519081016040528092919081815260200182805461167890612596565b80156116c55780601f1061169a576101008083540402835291602001916116c5565b820191906000526020600020905b8154815290600101906020018083116116a857829003601f168201915b5050505050815260200160018201548152505081526020019060010190611619565b5050505081526020016005820180546116ff90612596565b80601f016020809104026020016040519081016040528092919081815260200182805461172b90612596565b80156117785780601f1061174d57610100808354040283529160200191611778565b820191906000526020600020905b81548152906001019060200180831161175b57829003601f168201915b50505050508152602001600682018054806020026020016040519081016040528092919081815260200182805480156117d057602002820191906000526020600020905b8154815260200190600101908083116117bc575b505050505081526020016007820160009054906101000a900460ff1615151515815260200160088201805480602002602001604051908101604052809291908181526020016000905b828210156118c557838290600052602060002001805461183890612596565b80601f016020809104026020016040519081016040528092919081815260200182805461186490612596565b80156118b15780601f10611886576101008083540402835291602001916118b1565b820191906000526020600020905b81548152906001019060200180831161189457829003601f168201915b505050505081526020019060010190611819565b50505050815250509050919050565b6060600180548060200260200160405190810160405280929190818152602001828054801561195857602002820191906000526020600020905b8160009054906101000a900473ffffffffffffffffffffffffffffffffffffffff1673ffffffffffffffffffffffffffffffffffffffff168152602001906001019080831161190e575b5050505050905090565b600082829050116119a8576040517f08c379a000000000000000000000000000000000000000000000000000000000815260040161199f906128fb565b60405180910390fd5b826002018282909180600181540180825580915050600190039060005260206000200160009091929091929091929091925091826119e7929190612773565b50505050565b60008282905011611a33576040517f08c379a0000000000000000000000000000000000000000000000000000000008152600401611a2a90612967565b60405180910390fd5b8181846005019182611a46929190612773565b50505050565b60008282905011611a92576040517f08c379a0000000000000000000000000000000000000000000000000000000008152600401611a89906128fb565b60405180910390fd5b82600301828290918060018154018082558091505060019003906000526020600020016000909192909192909192909192509182611ad1929190612773565b50505050565b60008282905011611b1d576040517f08c379a0000000000000000000000000000000000000000000000000000000008152600401611b14906129d3565b60405180910390fd5b82600101828290918060018154018082558091505060019003906000526020600020016000909192909192909192909192509182611b5c929190612773565b50505050565b60405180610120016040528060608152602001606081526020016060815260200160608152602001606081526020016060815260200160608152602001600015158152602001606081525090565b600080fd5b600080fd5b600073ffffffffffffffffffffffffffffffffffffffff82169050919050565b6000611be582611bba565b9050919050565b611bf581611bda565b8114611c0057600080fd5b50565b600081359050611c1281611bec565b92915050565b600060208284031215611c2e57611c2d611bb0565b5b6000611c3c84828501611c03565b91505092915050565b60008115159050919050565b611c5a81611c45565b82525050565b6000602082019050611c756000830184611c51565b92915050565b600080fd5b600080fd5b600080fd5b60008083601f840112611ca057611c9f611c7b565b5b8235905067ffffffffffffffff811115611cbd57611cbc611c80565b5b602083019150836001820283011115611cd957611cd8611c85565b5b9250929050565b60008060208385031215611cf757611cf6611bb0565b5b600083013567ffffffffffffffff811115611d1557611d14611bb5565b5b611d2185828601611c8a565b92509250509250929050565b600081519050919050565b600082825260208201905092915050565b60005b83811015611d67578082015181840152602081019050611d4c565b60008484015250505050565b6000601f19601f8301169050919050565b6000611d8f82611d2d565b611d998185611d38565b9350611da9818560208601611d49565b611db281611d73565b840191505092915050565b600081519050919050565b600082825260208201905092915050565b6000819050602082019050919050565b6000611df58383611d84565b905092915050565b6000602082019050919050565b6000611e1582611dbd565b611e1f8185611dc8565b935083602082028501611e3185611dd9565b8060005b85811015611e6d5784840389528151611e4e8582611de9565b9450611e5983611dfd565b925060208a01995050600181019050611e35565b50829750879550505050505092915050565b600081519050919050565b600082825260208201905092915050565b6000819050602082019050919050565b6000819050919050565b611ebe81611eab565b82525050565b60006040830160008301518482036000860152611ee18282611d84565b9150506020830151611ef66020860182611eb5565b508091505092915050565b6000611f0d8383611ec4565b905092915050565b6000602082019050919050565b6000611f2d82611e7f565b611f378185611e8a565b935083602082028501611f4985611e9b565b8060005b85811015611f855784840389528151611f668582611f01565b9450611f7183611f15565b925060208a01995050600181019050611f4d565b50829750879550505050505092915050565b600081519050919050565b600082825260208201905092915050565b6000819050602082019050919050565b6000611fcf8383611eb5565b60208301905092915050565b6000602082019050919050565b6000611ff382611f97565b611ffd8185611fa2565b935061200883611fb3565b8060005b838110156120395781516120208882611fc3565b975061202b83611fdb565b92505060018101905061200c565b5085935050505092915050565b61204f81611c45565b82525050565b60006101208301600083015184820360008601526120738282611d84565b9150506020830151848203602086015261208d8282611e0a565b915050604083015184820360408601526120a78282611e0a565b915050606083015184820360608601526120c18282611e0a565b915050608083015184820360808601526120db8282611f22565b91505060a083015184820360a08601526120f58282611d84565b91505060c083015184820360c086015261210f8282611fe8565b91505060e083015161212460e0860182612046565b5061010083015184820361010086015261213e8282611e0a565b9150508091505092915050565b600060208201905081810360008301526121658184612055565b905092915050565b61217681611eab565b811461218157600080fd5b50565b6000813590506121938161216d565b92915050565b6000602082840312156121af576121ae611bb0565b5b60006121bd84828501612184565b91505092915050565b6121cf81611bda565b82525050565b60006020820190506121ea60008301846121c6565b92915050565b600082825260208201905092915050565b600061220c82611d2d565b61221681856121f0565b9350612226818560208601611d49565b61222f81611d73565b840191505092915050565b600060608201905081810360008301526122548186612201565b905081810360208301526122688185612201565b90506122776040830184611c51565b949350505050565b61228881611eab565b82525050565b60006020820190506122a3600083018461227f565b92915050565b600081519050919050565b600082825260208201905092915050565b6000819050602082019050919050565b6122de81611bda565b82525050565b60006122f083836122d5565b60208301905092915050565b6000602082019050919050565b6000612314826122a9565b61231e81856122b4565b9350612329836122c5565b8060005b8381101561235a57815161234188826122e4565b975061234c836122fc565b92505060018101905061232d565b5085935050505092915050565b600060208201905081810360008301526123818184612309565b905092915050565b7f4e6f742072656769737465726564000000000000000000000000000000000000600082015250565b60006123bf600e836121f0565b91506123ca82612389565b602082019050919050565b600060208201905081810360008301526123ee816123b2565b9050919050565b82818337600083830152505050565b600061241083856121f0565b935061241d8385846123f5565b61242683611d73565b840190509392505050565b6000602082019050818103600083015261244c818486612404565b90509392505050565b7f5573657220616c72656164792072656769737465726564000000000000000000600082015250565b600061248b6017836121f0565b915061249682612455565b602082019050919050565b600060208201905081810360008301526124ba8161247e565b9050919050565b7f4d657461646174612063616e6e6f7420626520656d7074790000000000000000600082015250565b60006124f76018836121f0565b9150612502826124c1565b602082019050919050565b60006020820190508181036000830152612526816124ea565b9050919050565b600082905092915050565b7f4e487b7100000000000000000000000000000000000000000000000000000000600052604160045260246000fd5b7f4e487b7100000000000000000000000000000000000000000000000000000000600052602260045260246000fd5b600060028204905060018216806125ae57607f821691505b6020821081036125c1576125c0612567565b5b50919050565b60008190508160005260206000209050919050565b60006020601f8301049050919050565b600082821b905092915050565b6000600883026126297fffffffffffffffffffffffffffffffffffffffffffffffffffffffffffffffff826125ec565b61263386836125ec565b95508019841693508086168417925050509392505050565b6000819050919050565b600061267061266b61266684611eab565b61264b565b611eab565b9050919050565b6000819050919050565b61268a83612655565b61269e61269682612677565b8484546125f9565b825550505050565b600090565b6126b36126a6565b6126be818484612681565b505050565b5b818110156126e2576126d76000826126ab565b6001810190506126c4565b5050565b601f821115612727576126f8816125c7565b612701846125dc565b81016020851015612710578190505b61272461271c856125dc565b8301826126c3565b50505b505050565b600082821c905092915050565b600061274a6000198460080261272c565b1980831691505092915050565b60006127638383612739565b9150826002028217905092915050565b61277d838361252d565b67ffffffffffffffff81111561279657612795612538565b5b6127a08254612596565b6127ab8282856126e6565b6000601f8311600181146127da57600084156127c8578287013590505b6127d28582612757565b86555061283a565b601f1984166127e8866125c7565b60005b82811015612810578489013582556001820191506020850194506020810190506127eb565b8683101561282d5784890135612829601f891682612739565b8355505b6001600288020188555050505b50505050505050565b7f55736572206e6f74207265676973746572656400000000000000000000000000600082015250565b60006128796013836121f0565b915061288482612843565b602082019050919050565b600060208201905081810360008301526128a88161286c565b9050919050565b7f476f616c2049442063616e6e6f7420626520656d707479000000000000000000600082015250565b60006128e56017836121f0565b91506128f0826128af565b602082019050919050565b60006020820190508181036000830152612914816128d8565b9050919050565b7f496e6a7572792049442063616e6e6f7420626520656d70747900000000000000600082015250565b60006129516019836121f0565b915061295c8261291b565b602082019050919050565b6000602082019050818103600083015261298081612944565b9050919050565b7f41637469766974792049442063616e6e6f7420626520656d7074790000000000600082015250565b60006129bd601b836121f0565b91506129c882612987565b602082019050919050565b600060208201905081810360008301526129ec816129b0565b905091905056fea26469706673582212201ea8db7ed3b3b6c6c796a36a8fe355d11190e6b0f5f847c35604a82c2e977fc164736f6c63430008140033",
  "linkReferences": {},
  "deployedLinkReferences": {}
}