{
  "_format": "hh-sol-artifact-1",
  "contractName": "Athl3te",
  "sourceName": "contracts/Athl3te.sol",
  "abi": [
    {
      "inputs": [
        {
          "internalType": "string",
          "name": "name",
          "type": "string"
        },
        {
          "internalType": "string",
          "name": "symbol",
          "type": "string"
        }
      ],
      "stateMutability": "nonpayable",
      "type": "constructor"
    },
    {
      "anonymous": false,
      "inputs": [
        {
          "indexed": true,
          "internalType": "address",
          "name": "userAddress",
          "type": "address"
        },
        {
          "indexed": false,
          "internalType": "string",
          "name": "activityId",
          "type": "string"
        }
      ],
      "name": "ActivityAdded",
      "type": "event"
    },
    {
      "anonymous": false,
      "inputs": [
        {
          "indexed": true,
          "internalType": "address",
          "name": "owner",
          "type": "address"
        },
        {
          "indexed": true,
          "internalType": "address",
          "name": "approved",
          "type": "address"
        },
        {
          "indexed": true,
          "internalType": "uint256",
          "name": "tokenId",
          "type": "uint256"
        }
      ],
      "name": "Approval",
      "type": "event"
    },
    {
      "anonymous": false,
      "inputs": [
        {
          "indexed": true,
          "internalType": "address",
          "name": "owner",
          "type": "address"
        },
        {
          "indexed": true,
          "internalType": "address",
          "name": "operator",
          "type": "address"
        },
        {
          "indexed": false,
          "internalType": "bool",
          "name": "approved",
          "type": "bool"
        }
      ],
      "name": "ApprovalForAll",
      "type": "event"
    },
    {
      "anonymous": false,
      "inputs": [
        {
          "indexed": true,
          "internalType": "address",
          "name": "userAddress",
          "type": "address"
        },
        {
          "indexed": false,
          "internalType": "string",
          "name": "botName",
          "type": "string"
        },
        {
          "indexed": false,
          "internalType": "uint256",
          "name": "messagesId",
          "type": "uint256"
        }
      ],
      "name": "BotPurchased",
      "type": "event"
    },
    {
      "anonymous": false,
      "inputs": [
        {
          "indexed": true,
          "internalType": "string",
          "name": "communityName",
          "type": "string"
        },
        {
          "indexed": true,
          "internalType": "address",
          "name": "creator",
          "type": "address"
        },
        {
          "indexed": false,
          "internalType": "string",
          "name": "botName",
          "type": "string"
        },
        {
          "indexed": false,
          "internalType": "uint256",
          "name": "messagesId",
          "type": "uint256"
        }
      ],
      "name": "CommunityRoomCreated",
      "type": "event"
    },
    {
      "anonymous": false,
      "inputs": [
        {
          "indexed": true,
          "internalType": "address",
          "name": "userAddress",
          "type": "address"
        },
        {
          "indexed": false,
          "internalType": "string",
          "name": "communityName",
          "type": "string"
        }
      ],
      "name": "CommunityRoomJoined",
      "type": "event"
    },
    {
      "anonymous": false,
      "inputs": [
        {
          "indexed": true,
          "internalType": "address",
          "name": "userAddress",
          "type": "address"
        },
        {
          "indexed": false,
          "internalType": "string",
          "name": "injuryId",
          "type": "string"
        }
      ],
      "name": "InjuryUpdated",
      "type": "event"
    },
    {
      "anonymous": false,
      "inputs": [
        {
          "indexed": true,
          "internalType": "address",
          "name": "owner",
          "type": "address"
        },
        {
          "indexed": true,
          "internalType": "uint256",
          "name": "tokenId",
          "type": "uint256"
        },
        {
          "indexed": false,
          "internalType": "string",
          "name": "tokenUri",
          "type": "string"
        }
      ],
      "name": "Minted",
      "type": "event"
    },
    {
      "anonymous": false,
      "inputs": [
        {
          "indexed": true,
          "internalType": "address",
          "name": "userAddress",
          "type": "address"
        },
        {
          "indexed": false,
          "internalType": "string",
          "name": "goalId",
          "type": "string"
        }
      ],
      "name": "NutritionGoalAdded",
      "type": "event"
    },
    {
      "anonymous": false,
      "inputs": [
        {
          "indexed": true,
          "internalType": "address",
          "name": "previousOwner",
          "type": "address"
        },
        {
          "indexed": true,
          "internalType": "address",
          "name": "newOwner",
          "type": "address"
        }
      ],
      "name": "OwnershipTransferred",
      "type": "event"
    },
    {
      "anonymous": false,
      "inputs": [
        {
          "indexed": true,
          "internalType": "address",
          "name": "userAddress",
          "type": "address"
        },
        {
          "indexed": false,
          "internalType": "string",
          "name": "goalId",
          "type": "string"
        }
      ],
      "name": "SportGoalAdded",
      "type": "event"
    },
    {
      "anonymous": false,
      "inputs": [
        {
          "indexed": true,
          "internalType": "address",
          "name": "from",
          "type": "address"
        },
        {
          "indexed": true,
          "internalType": "address",
          "name": "to",
          "type": "address"
        },
        {
          "indexed": true,
          "internalType": "uint256",
          "name": "tokenId",
          "type": "uint256"
        }
      ],
      "name": "Transfer",
      "type": "event"
    },
    {
      "anonymous": false,
      "inputs": [
        {
          "indexed": true,
          "internalType": "address",
          "name": "userAddress",
          "type": "address"
        },
        {
          "indexed": false,
          "internalType": "string",
          "name": "metadata",
          "type": "string"
        }
      ],
      "name": "UserRegistered",
      "type": "event"
    },
    {
      "inputs": [
        {
          "internalType": "string",
          "name": "_activityId",
          "type": "string"
        }
      ],
      "name": "addActivity",
      "outputs": [],
      "stateMutability": "nonpayable",
      "type": "function"
    },
    {
      "inputs": [
        {
          "internalType": "string",
          "name": "_botName",
          "type": "string"
        },
        {
          "internalType": "uint256",
          "name": "_unlockCostInWei",
          "type": "uint256"
        }
      ],
      "name": "addBot",
      "outputs": [],
      "stateMutability": "nonpayable",
      "type": "function"
    },
    {
      "inputs": [
        {
          "internalType": "string",
          "name": "_goalId",
          "type": "string"
        }
      ],
      "name": "addNutritionGoal",
      "outputs": [],
      "stateMutability": "nonpayable",
      "type": "function"
    },
    {
      "inputs": [
        {
          "internalType": "string",
          "name": "_goalId",
          "type": "string"
        }
      ],
      "name": "addSportGoal",
      "outputs": [],
      "stateMutability": "nonpayable",
      "type": "function"
    },
    {
      "inputs": [
        {
          "internalType": "address",
          "name": "to",
          "type": "address"
        },
        {
          "internalType": "uint256",
          "name": "tokenId",
          "type": "uint256"
        }
      ],
      "name": "approve",
      "outputs": [],
      "stateMutability": "nonpayable",
      "type": "function"
    },
    {
      "inputs": [
        {
          "internalType": "address",
          "name": "owner",
          "type": "address"
        }
      ],
      "name": "balanceOf",
      "outputs": [
        {
          "internalType": "uint256",
          "name": "",
          "type": "uint256"
        }
      ],
      "stateMutability": "view",
      "type": "function"
    },
    {
      "inputs": [
        {
          "internalType": "string",
          "name": "_botName",
          "type": "string"
        }
      ],
      "name": "buyBot",
      "outputs": [],
      "stateMutability": "payable",
      "type": "function"
    },
    {
      "inputs": [
        {
          "internalType": "string",
          "name": "_communityName",
          "type": "string"
        },
        {
          "internalType": "string",
          "name": "_communityImage",
          "type": "string"
        },
        {
          "internalType": "string",
          "name": "_botName",
          "type": "string"
        }
      ],
      "name": "createCommunityRoom",
      "outputs": [],
      "stateMutability": "nonpayable",
      "type": "function"
    },
    {
      "inputs": [
        {
          "internalType": "address payable",
          "name": "_to",
          "type": "address"
        }
      ],
      "name": "emergencyWithdraw",
      "outputs": [],
      "stateMutability": "nonpayable",
      "type": "function"
    },
    {
      "inputs": [],
      "name": "getAllBotNames",
      "outputs": [
        {
          "internalType": "string[]",
          "name": "",
          "type": "string[]"
        }
      ],
      "stateMutability": "view",
      "type": "function"
    },
    {
      "inputs": [],
      "name": "getAllCommunityNames",
      "outputs": [
        {
          "internalType": "string[]",
          "name": "",
          "type": "string[]"
        }
      ],
      "stateMutability": "view",
      "type": "function"
    },
    {
      "inputs": [],
      "name": "getAllUsers",
      "outputs": [
        {
          "internalType": "address[]",
          "name": "",
          "type": "address[]"
        }
      ],
      "stateMutability": "view",
      "type": "function"
    },
    {
      "inputs": [
        {
          "internalType": "uint256",
          "name": "tokenId",
          "type": "uint256"
        }
      ],
      "name": "getApproved",
      "outputs": [
        {
          "internalType": "address",
          "name": "",
          "type": "address"
        }
      ],
      "stateMutability": "view",
      "type": "function"
    },
    {
      "inputs": [],
      "name": "getBotCount",
      "outputs": [
        {
          "internalType": "uint256",
          "name": "",
          "type": "uint256"
        }
      ],
      "stateMutability": "view",
      "type": "function"
    },
    {
      "inputs": [
        {
          "internalType": "string",
          "name": "_botName",
          "type": "string"
        }
      ],
      "name": "getBotDetails",
      "outputs": [
        {
          "components": [
            {
              "internalType": "string",
              "name": "botName",
              "type": "string"
            },
            {
              "internalType": "uint256",
              "name": "unlockCostInWei",
              "type": "uint256"
            },
            {
              "internalType": "bool",
              "name": "exists",
              "type": "bool"
            }
          ],
          "internalType": "struct IAthl3teStructs.Bot",
          "name": "",
          "type": "tuple"
        }
      ],
      "stateMutability": "view",
      "type": "function"
    },
    {
      "inputs": [],
      "name": "getCommunityCount",
      "outputs": [
        {
          "internalType": "uint256",
          "name": "",
          "type": "uint256"
        }
      ],
      "stateMutability": "view",
      "type": "function"
    },
    {
      "inputs": [
        {
          "internalType": "string",
          "name": "_communityName",
          "type": "string"
        }
      ],
      "name": "getCommunityMembers",
      "outputs": [
        {
          "internalType": "address[]",
          "name": "",
          "type": "address[]"
        }
      ],
      "stateMutability": "view",
      "type": "function"
    },
    {
      "inputs": [
        {
          "internalType": "string",
          "name": "_communityName",
          "type": "string"
        }
      ],
      "name": "getCommunityRoomDetails",
      "outputs": [
        {
          "components": [
            {
              "internalType": "string",
              "name": "communityName",
              "type": "string"
            },
            {
              "internalType": "string",
              "name": "communityImage",
              "type": "string"
            },
            {
              "internalType": "string",
              "name": "botName",
              "type": "string"
            },
            {
              "internalType": "address",
              "name": "createdBy",
              "type": "address"
            },
            {
              "internalType": "uint256",
              "name": "messagesId",
              "type": "uint256"
            },
            {
              "internalType": "address[]",
              "name": "members",
              "type": "address[]"
            }
          ],
          "internalType": "struct IAthl3teStructs.CommunityRoom",
          "name": "",
          "type": "tuple"
        }
      ],
      "stateMutability": "view",
      "type": "function"
    },
    {
      "inputs": [
        {
          "internalType": "uint256",
          "name": "tokenId",
          "type": "uint256"
        }
      ],
      "name": "getNftUri",
      "outputs": [
        {
          "internalType": "string",
          "name": "",
          "type": "string"
        }
      ],
      "stateMutability": "view",
      "type": "function"
    },
    {
      "inputs": [],
      "name": "getUserCommunities",
      "outputs": [
        {
          "internalType": "string[]",
          "name": "",
          "type": "string[]"
        }
      ],
      "stateMutability": "view",
      "type": "function"
    },
    {
      "inputs": [],
      "name": "getUserCount",
      "outputs": [
        {
          "internalType": "uint256",
          "name": "",
          "type": "uint256"
        }
      ],
      "stateMutability": "view",
      "type": "function"
    },
    {
      "inputs": [],
      "name": "getUserDetails",
      "outputs": [
        {
          "components": [
            {
              "internalType": "string",
              "name": "metadata",
              "type": "string"
            },
            {
              "internalType": "string[]",
              "name": "activityIds",
              "type": "string[]"
            },
            {
              "internalType": "string[]",
              "name": "sportGoalIds",
              "type": "string[]"
            },
            {
              "internalType": "string[]",
              "name": "nutritionGoalIds",
              "type": "string[]"
            },
            {
              "components": [
                {
                  "internalType": "string",
                  "name": "botName",
                  "type": "string"
                },
                {
                  "internalType": "uint256",
                  "name": "messagesId",
                  "type": "uint256"
                }
              ],
              "internalType": "struct IAthl3teStructs.PersonalAssistant[]",
              "name": "purchasedAssistants",
              "type": "tuple[]"
            },
            {
              "internalType": "string",
              "name": "injuriesDescriptionId",
              "type": "string"
            },
            {
              "internalType": "uint256[]",
              "name": "nftTokenIds",
              "type": "uint256[]"
            },
            {
              "internalType": "bool",
              "name": "isRegistered",
              "type": "bool"
            },
            {
              "internalType": "string[]",
              "name": "joinedCommunities",
              "type": "string[]"
            }
          ],
          "internalType": "struct IAthl3teStructs.User",
          "name": "",
          "type": "tuple"
        }
      ],
      "stateMutability": "view",
      "type": "function"
    },
    {
      "inputs": [
        {
          "internalType": "address",
          "name": "_userAddress",
          "type": "address"
        }
      ],
      "name": "getUserDetails",
      "outputs": [
        {
          "components": [
            {
              "internalType": "string",
              "name": "metadata",
              "type": "string"
            },
            {
              "internalType": "string[]",
              "name": "activityIds",
              "type": "string[]"
            },
            {
              "internalType": "string[]",
              "name": "sportGoalIds",
              "type": "string[]"
            },
            {
              "internalType": "string[]",
              "name": "nutritionGoalIds",
              "type": "string[]"
            },
            {
              "components": [
                {
                  "internalType": "string",
                  "name": "botName",
                  "type": "string"
                },
                {
                  "internalType": "uint256",
                  "name": "messagesId",
                  "type": "uint256"
                }
              ],
              "internalType": "struct IAthl3teStructs.PersonalAssistant[]",
              "name": "purchasedAssistants",
              "type": "tuple[]"
            },
            {
              "internalType": "string",
              "name": "injuriesDescriptionId",
              "type": "string"
            },
            {
              "internalType": "uint256[]",
              "name": "nftTokenIds",
              "type": "uint256[]"
            },
            {
              "internalType": "bool",
              "name": "isRegistered",
              "type": "bool"
            },
            {
              "internalType": "string[]",
              "name": "joinedCommunities",
              "type": "string[]"
            }
          ],
          "internalType": "struct IAthl3teStructs.User",
          "name": "",
          "type": "tuple"
        }
      ],
      "stateMutability": "view",
      "type": "function"
    },
    {
      "inputs": [
        {
          "internalType": "address",
          "name": "_user",
          "type": "address"
        }
      ],
      "name": "getUserNftCount",
      "outputs": [
        {
          "internalType": "uint256",
          "name": "",
          "type": "uint256"
        }
      ],
      "stateMutability": "view",
      "type": "function"
    },
    {
      "inputs": [
        {
          "internalType": "address",
          "name": "_userAddress",
          "type": "address"
        }
      ],
      "name": "getUserPersonalAssistant",
      "outputs": [
        {
          "components": [
            {
              "internalType": "string",
              "name": "botName",
              "type": "string"
            },
            {
              "internalType": "uint256",
              "name": "messagesId",
              "type": "uint256"
            }
          ],
          "internalType": "struct IAthl3teStructs.PersonalAssistant[]",
          "name": "",
          "type": "tuple[]"
        }
      ],
      "stateMutability": "view",
      "type": "function"
    },
    {
      "inputs": [
        {
          "internalType": "address",
          "name": "owner",
          "type": "address"
        },
        {
          "internalType": "address",
          "name": "operator",
          "type": "address"
        }
      ],
      "name": "isApprovedForAll",
      "outputs": [
        {
          "internalType": "bool",
          "name": "",
          "type": "bool"
        }
      ],
      "stateMutability": "view",
      "type": "function"
    },
    {
      "inputs": [
        {
          "internalType": "address",
          "name": "_user",
          "type": "address"
        }
      ],
      "name": "isUserRegistered",
      "outputs": [
        {
          "internalType": "bool",
          "name": "",
          "type": "bool"
        }
      ],
      "stateMutability": "view",
      "type": "function"
    },
    {
      "inputs": [
        {
          "internalType": "string",
          "name": "_communityName",
          "type": "string"
        }
      ],
      "name": "joinCommunityRoom",
      "outputs": [],
      "stateMutability": "nonpayable",
      "type": "function"
    },
    {
      "inputs": [
        {
          "internalType": "string",
          "name": "uri",
          "type": "string"
        }
      ],
      "name": "mintNftWithUri",
      "outputs": [],
      "stateMutability": "nonpayable",
      "type": "function"
    },
    {
      "inputs": [],
      "name": "name",
      "outputs": [
        {
          "internalType": "string",
          "name": "",
          "type": "string"
        }
      ],
      "stateMutability": "view",
      "type": "function"
    },
    {
      "inputs": [],
      "name": "owner",
      "outputs": [
        {
          "internalType": "address",
          "name": "",
          "type": "address"
        }
      ],
      "stateMutability": "view",
      "type": "function"
    },
    {
      "inputs": [
        {
          "internalType": "uint256",
          "name": "tokenId",
          "type": "uint256"
        }
      ],
      "name": "ownerOf",
      "outputs": [
        {
          "internalType": "address",
          "name": "",
          "type": "address"
        }
      ],
      "stateMutability": "view",
      "type": "function"
    },
    {
      "inputs": [
        {
          "internalType": "string",
          "name": "_metadata",
          "type": "string"
        }
      ],
      "name": "registerUser",
      "outputs": [],
      "stateMutability": "nonpayable",
      "type": "function"
    },
    {
      "inputs": [
        {
          "internalType": "string",
          "name": "_botName",
          "type": "string"
        }
      ],
      "name": "removeBot",
      "outputs": [],
      "stateMutability": "nonpayable",
      "type": "function"
    },
    {
      "inputs": [],
      "name": "renounceOwnership",
      "outputs": [],
      "stateMutability": "nonpayable",
      "type": "function"
    },
    {
      "inputs": [
        {
          "internalType": "address",
          "name": "from",
          "type": "address"
        },
        {
          "internalType": "address",
          "name": "to",
          "type": "address"
        },
        {
          "internalType": "uint256",
          "name": "tokenId",
          "type": "uint256"
        }
      ],
      "name": "safeTransferFrom",
      "outputs": [],
      "stateMutability": "nonpayable",
      "type": "function"
    },
    {
      "inputs": [
        {
          "internalType": "address",
          "name": "from",
          "type": "address"
        },
        {
          "internalType": "address",
          "name": "to",
          "type": "address"
        },
        {
          "internalType": "uint256",
          "name": "tokenId",
          "type": "uint256"
        },
        {
          "internalType": "bytes",
          "name": "_data",
          "type": "bytes"
        }
      ],
      "name": "safeTransferFrom",
      "outputs": [],
      "stateMutability": "nonpayable",
      "type": "function"
    },
    {
      "inputs": [
        {
          "internalType": "address",
          "name": "operator",
          "type": "address"
        },
        {
          "internalType": "bool",
          "name": "approved",
          "type": "bool"
        }
      ],
      "name": "setApprovalForAll",
      "outputs": [],
      "stateMutability": "nonpayable",
      "type": "function"
    },
    {
      "inputs": [
        {
          "internalType": "bytes4",
          "name": "interfaceId",
          "type": "bytes4"
        }
      ],
      "name": "supportsInterface",
      "outputs": [
        {
          "internalType": "bool",
          "name": "",
          "type": "bool"
        }
      ],
      "stateMutability": "view",
      "type": "function"
    },
    {
      "inputs": [],
      "name": "symbol",
      "outputs": [
        {
          "internalType": "string",
          "name": "",
          "type": "string"
        }
      ],
      "stateMutability": "view",
      "type": "function"
    },
    {
      "inputs": [
        {
          "internalType": "uint256",
          "name": "tokenId",
          "type": "uint256"
        }
      ],
      "name": "tokenURI",
      "outputs": [
        {
          "internalType": "string",
          "name": "",
          "type": "string"
        }
      ],
      "stateMutability": "view",
      "type": "function"
    },
    {
      "inputs": [
        {
          "internalType": "address",
          "name": "from",
          "type": "address"
        },
        {
          "internalType": "address",
          "name": "to",
          "type": "address"
        },
        {
          "internalType": "uint256",
          "name": "tokenId",
          "type": "uint256"
        }
      ],
      "name": "transferFrom",
      "outputs": [],
      "stateMutability": "nonpayable",
      "type": "function"
    },
    {
      "inputs": [
        {
          "internalType": "address",
          "name": "newOwner",
          "type": "address"
        }
      ],
      "name": "transferOwnership",
      "outputs": [],
      "stateMutability": "nonpayable",
      "type": "function"
    },
    {
      "inputs": [
        {
          "internalType": "string",
          "name": "_botName",
          "type": "string"
        },
        {
          "internalType": "uint256",
          "name": "_newCost",
          "type": "uint256"
        }
      ],
      "name": "updateBotCost",
      "outputs": [],
      "stateMutability": "nonpayable",
      "type": "function"
    },
    {
      "inputs": [
        {
          "internalType": "string",
          "name": "_injuryId",
          "type": "string"
        }
      ],
      "name": "updateInjury",
      "outputs": [],
      "stateMutability": "nonpayable",
      "type": "function"
    },
    {
      "inputs": [],
      "name": "withdraw",
      "outputs": [],
      "stateMutability": "nonpayable",
      "type": "function"
    }
  ],
  "bytecode": "0x60806040523480156200001157600080fd5b5060405162008bbb38038062008bbb8339818101604052810190620000379190620002f8565b818181600090816200004a9190620005c8565b5080600190816200005c9190620005c8565b5050506200007f620000736200009760201b60201c565b6200009f60201b60201c565b600160078190555060016008819055505050620006af565b600033905090565b6000600660009054906101000a900473ffffffffffffffffffffffffffffffffffffffff16905081600660006101000a81548173ffffffffffffffffffffffffffffffffffffffff021916908373ffffffffffffffffffffffffffffffffffffffff1602179055508173ffffffffffffffffffffffffffffffffffffffff168173ffffffffffffffffffffffffffffffffffffffff167f8be0079c531659141344cd1fd0a4f28419497f9722a3daafe3b4186f6b6457e060405160405180910390a35050565b6000604051905090565b600080fd5b600080fd5b600080fd5b600080fd5b6000601f19601f8301169050919050565b7f4e487b7100000000000000000000000000000000000000000000000000000000600052604160045260246000fd5b620001ce8262000183565b810181811067ffffffffffffffff82111715620001f057620001ef62000194565b5b80604052505050565b60006200020562000165565b9050620002138282620001c3565b919050565b600067ffffffffffffffff82111562000236576200023562000194565b5b620002418262000183565b9050602081019050919050565b60005b838110156200026e57808201518184015260208101905062000251565b60008484015250505050565b6000620002916200028b8462000218565b620001f9565b905082815260208101848484011115620002b057620002af6200017e565b5b620002bd8482856200024e565b509392505050565b600082601f830112620002dd57620002dc62000179565b5b8151620002ef8482602086016200027a565b91505092915050565b600080604083850312156200031257620003116200016f565b5b600083015167ffffffffffffffff81111562000333576200033262000174565b5b6200034185828601620002c5565b925050602083015167ffffffffffffffff81111562000365576200036462000174565b5b6200037385828601620002c5565b9150509250929050565b600081519050919050565b7f4e487b7100000000000000000000000000000000000000000000000000000000600052602260045260246000fd5b60006002820490506001821680620003d057607f821691505b602082108103620003e657620003e562000388565b5b50919050565b60008190508160005260206000209050919050565b60006020601f8301049050919050565b600082821b905092915050565b600060088302620004507fffffffffffffffffffffffffffffffffffffffffffffffffffffffffffffffff8262000411565b6200045c868362000411565b95508019841693508086168417925050509392505050565b6000819050919050565b6000819050919050565b6000620004a9620004a36200049d8462000474565b6200047e565b62000474565b9050919050565b6000819050919050565b620004c58362000488565b620004dd620004d482620004b0565b8484546200041e565b825550505050565b600090565b620004f4620004e5565b62000501818484620004ba565b505050565b5b8181101562000529576200051d600082620004ea565b60018101905062000507565b5050565b601f82111562000578576200054281620003ec565b6200054d8462000401565b810160208510156200055d578190505b620005756200056c8562000401565b83018262000506565b50505b505050565b600082821c905092915050565b60006200059d600019846008026200057d565b1980831691505092915050565b6000620005b883836200058a565b9150826002028217905092915050565b620005d3826200037d565b67ffffffffffffffff811115620005ef57620005ee62000194565b5b620005fb8254620003b7565b620006088282856200052d565b600060209050601f8311600181146200064057600084156200062b578287015190505b620006378582620005aa565b865550620006a7565b601f1984166200065086620003ec565b60005b828110156200067a5784890151825560018201915060208501945060208101905062000653565b868310156200069a578489015162000696601f8916826200058a565b8355505b6001600288020188555050505b505050505050565b6184fc80620006bf6000396000f3fe60806040526004361061027d5760003560e01c806375ad64041161014f578063b841e45a116100c1578063c87b56dd1161007a578063c87b56dd14610995578063cc3d967b146109d2578063e2842d7914610a0f578063e7d9884014610a3a578063e985e9c514610a77578063f2fde38b14610ab45761027d565b8063b841e45a14610896578063b84f14b7146108bf578063b88d4fde146108db578063b8b86a3014610904578063ba0fac151461092d578063c122b3cb1461096a5761027d565b8063942886be11610113578063942886be1461079857806395d89b41146107c35780639f9783e4146107ee578063a22cb46514610817578063b028e96714610840578063b5cb15f71461086b5761027d565b806375ad6404146106b157806379181eea146106dc5780638272e1d4146107195780638da5cb5b14610744578063903d36261461076f5761027d565b806342842e0e116101f35780636352211e116101ac5780636352211e146105a55780636ff1c9bc146105e2578063704f1b941461060b578063709d42bb1461063457806370a082311461065d578063715018a61461069a5761027d565b806342842e0e1461048557806343dfc73c146104ae5780634e78f923146104d757806351d19a4e1461051457806354d9ea151461053f578063610693e71461057c5761027d565b80631dd20a8b116102455780631dd20a8b1461038d578063226e4fd5146103b657806323b872dd146103df5780632980d80b146104085780633ccfd60b146104455780633fccb4a51461045c5761027d565b806301ffc9a71461028257806306fdde03146102bf578063081812fc146102ea578063095ea7b314610327578063163f752214610350575b600080fd5b34801561028e57600080fd5b506102a960048036038101906102a49190615a78565b610add565b6040516102b69190615ac0565b60405180910390f35b3480156102cb57600080fd5b506102d4610bbf565b6040516102e19190615b6b565b60405180910390f35b3480156102f657600080fd5b50610311600480360381019061030c9190615bc3565b610c51565b60405161031e9190615c31565b60405180910390f35b34801561033357600080fd5b5061034e60048036038101906103499190615c78565b610cd6565b005b34801561035c57600080fd5b5061037760048036038101906103729190615cb8565b610ded565b6040516103849190615ac0565b60405180910390f35b34801561039957600080fd5b506103b460048036038101906103af9190615d4a565b610e46565b005b3480156103c257600080fd5b506103dd60048036038101906103d89190615f2e565b61106b565b005b3480156103eb57600080fd5b5061040660048036038101906104019190615f77565b61122c565b005b34801561041457600080fd5b5061042f600480360381019061042a9190615bc3565b61128c565b60405161043c9190615b6b565b60405180910390f35b34801561045157600080fd5b5061045a611331565b005b34801561046857600080fd5b50610483600480360381019061047e9190615fca565b6114ac565b005b34801561049157600080fd5b506104ac60048036038101906104a79190615f77565b6115e2565b005b3480156104ba57600080fd5b506104d560048036038101906104d09190615fca565b611602565b005b3480156104e357600080fd5b506104fe60048036038101906104f99190615cb8565b611750565b60405161050b919061616f565b60405180910390f35b34801561052057600080fd5b5061052961191c565b60405161053691906161a0565b60405180910390f35b34801561054b57600080fd5b5061056660048036038101906105619190615fca565b611929565b6040516105739190616317565b60405180910390f35b34801561058857600080fd5b506105a3600480360381019061059e9190615fca565b611c5d565b005b3480156105b157600080fd5b506105cc60048036038101906105c79190615bc3565b611d93565b6040516105d99190615c31565b60405180910390f35b3480156105ee57600080fd5b5061060960048036038101906106049190616377565b611e44565b005b34801561061757600080fd5b50610632600480360381019061062d9190615fca565b611fb9565b005b34801561064057600080fd5b5061065b60048036038101906106569190615fca565b6121bb565b005b34801561066957600080fd5b50610684600480360381019061067f9190615cb8565b612267565b60405161069191906161a0565b60405180910390f35b3480156106a657600080fd5b506106af61231e565b005b3480156106bd57600080fd5b506106c66123a6565b6040516106d39190616466565b60405180910390f35b3480156106e857600080fd5b5061070360048036038101906106fe9190615fca565b61254e565b60405161071091906164e7565b60405180910390f35b34801561072557600080fd5b5061072e612695565b60405161073b9190616466565b60405180910390f35b34801561075057600080fd5b5061075961276e565b6040516107669190615c31565b60405180910390f35b34801561077b57600080fd5b5061079660048036038101906107919190615fca565b612798565b005b3480156107a457600080fd5b506107ad6128ce565b6040516107ba91906167ba565b60405180910390f35b3480156107cf57600080fd5b506107d8612fab565b6040516107e59190615b6b565b60405180910390f35b3480156107fa57600080fd5b50610815600480360381019061081091906167dc565b61303d565b005b34801561082357600080fd5b5061083e60048036038101906108399190616868565b6130d6565b005b34801561084c57600080fd5b506108556130ec565b6040516108629190616466565b60405180910390f35b34801561087757600080fd5b506108806131c5565b60405161088d91906161a0565b60405180910390f35b3480156108a257600080fd5b506108bd60048036038101906108b89190615fca565b6131d2565b005b6108d960048036038101906108d49190615fca565b613308565b005b3480156108e757600080fd5b5061090260048036038101906108fd9190616949565b613560565b005b34801561091057600080fd5b5061092b600480360381019061092691906167dc565b6135c2565b005b34801561093957600080fd5b50610954600480360381019061094f9190615cb8565b613699565b60405161096191906161a0565b60405180910390f35b34801561097657600080fd5b5061097f6136e8565b60405161098c91906161a0565b60405180910390f35b3480156109a157600080fd5b506109bc60048036038101906109b79190615bc3565b6136f5565b6040516109c99190615b6b565b60405180910390f35b3480156109de57600080fd5b506109f960048036038101906109f49190615cb8565b613811565b604051610a0691906167ba565b60405180910390f35b348015610a1b57600080fd5b50610a24613ef0565b604051610a319190616a3b565b60405180910390f35b348015610a4657600080fd5b50610a616004803603810190610a5c9190615fca565b613f7e565b604051610a6e9190616a3b565b60405180910390f35b348015610a8357600080fd5b50610a9e6004803603810190610a999190616a5d565b613f9e565b604051610aab9190615ac0565b60405180910390f35b348015610ac057600080fd5b50610adb6004803603810190610ad69190615cb8565b614032565b005b60007f80ac58cd000000000000000000000000000000000000000000000000000000007bffffffffffffffffffffffffffffffffffffffffffffffffffffffff1916827bffffffffffffffffffffffffffffffffffffffffffffffffffffffff19161480610ba857507f5b5e139f000000000000000000000000000000000000000000000000000000007bffffffffffffffffffffffffffffffffffffffffffffffffffffffff1916827bffffffffffffffffffffffffffffffffffffffffffffffffffffffff1916145b80610bb85750610bb782614129565b5b9050919050565b606060008054610bce90616acc565b80601f0160208091040260200160405190810160405280929190818152602001828054610bfa90616acc565b8015610c475780601f10610c1c57610100808354040283529160200191610c47565b820191906000526020600020905b815481529060010190602001808311610c2a57829003601f168201915b5050505050905090565b6000610c5c82614193565b610c9b576040517f08c379a0000000000000000000000000000000000000000000000000000000008152600401610c9290616b6f565b60405180910390fd5b6004600083815260200190815260200160002060009054906101000a900473ffffffffffffffffffffffffffffffffffffffff169050919050565b6000610ce182611d93565b90508073ffffffffffffffffffffffffffffffffffffffff168373ffffffffffffffffffffffffffffffffffffffff1603610d51576040517f08c379a0000000000000000000000000000000000000000000000000000000008152600401610d4890616c01565b60405180910390fd5b8073ffffffffffffffffffffffffffffffffffffffff16610d706141ff565b73ffffffffffffffffffffffffffffffffffffffff161480610d9f5750610d9e81610d996141ff565b613f9e565b5b610dde576040517f08c379a0000000000000000000000000000000000000000000000000000000008152600401610dd590616c93565b60405180910390fd5b610de88383614207565b505050565b6000600a60008373ffffffffffffffffffffffffffffffffffffffff1673ffffffffffffffffffffffffffffffffffffffff16815260200190815260200160002060070160009054906101000a900460ff169050919050565b600a60003373ffffffffffffffffffffffffffffffffffffffff1673ffffffffffffffffffffffffffffffffffffffff16815260200190815260200160002060070160009054906101000a900460ff16610ed5576040517f08c379a0000000000000000000000000000000000000000000000000000000008152600401610ecc90616cff565b60405180910390fd5b610eeb8282600b6142c09092919063ffffffff16565b610f2a576040517f08c379a0000000000000000000000000000000000000000000000000000000008152600401610f2190616d6b565b60405180910390fd5b60096000815480929190610f3d90616dba565b9190505550610f6686868686868633600954600c6142fb9098979695949392919063ffffffff16565b6010868690918060018154018082558091505060019003906000526020600020016000909192909192909192909192509182610fa3929190616fb9565b50610ff78686600a60003373ffffffffffffffffffffffffffffffffffffffff1673ffffffffffffffffffffffffffffffffffffffff1681526020019081526020016000206144ce9092919063ffffffff16565b3373ffffffffffffffffffffffffffffffffffffffff16868660405161101e9291906170b9565b60405180910390207f966070ce2ff7cfd3f6ec46ed7394a2f5ee5e3021344a9878eee674334b84b080848460095460405161105b939291906170ff565b60405180910390a3505050505050565b600a60003373ffffffffffffffffffffffffffffffffffffffff1673ffffffffffffffffffffffffffffffffffffffff16815260200190815260200160002060070160009054906101000a900460ff166110fa576040517f08c379a00000000000000000000000000000000000000000000000000000000081526004016110f190616cff565b60405180910390fd5b600081511161113e576040517f08c379a00000000000000000000000000000000000000000000000000000000081526004016111359061717d565b60405180910390fd5b600060085490506008600081548092919061115890616dba565b91905055506111673382614513565b81600d60008381526020019081526020016000209081611187919061719d565b506111d981600a60003373ffffffffffffffffffffffffffffffffffffffff1673ffffffffffffffffffffffffffffffffffffffff1681526020019081526020016000206146ec90919063ffffffff16565b803373ffffffffffffffffffffffffffffffffffffffff167fe7cd4ce7f2a465edc730269a1305e8a48bad821e8fb7e152ec413829c01a53c4846040516112209190615b6b565b60405180910390a35050565b61123d6112376141ff565b8261471b565b61127c576040517f08c379a0000000000000000000000000000000000000000000000000000000008152600401611273906172e1565b60405180910390fd5b6112878383836147f9565b505050565b6060600d600083815260200190815260200160002080546112ac90616acc565b80601f01602080910402602001604051908101604052809291908181526020018280546112d890616acc565b80156113255780601f106112fa57610100808354040283529160200191611325565b820191906000526020600020905b81548152906001019060200180831161130857829003601f168201915b50505050509050919050565b6113396141ff565b73ffffffffffffffffffffffffffffffffffffffff1661135761276e565b73ffffffffffffffffffffffffffffffffffffffff16146113ad576040517f08c379a00000000000000000000000000000000000000000000000000000000081526004016113a49061734d565b60405180910390fd5b6000479050600081116113f5576040517f08c379a00000000000000000000000000000000000000000000000000000000081526004016113ec906173b9565b60405180910390fd5b60006113ff61276e565b73ffffffffffffffffffffffffffffffffffffffff16826040516114229061740a565b60006040518083038185875af1925050503d806000811461145f576040519150601f19603f3d011682016040523d82523d6000602084013e611464565b606091505b50509050806114a8576040517f08c379a000000000000000000000000000000000000000000000000000000000815260040161149f9061746b565b60405180910390fd5b5050565b600a60003373ffffffffffffffffffffffffffffffffffffffff1673ffffffffffffffffffffffffffffffffffffffff16815260200190815260200160002060070160009054906101000a900460ff1661153b576040517f08c379a000000000000000000000000000000000000000000000000000000000815260040161153290616cff565b60405180910390fd5b61158e8282600a60003373ffffffffffffffffffffffffffffffffffffffff1673ffffffffffffffffffffffffffffffffffffffff168152602001908152602001600020614a5f9092919063ffffffff16565b3373ffffffffffffffffffffffffffffffffffffffff167fb8e50056db55e8c4b78f3aee6869149cc55c970443c6bfc700fa83a0b793ae2a83836040516115d692919061748b565b60405180910390a25050565b6115fd83838360405180602001604052806000815250613560565b505050565b600a60003373ffffffffffffffffffffffffffffffffffffffff1673ffffffffffffffffffffffffffffffffffffffff16815260200190815260200160002060070160009054906101000a900460ff16611691576040517f08c379a000000000000000000000000000000000000000000000000000000000815260040161168890616cff565b60405180910390fd5b6116a9828233600c614aea909392919063ffffffff16565b6116fc8282600a60003373ffffffffffffffffffffffffffffffffffffffff1673ffffffffffffffffffffffffffffffffffffffff1681526020019081526020016000206144ce9092919063ffffffff16565b3373ffffffffffffffffffffffffffffffffffffffff167f48bc22b3eab0c993cd29049a8e0a06fa00e13ec87407c1eabd56c3100205d6ad838360405161174492919061748b565b60405180910390a25050565b6060600a60003373ffffffffffffffffffffffffffffffffffffffff1673ffffffffffffffffffffffffffffffffffffffff16815260200190815260200160002060070160009054906101000a900460ff166117e1576040517f08c379a00000000000000000000000000000000000000000000000000000000081526004016117d890616cff565b60405180910390fd5b600a60008373ffffffffffffffffffffffffffffffffffffffff1673ffffffffffffffffffffffffffffffffffffffff168152602001908152602001600020600401805480602002602001604051908101604052809291908181526020016000905b82821015611911578382906000526020600020906002020160405180604001604052908160008201805461187690616acc565b80601f01602080910402602001604051908101604052809291908181526020018280546118a290616acc565b80156118ef5780601f106118c4576101008083540402835291602001916118ef565b820191906000526020600020905b8154815290600101906020018083116118d257829003601f168201915b5050505050815260200160018201548152505081526020019060010190611843565b505050509050919050565b6000600e80549050905090565b6119316158f2565b6119478383600c614cb19092919063ffffffff16565b611986576040517f08c379a000000000000000000000000000000000000000000000000000000000815260040161197d906174fb565b60405180910390fd5b600c83836040516119989291906170b9565b90815260200160405180910390206040518060c00160405290816000820180546119c190616acc565b80601f01602080910402602001604051908101604052809291908181526020018280546119ed90616acc565b8015611a3a5780601f10611a0f57610100808354040283529160200191611a3a565b820191906000526020600020905b815481529060010190602001808311611a1d57829003601f168201915b50505050508152602001600182018054611a5390616acc565b80601f0160208091040260200160405190810160405280929190818152602001828054611a7f90616acc565b8015611acc5780601f10611aa157610100808354040283529160200191611acc565b820191906000526020600020905b815481529060010190602001808311611aaf57829003601f168201915b50505050508152602001600282018054611ae590616acc565b80601f0160208091040260200160405190810160405280929190818152602001828054611b1190616acc565b8015611b5e5780601f10611b3357610100808354040283529160200191611b5e565b820191906000526020600020905b815481529060010190602001808311611b4157829003601f168201915b505050505081526020016003820160009054906101000a900473ffffffffffffffffffffffffffffffffffffffff1673ffffffffffffffffffffffffffffffffffffffff1673ffffffffffffffffffffffffffffffffffffffff1681526020016004820154815260200160058201805480602002602001604051908101604052809291908181526020018280548015611c4c57602002820191906000526020600020905b8160009054906101000a900473ffffffffffffffffffffffffffffffffffffffff1673ffffffffffffffffffffffffffffffffffffffff1681526020019060010190808311611c02575b505050505081525050905092915050565b600a60003373ffffffffffffffffffffffffffffffffffffffff1673ffffffffffffffffffffffffffffffffffffffff16815260200190815260200160002060070160009054906101000a900460ff16611cec576040517f08c379a0000000000000000000000000000000000000000000000000000000008152600401611ce390616cff565b60405180910390fd5b611d3f8282600a60003373ffffffffffffffffffffffffffffffffffffffff1673ffffffffffffffffffffffffffffffffffffffff168152602001908152602001600020614ced9092919063ffffffff16565b3373ffffffffffffffffffffffffffffffffffffffff167ffb02f8b5008bb4e6551ac10938980a836239b9187014ad8bd7d4166234196a998383604051611d8792919061748b565b60405180910390a25050565b6000806002600084815260200190815260200160002060009054906101000a900473ffffffffffffffffffffffffffffffffffffffff169050600073ffffffffffffffffffffffffffffffffffffffff168173ffffffffffffffffffffffffffffffffffffffff1603611e3b576040517f08c379a0000000000000000000000000000000000000000000000000000000008152600401611e329061758d565b60405180910390fd5b80915050919050565b611e4c6141ff565b73ffffffffffffffffffffffffffffffffffffffff16611e6a61276e565b73ffffffffffffffffffffffffffffffffffffffff1614611ec0576040517f08c379a0000000000000000000000000000000000000000000000000000000008152600401611eb79061734d565b60405180910390fd5b600047905060008111611f08576040517f08c379a0000000000000000000000000000000000000000000000000000000008152600401611eff906173b9565b60405180910390fd5b60008273ffffffffffffffffffffffffffffffffffffffff1682604051611f2e9061740a565b60006040518083038185875af1925050503d8060008114611f6b576040519150601f19603f3d011682016040523d82523d6000602084013e611f70565b606091505b5050905080611fb4576040517f08c379a0000000000000000000000000000000000000000000000000000000008152600401611fab906175f9565b60405180910390fd5b505050565b600a60003373ffffffffffffffffffffffffffffffffffffffff1673ffffffffffffffffffffffffffffffffffffffff16815260200190815260200160002060070160009054906101000a900460ff1615612049576040517f08c379a000000000000000000000000000000000000000000000000000000000815260040161204090617665565b60405180910390fd5b6000828290501161208f576040517f08c379a0000000000000000000000000000000000000000000000000000000008152600401612086906176d1565b60405180910390fd5b6000600a60003373ffffffffffffffffffffffffffffffffffffffff1673ffffffffffffffffffffffffffffffffffffffff168152602001908152602001600020905060018160070160006101000a81548160ff0219169083151502179055508282826000019182612102929190616fb9565b50600f339080600181540180825580915050600190039060005260206000200160009091909190916101000a81548173ffffffffffffffffffffffffffffffffffffffff021916908373ffffffffffffffffffffffffffffffffffffffff1602179055503373ffffffffffffffffffffffffffffffffffffffff167f48cac28ad4dc618e15f4c2dd5e97751182f166de97b25618318b2112aa951a2f84846040516121ae92919061748b565b60405180910390a2505050565b6121c36141ff565b73ffffffffffffffffffffffffffffffffffffffff166121e161276e565b73ffffffffffffffffffffffffffffffffffffffff1614612237576040517f08c379a000000000000000000000000000000000000000000000000000000000815260040161222e9061734d565b60405180910390fd5b61224d8282600b614d4c9092919063ffffffff16565b6122638282600e614e0e9092919063ffffffff16565b5050565b60008073ffffffffffffffffffffffffffffffffffffffff168273ffffffffffffffffffffffffffffffffffffffff16036122d7576040517f08c379a00000000000000000000000000000000000000000000000000000000081526004016122ce90617763565b60405180910390fd5b600360008373ffffffffffffffffffffffffffffffffffffffff1673ffffffffffffffffffffffffffffffffffffffff168152602001908152602001600020549050919050565b6123266141ff565b73ffffffffffffffffffffffffffffffffffffffff1661234461276e565b73ffffffffffffffffffffffffffffffffffffffff161461239a576040517f08c379a00000000000000000000000000000000000000000000000000000000081526004016123919061734d565b60405180910390fd5b6123a46000614f10565b565b6060600a60003373ffffffffffffffffffffffffffffffffffffffff1673ffffffffffffffffffffffffffffffffffffffff16815260200190815260200160002060070160009054906101000a900460ff16612437576040517f08c379a000000000000000000000000000000000000000000000000000000000815260040161242e90616cff565b60405180910390fd5b600a60003373ffffffffffffffffffffffffffffffffffffffff1673ffffffffffffffffffffffffffffffffffffffff168152602001908152602001600020600801805480602002602001604051908101604052809291908181526020016000905b828210156125455783829060005260206000200180546124b890616acc565b80601f01602080910402602001604051908101604052809291908181526020018280546124e490616acc565b80156125315780601f1061250657610100808354040283529160200191612531565b820191906000526020600020905b81548152906001019060200180831161251457829003601f168201915b505050505081526020019060010190612499565b50505050905090565b61255661593e565b61256c8383600b6142c09092919063ffffffff16565b6125ab576040517f08c379a00000000000000000000000000000000000000000000000000000000081526004016125a290616d6b565b60405180910390fd5b600b83836040516125bd9291906170b9565b90815260200160405180910390206040518060600160405290816000820180546125e690616acc565b80601f016020809104026020016040519081016040528092919081815260200182805461261290616acc565b801561265f5780601f106126345761010080835404028352916020019161265f565b820191906000526020600020905b81548152906001019060200180831161264257829003601f168201915b50505050508152602001600182015481526020016002820160009054906101000a900460ff161515151581525050905092915050565b60606010805480602002602001604051908101604052809291908181526020016000905b828210156127655783829060005260206000200180546126d890616acc565b80601f016020809104026020016040519081016040528092919081815260200182805461270490616acc565b80156127515780601f1061272657610100808354040283529160200191612751565b820191906000526020600020905b81548152906001019060200180831161273457829003601f168201915b5050505050815260200190600101906126b9565b50505050905090565b6000600660009054906101000a900473ffffffffffffffffffffffffffffffffffffffff16905090565b600a60003373ffffffffffffffffffffffffffffffffffffffff1673ffffffffffffffffffffffffffffffffffffffff16815260200190815260200160002060070160009054906101000a900460ff16612827576040517f08c379a000000000000000000000000000000000000000000000000000000000815260040161281e90616cff565b60405180910390fd5b61287a8282600a60003373ffffffffffffffffffffffffffffffffffffffff1673ffffffffffffffffffffffffffffffffffffffff168152602001908152602001600020614fd69092919063ffffffff16565b3373ffffffffffffffffffffffffffffffffffffffff167f9fea722a78bc03b22869a8fa8db043e542f7b63a042973693e67dfb1c5baaea483836040516128c292919061748b565b60405180910390a25050565b6128d6615961565b600a60003373ffffffffffffffffffffffffffffffffffffffff1673ffffffffffffffffffffffffffffffffffffffff16815260200190815260200160002060070160009054906101000a900460ff16612965576040517f08c379a000000000000000000000000000000000000000000000000000000000815260040161295c90616cff565b60405180910390fd5b600a60003373ffffffffffffffffffffffffffffffffffffffff1673ffffffffffffffffffffffffffffffffffffffff168152602001908152602001600020604051806101200160405290816000820180546129c090616acc565b80601f01602080910402602001604051908101604052809291908181526020018280546129ec90616acc565b8015612a395780601f10612a0e57610100808354040283529160200191612a39565b820191906000526020600020905b815481529060010190602001808311612a1c57829003601f168201915b5050505050815260200160018201805480602002602001604051908101604052809291908181526020016000905b82821015612b13578382906000526020600020018054612a8690616acc565b80601f0160208091040260200160405190810160405280929190818152602001828054612ab290616acc565b8015612aff5780601f10612ad457610100808354040283529160200191612aff565b820191906000526020600020905b815481529060010190602001808311612ae257829003601f168201915b505050505081526020019060010190612a67565b50505050815260200160028201805480602002602001604051908101604052809291908181526020016000905b82821015612bec578382906000526020600020018054612b5f90616acc565b80601f0160208091040260200160405190810160405280929190818152602001828054612b8b90616acc565b8015612bd85780601f10612bad57610100808354040283529160200191612bd8565b820191906000526020600020905b815481529060010190602001808311612bbb57829003601f168201915b505050505081526020019060010190612b40565b50505050815260200160038201805480602002602001604051908101604052809291908181526020016000905b82821015612cc5578382906000526020600020018054612c3890616acc565b80601f0160208091040260200160405190810160405280929190818152602001828054612c6490616acc565b8015612cb15780601f10612c8657610100808354040283529160200191612cb1565b820191906000526020600020905b815481529060010190602001808311612c9457829003601f168201915b505050505081526020019060010190612c19565b50505050815260200160048201805480602002602001604051908101604052809291908181526020016000905b82821015612dc05783829060005260206000209060020201604051806040016040529081600082018054612d2590616acc565b80601f0160208091040260200160405190810160405280929190818152602001828054612d5190616acc565b8015612d9e5780601f10612d7357610100808354040283529160200191612d9e565b820191906000526020600020905b815481529060010190602001808311612d8157829003601f168201915b5050505050815260200160018201548152505081526020019060010190612cf2565b505050508152602001600582018054612dd890616acc565b80601f0160208091040260200160405190810160405280929190818152602001828054612e0490616acc565b8015612e515780601f10612e2657610100808354040283529160200191612e51565b820191906000526020600020905b815481529060010190602001808311612e3457829003601f168201915b5050505050815260200160068201805480602002602001604051908101604052809291908181526020018280548015612ea957602002820191906000526020600020905b815481526020019060010190808311612e95575b505050505081526020016007820160009054906101000a900460ff1615151515815260200160088201805480602002602001604051908101604052809291908181526020016000905b82821015612f9e578382906000526020600020018054612f1190616acc565b80601f0160208091040260200160405190810160405280929190818152602001828054612f3d90616acc565b8015612f8a5780601f10612f5f57610100808354040283529160200191612f8a565b820191906000526020600020905b815481529060010190602001808311612f6d57829003601f168201915b505050505081526020019060010190612ef2565b5050505081525050905090565b606060018054612fba90616acc565b80601f0160208091040260200160405190810160405280929190818152602001828054612fe690616acc565b80156130335780601f1061300857610100808354040283529160200191613033565b820191906000526020600020905b81548152906001019060200180831161301657829003601f168201915b5050505050905090565b6130456141ff565b73ffffffffffffffffffffffffffffffffffffffff1661306361276e565b73ffffffffffffffffffffffffffffffffffffffff16146130b9576040517f08c379a00000000000000000000000000000000000000000000000000000000081526004016130b09061734d565b60405180910390fd5b6130d1838383600b615061909392919063ffffffff16565b505050565b6130e86130e16141ff565b83836150fd565b5050565b6060600e805480602002602001604051908101604052809291908181526020016000905b828210156131bc57838290600052602060002001805461312f90616acc565b80601f016020809104026020016040519081016040528092919081815260200182805461315b90616acc565b80156131a85780601f1061317d576101008083540402835291602001916131a8565b820191906000526020600020905b81548152906001019060200180831161318b57829003601f168201915b505050505081526020019060010190613110565b50505050905090565b6000600f80549050905090565b600a60003373ffffffffffffffffffffffffffffffffffffffff1673ffffffffffffffffffffffffffffffffffffffff16815260200190815260200160002060070160009054906101000a900460ff16613261576040517f08c379a000000000000000000000000000000000000000000000000000000000815260040161325890616cff565b60405180910390fd5b6132b48282600a60003373ffffffffffffffffffffffffffffffffffffffff1673ffffffffffffffffffffffffffffffffffffffff1681526020019081526020016000206152699092919063ffffffff16565b3373ffffffffffffffffffffffffffffffffffffffff167f9dc5c994cee1ffa2e2c3fc4d4d0d9e24511eb0ceef3efe59ff6f57eda374bb2783836040516132fc92919061748b565b60405180910390a25050565b600a60003373ffffffffffffffffffffffffffffffffffffffff1673ffffffffffffffffffffffffffffffffffffffff16815260200190815260200160002060070160009054906101000a900460ff16613397576040517f08c379a000000000000000000000000000000000000000000000000000000000815260040161338e90616cff565b60405180910390fd5b6002600754036133dc576040517f08c379a00000000000000000000000000000000000000000000000000000000081526004016133d3906177cf565b60405180910390fd5b60026007819055506133fa8282600b6142c09092919063ffffffff16565b613439576040517f08c379a000000000000000000000000000000000000000000000000000000000815260040161343090616d6b565b60405180910390fd5b61344f8282600b6152f49092919063ffffffff16565b341015613491576040517f08c379a00000000000000000000000000000000000000000000000000000000081526004016134889061783b565b60405180910390fd5b600960008154809291906134a490616dba565b91905055506135008282600954600a60003373ffffffffffffffffffffffffffffffffffffffff1673ffffffffffffffffffffffffffffffffffffffff168152602001908152602001600020615391909392919063ffffffff16565b3373ffffffffffffffffffffffffffffffffffffffff167f92904d8c10560a367e402f96fc80c79668c5a9850462a718473e9f671b28ea38838360095460405161354c939291906170ff565b60405180910390a260016007819055505050565b61357161356b6141ff565b8361471b565b6135b0576040517f08c379a00000000000000000000000000000000000000000000000000000000081526004016135a7906172e1565b60405180910390fd5b6135bc8484848461543f565b50505050565b6135ca6141ff565b73ffffffffffffffffffffffffffffffffffffffff166135e861276e565b73ffffffffffffffffffffffffffffffffffffffff161461363e576040517f08c379a00000000000000000000000000000000000000000000000000000000081526004016136359061734d565b60405180910390fd5b613656838383600b61549b909392919063ffffffff16565b600e838390918060018154018082558091505060019003906000526020600020016000909192909192909192909192509182613693929190616fb9565b50505050565b6000600a60008373ffffffffffffffffffffffffffffffffffffffff1673ffffffffffffffffffffffffffffffffffffffff168152602001908152602001600020600601805490509050919050565b6000601080549050905090565b6060600073ffffffffffffffffffffffffffffffffffffffff1661371883611d93565b73ffffffffffffffffffffffffffffffffffffffff160361376e576040517f08c379a0000000000000000000000000000000000000000000000000000000008152600401613765906178a7565b60405180910390fd5b600d6000838152602001908152602001600020805461378c90616acc565b80601f01602080910402602001604051908101604052809291908181526020018280546137b890616acc565b80156138055780601f106137da57610100808354040283529160200191613805565b820191906000526020600020905b8154815290600101906020018083116137e857829003601f168201915b50505050509050919050565b613819615961565b600a60008373ffffffffffffffffffffffffffffffffffffffff1673ffffffffffffffffffffffffffffffffffffffff16815260200190815260200160002060070160009054906101000a900460ff166138a8576040517f08c379a000000000000000000000000000000000000000000000000000000000815260040161389f90617913565b60405180910390fd5b600a60008373ffffffffffffffffffffffffffffffffffffffff1673ffffffffffffffffffffffffffffffffffffffff1681526020019081526020016000206040518061012001604052908160008201805461390390616acc565b80601f016020809104026020016040519081016040528092919081815260200182805461392f90616acc565b801561397c5780601f106139515761010080835404028352916020019161397c565b820191906000526020600020905b81548152906001019060200180831161395f57829003601f168201915b5050505050815260200160018201805480602002602001604051908101604052809291908181526020016000905b82821015613a565783829060005260206000200180546139c990616acc565b80601f01602080910402602001604051908101604052809291908181526020018280546139f590616acc565b8015613a425780601f10613a1757610100808354040283529160200191613a42565b820191906000526020600020905b815481529060010190602001808311613a2557829003601f168201915b5050505050815260200190600101906139aa565b50505050815260200160028201805480602002602001604051908101604052809291908181526020016000905b82821015613b2f578382906000526020600020018054613aa290616acc565b80601f0160208091040260200160405190810160405280929190818152602001828054613ace90616acc565b8015613b1b5780601f10613af057610100808354040283529160200191613b1b565b820191906000526020600020905b815481529060010190602001808311613afe57829003601f168201915b505050505081526020019060010190613a83565b50505050815260200160038201805480602002602001604051908101604052809291908181526020016000905b82821015613c08578382906000526020600020018054613b7b90616acc565b80601f0160208091040260200160405190810160405280929190818152602001828054613ba790616acc565b8015613bf45780601f10613bc957610100808354040283529160200191613bf4565b820191906000526020600020905b815481529060010190602001808311613bd757829003601f168201915b505050505081526020019060010190613b5c565b50505050815260200160048201805480602002602001604051908101604052809291908181526020016000905b82821015613d035783829060005260206000209060020201604051806040016040529081600082018054613c6890616acc565b80601f0160208091040260200160405190810160405280929190818152602001828054613c9490616acc565b8015613ce15780601f10613cb657610100808354040283529160200191613ce1565b820191906000526020600020905b815481529060010190602001808311613cc457829003601f168201915b5050505050815260200160018201548152505081526020019060010190613c35565b505050508152602001600582018054613d1b90616acc565b80601f0160208091040260200160405190810160405280929190818152602001828054613d4790616acc565b8015613d945780601f10613d6957610100808354040283529160200191613d94565b820191906000526020600020905b815481529060010190602001808311613d7757829003601f168201915b5050505050815260200160068201805480602002602001604051908101604052809291908181526020018280548015613dec57602002820191906000526020600020905b815481526020019060010190808311613dd8575b505050505081526020016007820160009054906101000a900460ff1615151515815260200160088201805480602002602001604051908101604052809291908181526020016000905b82821015613ee1578382906000526020600020018054613e5490616acc565b80601f0160208091040260200160405190810160405280929190818152602001828054613e8090616acc565b8015613ecd5780601f10613ea257610100808354040283529160200191613ecd565b820191906000526020600020905b815481529060010190602001808311613eb057829003601f168201915b505050505081526020019060010190613e35565b50505050815250509050919050565b6060600f805480602002602001604051908101604052809291908181526020018280548015613f7457602002820191906000526020600020905b8160009054906101000a900473ffffffffffffffffffffffffffffffffffffffff1673ffffffffffffffffffffffffffffffffffffffff1681526020019060010190808311613f2a575b5050505050905090565b6060613f968383600c61561b9092919063ffffffff16565b905092915050565b6000600560008473ffffffffffffffffffffffffffffffffffffffff1673ffffffffffffffffffffffffffffffffffffffff16815260200190815260200160002060008373ffffffffffffffffffffffffffffffffffffffff1673ffffffffffffffffffffffffffffffffffffffff16815260200190815260200160002060009054906101000a900460ff16905092915050565b61403a6141ff565b73ffffffffffffffffffffffffffffffffffffffff1661405861276e565b73ffffffffffffffffffffffffffffffffffffffff16146140ae576040517f08c379a00000000000000000000000000000000000000000000000000000000081526004016140a59061734d565b60405180910390fd5b600073ffffffffffffffffffffffffffffffffffffffff168173ffffffffffffffffffffffffffffffffffffffff160361411d576040517f08c379a0000000000000000000000000000000000000000000000000000000008152600401614114906179a5565b60405180910390fd5b61412681614f10565b50565b60007f01ffc9a7000000000000000000000000000000000000000000000000000000007bffffffffffffffffffffffffffffffffffffffffffffffffffffffff1916827bffffffffffffffffffffffffffffffffffffffffffffffffffffffff1916149050919050565b60008073ffffffffffffffffffffffffffffffffffffffff166002600084815260200190815260200160002060009054906101000a900473ffffffffffffffffffffffffffffffffffffffff1673ffffffffffffffffffffffffffffffffffffffff1614159050919050565b600033905090565b816004600083815260200190815260200160002060006101000a81548173ffffffffffffffffffffffffffffffffffffffff021916908373ffffffffffffffffffffffffffffffffffffffff160217905550808273ffffffffffffffffffffffffffffffffffffffff1661427a83611d93565b73ffffffffffffffffffffffffffffffffffffffff167f8c5be1e5ebec7d5bd14f71427d1e84f3dd0314c0f7b2291e5b200ac8c7c3b92560405160405180910390a45050565b60008383836040516142d39291906170b9565b908152602001604051809103902060020160009054906101000a900460ff1690509392505050565b60008888905011614341576040517f08c379a000000000000000000000000000000000000000000000000000000000815260040161433890617a11565b60405180910390fd5b60008989896040516143549291906170b9565b9081526020016040518091039020600001805461437090616acc565b9050146143b2576040517f08c379a00000000000000000000000000000000000000000000000000000000081526004016143a990617a7d565b60405180910390fd5b60008989896040516143c59291906170b9565b9081526020016040518091039020905088888260000191826143e8929190616fb9565b5086868260010191826143fc929190616fb9565b508484826002019182614410929190616fb9565b50818160040181905550828160030160006101000a81548173ffffffffffffffffffffffffffffffffffffffff021916908373ffffffffffffffffffffffffffffffffffffffff16021790555080600501839080600181540180825580915050600190039060005260206000200160009091909190916101000a81548173ffffffffffffffffffffffffffffffffffffffff021916908373ffffffffffffffffffffffffffffffffffffffff16021790555050505050505050505050565b8260080182829091806001815401808255809150506001900390600052602060002001600090919290919290919290919250918261450d929190616fb9565b50505050565b600073ffffffffffffffffffffffffffffffffffffffff168273ffffffffffffffffffffffffffffffffffffffff1603614582576040517f08c379a000000000000000000000000000000000000000000000000000000000815260040161457990617ae9565b60405180910390fd5b61458b81614193565b156145cb576040517f08c379a00000000000000000000000000000000000000000000000000000000081526004016145c290617b55565b60405180910390fd5b6145d76000838361573e565b6001600360008473ffffffffffffffffffffffffffffffffffffffff1673ffffffffffffffffffffffffffffffffffffffff16815260200190815260200160002060008282546146279190617b75565b92505081905550816002600083815260200190815260200160002060006101000a81548173ffffffffffffffffffffffffffffffffffffffff021916908373ffffffffffffffffffffffffffffffffffffffff160217905550808273ffffffffffffffffffffffffffffffffffffffff16600073ffffffffffffffffffffffffffffffffffffffff167fddf252ad1be2c89b69c2b068fc378daa952ba7f163c4a11628f55a4df523b3ef60405160405180910390a46146e860008383615743565b5050565b816006018190806001815401808255809150506001900390600052602060002001600090919091909150555050565b600061472682614193565b614765576040517f08c379a000000000000000000000000000000000000000000000000000000000815260040161475c90617c1b565b60405180910390fd5b600061477083611d93565b90508073ffffffffffffffffffffffffffffffffffffffff168473ffffffffffffffffffffffffffffffffffffffff1614806147b257506147b18185613f9e565b5b806147f057508373ffffffffffffffffffffffffffffffffffffffff166147d884610c51565b73ffffffffffffffffffffffffffffffffffffffff16145b91505092915050565b8273ffffffffffffffffffffffffffffffffffffffff1661481982611d93565b73ffffffffffffffffffffffffffffffffffffffff161461486f576040517f08c379a000000000000000000000000000000000000000000000000000000000815260040161486690617cad565b60405180910390fd5b600073ffffffffffffffffffffffffffffffffffffffff168273ffffffffffffffffffffffffffffffffffffffff16036148de576040517f08c379a00000000000000000000000000000000000000000000000000000000081526004016148d590617d3f565b60405180910390fd5b6148e983838361573e565b6148f4600082614207565b6001600360008573ffffffffffffffffffffffffffffffffffffffff1673ffffffffffffffffffffffffffffffffffffffff16815260200190815260200160002060008282546149449190617d5f565b925050819055506001600360008473ffffffffffffffffffffffffffffffffffffffff1673ffffffffffffffffffffffffffffffffffffffff168152602001908152602001600020600082825461499b9190617b75565b92505081905550816002600083815260200190815260200160002060006101000a81548173ffffffffffffffffffffffffffffffffffffffff021916908373ffffffffffffffffffffffffffffffffffffffff160217905550808273ffffffffffffffffffffffffffffffffffffffff168473ffffffffffffffffffffffffffffffffffffffff167fddf252ad1be2c89b69c2b068fc378daa952ba7f163c4a11628f55a4df523b3ef60405160405180910390a4614a5a838383615743565b505050565b60008282905011614aa5576040517f08c379a0000000000000000000000000000000000000000000000000000000008152600401614a9c90617ddf565b60405180910390fd5b82600201828290918060018154018082558091505060019003906000526020600020016000909192909192909192909192509182614ae4929190616fb9565b50505050565b6000848484604051614afd9291906170b9565b908152602001604051809103902090506000816000018054614b1e90616acc565b905011614b60576040517f08c379a0000000000000000000000000000000000000000000000000000000008152600401614b5790617e4b565b60405180910390fd5b6000805b8260050180549050811015614c02578373ffffffffffffffffffffffffffffffffffffffff16836005018281548110614ba057614b9f617e6b565b5b9060005260206000200160009054906101000a900473ffffffffffffffffffffffffffffffffffffffff1673ffffffffffffffffffffffffffffffffffffffff1603614bef5760019150614c02565b8080614bfa90616dba565b915050614b64565b508015614c44576040517f08c379a0000000000000000000000000000000000000000000000000000000008152600401614c3b90617ee6565b60405180910390fd5b81600501839080600181540180825580915050600190039060005260206000200160009091909190916101000a81548173ffffffffffffffffffffffffffffffffffffffff021916908373ffffffffffffffffffffffffffffffffffffffff160217905550505050505050565b600080848484604051614cc59291906170b9565b90815260200160405180910390206000018054614ce190616acc565b90501190509392505050565b60008282905011614d33576040517f08c379a0000000000000000000000000000000000000000000000000000000008152600401614d2a90617f52565b60405180910390fd5b8181846005019182614d46929190616fb9565b50505050565b828282604051614d5d9291906170b9565b908152602001604051809103902060020160009054906101000a900460ff16614dbb576040517f08c379a0000000000000000000000000000000000000000000000000000000008152600401614db290616d6b565b60405180910390fd5b828282604051614dcc9291906170b9565b908152602001604051809103902060008082016000614deb91906159af565b60018201600090556002820160006101000a81549060ff02191690555050505050565b60005b8380549050811015614f0a578282604051614e2d929190617f97565b6040518091039020848281548110614e4857614e47617e6b565b5b90600052602060002001604051614e5f9190618048565b604051809103902003614ef7578360018580549050614e7e9190617d5f565b81548110614e8f57614e8e617e6b565b5b90600052602060002001848281548110614eac57614eab617e6b565b5b906000526020600020019081614ec2919061808a565b5083805480614ed457614ed3618172565b5b600190038181906000526020600020016000614ef091906159af565b9055614f0a565b8080614f0290616dba565b915050614e11565b50505050565b6000600660009054906101000a900473ffffffffffffffffffffffffffffffffffffffff16905081600660006101000a81548173ffffffffffffffffffffffffffffffffffffffff021916908373ffffffffffffffffffffffffffffffffffffffff1602179055508173ffffffffffffffffffffffffffffffffffffffff168173ffffffffffffffffffffffffffffffffffffffff167f8be0079c531659141344cd1fd0a4f28419497f9722a3daafe3b4186f6b6457e060405160405180910390a35050565b6000828290501161501c576040517f08c379a000000000000000000000000000000000000000000000000000000000815260040161501390617ddf565b60405180910390fd5b8260030182829091806001815401808255809150506001900390600052602060002001600090919290919290919290919250918261505b929190616fb9565b50505050565b8383836040516150729291906170b9565b908152602001604051809103902060020160009054906101000a900460ff166150d0576040517f08c379a00000000000000000000000000000000000000000000000000000000081526004016150c790616d6b565b60405180910390fd5b808484846040516150e29291906170b9565b90815260200160405180910390206001018190555050505050565b8173ffffffffffffffffffffffffffffffffffffffff168373ffffffffffffffffffffffffffffffffffffffff160361516b576040517f08c379a0000000000000000000000000000000000000000000000000000000008152600401615162906181ed565b60405180910390fd5b80600560008573ffffffffffffffffffffffffffffffffffffffff1673ffffffffffffffffffffffffffffffffffffffff16815260200190815260200160002060008473ffffffffffffffffffffffffffffffffffffffff1673ffffffffffffffffffffffffffffffffffffffff16815260200190815260200160002060006101000a81548160ff0219169083151502179055508173ffffffffffffffffffffffffffffffffffffffff168373ffffffffffffffffffffffffffffffffffffffff167f17307eab39ab6107e8899845ad3d59bd9653f200f220920489ca2b5937696c318360405161525c9190615ac0565b60405180910390a3505050565b600082829050116152af576040517f08c379a00000000000000000000000000000000000000000000000000000000081526004016152a690618259565b60405180910390fd5b826001018282909180600181540180825580915050600190039060005260206000200160009091929091929091929091925091826152ee929190616fb9565b50505050565b60008383836040516153079291906170b9565b908152602001604051809103902060020160009054906101000a900460ff16615365576040517f08c379a000000000000000000000000000000000000000000000000000000000815260040161535c90616d6b565b60405180910390fd5b8383836040516153769291906170b9565b90815260200160405180910390206001015490509392505050565b83600401604051806040016040528085858080601f016020809104026020016040519081016040528093929190818152602001838380828437600081840152601f19601f820116905080830192505050505050508152602001838152509080600181540180825580915050600190039060005260206000209060020201600090919091909150600082015181600001908161542c919061719d565b5060208201518160010155505050505050565b61544a8484846147f9565b61545684848484615748565b615495576040517f08c379a000000000000000000000000000000000000000000000000000000000815260040161548c906182eb565b60405180910390fd5b50505050565b600083839050116154e1576040517f08c379a00000000000000000000000000000000000000000000000000000000081526004016154d890618357565b60405180910390fd5b8383836040516154f29291906170b9565b908152602001604051809103902060020160009054906101000a900460ff1615615551576040517f08c379a0000000000000000000000000000000000000000000000000000000008152600401615548906183c3565b60405180910390fd5b604051806060016040528084848080601f016020809104026020016040519081016040528093929190818152602001838380828437600081840152601f19601f820116905080830192505050505050508152602001828152602001600115158152508484846040516155c49291906170b9565b908152602001604051809103902060008201518160000190816155e7919061719d565b506020820151816001015560408201518160020160006101000a81548160ff02191690831515021790555090505050505050565b606060008484846040516156309291906170b9565b9081526020016040518091039020600001805461564c90616acc565b90501161568e576040517f08c379a0000000000000000000000000000000000000000000000000000000008152600401615685906174fb565b60405180910390fd5b83838360405161569f9291906170b9565b908152602001604051809103902060050180548060200260200160405190810160405280929190818152602001828054801561573057602002820191906000526020600020905b8160009054906101000a900473ffffffffffffffffffffffffffffffffffffffff1673ffffffffffffffffffffffffffffffffffffffff16815260200190600101908083116156e6575b505050505090509392505050565b505050565b505050565b60006157698473ffffffffffffffffffffffffffffffffffffffff166158cf565b156158c2578373ffffffffffffffffffffffffffffffffffffffff1663150b7a026157926141ff565b8786866040518563ffffffff1660e01b81526004016157b49493929190618438565b6020604051808303816000875af19250505080156157f057506040513d601f19601f820116820180604052508101906157ed9190618499565b60015b615872573d8060008114615820576040519150601f19603f3d011682016040523d82523d6000602084013e615825565b606091505b50600081510361586a576040517f08c379a0000000000000000000000000000000000000000000000000000000008152600401615861906182eb565b60405180910390fd5b805181602001fd5b63150b7a0260e01b7bffffffffffffffffffffffffffffffffffffffffffffffffffffffff1916817bffffffffffffffffffffffffffffffffffffffffffffffffffffffff1916149150506158c7565b600190505b949350505050565b6000808273ffffffffffffffffffffffffffffffffffffffff163b119050919050565b6040518060c00160405280606081526020016060815260200160608152602001600073ffffffffffffffffffffffffffffffffffffffff16815260200160008152602001606081525090565b604051806060016040528060608152602001600081526020016000151581525090565b60405180610120016040528060608152602001606081526020016060815260200160608152602001606081526020016060815260200160608152602001600015158152602001606081525090565b5080546159bb90616acc565b6000825580601f106159cd57506159ec565b601f0160209004906000526020600020908101906159eb91906159ef565b5b50565b5b80821115615a085760008160009055506001016159f0565b5090565b6000604051905090565b600080fd5b600080fd5b60007fffffffff0000000000000000000000000000000000000000000000000000000082169050919050565b615a5581615a20565b8114615a6057600080fd5b50565b600081359050615a7281615a4c565b92915050565b600060208284031215615a8e57615a8d615a16565b5b6000615a9c84828501615a63565b91505092915050565b60008115159050919050565b615aba81615aa5565b82525050565b6000602082019050615ad56000830184615ab1565b92915050565b600081519050919050565b600082825260208201905092915050565b60005b83811015615b15578082015181840152602081019050615afa565b60008484015250505050565b6000601f19601f8301169050919050565b6000615b3d82615adb565b615b478185615ae6565b9350615b57818560208601615af7565b615b6081615b21565b840191505092915050565b60006020820190508181036000830152615b858184615b32565b905092915050565b6000819050919050565b615ba081615b8d565b8114615bab57600080fd5b50565b600081359050615bbd81615b97565b92915050565b600060208284031215615bd957615bd8615a16565b5b6000615be784828501615bae565b91505092915050565b600073ffffffffffffffffffffffffffffffffffffffff82169050919050565b6000615c1b82615bf0565b9050919050565b615c2b81615c10565b82525050565b6000602082019050615c466000830184615c22565b92915050565b615c5581615c10565b8114615c6057600080fd5b50565b600081359050615c7281615c4c565b92915050565b60008060408385031215615c8f57615c8e615a16565b5b6000615c9d85828601615c63565b9250506020615cae85828601615bae565b9150509250929050565b600060208284031215615cce57615ccd615a16565b5b6000615cdc84828501615c63565b91505092915050565b600080fd5b600080fd5b600080fd5b60008083601f840112615d0a57615d09615ce5565b5b8235905067ffffffffffffffff811115615d2757615d26615cea565b5b602083019150836001820283011115615d4357615d42615cef565b5b9250929050565b60008060008060008060608789031215615d6757615d66615a16565b5b600087013567ffffffffffffffff811115615d8557615d84615a1b565b5b615d9189828a01615cf4565b9650965050602087013567ffffffffffffffff811115615db457615db3615a1b565b5b615dc089828a01615cf4565b9450945050604087013567ffffffffffffffff811115615de357615de2615a1b565b5b615def89828a01615cf4565b92509250509295509295509295565b600080fd5b7f4e487b7100000000000000000000000000000000000000000000000000000000600052604160045260246000fd5b615e3b82615b21565b810181811067ffffffffffffffff82111715615e5a57615e59615e03565b5b80604052505050565b6000615e6d615a0c565b9050615e798282615e32565b919050565b600067ffffffffffffffff821115615e9957615e98615e03565b5b615ea282615b21565b9050602081019050919050565b82818337600083830152505050565b6000615ed1615ecc84615e7e565b615e63565b905082815260208101848484011115615eed57615eec615dfe565b5b615ef8848285615eaf565b509392505050565b600082601f830112615f1557615f14615ce5565b5b8135615f25848260208601615ebe565b91505092915050565b600060208284031215615f4457615f43615a16565b5b600082013567ffffffffffffffff811115615f6257615f61615a1b565b5b615f6e84828501615f00565b91505092915050565b600080600060608486031215615f9057615f8f615a16565b5b6000615f9e86828701615c63565b9350506020615faf86828701615c63565b9250506040615fc086828701615bae565b9150509250925092565b60008060208385031215615fe157615fe0615a16565b5b600083013567ffffffffffffffff811115615fff57615ffe615a1b565b5b61600b85828601615cf4565b92509250509250929050565b600081519050919050565b600082825260208201905092915050565b6000819050602082019050919050565b600082825260208201905092915050565b600061605f82615adb565b6160698185616043565b9350616079818560208601615af7565b61608281615b21565b840191505092915050565b61609681615b8d565b82525050565b600060408301600083015184820360008601526160b98282616054565b91505060208301516160ce602086018261608d565b508091505092915050565b60006160e5838361609c565b905092915050565b6000602082019050919050565b600061610582616017565b61610f8185616022565b93508360208202850161612185616033565b8060005b8581101561615d578484038952815161613e85826160d9565b9450616149836160ed565b925060208a01995050600181019050616125565b50829750879550505050505092915050565b6000602082019050818103600083015261618981846160fa565b905092915050565b61619a81615b8d565b82525050565b60006020820190506161b56000830184616191565b92915050565b6161c481615c10565b82525050565b600081519050919050565b600082825260208201905092915050565b6000819050602082019050919050565b600061620283836161bb565b60208301905092915050565b6000602082019050919050565b6000616226826161ca565b61623081856161d5565b935061623b836161e6565b8060005b8381101561626c57815161625388826161f6565b975061625e8361620e565b92505060018101905061623f565b5085935050505092915050565b600060c08301600083015184820360008601526162968282616054565b915050602083015184820360208601526162b08282616054565b915050604083015184820360408601526162ca8282616054565b91505060608301516162df60608601826161bb565b5060808301516162f2608086018261608d565b5060a083015184820360a086015261630a828261621b565b9150508091505092915050565b600060208201905081810360008301526163318184616279565b905092915050565b600061634482615bf0565b9050919050565b61635481616339565b811461635f57600080fd5b50565b6000813590506163718161634b565b92915050565b60006020828403121561638d5761638c615a16565b5b600061639b84828501616362565b91505092915050565b600081519050919050565b600082825260208201905092915050565b6000819050602082019050919050565b60006163dc8383616054565b905092915050565b6000602082019050919050565b60006163fc826163a4565b61640681856163af565b935083602082028501616418856163c0565b8060005b85811015616454578484038952815161643585826163d0565b9450616440836163e4565b925060208a0199505060018101905061641c565b50829750879550505050505092915050565b6000602082019050818103600083015261648081846163f1565b905092915050565b61649181615aa5565b82525050565b600060608301600083015184820360008601526164b48282616054565b91505060208301516164c9602086018261608d565b5060408301516164dc6040860182616488565b508091505092915050565b600060208201905081810360008301526165018184616497565b905092915050565b600082825260208201905092915050565b6000616525826163a4565b61652f8185616509565b935083602082028501616541856163c0565b8060005b8581101561657d578484038952815161655e85826163d0565b9450616569836163e4565b925060208a01995050600181019050616545565b50829750879550505050505092915050565b600082825260208201905092915050565b60006165ab82616017565b6165b5818561658f565b9350836020820285016165c785616033565b8060005b8581101561660357848403895281516165e485826160d9565b94506165ef836160ed565b925060208a019950506001810190506165cb565b50829750879550505050505092915050565b600081519050919050565b600082825260208201905092915050565b6000819050602082019050919050565b600061664d838361608d565b60208301905092915050565b6000602082019050919050565b600061667182616615565b61667b8185616620565b935061668683616631565b8060005b838110156166b757815161669e8882616641565b97506166a983616659565b92505060018101905061668a565b5085935050505092915050565b60006101208301600083015184820360008601526166e28282616054565b915050602083015184820360208601526166fc828261651a565b91505060408301518482036040860152616716828261651a565b91505060608301518482036060860152616730828261651a565b9150506080830151848203608086015261674a82826165a0565b91505060a083015184820360a08601526167648282616054565b91505060c083015184820360c086015261677e8282616666565b91505060e083015161679360e0860182616488565b506101008301518482036101008601526167ad828261651a565b9150508091505092915050565b600060208201905081810360008301526167d481846166c4565b905092915050565b6000806000604084860312156167f5576167f4615a16565b5b600084013567ffffffffffffffff81111561681357616812615a1b565b5b61681f86828701615cf4565b9350935050602061683286828701615bae565b9150509250925092565b61684581615aa5565b811461685057600080fd5b50565b6000813590506168628161683c565b92915050565b6000806040838503121561687f5761687e615a16565b5b600061688d85828601615c63565b925050602061689e85828601616853565b9150509250929050565b600067ffffffffffffffff8211156168c3576168c2615e03565b5b6168cc82615b21565b9050602081019050919050565b60006168ec6168e7846168a8565b615e63565b90508281526020810184848401111561690857616907615dfe565b5b616913848285615eaf565b509392505050565b600082601f8301126169305761692f615ce5565b5b81356169408482602086016168d9565b91505092915050565b6000806000806080858703121561696357616962615a16565b5b600061697187828801615c63565b945050602061698287828801615c63565b935050604061699387828801615bae565b925050606085013567ffffffffffffffff8111156169b4576169b3615a1b565b5b6169c08782880161691b565b91505092959194509250565b600082825260208201905092915050565b60006169e8826161ca565b6169f281856169cc565b93506169fd836161e6565b8060005b83811015616a2e578151616a1588826161f6565b9750616a208361620e565b925050600181019050616a01565b5085935050505092915050565b60006020820190508181036000830152616a5581846169dd565b905092915050565b60008060408385031215616a7457616a73615a16565b5b6000616a8285828601615c63565b9250506020616a9385828601615c63565b9150509250929050565b7f4e487b7100000000000000000000000000000000000000000000000000000000600052602260045260246000fd5b60006002820490506001821680616ae457607f821691505b602082108103616af757616af6616a9d565b5b50919050565b7f4552433732313a20617070726f76656420717565727920666f72206e6f6e657860008201527f697374656e7420746f6b656e0000000000000000000000000000000000000000602082015250565b6000616b59602c83615ae6565b9150616b6482616afd565b604082019050919050565b60006020820190508181036000830152616b8881616b4c565b9050919050565b7f4552433732313a20617070726f76616c20746f2063757272656e74206f776e6560008201527f7200000000000000000000000000000000000000000000000000000000000000602082015250565b6000616beb602183615ae6565b9150616bf682616b8f565b604082019050919050565b60006020820190508181036000830152616c1a81616bde565b9050919050565b7f4552433732313a20617070726f76652063616c6c6572206973206e6f74206f7760008201527f6e6572206e6f7220617070726f76656420666f7220616c6c0000000000000000602082015250565b6000616c7d603883615ae6565b9150616c8882616c21565b604082019050919050565b60006020820190508181036000830152616cac81616c70565b9050919050565b7f4e6f742072656769737465726564000000000000000000000000000000000000600082015250565b6000616ce9600e83615ae6565b9150616cf482616cb3565b602082019050919050565b60006020820190508181036000830152616d1881616cdc565b9050919050565b7f426f7420646f6573206e6f742065786973740000000000000000000000000000600082015250565b6000616d55601283615ae6565b9150616d6082616d1f565b602082019050919050565b60006020820190508181036000830152616d8481616d48565b9050919050565b7f4e487b7100000000000000000000000000000000000000000000000000000000600052601160045260246000fd5b6000616dc582615b8d565b91507fffffffffffffffffffffffffffffffffffffffffffffffffffffffffffffffff8203616df757616df6616d8b565b5b600182019050919050565b600082905092915050565b60008190508160005260206000209050919050565b60006020601f8301049050919050565b600082821b905092915050565b600060088302616e6f7fffffffffffffffffffffffffffffffffffffffffffffffffffffffffffffffff82616e32565b616e798683616e32565b95508019841693508086168417925050509392505050565b6000819050919050565b6000616eb6616eb1616eac84615b8d565b616e91565b615b8d565b9050919050565b6000819050919050565b616ed083616e9b565b616ee4616edc82616ebd565b848454616e3f565b825550505050565b600090565b616ef9616eec565b616f04818484616ec7565b505050565b5b81811015616f2857616f1d600082616ef1565b600181019050616f0a565b5050565b601f821115616f6d57616f3e81616e0d565b616f4784616e22565b81016020851015616f56578190505b616f6a616f6285616e22565b830182616f09565b50505b505050565b600082821c905092915050565b6000616f9060001984600802616f72565b1980831691505092915050565b6000616fa98383616f7f565b9150826002028217905092915050565b616fc38383616e02565b67ffffffffffffffff811115616fdc57616fdb615e03565b5b616fe68254616acc565b616ff1828285616f2c565b6000601f831160018114617020576000841561700e578287013590505b6170188582616f9d565b865550617080565b601f19841661702e86616e0d565b60005b8281101561705657848901358255600182019150602085019450602081019050617031565b86831015617073578489013561706f601f891682616f7f565b8355505b6001600288020188555050505b50505050505050565b600081905092915050565b60006170a08385617089565b93506170ad838584615eaf565b82840190509392505050565b60006170c6828486617094565b91508190509392505050565b60006170de8385615ae6565b93506170eb838584615eaf565b6170f483615b21565b840190509392505050565b6000604082019050818103600083015261711a8185876170d2565b90506171296020830184616191565b949350505050565b7f5552492063616e6e6f7420626520656d70747900000000000000000000000000600082015250565b6000617167601383615ae6565b915061717282617131565b602082019050919050565b600060208201905081810360008301526171968161715a565b9050919050565b6171a682615adb565b67ffffffffffffffff8111156171bf576171be615e03565b5b6171c98254616acc565b6171d4828285616f2c565b600060209050601f83116001811461720757600084156171f5578287015190505b6171ff8582616f9d565b865550617267565b601f19841661721586616e0d565b60005b8281101561723d57848901518255600182019150602085019450602081019050617218565b8683101561725a5784890151617256601f891682616f7f565b8355505b6001600288020188555050505b505050505050565b7f4552433732313a207472616e736665722063616c6c6572206973206e6f74206f60008201527f776e6572206e6f7220617070726f766564000000000000000000000000000000602082015250565b60006172cb603183615ae6565b91506172d68261726f565b604082019050919050565b600060208201905081810360008301526172fa816172be565b9050919050565b7f4f776e61626c653a2063616c6c6572206973206e6f7420746865206f776e6572600082015250565b6000617337602083615ae6565b915061734282617301565b602082019050919050565b600060208201905081810360008301526173668161732a565b9050919050565b7f4e6f2066756e647320746f207769746864726177000000000000000000000000600082015250565b60006173a3601483615ae6565b91506173ae8261736d565b602082019050919050565b600060208201905081810360008301526173d281617396565b9050919050565b600081905092915050565b50565b60006173f46000836173d9565b91506173ff826173e4565b600082019050919050565b6000617415826173e7565b9150819050919050565b7f5769746864726177616c206661696c6564000000000000000000000000000000600082015250565b6000617455601183615ae6565b91506174608261741f565b602082019050919050565b6000602082019050818103600083015261748481617448565b9050919050565b600060208201905081810360008301526174a68184866170d2565b90509392505050565b7f436f6d6d756e69747920646f6573206e6f742065786973740000000000000000600082015250565b60006174e5601883615ae6565b91506174f0826174af565b602082019050919050565b60006020820190508181036000830152617514816174d8565b9050919050565b7f4552433732313a206f776e657220717565727920666f72206e6f6e657869737460008201527f656e7420746f6b656e0000000000000000000000000000000000000000000000602082015250565b6000617577602983615ae6565b91506175828261751b565b604082019050919050565b600060208201905081810360008301526175a68161756a565b9050919050565b7f456d657267656e6379207769746864726177616c206661696c65640000000000600082015250565b60006175e3601b83615ae6565b91506175ee826175ad565b602082019050919050565b60006020820190508181036000830152617612816175d6565b9050919050565b7f5573657220616c72656164792072656769737465726564000000000000000000600082015250565b600061764f601783615ae6565b915061765a82617619565b602082019050919050565b6000602082019050818103600083015261767e81617642565b9050919050565b7f4d657461646174612063616e6e6f7420626520656d7074790000000000000000600082015250565b60006176bb601883615ae6565b91506176c682617685565b602082019050919050565b600060208201905081810360008301526176ea816176ae565b9050919050565b7f4552433732313a2062616c616e636520717565727920666f7220746865207a6560008201527f726f206164647265737300000000000000000000000000000000000000000000602082015250565b600061774d602a83615ae6565b9150617758826176f1565b604082019050919050565b6000602082019050818103600083015261777c81617740565b9050919050565b7f5265656e7472616e637947756172643a207265656e7472616e742063616c6c00600082015250565b60006177b9601f83615ae6565b91506177c482617783565b602082019050919050565b600060208201905081810360008301526177e8816177ac565b9050919050565b7f496e73756666696369656e74207061796d656e74000000000000000000000000600082015250565b6000617825601483615ae6565b9150617830826177ef565b602082019050919050565b6000602082019050818103600083015261785481617818565b9050919050565b7f546f6b656e20646f6573206e6f74206578697374000000000000000000000000600082015250565b6000617891601483615ae6565b915061789c8261785b565b602082019050919050565b600060208201905081810360008301526178c081617884565b9050919050565b7f55736572206e6f74207265676973746572656400000000000000000000000000600082015250565b60006178fd601383615ae6565b9150617908826178c7565b602082019050919050565b6000602082019050818103600083015261792c816178f0565b9050919050565b7f4f776e61626c653a206e6577206f776e657220697320746865207a65726f206160008201527f6464726573730000000000000000000000000000000000000000000000000000602082015250565b600061798f602683615ae6565b915061799a82617933565b604082019050919050565b600060208201905081810360008301526179be81617982565b9050919050565b7f436f6d6d756e697479206e616d652063616e6e6f7420626520656d7074790000600082015250565b60006179fb601e83615ae6565b9150617a06826179c5565b602082019050919050565b60006020820190508181036000830152617a2a816179ee565b9050919050565b7f436f6d6d756e69747920616c7265616479206578697374730000000000000000600082015250565b6000617a67601883615ae6565b9150617a7282617a31565b602082019050919050565b60006020820190508181036000830152617a9681617a5a565b9050919050565b7f4552433732313a206d696e7420746f20746865207a65726f2061646472657373600082015250565b6000617ad3602083615ae6565b9150617ade82617a9d565b602082019050919050565b60006020820190508181036000830152617b0281617ac6565b9050919050565b7f4552433732313a20746f6b656e20616c7265616479206d696e74656400000000600082015250565b6000617b3f601c83615ae6565b9150617b4a82617b09565b602082019050919050565b60006020820190508181036000830152617b6e81617b32565b9050919050565b6000617b8082615b8d565b9150617b8b83615b8d565b9250828201905080821115617ba357617ba2616d8b565b5b92915050565b7f4552433732313a206f70657261746f7220717565727920666f72206e6f6e657860008201527f697374656e7420746f6b656e0000000000000000000000000000000000000000602082015250565b6000617c05602c83615ae6565b9150617c1082617ba9565b604082019050919050565b60006020820190508181036000830152617c3481617bf8565b9050919050565b7f4552433732313a207472616e736665722066726f6d20696e636f72726563742060008201527f6f776e6572000000000000000000000000000000000000000000000000000000602082015250565b6000617c97602583615ae6565b9150617ca282617c3b565b604082019050919050565b60006020820190508181036000830152617cc681617c8a565b9050919050565b7f4552433732313a207472616e7366657220746f20746865207a65726f2061646460008201527f7265737300000000000000000000000000000000000000000000000000000000602082015250565b6000617d29602483615ae6565b9150617d3482617ccd565b604082019050919050565b60006020820190508181036000830152617d5881617d1c565b9050919050565b6000617d6a82615b8d565b9150617d7583615b8d565b9250828203905081811115617d8d57617d8c616d8b565b5b92915050565b7f476f616c2049442063616e6e6f7420626520656d707479000000000000000000600082015250565b6000617dc9601783615ae6565b9150617dd482617d93565b602082019050919050565b60006020820190508181036000830152617df881617dbc565b9050919050565b7f436f6d6d756e69747920726f6f6d20646f6573206e6f74206578697374000000600082015250565b6000617e35601d83615ae6565b9150617e4082617dff565b602082019050919050565b60006020820190508181036000830152617e6481617e28565b9050919050565b7f4e487b7100000000000000000000000000000000000000000000000000000000600052603260045260246000fd5b7f416c72656164792061206d656d62657200000000000000000000000000000000600082015250565b6000617ed0601083615ae6565b9150617edb82617e9a565b602082019050919050565b60006020820190508181036000830152617eff81617ec3565b9050919050565b7f496e6a7572792049442063616e6e6f7420626520656d70747900000000000000600082015250565b6000617f3c601983615ae6565b9150617f4782617f06565b602082019050919050565b60006020820190508181036000830152617f6b81617f2f565b9050919050565b6000617f7e83856173d9565b9350617f8b838584615eaf565b82840190509392505050565b6000617fa4828486617f72565b91508190509392505050565b60008190508160005260206000209050919050565b60008154617fd281616acc565b617fdc81866173d9565b94506001821660008114617ff7576001811461800c5761803f565b60ff198316865281151582028601935061803f565b61801585617fb0565b60005b8381101561803757815481890152600182019150602081019050618018565b838801955050505b50505092915050565b60006180548284617fc5565b915081905092915050565b60008154905061806e81616acc565b9050919050565b60008190508160005260206000209050919050565b818103618098575050618170565b6180a18261805f565b67ffffffffffffffff8111156180ba576180b9615e03565b5b6180c48254616acc565b6180cf828285616f2c565b6000601f8311600181146180fe57600084156180ec578287015490505b6180f68582616f9d565b865550618169565b601f19841661810c87618075565b965061811786616e0d565b60005b8281101561813f5784890154825560018201915060018501945060208101905061811a565b8683101561815c5784890154618158601f891682616f7f565b8355505b6001600288020188555050505b5050505050505b565b7f4e487b7100000000000000000000000000000000000000000000000000000000600052603160045260246000fd5b7f4552433732313a20617070726f766520746f2063616c6c657200000000000000600082015250565b60006181d7601983615ae6565b91506181e2826181a1565b602082019050919050565b60006020820190508181036000830152618206816181ca565b9050919050565b7f41637469766974792049442063616e6e6f7420626520656d7074790000000000600082015250565b6000618243601b83615ae6565b915061824e8261820d565b602082019050919050565b6000602082019050818103600083015261827281618236565b9050919050565b7f4552433732313a207472616e7366657220746f206e6f6e20455243373231526560008201527f63656976657220696d706c656d656e7465720000000000000000000000000000602082015250565b60006182d5603283615ae6565b91506182e082618279565b604082019050919050565b60006020820190508181036000830152618304816182c8565b9050919050565b7f426f74206e616d652063616e6e6f7420626520656d7074790000000000000000600082015250565b6000618341601883615ae6565b915061834c8261830b565b602082019050919050565b6000602082019050818103600083015261837081618334565b9050919050565b7f426f7420616c7265616479206578697374730000000000000000000000000000600082015250565b60006183ad601283615ae6565b91506183b882618377565b602082019050919050565b600060208201905081810360008301526183dc816183a0565b9050919050565b600081519050919050565b600082825260208201905092915050565b600061840a826183e3565b61841481856183ee565b9350618424818560208601615af7565b61842d81615b21565b840191505092915050565b600060808201905061844d6000830187615c22565b61845a6020830186615c22565b6184676040830185616191565b818103606083015261847981846183ff565b905095945050505050565b60008151905061849381615a4c565b92915050565b6000602082840312156184af576184ae615a16565b5b60006184bd84828501618484565b9150509291505056fea264697066735822122087bdab7fecce5089e88001c3293a9a9a3afc6aba56f972e24aa565c78c3368be64736f6c63430008140033",
  "linkReferences": {},
  "deployedLinkReferences": {}
}