{
  "_format": "hh-sol-artifact-1",
  "contractName": "Athl3teHub",
  "sourceName": "contracts/Athl3teHub.sol",
  "abi": [
    {
      "inputs": [
        {
          "internalType": "address",
          "name": "_coreContract",
          "type": "address"
        },
        {
          "internalType": "address",
          "name": "_botsContract",
          "type": "address"
        },
        {
          "internalType": "address",
          "name": "_communitiesContract",
          "type": "address"
        },
        {
          "internalType": "address",
          "name": "_nftContract",
          "type": "address"
        },
        {
          "internalType": "address",
          "name": "_viewContract",
          "type": "address"
        }
      ],
      "stateMutability": "nonpayable",
      "type": "constructor"
    },
    {
      "anonymous": false,
      "inputs": [
        {
          "indexed": false,
          "internalType": "address",
          "name": "core",
          "type": "address"
        },
        {
          "indexed": false,
          "internalType": "address",
          "name": "bots",
          "type": "address"
        },
        {
          "indexed": false,
          "internalType": "address",
          "name": "communities",
          "type": "address"
        },
        {
          "indexed": false,
          "internalType": "address",
          "name": "nft",
          "type": "address"
        },
        {
          "indexed": false,
          "internalType": "address",
          "name": "viewAddr",
          "type": "address"
        }
      ],
      "name": "ModulesConnected",
      "type": "event"
    },
    {
      "inputs": [
        {
          "internalType": "string",
          "name": "_activityId",
          "type": "string"
        }
      ],
      "name": "addActivity",
      "outputs": [],
      "stateMutability": "nonpayable",
      "type": "function"
    },
    {
      "inputs": [
        {
          "internalType": "string",
          "name": "_goalId",
          "type": "string"
        }
      ],
      "name": "addNutritionGoal",
      "outputs": [],
      "stateMutability": "nonpayable",
      "type": "function"
    },
    {
      "inputs": [
        {
          "internalType": "string",
          "name": "_goalId",
          "type": "string"
        }
      ],
      "name": "addSportGoal",
      "outputs": [],
      "stateMutability": "nonpayable",
      "type": "function"
    },
    {
      "inputs": [],
      "name": "botsContract",
      "outputs": [
        {
          "internalType": "address",
          "name": "",
          "type": "address"
        }
      ],
      "stateMutability": "view",
      "type": "function"
    },
    {
      "inputs": [
        {
          "internalType": "string",
          "name": "_botName",
          "type": "string"
        }
      ],
      "name": "buyBot",
      "outputs": [
        {
          "internalType": "uint256",
          "name": "",
          "type": "uint256"
        }
      ],
      "stateMutability": "payable",
      "type": "function"
    },
    {
      "inputs": [],
      "name": "communitiesContract",
      "outputs": [
        {
          "internalType": "address",
          "name": "",
          "type": "address"
        }
      ],
      "stateMutability": "view",
      "type": "function"
    },
    {
      "inputs": [],
      "name": "coreContract",
      "outputs": [
        {
          "internalType": "address",
          "name": "",
          "type": "address"
        }
      ],
      "stateMutability": "view",
      "type": "function"
    },
    {
      "inputs": [
        {
          "internalType": "string",
          "name": "_communityName",
          "type": "string"
        },
        {
          "internalType": "string",
          "name": "_communityImage",
          "type": "string"
        },
        {
          "internalType": "string",
          "name": "_botName",
          "type": "string"
        }
      ],
      "name": "createCommunityRoom",
      "outputs": [],
      "stateMutability": "nonpayable",
      "type": "function"
    },
    {
      "inputs": [],
      "name": "getAllBotNames",
      "outputs": [
        {
          "internalType": "string[]",
          "name": "",
          "type": "string[]"
        }
      ],
      "stateMutability": "view",
      "type": "function"
    },
    {
      "inputs": [],
      "name": "getAllCommunityNames",
      "outputs": [
        {
          "internalType": "string[]",
          "name": "",
          "type": "string[]"
        }
      ],
      "stateMutability": "view",
      "type": "function"
    },
    {
      "inputs": [],
      "name": "getAllUsers",
      "outputs": [
        {
          "internalType": "address[]",
          "name": "",
          "type": "address[]"
        }
      ],
      "stateMutability": "view",
      "type": "function"
    },
    {
      "inputs": [
        {
          "internalType": "string",
          "name": "_botName",
          "type": "string"
        }
      ],
      "name": "getBotDetails",
      "outputs": [
        {
          "components": [
            {
              "internalType": "string",
              "name": "botName",
              "type": "string"
            },
            {
              "internalType": "uint256",
              "name": "unlockCostInWei",
              "type": "uint256"
            },
            {
              "internalType": "bool",
              "name": "exists",
              "type": "bool"
            }
          ],
          "internalType": "struct IAthl3teStructs.Bot",
          "name": "",
          "type": "tuple"
        }
      ],
      "stateMutability": "view",
      "type": "function"
    },
    {
      "inputs": [
        {
          "internalType": "string",
          "name": "_communityName",
          "type": "string"
        }
      ],
      "name": "getCommunityRoomDetails",
      "outputs": [
        {
          "components": [
            {
              "internalType": "string",
              "name": "communityName",
              "type": "string"
            },
            {
              "internalType": "string",
              "name": "communityImage",
              "type": "string"
            },
            {
              "internalType": "string",
              "name": "botName",
              "type": "string"
            },
            {
              "internalType": "address",
              "name": "createdBy",
              "type": "address"
            },
            {
              "internalType": "uint256",
              "name": "messagesId",
              "type": "uint256"
            },
            {
              "internalType": "address[]",
              "name": "members",
              "type": "address[]"
            }
          ],
          "internalType": "struct IAthl3teStructs.CommunityRoom",
          "name": "",
          "type": "tuple"
        }
      ],
      "stateMutability": "view",
      "type": "function"
    },
    {
      "inputs": [],
      "name": "getContractAddresses",
      "outputs": [
        {
          "internalType": "address",
          "name": "core",
          "type": "address"
        },
        {
          "internalType": "address",
          "name": "bots",
          "type": "address"
        },
        {
          "internalType": "address",
          "name": "communities",
          "type": "address"
        },
        {
          "internalType": "address",
          "name": "nft",
          "type": "address"
        },
        {
          "internalType": "address",
          "name": "viewAddr",
          "type": "address"
        }
      ],
      "stateMutability": "view",
      "type": "function"
    },
    {
      "inputs": [],
      "name": "getUserDetails",
      "outputs": [
        {
          "components": [
            {
              "internalType": "string",
              "name": "metadata",
              "type": "string"
            },
            {
              "internalType": "string[]",
              "name": "activityIds",
              "type": "string[]"
            },
            {
              "internalType": "string[]",
              "name": "sportGoalIds",
              "type": "string[]"
            },
            {
              "internalType": "string[]",
              "name": "nutritionGoalIds",
              "type": "string[]"
            },
            {
              "components": [
                {
                  "internalType": "string",
                  "name": "botName",
                  "type": "string"
                },
                {
                  "internalType": "uint256",
                  "name": "messagesId",
                  "type": "uint256"
                }
              ],
              "internalType": "struct IAthl3teStructs.PersonalAssistant[]",
              "name": "purchasedAssistants",
              "type": "tuple[]"
            },
            {
              "internalType": "string",
              "name": "injuriesDescriptionId",
              "type": "string"
            },
            {
              "internalType": "uint256[]",
              "name": "nftTokenIds",
              "type": "uint256[]"
            },
            {
              "internalType": "bool",
              "name": "isRegistered",
              "type": "bool"
            },
            {
              "internalType": "string[]",
              "name": "joinedCommunities",
              "type": "string[]"
            }
          ],
          "internalType": "struct IAthl3teStructs.User",
          "name": "",
          "type": "tuple"
        }
      ],
      "stateMutability": "view",
      "type": "function"
    },
    {
      "inputs": [
        {
          "internalType": "address",
          "name": "_user",
          "type": "address"
        }
      ],
      "name": "getUserNftCount",
      "outputs": [
        {
          "internalType": "uint256",
          "name": "",
          "type": "uint256"
        }
      ],
      "stateMutability": "view",
      "type": "function"
    },
    {
      "inputs": [
        {
          "internalType": "address",
          "name": "_user",
          "type": "address"
        }
      ],
      "name": "isUserRegistered",
      "outputs": [
        {
          "internalType": "bool",
          "name": "",
          "type": "bool"
        }
      ],
      "stateMutability": "view",
      "type": "function"
    },
    {
      "inputs": [
        {
          "internalType": "string",
          "name": "_communityName",
          "type": "string"
        }
      ],
      "name": "joinCommunityRoom",
      "outputs": [],
      "stateMutability": "nonpayable",
      "type": "function"
    },
    {
      "inputs": [
        {
          "internalType": "string",
          "name": "uri",
          "type": "string"
        }
      ],
      "name": "mintNftWithUri",
      "outputs": [
        {
          "internalType": "uint256",
          "name": "",
          "type": "uint256"
        }
      ],
      "stateMutability": "nonpayable",
      "type": "function"
    },
    {
      "inputs": [],
      "name": "nftContract",
      "outputs": [
        {
          "internalType": "address",
          "name": "",
          "type": "address"
        }
      ],
      "stateMutability": "view",
      "type": "function"
    },
    {
      "inputs": [
        {
          "internalType": "string",
          "name": "_metadata",
          "type": "string"
        }
      ],
      "name": "registerUser",
      "outputs": [],
      "stateMutability": "nonpayable",
      "type": "function"
    },
    {
      "inputs": [
        {
          "internalType": "string",
          "name": "_injuryId",
          "type": "string"
        }
      ],
      "name": "updateInjury",
      "outputs": [],
      "stateMutability": "nonpayable",
      "type": "function"
    },
    {
      "inputs": [],
      "name": "viewContract",
      "outputs": [
        {
          "internalType": "address",
          "name": "",
          "type": "address"
        }
      ],
      "stateMutability": "view",
      "type": "function"
    }
  ],
  "bytecode": "0x6101206040523480156200001257600080fd5b5060405162002c9438038062002c948339818101604052810190620000389190620001f3565b8473ffffffffffffffffffffffffffffffffffffffff1660808173ffffffffffffffffffffffffffffffffffffffff16815250508373ffffffffffffffffffffffffffffffffffffffff1660a08173ffffffffffffffffffffffffffffffffffffffff16815250508273ffffffffffffffffffffffffffffffffffffffff1660c08173ffffffffffffffffffffffffffffffffffffffff16815250508173ffffffffffffffffffffffffffffffffffffffff1660e08173ffffffffffffffffffffffffffffffffffffffff16815250508073ffffffffffffffffffffffffffffffffffffffff166101008173ffffffffffffffffffffffffffffffffffffffff16815250507fe5e7b2346aeb307bd58042f163f6fe60c22f7e417a5a50286fec2dd31cca6ee28585858585604051620001769594939291906200028c565b60405180910390a15050505050620002e9565b600080fd5b600073ffffffffffffffffffffffffffffffffffffffff82169050919050565b6000620001bb826200018e565b9050919050565b620001cd81620001ae565b8114620001d957600080fd5b50565b600081519050620001ed81620001c2565b92915050565b600080600080600060a0868803121562000212576200021162000189565b5b60006200022288828901620001dc565b95505060206200023588828901620001dc565b94505060406200024888828901620001dc565b93505060606200025b88828901620001dc565b92505060806200026e88828901620001dc565b9150509295509295909350565b6200028681620001ae565b82525050565b600060a082019050620002a360008301886200027b565b620002b260208301876200027b565b620002c160408301866200027b565b620002d060608301856200027b565b620002df60808301846200027b565b9695505050505050565b60805160a05160c05160e051610100516128cc620003c8600039600081816108800152610d810152600081816106bb01528181610d6001528181610fae015261107301526000818161061c015281816107ef015281816108ac01528181610b2a01528181610d3f0152610e4e015260008181610a7f01528181610d1e01528181610db501528181610f05015261104f01526000818161057b0152818161075e01528181610955015281816109e601528181610bc301528181610c5c01528181610cfd01528181610e7201528181611099015261113201526128cc6000f3fe6080604052600436106101405760003560e01c8063903d3626116100b6578063b84f14b71161006f578063b84f14b71461045e578063ba0fac151461048e578063c56aaa18146104cb578063d56d229d146104f6578063e2842d7914610521578063e80db5db1461054c57610140565b8063903d36261461035c578063942886be14610385578063953874d2146103b0578063b028e967146103df578063b14af44d1461040a578063b841e45a1461043557610140565b806347b503491161010857806347b503491461023a57806354d9ea1514610265578063610693e7146102a2578063704f1b94146102cb57806379181eea146102f45780638272e1d41461033157610140565b8063163f7522146101455780631dd20a8b14610182578063226e4fd5146101ab5780633fccb4a5146101e857806343dfc73c14610211575b600080fd5b34801561015157600080fd5b5061016c60048036038101906101679190611283565b610577565b60405161017991906112cb565b60405180910390f35b34801561018e57600080fd5b506101a960048036038101906101a4919061134b565b61061a565b005b3480156101b757600080fd5b506101d260048036038101906101cd9190611540565b6106b7565b6040516101df91906115a2565b60405180910390f35b3480156101f457600080fd5b5061020f600480360381019061020a91906115bd565b61075c565b005b34801561021d57600080fd5b50610238600480360381019061023391906115bd565b6107ed565b005b34801561024657600080fd5b5061024f61087e565b60405161025c9190611619565b60405180910390f35b34801561027157600080fd5b5061028c600480360381019061028791906115bd565b6108a2565b604051610299919061181e565b60405180910390f35b3480156102ae57600080fd5b506102c960048036038101906102c491906115bd565b610953565b005b3480156102d757600080fd5b506102f260048036038101906102ed91906115bd565b6109e4565b005b34801561030057600080fd5b5061031b600480360381019061031691906115bd565b610a75565b604051610328919061189f565b60405180910390f35b34801561033d57600080fd5b50610346610b26565b6040516103539190611983565b60405180910390f35b34801561036857600080fd5b50610383600480360381019061037e91906115bd565b610bc1565b005b34801561039157600080fd5b5061039a610c52565b6040516103a79190611ccf565b60405180910390f35b3480156103bc57600080fd5b506103c5610cf3565b6040516103d6959493929190611cf1565b60405180910390f35b3480156103eb57600080fd5b506103f4610db1565b6040516104019190611983565b60405180910390f35b34801561041657600080fd5b5061041f610e4c565b60405161042c9190611619565b60405180910390f35b34801561044157600080fd5b5061045c600480360381019061045791906115bd565b610e70565b005b610478600480360381019061047391906115bd565b610f01565b60405161048591906115a2565b60405180910390f35b34801561049a57600080fd5b506104b560048036038101906104b09190611283565b610faa565b6040516104c291906115a2565b60405180910390f35b3480156104d757600080fd5b506104e061104d565b6040516104ed9190611619565b60405180910390f35b34801561050257600080fd5b5061050b611071565b6040516105189190611619565b60405180910390f35b34801561052d57600080fd5b50610536611095565b6040516105439190611db3565b60405180910390f35b34801561055857600080fd5b50610561611130565b60405161056e9190611619565b60405180910390f35b60007f000000000000000000000000000000000000000000000000000000000000000073ffffffffffffffffffffffffffffffffffffffff1663163f7522836040518263ffffffff1660e01b81526004016105d29190611619565b602060405180830381865afa1580156105ef573d6000803e3d6000fd5b505050506040513d601f19601f820116820180604052508101906106139190611e01565b9050919050565b7f000000000000000000000000000000000000000000000000000000000000000073ffffffffffffffffffffffffffffffffffffffff16631dd20a8b8787878787876040518763ffffffff1660e01b815260040161067d96959493929190611e6c565b600060405180830381600087803b15801561069757600080fd5b505af11580156106ab573d6000803e3d6000fd5b50505050505050505050565b60007f000000000000000000000000000000000000000000000000000000000000000073ffffffffffffffffffffffffffffffffffffffff1663226e4fd5836040518263ffffffff1660e01b81526004016107129190611ef7565b6020604051808303816000875af1158015610731573d6000803e3d6000fd5b505050506040513d601f19601f820116820180604052508101906107559190611f45565b9050919050565b7f000000000000000000000000000000000000000000000000000000000000000073ffffffffffffffffffffffffffffffffffffffff16633fccb4a583836040518363ffffffff1660e01b81526004016107b7929190611f72565b600060405180830381600087803b1580156107d157600080fd5b505af11580156107e5573d6000803e3d6000fd5b505050505050565b7f000000000000000000000000000000000000000000000000000000000000000073ffffffffffffffffffffffffffffffffffffffff166343dfc73c83836040518363ffffffff1660e01b8152600401610848929190611f72565b600060405180830381600087803b15801561086257600080fd5b505af1158015610876573d6000803e3d6000fd5b505050505050565b7f000000000000000000000000000000000000000000000000000000000000000081565b6108aa611154565b7f000000000000000000000000000000000000000000000000000000000000000073ffffffffffffffffffffffffffffffffffffffff166354d9ea1584846040518363ffffffff1660e01b8152600401610905929190611f72565b600060405180830381865afa158015610922573d6000803e3d6000fd5b505050506040513d6000823e3d601f19601f8201168201806040525081019061094b91906121f8565b905092915050565b7f000000000000000000000000000000000000000000000000000000000000000073ffffffffffffffffffffffffffffffffffffffff1663610693e783836040518363ffffffff1660e01b81526004016109ae929190611f72565b600060405180830381600087803b1580156109c857600080fd5b505af11580156109dc573d6000803e3d6000fd5b505050505050565b7f000000000000000000000000000000000000000000000000000000000000000073ffffffffffffffffffffffffffffffffffffffff1663704f1b9483836040518363ffffffff1660e01b8152600401610a3f929190611f72565b600060405180830381600087803b158015610a5957600080fd5b505af1158015610a6d573d6000803e3d6000fd5b505050505050565b610a7d6111a0565b7f000000000000000000000000000000000000000000000000000000000000000073ffffffffffffffffffffffffffffffffffffffff166379181eea84846040518363ffffffff1660e01b8152600401610ad8929190611f72565b600060405180830381865afa158015610af5573d6000803e3d6000fd5b505050506040513d6000823e3d601f19601f82011682018060405250810190610b1e91906122c1565b905092915050565b60607f000000000000000000000000000000000000000000000000000000000000000073ffffffffffffffffffffffffffffffffffffffff16638272e1d46040518163ffffffff1660e01b8152600401600060405180830381865afa158015610b93573d6000803e3d6000fd5b505050506040513d6000823e3d601f19601f82011682018060405250810190610bbc91906123eb565b905090565b7f000000000000000000000000000000000000000000000000000000000000000073ffffffffffffffffffffffffffffffffffffffff1663903d362683836040518363ffffffff1660e01b8152600401610c1c929190611f72565b600060405180830381600087803b158015610c3657600080fd5b505af1158015610c4a573d6000803e3d6000fd5b505050505050565b610c5a6111c3565b7f000000000000000000000000000000000000000000000000000000000000000073ffffffffffffffffffffffffffffffffffffffff1663942886be6040518163ffffffff1660e01b8152600401600060405180830381865afa158015610cc5573d6000803e3d6000fd5b505050506040513d6000823e3d601f19601f82011682018060405250810190610cee9190612804565b905090565b60008060008060007f00000000000000000000000000000000000000000000000000000000000000007f00000000000000000000000000000000000000000000000000000000000000007f00000000000000000000000000000000000000000000000000000000000000007f00000000000000000000000000000000000000000000000000000000000000007f0000000000000000000000000000000000000000000000000000000000000000945094509450945094509091929394565b60607f000000000000000000000000000000000000000000000000000000000000000073ffffffffffffffffffffffffffffffffffffffff1663b028e9676040518163ffffffff1660e01b8152600401600060405180830381865afa158015610e1e573d6000803e3d6000fd5b505050506040513d6000823e3d601f19601f82011682018060405250810190610e4791906123eb565b905090565b7f000000000000000000000000000000000000000000000000000000000000000081565b7f000000000000000000000000000000000000000000000000000000000000000073ffffffffffffffffffffffffffffffffffffffff1663b841e45a83836040518363ffffffff1660e01b8152600401610ecb929190611f72565b600060405180830381600087803b158015610ee557600080fd5b505af1158015610ef9573d6000803e3d6000fd5b505050505050565b60007f000000000000000000000000000000000000000000000000000000000000000073ffffffffffffffffffffffffffffffffffffffff1663b84f14b73485856040518463ffffffff1660e01b8152600401610f5f929190611f72565b60206040518083038185885af1158015610f7d573d6000803e3d6000fd5b50505050506040513d601f19601f82011682018060405250810190610fa29190611f45565b905092915050565b60007f000000000000000000000000000000000000000000000000000000000000000073ffffffffffffffffffffffffffffffffffffffff166370a08231836040518263ffffffff1660e01b81526004016110059190611619565b602060405180830381865afa158015611022573d6000803e3d6000fd5b505050506040513d601f19601f820116820180604052508101906110469190611f45565b9050919050565b7f000000000000000000000000000000000000000000000000000000000000000081565b7f000000000000000000000000000000000000000000000000000000000000000081565b60607f000000000000000000000000000000000000000000000000000000000000000073ffffffffffffffffffffffffffffffffffffffff1663e2842d796040518163ffffffff1660e01b8152600401600060405180830381865afa158015611102573d6000803e3d6000fd5b505050506040513d6000823e3d601f19601f8201168201806040525081019061112b919061284d565b905090565b7f000000000000000000000000000000000000000000000000000000000000000081565b6040518060c00160405280606081526020016060815260200160608152602001600073ffffffffffffffffffffffffffffffffffffffff16815260200160008152602001606081525090565b604051806060016040528060608152602001600081526020016000151581525090565b60405180610120016040528060608152602001606081526020016060815260200160608152602001606081526020016060815260200160608152602001600015158152602001606081525090565b6000604051905090565b600080fd5b600080fd5b600073ffffffffffffffffffffffffffffffffffffffff82169050919050565b600061125082611225565b9050919050565b61126081611245565b811461126b57600080fd5b50565b60008135905061127d81611257565b92915050565b6000602082840312156112995761129861121b565b5b60006112a78482850161126e565b91505092915050565b60008115159050919050565b6112c5816112b0565b82525050565b60006020820190506112e060008301846112bc565b92915050565b600080fd5b600080fd5b600080fd5b60008083601f84011261130b5761130a6112e6565b5b8235905067ffffffffffffffff811115611328576113276112eb565b5b602083019150836001820283011115611344576113436112f0565b5b9250929050565b600080600080600080606087890312156113685761136761121b565b5b600087013567ffffffffffffffff81111561138657611385611220565b5b61139289828a016112f5565b9650965050602087013567ffffffffffffffff8111156113b5576113b4611220565b5b6113c189828a016112f5565b9450945050604087013567ffffffffffffffff8111156113e4576113e3611220565b5b6113f089828a016112f5565b92509250509295509295509295565b600080fd5b6000601f19601f8301169050919050565b7f4e487b7100000000000000000000000000000000000000000000000000000000600052604160045260246000fd5b61144d82611404565b810181811067ffffffffffffffff8211171561146c5761146b611415565b5b80604052505050565b600061147f611211565b905061148b8282611444565b919050565b600067ffffffffffffffff8211156114ab576114aa611415565b5b6114b482611404565b9050602081019050919050565b82818337600083830152505050565b60006114e36114de84611490565b611475565b9050828152602081018484840111156114ff576114fe6113ff565b5b61150a8482856114c1565b509392505050565b600082601f830112611527576115266112e6565b5b81356115378482602086016114d0565b91505092915050565b6000602082840312156115565761155561121b565b5b600082013567ffffffffffffffff81111561157457611573611220565b5b61158084828501611512565b91505092915050565b6000819050919050565b61159c81611589565b82525050565b60006020820190506115b76000830184611593565b92915050565b600080602083850312156115d4576115d361121b565b5b600083013567ffffffffffffffff8111156115f2576115f1611220565b5b6115fe858286016112f5565b92509250509250929050565b61161381611245565b82525050565b600060208201905061162e600083018461160a565b92915050565b600081519050919050565b600082825260208201905092915050565b60005b8381101561166e578082015181840152602081019050611653565b60008484015250505050565b600061168582611634565b61168f818561163f565b935061169f818560208601611650565b6116a881611404565b840191505092915050565b6116bc81611245565b82525050565b6116cb81611589565b82525050565b600081519050919050565b600082825260208201905092915050565b6000819050602082019050919050565b600061170983836116b3565b60208301905092915050565b6000602082019050919050565b600061172d826116d1565b61173781856116dc565b9350611742836116ed565b8060005b8381101561177357815161175a88826116fd565b975061176583611715565b925050600181019050611746565b5085935050505092915050565b600060c083016000830151848203600086015261179d828261167a565b915050602083015184820360208601526117b7828261167a565b915050604083015184820360408601526117d1828261167a565b91505060608301516117e660608601826116b3565b5060808301516117f960808601826116c2565b5060a083015184820360a08601526118118282611722565b9150508091505092915050565b600060208201905081810360008301526118388184611780565b905092915050565b611849816112b0565b82525050565b6000606083016000830151848203600086015261186c828261167a565b915050602083015161188160208601826116c2565b5060408301516118946040860182611840565b508091505092915050565b600060208201905081810360008301526118b9818461184f565b905092915050565b600081519050919050565b600082825260208201905092915050565b6000819050602082019050919050565b60006118f9838361167a565b905092915050565b6000602082019050919050565b6000611919826118c1565b61192381856118cc565b935083602082028501611935856118dd565b8060005b85811015611971578484038952815161195285826118ed565b945061195d83611901565b925060208a01995050600181019050611939565b50829750879550505050505092915050565b6000602082019050818103600083015261199d818461190e565b905092915050565b600082825260208201905092915050565b60006119c1826118c1565b6119cb81856119a5565b9350836020820285016119dd856118dd565b8060005b85811015611a1957848403895281516119fa85826118ed565b9450611a0583611901565b925060208a019950506001810190506119e1565b50829750879550505050505092915050565b600081519050919050565b600082825260208201905092915050565b6000819050602082019050919050565b60006040830160008301518482036000860152611a74828261167a565b9150506020830151611a8960208601826116c2565b508091505092915050565b6000611aa08383611a57565b905092915050565b6000602082019050919050565b6000611ac082611a2b565b611aca8185611a36565b935083602082028501611adc85611a47565b8060005b85811015611b185784840389528151611af98582611a94565b9450611b0483611aa8565b925060208a01995050600181019050611ae0565b50829750879550505050505092915050565b600081519050919050565b600082825260208201905092915050565b6000819050602082019050919050565b6000611b6283836116c2565b60208301905092915050565b6000602082019050919050565b6000611b8682611b2a565b611b908185611b35565b9350611b9b83611b46565b8060005b83811015611bcc578151611bb38882611b56565b9750611bbe83611b6e565b925050600181019050611b9f565b5085935050505092915050565b6000610120830160008301518482036000860152611bf7828261167a565b91505060208301518482036020860152611c1182826119b6565b91505060408301518482036040860152611c2b82826119b6565b91505060608301518482036060860152611c4582826119b6565b91505060808301518482036080860152611c5f8282611ab5565b91505060a083015184820360a0860152611c79828261167a565b91505060c083015184820360c0860152611c938282611b7b565b91505060e0830151611ca860e0860182611840565b50610100830151848203610100860152611cc282826119b6565b9150508091505092915050565b60006020820190508181036000830152611ce98184611bd9565b905092915050565b600060a082019050611d06600083018861160a565b611d13602083018761160a565b611d20604083018661160a565b611d2d606083018561160a565b611d3a608083018461160a565b9695505050505050565b600082825260208201905092915050565b6000611d60826116d1565b611d6a8185611d44565b9350611d75836116ed565b8060005b83811015611da6578151611d8d88826116fd565b9750611d9883611715565b925050600181019050611d79565b5085935050505092915050565b60006020820190508181036000830152611dcd8184611d55565b905092915050565b611dde816112b0565b8114611de957600080fd5b50565b600081519050611dfb81611dd5565b92915050565b600060208284031215611e1757611e1661121b565b5b6000611e2584828501611dec565b91505092915050565b600082825260208201905092915050565b6000611e4b8385611e2e565b9350611e588385846114c1565b611e6183611404565b840190509392505050565b60006060820190508181036000830152611e8781888a611e3f565b90508181036020830152611e9c818688611e3f565b90508181036040830152611eb1818486611e3f565b9050979650505050505050565b6000611ec982611634565b611ed38185611e2e565b9350611ee3818560208601611650565b611eec81611404565b840191505092915050565b60006020820190508181036000830152611f118184611ebe565b905092915050565b611f2281611589565b8114611f2d57600080fd5b50565b600081519050611f3f81611f19565b92915050565b600060208284031215611f5b57611f5a61121b565b5b6000611f6984828501611f30565b91505092915050565b60006020820190508181036000830152611f8d818486611e3f565b90509392505050565b600080fd5b600080fd5b6000611fb3611fae84611490565b611475565b905082815260208101848484011115611fcf57611fce6113ff565b5b611fda848285611650565b509392505050565b600082601f830112611ff757611ff66112e6565b5b8151612007848260208601611fa0565b91505092915050565b60008151905061201f81611257565b92915050565b600067ffffffffffffffff8211156120405761203f611415565b5b602082029050602081019050919050565b600061206461205f84612025565b611475565b90508083825260208201905060208402830185811115612087576120866112f0565b5b835b818110156120b0578061209c8882612010565b845260208401935050602081019050612089565b5050509392505050565b600082601f8301126120cf576120ce6112e6565b5b81516120df848260208601612051565b91505092915050565b600060c082840312156120fe576120fd611f96565b5b61210860c0611475565b9050600082015167ffffffffffffffff81111561212857612127611f9b565b5b61213484828501611fe2565b600083015250602082015167ffffffffffffffff81111561215857612157611f9b565b5b61216484828501611fe2565b602083015250604082015167ffffffffffffffff81111561218857612187611f9b565b5b61219484828501611fe2565b60408301525060606121a884828501612010565b60608301525060806121bc84828501611f30565b60808301525060a082015167ffffffffffffffff8111156121e0576121df611f9b565b5b6121ec848285016120ba565b60a08301525092915050565b60006020828403121561220e5761220d61121b565b5b600082015167ffffffffffffffff81111561222c5761222b611220565b5b612238848285016120e8565b91505092915050565b60006060828403121561225757612256611f96565b5b6122616060611475565b9050600082015167ffffffffffffffff81111561228157612280611f9b565b5b61228d84828501611fe2565b60008301525060206122a184828501611f30565b60208301525060406122b584828501611dec565b60408301525092915050565b6000602082840312156122d7576122d661121b565b5b600082015167ffffffffffffffff8111156122f5576122f4611220565b5b61230184828501612241565b91505092915050565b600067ffffffffffffffff82111561232557612324611415565b5b602082029050602081019050919050565b60006123496123448461230a565b611475565b9050808382526020820190506020840283018581111561236c5761236b6112f0565b5b835b818110156123b357805167ffffffffffffffff811115612391576123906112e6565b5b80860161239e8982611fe2565b8552602085019450505060208101905061236e565b5050509392505050565b600082601f8301126123d2576123d16112e6565b5b81516123e2848260208601612336565b91505092915050565b6000602082840312156124015761240061121b565b5b600082015167ffffffffffffffff81111561241f5761241e611220565b5b61242b848285016123bd565b91505092915050565b600067ffffffffffffffff82111561244f5761244e611415565b5b602082029050602081019050919050565b60006040828403121561247657612475611f96565b5b6124806040611475565b9050600082015167ffffffffffffffff8111156124a05761249f611f9b565b5b6124ac84828501611fe2565b60008301525060206124c084828501611f30565b60208301525092915050565b60006124df6124da84612434565b611475565b90508083825260208201905060208402830185811115612502576125016112f0565b5b835b8181101561254957805167ffffffffffffffff811115612527576125266112e6565b5b8086016125348982612460565b85526020850194505050602081019050612504565b5050509392505050565b600082601f830112612568576125676112e6565b5b81516125788482602086016124cc565b91505092915050565b600067ffffffffffffffff82111561259c5761259b611415565b5b602082029050602081019050919050565b60006125c06125bb84612581565b611475565b905080838252602082019050602084028301858111156125e3576125e26112f0565b5b835b8181101561260c57806125f88882611f30565b8452602084019350506020810190506125e5565b5050509392505050565b600082601f83011261262b5761262a6112e6565b5b815161263b8482602086016125ad565b91505092915050565b6000610120828403121561265b5761265a611f96565b5b612666610120611475565b9050600082015167ffffffffffffffff81111561268657612685611f9b565b5b61269284828501611fe2565b600083015250602082015167ffffffffffffffff8111156126b6576126b5611f9b565b5b6126c2848285016123bd565b602083015250604082015167ffffffffffffffff8111156126e6576126e5611f9b565b5b6126f2848285016123bd565b604083015250606082015167ffffffffffffffff81111561271657612715611f9b565b5b612722848285016123bd565b606083015250608082015167ffffffffffffffff81111561274657612745611f9b565b5b61275284828501612553565b60808301525060a082015167ffffffffffffffff81111561277657612775611f9b565b5b61278284828501611fe2565b60a08301525060c082015167ffffffffffffffff8111156127a6576127a5611f9b565b5b6127b284828501612616565b60c08301525060e06127c684828501611dec565b60e08301525061010082015167ffffffffffffffff8111156127eb576127ea611f9b565b5b6127f7848285016123bd565b6101008301525092915050565b60006020828403121561281a5761281961121b565b5b600082015167ffffffffffffffff81111561283857612837611220565b5b61284484828501612644565b91505092915050565b6000602082840312156128635761286261121b565b5b600082015167ffffffffffffffff81111561288157612880611220565b5b61288d848285016120ba565b9150509291505056fea264697066735822122005963032470bb142ffc70af55d1843e6417b117d632081e0f55dfeac2e9402a564736f6c63430008140033",
  "linkReferences": {},
  "deployedLinkReferences": {}
}