{
  "_format": "hh-sol-artifact-1",
  "contractName": "Athl3teDeploymentHelper",
  "sourceName": "contracts/Athl3teFactory.sol",
  "abi": [
    {
      "anonymous": false,
      "inputs": [
        {
          "indexed": true,
          "internalType": "address",
          "name": "bots",
          "type": "address"
        },
        {
          "indexed": true,
          "internalType": "address",
          "name": "deployer",
          "type": "address"
        }
      ],
      "name": "BotsDeployed",
      "type": "event"
    },
    {
      "anonymous": false,
      "inputs": [
        {
          "indexed": true,
          "internalType": "address",
          "name": "communities",
          "type": "address"
        },
        {
          "indexed": true,
          "internalType": "address",
          "name": "deployer",
          "type": "address"
        }
      ],
      "name": "CommunitiesDeployed",
      "type": "event"
    },
    {
      "anonymous": false,
      "inputs": [
        {
          "indexed": true,
          "internalType": "address",
          "name": "core",
          "type": "address"
        },
        {
          "indexed": true,
          "internalType": "address",
          "name": "deployer",
          "type": "address"
        }
      ],
      "name": "CoreDeployed",
      "type": "event"
    },
    {
      "anonymous": false,
      "inputs": [
        {
          "indexed": true,
          "internalType": "address",
          "name": "nft",
          "type": "address"
        },
        {
          "indexed": true,
          "internalType": "address",
          "name": "deployer",
          "type": "address"
        }
      ],
      "name": "NFTDeployed",
      "type": "event"
    },
    {
      "inputs": [
        {
          "internalType": "uint256",
          "name": "",
          "type": "uint256"
        }
      ],
      "name": "deployers",
      "outputs": [
        {
          "internalType": "address",
          "name": "",
          "type": "address"
        }
      ],
      "stateMutability": "view",
      "type": "function"
    },
    {
      "inputs": [
        {
          "internalType": "address",
          "name": "",
          "type": "address"
        }
      ],
      "name": "deployments",
      "outputs": [
        {
          "internalType": "address",
          "name": "core",
          "type": "address"
        },
        {
          "internalType": "address",
          "name": "bots",
          "type": "address"
        },
        {
          "internalType": "address",
          "name": "communities",
          "type": "address"
        },
        {
          "internalType": "address",
          "name": "nft",
          "type": "address"
        },
        {
          "internalType": "address",
          "name": "deployer",
          "type": "address"
        }
      ],
      "stateMutability": "view",
      "type": "function"
    },
    {
      "inputs": [],
      "name": "getAllDeployers",
      "outputs": [
        {
          "internalType": "address[]",
          "name": "",
          "type": "address[]"
        }
      ],
      "stateMutability": "view",
      "type": "function"
    },
    {
      "inputs": [
        {
          "internalType": "address",
          "name": "deployer",
          "type": "address"
        }
      ],
      "name": "getDeployment",
      "outputs": [
        {
          "components": [
            {
              "internalType": "address",
              "name": "core",
              "type": "address"
            },
            {
              "internalType": "address",
              "name": "bots",
              "type": "address"
            },
            {
              "internalType": "address",
              "name": "communities",
              "type": "address"
            },
            {
              "internalType": "address",
              "name": "nft",
              "type": "address"
            },
            {
              "internalType": "address",
              "name": "deployer",
              "type": "address"
            }
          ],
          "internalType": "struct Athl3teDeploymentHelper.DeploymentSet",
          "name": "",
          "type": "tuple"
        }
      ],
      "stateMutability": "view",
      "type": "function"
    },
    {
      "inputs": [
        {
          "internalType": "address",
          "name": "core",
          "type": "address"
        },
        {
          "internalType": "address",
          "name": "bots",
          "type": "address"
        },
        {
          "internalType": "address",
          "name": "communities",
          "type": "address"
        },
        {
          "internalType": "address",
          "name": "nft",
          "type": "address"
        }
      ],
      "name": "recordDeployment",
      "outputs": [],
      "stateMutability": "nonpayable",
      "type": "function"
    }
  ],
  "bytecode": "0x608060405234801561001057600080fd5b50610cd4806100206000396000f3fe608060405234801561001057600080fd5b50600436106100575760003560e01c8063316b37391461005c5780634376269e146100905780638bfeb39e146100ac5780638faa77b2146100ca578063c02f7f50146100fa575b600080fd5b61007660048036038101906100719190610921565b61012a565b60405161008795949392919061095d565b60405180910390f35b6100aa60048036038101906100a591906109b0565b610200565b005b6100b461054e565b6040516100c19190610ad5565b60405180910390f35b6100e460048036038101906100df9190610b2d565b6105dc565b6040516100f19190610b5a565b60405180910390f35b610114600480360381019061010f9190610921565b61061b565b6040516101219190610bdd565b60405180910390f35b60006020528060005260406000206000915090508060000160009054906101000a900473ffffffffffffffffffffffffffffffffffffffff16908060010160009054906101000a900473ffffffffffffffffffffffffffffffffffffffff16908060020160009054906101000a900473ffffffffffffffffffffffffffffffffffffffff16908060030160009054906101000a900473ffffffffffffffffffffffffffffffffffffffff16908060040160009054906101000a900473ffffffffffffffffffffffffffffffffffffffff16905085565b6040518060a001604052808573ffffffffffffffffffffffffffffffffffffffff1681526020018473ffffffffffffffffffffffffffffffffffffffff1681526020018373ffffffffffffffffffffffffffffffffffffffff1681526020018273ffffffffffffffffffffffffffffffffffffffff1681526020013373ffffffffffffffffffffffffffffffffffffffff168152506000803373ffffffffffffffffffffffffffffffffffffffff1673ffffffffffffffffffffffffffffffffffffffff16815260200190815260200160002060008201518160000160006101000a81548173ffffffffffffffffffffffffffffffffffffffff021916908373ffffffffffffffffffffffffffffffffffffffff16021790555060208201518160010160006101000a81548173ffffffffffffffffffffffffffffffffffffffff021916908373ffffffffffffffffffffffffffffffffffffffff16021790555060408201518160020160006101000a81548173ffffffffffffffffffffffffffffffffffffffff021916908373ffffffffffffffffffffffffffffffffffffffff16021790555060608201518160030160006101000a81548173ffffffffffffffffffffffffffffffffffffffff021916908373ffffffffffffffffffffffffffffffffffffffff16021790555060808201518160040160006101000a81548173ffffffffffffffffffffffffffffffffffffffff021916908373ffffffffffffffffffffffffffffffffffffffff16021790555090505060006001905060005b6001805490508110156104dc573373ffffffffffffffffffffffffffffffffffffffff166001828154811061047a57610479610bf8565b5b9060005260206000200160009054906101000a900473ffffffffffffffffffffffffffffffffffffffff1673ffffffffffffffffffffffffffffffffffffffff16036104c957600091506104dc565b80806104d490610c56565b915050610442565b508015610547576001339080600181540180825580915050600190039060005260206000200160009091909190916101000a81548173ffffffffffffffffffffffffffffffffffffffff021916908373ffffffffffffffffffffffffffffffffffffffff1602179055505b5050505050565b606060018054806020026020016040519081016040528092919081815260200182805480156105d257602002820191906000526020600020905b8160009054906101000a900473ffffffffffffffffffffffffffffffffffffffff1673ffffffffffffffffffffffffffffffffffffffff1681526020019060010190808311610588575b5050505050905090565b600181815481106105ec57600080fd5b906000526020600020016000915054906101000a900473ffffffffffffffffffffffffffffffffffffffff1681565b610623610821565b6000808373ffffffffffffffffffffffffffffffffffffffff1673ffffffffffffffffffffffffffffffffffffffff1681526020019081526020016000206040518060a00160405290816000820160009054906101000a900473ffffffffffffffffffffffffffffffffffffffff1673ffffffffffffffffffffffffffffffffffffffff1673ffffffffffffffffffffffffffffffffffffffff1681526020016001820160009054906101000a900473ffffffffffffffffffffffffffffffffffffffff1673ffffffffffffffffffffffffffffffffffffffff1673ffffffffffffffffffffffffffffffffffffffff1681526020016002820160009054906101000a900473ffffffffffffffffffffffffffffffffffffffff1673ffffffffffffffffffffffffffffffffffffffff1673ffffffffffffffffffffffffffffffffffffffff1681526020016003820160009054906101000a900473ffffffffffffffffffffffffffffffffffffffff1673ffffffffffffffffffffffffffffffffffffffff1673ffffffffffffffffffffffffffffffffffffffff1681526020016004820160009054906101000a900473ffffffffffffffffffffffffffffffffffffffff1673ffffffffffffffffffffffffffffffffffffffff1673ffffffffffffffffffffffffffffffffffffffff16815250509050919050565b6040518060a00160405280600073ffffffffffffffffffffffffffffffffffffffff168152602001600073ffffffffffffffffffffffffffffffffffffffff168152602001600073ffffffffffffffffffffffffffffffffffffffff168152602001600073ffffffffffffffffffffffffffffffffffffffff168152602001600073ffffffffffffffffffffffffffffffffffffffff1681525090565b600080fd5b600073ffffffffffffffffffffffffffffffffffffffff82169050919050565b60006108ee826108c3565b9050919050565b6108fe816108e3565b811461090957600080fd5b50565b60008135905061091b816108f5565b92915050565b600060208284031215610937576109366108be565b5b60006109458482850161090c565b91505092915050565b610957816108e3565b82525050565b600060a082019050610972600083018861094e565b61097f602083018761094e565b61098c604083018661094e565b610999606083018561094e565b6109a6608083018461094e565b9695505050505050565b600080600080608085870312156109ca576109c96108be565b5b60006109d88782880161090c565b94505060206109e98782880161090c565b93505060406109fa8782880161090c565b9250506060610a0b8782880161090c565b91505092959194509250565b600081519050919050565b600082825260208201905092915050565b6000819050602082019050919050565b610a4c816108e3565b82525050565b6000610a5e8383610a43565b60208301905092915050565b6000602082019050919050565b6000610a8282610a17565b610a8c8185610a22565b9350610a9783610a33565b8060005b83811015610ac8578151610aaf8882610a52565b9750610aba83610a6a565b925050600181019050610a9b565b5085935050505092915050565b60006020820190508181036000830152610aef8184610a77565b905092915050565b6000819050919050565b610b0a81610af7565b8114610b1557600080fd5b50565b600081359050610b2781610b01565b92915050565b600060208284031215610b4357610b426108be565b5b6000610b5184828501610b18565b91505092915050565b6000602082019050610b6f600083018461094e565b92915050565b60a082016000820151610b8b6000850182610a43565b506020820151610b9e6020850182610a43565b506040820151610bb16040850182610a43565b506060820151610bc46060850182610a43565b506080820151610bd76080850182610a43565b50505050565b600060a082019050610bf26000830184610b75565b92915050565b7f4e487b7100000000000000000000000000000000000000000000000000000000600052603260045260246000fd5b7f4e487b7100000000000000000000000000000000000000000000000000000000600052601160045260246000fd5b6000610c6182610af7565b91507fffffffffffffffffffffffffffffffffffffffffffffffffffffffffffffffff8203610c9357610c92610c27565b5b60018201905091905056fea2646970667358221220d62ca534be6d4da0ecb7a0e07bf6ee2813f7a1dd656359e3d5bfde3565f7bc9a64736f6c63430008140033",
  "linkReferences": {},
  "deployedLinkReferences": {}
}