{"contracts/Athl3teFactory.sol":{"Athl3teFactory":{"abi":[{"anonymous":false,"inputs":[{"indexed":true,"internalType":"address","name":"athl3te","type":"address"},{"indexed":true,"internalType":"address","name":"athl3teView","type":"address"},{"indexed":true,"internalType":"address","name":"deployer","type":"address"}],"name":"ContractsDeployed","type":"event"},{"inputs":[{"internalType":"string","name":"name","type":"string"},{"internalType":"string","name":"symbol","type":"string"}],"name":"deployAthl3te","outputs":[{"internalType":"address","name":"athl3te","type":"address"},{"internalType":"address","name":"athl3teView","type":"address"}],"stateMutability":"nonpayable","type":"function"}],"evm":{"bytecode":{"linkReferences":{},"object":"608060405234801561001057600080fd5b5061ace4806100206000396000f3fe60806040523480156200001157600080fd5b50600436106200002e5760003560e01c80637cc48ac71462000033575b600080fd5b6200005160048036038101906200004b9190620002ef565b6200006a565b60405162000061929190620003b9565b60405180910390f35b60008083836040516200007d906200015d565b6200008a9291906200046f565b604051809103906000f080158015620000a7573d6000803e3d6000fd5b50915081604051620000b9906200016b565b620000c59190620004aa565b604051809103906000f080158015620000e2573d6000803e3d6000fd5b5090503373ffffffffffffffffffffffffffffffffffffffff168173ffffffffffffffffffffffffffffffffffffffff168373ffffffffffffffffffffffffffffffffffffffff167f64ff5f080a9fbac5fd2b92ee5d223ab47abf2bc09caad8eefb67cdf7f7a1796c60405160405180910390a49250929050565b618bbb80620004c883390190565b611c2c806200908383390190565b6000604051905090565b600080fd5b600080fd5b600080fd5b600080fd5b6000601f19601f8301169050919050565b7f4e487b7100000000000000000000000000000000000000000000000000000000600052604160045260246000fd5b620001e28262000197565b810181811067ffffffffffffffff82111715620002045762000203620001a8565b5b80604052505050565b60006200021962000179565b9050620002278282620001d7565b919050565b600067ffffffffffffffff8211156200024a5762000249620001a8565b5b620002558262000197565b9050602081019050919050565b82818337600083830152505050565b60006200028862000282846200022c565b6200020d565b905082815260208101848484011115620002a757620002a662000192565b5b620002b484828562000262565b509392505050565b600082601f830112620002d457620002d36200018d565b5b8135620002e684826020860162000271565b91505092915050565b6000806040838503121562000309576200030862000183565b5b600083013567ffffffffffffffff8111156200032a576200032962000188565b5b6200033885828601620002bc565b925050602083013567ffffffffffffffff8111156200035c576200035b62000188565b5b6200036a85828601620002bc565b9150509250929050565b600073ffffffffffffffffffffffffffffffffffffffff82169050919050565b6000620003a18262000374565b9050919050565b620003b38162000394565b82525050565b6000604082019050620003d06000830185620003a8565b620003df6020830184620003a8565b9392505050565b600081519050919050565b600082825260208201905092915050565b60005b838110156200042257808201518184015260208101905062000405565b60008484015250505050565b60006200043b82620003e6565b620004478185620003f1565b93506200045981856020860162000402565b620004648162000197565b840191505092915050565b600060408201905081810360008301526200048b81856200042e565b90508181036020830152620004a181846200042e565b90509392505050565b6000602082019050620004c16000830184620003a8565b9291505056fe60806040523480156200001157600080fd5b5060405162008bbb38038062008bbb8339818101604052810190620000379190620002f8565b818181600090816200004a9190620005c8565b5080600190816200005c9190620005c8565b5050506200007f620000736200009760201b60201c565b6200009f60201b60201c565b600160078190555060016008819055505050620006af565b600033905090565b6000600660009054906101000a900473ffffffffffffffffffffffffffffffffffffffff16905081600660006101000a81548173ffffffffffffffffffffffffffffffffffffffff021916908373ffffffffffffffffffffffffffffffffffffffff1602179055508173ffffffffffffffffffffffffffffffffffffffff168173ffffffffffffffffffffffffffffffffffffffff167f8be0079c531659141344cd1fd0a4f28419497f9722a3daafe3b4186f6b6457e060405160405180910390a35050565b6000604051905090565b600080fd5b600080fd5b600080fd5b600080fd5b6000601f19601f8301169050919050565b7f4e487b7100000000000000000000000000000000000000000000000000000000600052604160045260246000fd5b620001ce8262000183565b810181811067ffffffffffffffff82111715620001f057620001ef62000194565b5b80604052505050565b60006200020562000165565b9050620002138282620001c3565b919050565b600067ffffffffffffffff82111562000236576200023562000194565b5b620002418262000183565b9050602081019050919050565b60005b838110156200026e57808201518184015260208101905062000251565b60008484015250505050565b6000620002916200028b8462000218565b620001f9565b905082815260208101848484011115620002b057620002af6200017e565b5b620002bd8482856200024e565b509392505050565b600082601f830112620002dd57620002dc62000179565b5b8151620002ef8482602086016200027a565b91505092915050565b600080604083850312156200031257620003116200016f565b5b600083015167ffffffffffffffff81111562000333576200033262000174565b5b6200034185828601620002c5565b925050602083015167ffffffffffffffff81111562000365576200036462000174565b5b6200037385828601620002c5565b9150509250929050565b600081519050919050565b7f4e487b7100000000000000000000000000000000000000000000000000000000600052602260045260246000fd5b60006002820490506001821680620003d057607f821691505b602082108103620003e657620003e562000388565b5b50919050565b60008190508160005260206000209050919050565b60006020601f8301049050919050565b600082821b905092915050565b600060088302620004507fffffffffffffffffffffffffffffffffffffffffffffffffffffffffffffffff8262000411565b6200045c868362000411565b95508019841693508086168417925050509392505050565b6000819050919050565b6000819050919050565b6000620004a9620004a36200049d8462000474565b6200047e565b62000474565b9050919050565b6000819050919050565b620004c58362000488565b620004dd620004d482620004b0565b8484546200041e565b825550505050565b600090565b620004f4620004e5565b62000501818484620004ba565b505050565b5b8181101562000529576200051d600082620004ea565b60018101905062000507565b5050565b601f82111562000578576200054281620003ec565b6200054d8462000401565b810160208510156200055d578190505b620005756200056c8562000401565b83018262000506565b50505b505050565b600082821c905092915050565b60006200059d600019846008026200057d565b1980831691505092915050565b6000620005b883836200058a565b9150826002028217905092915050565b620005d3826200037d565b67ffffffffffffffff811115620005ef57620005ee62000194565b5b620005fb8254620003b7565b620006088282856200052d565b600060209050601f8311600181146200064057600084156200062b578287015190505b620006378582620005aa565b865550620006a7565b601f1984166200065086620003ec565b60005b828110156200067a5784890151825560018201915060208501945060208101905062000653565b868310156200069a578489015162000696601f8916826200058a565b8355505b6001600288020188555050505b505050505050565b6184fc80620006bf6000396000f3fe60806040526004361061027d5760003560e01c806375ad64041161014f578063b841e45a116100c1578063c87b56dd1161007a578063c87b56dd14610995578063cc3d967b146109d2578063e2842d7914610a0f578063e7d9884014610a3a578063e985e9c514610a77578063f2fde38b14610ab45761027d565b8063b841e45a14610896578063b84f14b7146108bf578063b88d4fde146108db578063b8b86a3014610904578063ba0fac151461092d578063c122b3cb1461096a5761027d565b8063942886be11610113578063942886be1461079857806395d89b41146107c35780639f9783e4146107ee578063a22cb46514610817578063b028e96714610840578063b5cb15f71461086b5761027d565b806375ad6404146106b157806379181eea146106dc5780638272e1d4146107195780638da5cb5b14610744578063903d36261461076f5761027d565b806342842e0e116101f35780636352211e116101ac5780636352211e146105a55780636ff1c9bc146105e2578063704f1b941461060b578063709d42bb1461063457806370a082311461065d578063715018a61461069a5761027d565b806342842e0e1461048557806343dfc73c146104ae5780634e78f923146104d757806351d19a4e1461051457806354d9ea151461053f578063610693e71461057c5761027d565b80631dd20a8b116102455780631dd20a8b1461038d578063226e4fd5146103b657806323b872dd146103df5780632980d80b146104085780633ccfd60b146104455780633fccb4a51461045c5761027d565b806301ffc9a71461028257806306fdde03146102bf578063081812fc146102ea578063095ea7b314610327578063163f752214610350575b600080fd5b34801561028e57600080fd5b506102a960048036038101906102a49190615a78565b610add565b6040516102b69190615ac0565b60405180910390f35b3480156102cb57600080fd5b506102d4610bbf565b6040516102e19190615b6b565b60405180910390f35b3480156102f657600080fd5b50610311600480360381019061030c9190615bc3565b610c51565b60405161031e9190615c31565b60405180910390f35b34801561033357600080fd5b5061034e60048036038101906103499190615c78565b610cd6565b005b34801561035c57600080fd5b5061037760048036038101906103729190615cb8565b610ded565b6040516103849190615ac0565b60405180910390f35b34801561039957600080fd5b506103b460048036038101906103af9190615d4a565b610e46565b005b3480156103c257600080fd5b506103dd60048036038101906103d89190615f2e565b61106b565b005b3480156103eb57600080fd5b5061040660048036038101906104019190615f77565b61122c565b005b34801561041457600080fd5b5061042f600480360381019061042a9190615bc3565b61128c565b60405161043c9190615b6b565b60405180910390f35b34801561045157600080fd5b5061045a611331565b005b34801561046857600080fd5b50610483600480360381019061047e9190615fca565b6114ac565b005b34801561049157600080fd5b506104ac60048036038101906104a79190615f77565b6115e2565b005b3480156104ba57600080fd5b506104d560048036038101906104d09190615fca565b611602565b005b3480156104e357600080fd5b506104fe60048036038101906104f99190615cb8565b611750565b60405161050b919061616f565b60405180910390f35b34801561052057600080fd5b5061052961191c565b60405161053691906161a0565b60405180910390f35b34801561054b57600080fd5b5061056660048036038101906105619190615fca565b611929565b6040516105739190616317565b60405180910390f35b34801561058857600080fd5b506105a3600480360381019061059e9190615fca565b611c5d565b005b3480156105b157600080fd5b506105cc60048036038101906105c79190615bc3565b611d93565b6040516105d99190615c31565b60405180910390f35b3480156105ee57600080fd5b5061060960048036038101906106049190616377565b611e44565b005b34801561061757600080fd5b50610632600480360381019061062d9190615fca565b611fb9565b005b34801561064057600080fd5b5061065b60048036038101906106569190615fca565b6121bb565b005b34801561066957600080fd5b50610684600480360381019061067f9190615cb8565b612267565b60405161069191906161a0565b60405180910390f35b3480156106a657600080fd5b506106af61231e565b005b3480156106bd57600080fd5b506106c66123a6565b6040516106d39190616466565b60405180910390f35b3480156106e857600080fd5b5061070360048036038101906106fe9190615fca565b61254e565b60405161071091906164e7565b60405180910390f35b34801561072557600080fd5b5061072e612695565b60405161073b9190616466565b60405180910390f35b34801561075057600080fd5b5061075961276e565b6040516107669190615c31565b60405180910390f35b34801561077b57600080fd5b5061079660048036038101906107919190615fca565b612798565b005b3480156107a457600080fd5b506107ad6128ce565b6040516107ba91906167ba565b60405180910390f35b3480156107cf57600080fd5b506107d8612fab565b6040516107e59190615b6b565b60405180910390f35b3480156107fa57600080fd5b50610815600480360381019061081091906167dc565b61303d565b005b34801561082357600080fd5b5061083e60048036038101906108399190616868565b6130d6565b005b34801561084c57600080fd5b506108556130ec565b6040516108629190616466565b60405180910390f35b34801561087757600080fd5b506108806131c5565b60405161088d91906161a0565b60405180910390f35b3480156108a257600080fd5b506108bd60048036038101906108b89190615fca565b6131d2565b005b6108d960048036038101906108d49190615fca565b613308565b005b3480156108e757600080fd5b5061090260048036038101906108fd9190616949565b613560565b005b34801561091057600080fd5b5061092b600480360381019061092691906167dc565b6135c2565b005b34801561093957600080fd5b50610954600480360381019061094f9190615cb8565b613699565b60405161096191906161a0565b60405180910390f35b34801561097657600080fd5b5061097f6136e8565b60405161098c91906161a0565b60405180910390f35b3480156109a157600080fd5b506109bc60048036038101906109b79190615bc3565b6136f5565b6040516109c99190615b6b565b60405180910390f35b3480156109de57600080fd5b506109f960048036038101906109f49190615cb8565b613811565b604051610a0691906167ba565b60405180910390f35b348015610a1b57600080fd5b50610a24613ef0565b604051610a319190616a3b565b60405180910390f35b348015610a4657600080fd5b50610a616004803603810190610a5c9190615fca565b613f7e565b604051610a6e9190616a3b565b60405180910390f35b348015610a8357600080fd5b50610a9e6004803603810190610a999190616a5d565b613f9e565b604051610aab9190615ac0565b60405180910390f35b348015610ac057600080fd5b50610adb6004803603810190610ad69190615cb8565b614032565b005b60007f80ac58cd000000000000000000000000000000000000000000000000000000007bffffffffffffffffffffffffffffffffffffffffffffffffffffffff1916827bffffffffffffffffffffffffffffffffffffffffffffffffffffffff19161480610ba857507f5b5e139f000000000000000000000000000000000000000000000000000000007bffffffffffffffffffffffffffffffffffffffffffffffffffffffff1916827bffffffffffffffffffffffffffffffffffffffffffffffffffffffff1916145b80610bb85750610bb782614129565b5b9050919050565b606060008054610bce90616acc565b80601f0160208091040260200160405190810160405280929190818152602001828054610bfa90616acc565b8015610c475780601f10610c1c57610100808354040283529160200191610c47565b820191906000526020600020905b815481529060010190602001808311610c2a57829003601f168201915b5050505050905090565b6000610c5c82614193565b610c9b576040517f08c379a0000000000000000000000000000000000000000000000000000000008152600401610c9290616b6f565b60405180910390fd5b6004600083815260200190815260200160002060009054906101000a900473ffffffffffffffffffffffffffffffffffffffff169050919050565b6000610ce182611d93565b90508073ffffffffffffffffffffffffffffffffffffffff168373ffffffffffffffffffffffffffffffffffffffff1603610d51576040517f08c379a0000000000000000000000000000000000000000000000000000000008152600401610d4890616c01565b60405180910390fd5b8073ffffffffffffffffffffffffffffffffffffffff16610d706141ff565b73ffffffffffffffffffffffffffffffffffffffff161480610d9f5750610d9e81610d996141ff565b613f9e565b5b610dde576040517f08c379a0000000000000000000000000000000000000000000000000000000008152600401610dd590616c93565b60405180910390fd5b610de88383614207565b505050565b6000600a60008373ffffffffffffffffffffffffffffffffffffffff1673ffffffffffffffffffffffffffffffffffffffff16815260200190815260200160002060070160009054906101000a900460ff169050919050565b600a60003373ffffffffffffffffffffffffffffffffffffffff1673ffffffffffffffffffffffffffffffffffffffff16815260200190815260200160002060070160009054906101000a900460ff16610ed5576040517f08c379a0000000000000000000000000000000000000000000000000000000008152600401610ecc90616cff565b60405180910390fd5b610eeb8282600b6142c09092919063ffffffff16565b610f2a576040517f08c379a0000000000000000000000000000000000000000000000000000000008152600401610f2190616d6b565b60405180910390fd5b60096000815480929190610f3d90616dba565b9190505550610f6686868686868633600954600c6142fb9098979695949392919063ffffffff16565b6010868690918060018154018082558091505060019003906000526020600020016000909192909192909192909192509182610fa3929190616fb9565b50610ff78686600a60003373ffffffffffffffffffffffffffffffffffffffff1673ffffffffffffffffffffffffffffffffffffffff1681526020019081526020016000206144ce9092919063ffffffff16565b3373ffffffffffffffffffffffffffffffffffffffff16868660405161101e9291906170b9565b60405180910390207f966070ce2ff7cfd3f6ec46ed7394a2f5ee5e3021344a9878eee674334b84b080848460095460405161105b939291906170ff565b60405180910390a3505050505050565b600a60003373ffffffffffffffffffffffffffffffffffffffff1673ffffffffffffffffffffffffffffffffffffffff16815260200190815260200160002060070160009054906101000a900460ff166110fa576040517f08c379a00000000000000000000000000000000000000000000000000000000081526004016110f190616cff565b60405180910390fd5b600081511161113e576040517f08c379a00000000000000000000000000000000000000000000000000000000081526004016111359061717d565b60405180910390fd5b600060085490506008600081548092919061115890616dba565b91905055506111673382614513565b81600d60008381526020019081526020016000209081611187919061719d565b506111d981600a60003373ffffffffffffffffffffffffffffffffffffffff1673ffffffffffffffffffffffffffffffffffffffff1681526020019081526020016000206146ec90919063ffffffff16565b803373ffffffffffffffffffffffffffffffffffffffff167fe7cd4ce7f2a465edc730269a1305e8a48bad821e8fb7e152ec413829c01a53c4846040516112209190615b6b565b60405180910390a35050565b61123d6112376141ff565b8261471b565b61127c576040517f08c379a0000000000000000000000000000000000000000000000000000000008152600401611273906172e1565b60405180910390fd5b6112878383836147f9565b505050565b6060600d600083815260200190815260200160002080546112ac90616acc565b80601f01602080910402602001604051908101604052809291908181526020018280546112d890616acc565b80156113255780601f106112fa57610100808354040283529160200191611325565b820191906000526020600020905b81548152906001019060200180831161130857829003601f168201915b50505050509050919050565b6113396141ff565b73ffffffffffffffffffffffffffffffffffffffff1661135761276e565b73ffffffffffffffffffffffffffffffffffffffff16146113ad576040517f08c379a00000000000000000000000000000000000000000000000000000000081526004016113a49061734d565b60405180910390fd5b6000479050600081116113f5576040517f08c379a00000000000000000000000000000000000000000000000000000000081526004016113ec906173b9565b60405180910390fd5b60006113ff61276e565b73ffffffffffffffffffffffffffffffffffffffff16826040516114229061740a565b60006040518083038185875af1925050503d806000811461145f576040519150601f19603f3d011682016040523d82523d6000602084013e611464565b606091505b50509050806114a8576040517f08c379a000000000000000000000000000000000000000000000000000000000815260040161149f9061746b565b60405180910390fd5b5050565b600a60003373ffffffffffffffffffffffffffffffffffffffff1673ffffffffffffffffffffffffffffffffffffffff16815260200190815260200160002060070160009054906101000a900460ff1661153b576040517f08c379a000000000000000000000000000000000000000000000000000000000815260040161153290616cff565b60405180910390fd5b61158e8282600a60003373ffffffffffffffffffffffffffffffffffffffff1673ffffffffffffffffffffffffffffffffffffffff168152602001908152602001600020614a5f9092919063ffffffff16565b3373ffffffffffffffffffffffffffffffffffffffff167fb8e50056db55e8c4b78f3aee6869149cc55c970443c6bfc700fa83a0b793ae2a83836040516115d692919061748b565b60405180910390a25050565b6115fd83838360405180602001604052806000815250613560565b505050565b600a60003373ffffffffffffffffffffffffffffffffffffffff1673ffffffffffffffffffffffffffffffffffffffff16815260200190815260200160002060070160009054906101000a900460ff16611691576040517f08c379a000000000000000000000000000000000000000000000000000000000815260040161168890616cff565b60405180910390fd5b6116a9828233600c614aea909392919063ffffffff16565b6116fc8282600a60003373ffffffffffffffffffffffffffffffffffffffff1673ffffffffffffffffffffffffffffffffffffffff1681526020019081526020016000206144ce9092919063ffffffff16565b3373ffffffffffffffffffffffffffffffffffffffff167f48bc22b3eab0c993cd29049a8e0a06fa00e13ec87407c1eabd56c3100205d6ad838360405161174492919061748b565b60405180910390a25050565b6060600a60003373ffffffffffffffffffffffffffffffffffffffff1673ffffffffffffffffffffffffffffffffffffffff16815260200190815260200160002060070160009054906101000a900460ff166117e1576040517f08c379a00000000000000000000000000000000000000000000000000000000081526004016117d890616cff565b60405180910390fd5b600a60008373ffffffffffffffffffffffffffffffffffffffff1673ffffffffffffffffffffffffffffffffffffffff168152602001908152602001600020600401805480602002602001604051908101604052809291908181526020016000905b82821015611911578382906000526020600020906002020160405180604001604052908160008201805461187690616acc565b80601f01602080910402602001604051908101604052809291908181526020018280546118a290616acc565b80156118ef5780601f106118c4576101008083540402835291602001916118ef565b820191906000526020600020905b8154815290600101906020018083116118d257829003601f168201915b5050505050815260200160018201548152505081526020019060010190611843565b505050509050919050565b6000600e80549050905090565b6119316158f2565b6119478383600c614cb19092919063ffffffff16565b611986576040517f08c379a000000000000000000000000000000000000000000000000000000000815260040161197d906174fb565b60405180910390fd5b600c83836040516119989291906170b9565b90815260200160405180910390206040518060c00160405290816000820180546119c190616acc565b80601f01602080910402602001604051908101604052809291908181526020018280546119ed90616acc565b8015611a3a5780601f10611a0f57610100808354040283529160200191611a3a565b820191906000526020600020905b815481529060010190602001808311611a1d57829003601f168201915b50505050508152602001600182018054611a5390616acc565b80601f0160208091040260200160405190810160405280929190818152602001828054611a7f90616acc565b8015611acc5780601f10611aa157610100808354040283529160200191611acc565b820191906000526020600020905b815481529060010190602001808311611aaf57829003601f168201915b50505050508152602001600282018054611ae590616acc565b80601f0160208091040260200160405190810160405280929190818152602001828054611b1190616acc565b8015611b5e5780601f10611b3357610100808354040283529160200191611b5e565b820191906000526020600020905b815481529060010190602001808311611b4157829003601f168201915b505050505081526020016003820160009054906101000a900473ffffffffffffffffffffffffffffffffffffffff1673ffffffffffffffffffffffffffffffffffffffff1673ffffffffffffffffffffffffffffffffffffffff1681526020016004820154815260200160058201805480602002602001604051908101604052809291908181526020018280548015611c4c57602002820191906000526020600020905b8160009054906101000a900473ffffffffffffffffffffffffffffffffffffffff1673ffffffffffffffffffffffffffffffffffffffff1681526020019060010190808311611c02575b505050505081525050905092915050565b600a60003373ffffffffffffffffffffffffffffffffffffffff1673ffffffffffffffffffffffffffffffffffffffff16815260200190815260200160002060070160009054906101000a900460ff16611cec576040517f08c379a0000000000000000000000000000000000000000000000000000000008152600401611ce390616cff565b60405180910390fd5b611d3f8282600a60003373ffffffffffffffffffffffffffffffffffffffff1673ffffffffffffffffffffffffffffffffffffffff168152602001908152602001600020614ced9092919063ffffffff16565b3373ffffffffffffffffffffffffffffffffffffffff167ffb02f8b5008bb4e6551ac10938980a836239b9187014ad8bd7d4166234196a998383604051611d8792919061748b565b60405180910390a25050565b6000806002600084815260200190815260200160002060009054906101000a900473ffffffffffffffffffffffffffffffffffffffff169050600073ffffffffffffffffffffffffffffffffffffffff168173ffffffffffffffffffffffffffffffffffffffff1603611e3b576040517f08c379a0000000000000000000000000000000000000000000000000000000008152600401611e329061758d565b60405180910390fd5b80915050919050565b611e4c6141ff565b73ffffffffffffffffffffffffffffffffffffffff16611e6a61276e565b73ffffffffffffffffffffffffffffffffffffffff1614611ec0576040517f08c379a0000000000000000000000000000000000000000000000000000000008152600401611eb79061734d565b60405180910390fd5b600047905060008111611f08576040517f08c379a0000000000000000000000000000000000000000000000000000000008152600401611eff906173b9565b60405180910390fd5b60008273ffffffffffffffffffffffffffffffffffffffff1682604051611f2e9061740a565b60006040518083038185875af1925050503d8060008114611f6b576040519150601f19603f3d011682016040523d82523d6000602084013e611f70565b606091505b5050905080611fb4576040517f08c379a0000000000000000000000000000000000000000000000000000000008152600401611fab906175f9565b60405180910390fd5b505050565b600a60003373ffffffffffffffffffffffffffffffffffffffff1673ffffffffffffffffffffffffffffffffffffffff16815260200190815260200160002060070160009054906101000a900460ff1615612049576040517f08c379a000000000000000000000000000000000000000000000000000000000815260040161204090617665565b60405180910390fd5b6000828290501161208f576040517f08c379a0000000000000000000000000000000000000000000000000000000008152600401612086906176d1565b60405180910390fd5b6000600a60003373ffffffffffffffffffffffffffffffffffffffff1673ffffffffffffffffffffffffffffffffffffffff168152602001908152602001600020905060018160070160006101000a81548160ff0219169083151502179055508282826000019182612102929190616fb9565b50600f339080600181540180825580915050600190039060005260206000200160009091909190916101000a81548173ffffffffffffffffffffffffffffffffffffffff021916908373ffffffffffffffffffffffffffffffffffffffff1602179055503373ffffffffffffffffffffffffffffffffffffffff167f48cac28ad4dc618e15f4c2dd5e97751182f166de97b25618318b2112aa951a2f84846040516121ae92919061748b565b60405180910390a2505050565b6121c36141ff565b73ffffffffffffffffffffffffffffffffffffffff166121e161276e565b73ffffffffffffffffffffffffffffffffffffffff1614612237576040517f08c379a000000000000000000000000000000000000000000000000000000000815260040161222e9061734d565b60405180910390fd5b61224d8282600b614d4c9092919063ffffffff16565b6122638282600e614e0e9092919063ffffffff16565b5050565b60008073ffffffffffffffffffffffffffffffffffffffff168273ffffffffffffffffffffffffffffffffffffffff16036122d7576040517f08c379a00000000000000000000000000000000000000000000000000000000081526004016122ce90617763565b60405180910390fd5b600360008373ffffffffffffffffffffffffffffffffffffffff1673ffffffffffffffffffffffffffffffffffffffff168152602001908152602001600020549050919050565b6123266141ff565b73ffffffffffffffffffffffffffffffffffffffff1661234461276e565b73ffffffffffffffffffffffffffffffffffffffff161461239a576040517f08c379a00000000000000000000000000000000000000000000000000000000081526004016123919061734d565b60405180910390fd5b6123a46000614f10565b565b6060600a60003373ffffffffffffffffffffffffffffffffffffffff1673ffffffffffffffffffffffffffffffffffffffff16815260200190815260200160002060070160009054906101000a900460ff16612437576040517f08c379a000000000000000000000000000000000000000000000000000000000815260040161242e90616cff565b60405180910390fd5b600a60003373ffffffffffffffffffffffffffffffffffffffff1673ffffffffffffffffffffffffffffffffffffffff168152602001908152602001600020600801805480602002602001604051908101604052809291908181526020016000905b828210156125455783829060005260206000200180546124b890616acc565b80601f01602080910402602001604051908101604052809291908181526020018280546124e490616acc565b80156125315780601f1061250657610100808354040283529160200191612531565b820191906000526020600020905b81548152906001019060200180831161251457829003601f168201915b505050505081526020019060010190612499565b50505050905090565b61255661593e565b61256c8383600b6142c09092919063ffffffff16565b6125ab576040517f08c379a00000000000000000000000000000000000000000000000000000000081526004016125a290616d6b565b60405180910390fd5b600b83836040516125bd9291906170b9565b90815260200160405180910390206040518060600160405290816000820180546125e690616acc565b80601f016020809104026020016040519081016040528092919081815260200182805461261290616acc565b801561265f5780601f106126345761010080835404028352916020019161265f565b820191906000526020600020905b81548152906001019060200180831161264257829003601f168201915b50505050508152602001600182015481526020016002820160009054906101000a900460ff161515151581525050905092915050565b60606010805480602002602001604051908101604052809291908181526020016000905b828210156127655783829060005260206000200180546126d890616acc565b80601f016020809104026020016040519081016040528092919081815260200182805461270490616acc565b80156127515780601f1061272657610100808354040283529160200191612751565b820191906000526020600020905b81548152906001019060200180831161273457829003601f168201915b5050505050815260200190600101906126b9565b50505050905090565b6000600660009054906101000a900473ffffffffffffffffffffffffffffffffffffffff16905090565b600a60003373ffffffffffffffffffffffffffffffffffffffff1673ffffffffffffffffffffffffffffffffffffffff16815260200190815260200160002060070160009054906101000a900460ff16612827576040517f08c379a000000000000000000000000000000000000000000000000000000000815260040161281e90616cff565b60405180910390fd5b61287a8282600a60003373ffffffffffffffffffffffffffffffffffffffff1673ffffffffffffffffffffffffffffffffffffffff168152602001908152602001600020614fd69092919063ffffffff16565b3373ffffffffffffffffffffffffffffffffffffffff167f9fea722a78bc03b22869a8fa8db043e542f7b63a042973693e67dfb1c5baaea483836040516128c292919061748b565b60405180910390a25050565b6128d6615961565b600a60003373ffffffffffffffffffffffffffffffffffffffff1673ffffffffffffffffffffffffffffffffffffffff16815260200190815260200160002060070160009054906101000a900460ff16612965576040517f08c379a000000000000000000000000000000000000000000000000000000000815260040161295c90616cff565b60405180910390fd5b600a60003373ffffffffffffffffffffffffffffffffffffffff1673ffffffffffffffffffffffffffffffffffffffff168152602001908152602001600020604051806101200160405290816000820180546129c090616acc565b80601f01602080910402602001604051908101604052809291908181526020018280546129ec90616acc565b8015612a395780601f10612a0e57610100808354040283529160200191612a39565b820191906000526020600020905b815481529060010190602001808311612a1c57829003601f168201915b5050505050815260200160018201805480602002602001604051908101604052809291908181526020016000905b82821015612b13578382906000526020600020018054612a8690616acc565b80601f0160208091040260200160405190810160405280929190818152602001828054612ab290616acc565b8015612aff5780601f10612ad457610100808354040283529160200191612aff565b820191906000526020600020905b815481529060010190602001808311612ae257829003601f168201915b505050505081526020019060010190612a67565b50505050815260200160028201805480602002602001604051908101604052809291908181526020016000905b82821015612bec578382906000526020600020018054612b5f90616acc565b80601f0160208091040260200160405190810160405280929190818152602001828054612b8b90616acc565b8015612bd85780601f10612bad57610100808354040283529160200191612bd8565b820191906000526020600020905b815481529060010190602001808311612bbb57829003601f168201915b505050505081526020019060010190612b40565b50505050815260200160038201805480602002602001604051908101604052809291908181526020016000905b82821015612cc5578382906000526020600020018054612c3890616acc565b80601f0160208091040260200160405190810160405280929190818152602001828054612c6490616acc565b8015612cb15780601f10612c8657610100808354040283529160200191612cb1565b820191906000526020600020905b815481529060010190602001808311612c9457829003601f168201915b505050505081526020019060010190612c19565b50505050815260200160048201805480602002602001604051908101604052809291908181526020016000905b82821015612dc05783829060005260206000209060020201604051806040016040529081600082018054612d2590616acc565b80601f0160208091040260200160405190810160405280929190818152602001828054612d5190616acc565b8015612d9e5780601f10612d7357610100808354040283529160200191612d9e565b820191906000526020600020905b815481529060010190602001808311612d8157829003601f168201915b5050505050815260200160018201548152505081526020019060010190612cf2565b505050508152602001600582018054612dd890616acc565b80601f0160208091040260200160405190810160405280929190818152602001828054612e0490616acc565b8015612e515780601f10612e2657610100808354040283529160200191612e51565b820191906000526020600020905b815481529060010190602001808311612e3457829003601f168201915b5050505050815260200160068201805480602002602001604051908101604052809291908181526020018280548015612ea957602002820191906000526020600020905b815481526020019060010190808311612e95575b505050505081526020016007820160009054906101000a900460ff1615151515815260200160088201805480602002602001604051908101604052809291908181526020016000905b82821015612f9e578382906000526020600020018054612f1190616acc565b80601f0160208091040260200160405190810160405280929190818152602001828054612f3d90616acc565b8015612f8a5780601f10612f5f57610100808354040283529160200191612f8a565b820191906000526020600020905b815481529060010190602001808311612f6d57829003601f168201915b505050505081526020019060010190612ef2565b5050505081525050905090565b606060018054612fba90616acc565b80601f0160208091040260200160405190810160405280929190818152602001828054612fe690616acc565b80156130335780601f1061300857610100808354040283529160200191613033565b820191906000526020600020905b81548152906001019060200180831161301657829003601f168201915b5050505050905090565b6130456141ff565b73ffffffffffffffffffffffffffffffffffffffff1661306361276e565b73ffffffffffffffffffffffffffffffffffffffff16146130b9576040517f08c379a00000000000000000000000000000000000000000000000000000000081526004016130b09061734d565b60405180910390fd5b6130d1838383600b615061909392919063ffffffff16565b505050565b6130e86130e16141ff565b83836150fd565b5050565b6060600e805480602002602001604051908101604052809291908181526020016000905b828210156131bc57838290600052602060002001805461312f90616acc565b80601f016020809104026020016040519081016040528092919081815260200182805461315b90616acc565b80156131a85780601f1061317d576101008083540402835291602001916131a8565b820191906000526020600020905b81548152906001019060200180831161318b57829003601f168201915b505050505081526020019060010190613110565b50505050905090565b6000600f80549050905090565b600a60003373ffffffffffffffffffffffffffffffffffffffff1673ffffffffffffffffffffffffffffffffffffffff16815260200190815260200160002060070160009054906101000a900460ff16613261576040517f08c379a000000000000000000000000000000000000000000000000000000000815260040161325890616cff565b60405180910390fd5b6132b48282600a60003373ffffffffffffffffffffffffffffffffffffffff1673ffffffffffffffffffffffffffffffffffffffff1681526020019081526020016000206152699092919063ffffffff16565b3373ffffffffffffffffffffffffffffffffffffffff167f9dc5c994cee1ffa2e2c3fc4d4d0d9e24511eb0ceef3efe59ff6f57eda374bb2783836040516132fc92919061748b565b60405180910390a25050565b600a60003373ffffffffffffffffffffffffffffffffffffffff1673ffffffffffffffffffffffffffffffffffffffff16815260200190815260200160002060070160009054906101000a900460ff16613397576040517f08c379a000000000000000000000000000000000000000000000000000000000815260040161338e90616cff565b60405180910390fd5b6002600754036133dc576040517f08c379a00000000000000000000000000000000000000000000000000000000081526004016133d3906177cf565b60405180910390fd5b60026007819055506133fa8282600b6142c09092919063ffffffff16565b613439576040517f08c379a000000000000000000000000000000000000000000000000000000000815260040161343090616d6b565b60405180910390fd5b61344f8282600b6152f49092919063ffffffff16565b341015613491576040517f08c379a00000000000000000000000000000000000000000000000000000000081526004016134889061783b565b60405180910390fd5b600960008154809291906134a490616dba565b91905055506135008282600954600a60003373ffffffffffffffffffffffffffffffffffffffff1673ffffffffffffffffffffffffffffffffffffffff168152602001908152602001600020615391909392919063ffffffff16565b3373ffffffffffffffffffffffffffffffffffffffff167f92904d8c10560a367e402f96fc80c79668c5a9850462a718473e9f671b28ea38838360095460405161354c939291906170ff565b60405180910390a260016007819055505050565b61357161356b6141ff565b8361471b565b6135b0576040517f08c379a00000000000000000000000000000000000000000000000000000000081526004016135a7906172e1565b60405180910390fd5b6135bc8484848461543f565b50505050565b6135ca6141ff565b73ffffffffffffffffffffffffffffffffffffffff166135e861276e565b73ffffffffffffffffffffffffffffffffffffffff161461363e576040517f08c379a00000000000000000000000000000000000000000000000000000000081526004016136359061734d565b60405180910390fd5b613656838383600b61549b909392919063ffffffff16565b600e838390918060018154018082558091505060019003906000526020600020016000909192909192909192909192509182613693929190616fb9565b50505050565b6000600a60008373ffffffffffffffffffffffffffffffffffffffff1673ffffffffffffffffffffffffffffffffffffffff168152602001908152602001600020600601805490509050919050565b6000601080549050905090565b6060600073ffffffffffffffffffffffffffffffffffffffff1661371883611d93565b73ffffffffffffffffffffffffffffffffffffffff160361376e576040517f08c379a0000000000000000000000000000000000000000000000000000000008152600401613765906178a7565b60405180910390fd5b600d6000838152602001908152602001600020805461378c90616acc565b80601f01602080910402602001604051908101604052809291908181526020018280546137b890616acc565b80156138055780601f106137da57610100808354040283529160200191613805565b820191906000526020600020905b8154815290600101906020018083116137e857829003601f168201915b50505050509050919050565b613819615961565b600a60008373ffffffffffffffffffffffffffffffffffffffff1673ffffffffffffffffffffffffffffffffffffffff16815260200190815260200160002060070160009054906101000a900460ff166138a8576040517f08c379a000000000000000000000000000000000000000000000000000000000815260040161389f90617913565b60405180910390fd5b600a60008373ffffffffffffffffffffffffffffffffffffffff1673ffffffffffffffffffffffffffffffffffffffff1681526020019081526020016000206040518061012001604052908160008201805461390390616acc565b80601f016020809104026020016040519081016040528092919081815260200182805461392f90616acc565b801561397c5780601f106139515761010080835404028352916020019161397c565b820191906000526020600020905b81548152906001019060200180831161395f57829003601f168201915b5050505050815260200160018201805480602002602001604051908101604052809291908181526020016000905b82821015613a565783829060005260206000200180546139c990616acc565b80601f01602080910402602001604051908101604052809291908181526020018280546139f590616acc565b8015613a425780601f10613a1757610100808354040283529160200191613a42565b820191906000526020600020905b815481529060010190602001808311613a2557829003601f168201915b5050505050815260200190600101906139aa565b50505050815260200160028201805480602002602001604051908101604052809291908181526020016000905b82821015613b2f578382906000526020600020018054613aa290616acc565b80601f0160208091040260200160405190810160405280929190818152602001828054613ace90616acc565b8015613b1b5780601f10613af057610100808354040283529160200191613b1b565b820191906000526020600020905b815481529060010190602001808311613afe57829003601f168201915b505050505081526020019060010190613a83565b50505050815260200160038201805480602002602001604051908101604052809291908181526020016000905b82821015613c08578382906000526020600020018054613b7b90616acc565b80601f0160208091040260200160405190810160405280929190818152602001828054613ba790616acc565b8015613bf45780601f10613bc957610100808354040283529160200191613bf4565b820191906000526020600020905b815481529060010190602001808311613bd757829003601f168201915b505050505081526020019060010190613b5c565b50505050815260200160048201805480602002602001604051908101604052809291908181526020016000905b82821015613d035783829060005260206000209060020201604051806040016040529081600082018054613c6890616acc565b80601f0160208091040260200160405190810160405280929190818152602001828054613c9490616acc565b8015613ce15780601f10613cb657610100808354040283529160200191613ce1565b820191906000526020600020905b815481529060010190602001808311613cc457829003601f168201915b5050505050815260200160018201548152505081526020019060010190613c35565b505050508152602001600582018054613d1b90616acc565b80601f0160208091040260200160405190810160405280929190818152602001828054613d4790616acc565b8015613d945780601f10613d6957610100808354040283529160200191613d94565b820191906000526020600020905b815481529060010190602001808311613d7757829003601f168201915b5050505050815260200160068201805480602002602001604051908101604052809291908181526020018280548015613dec57602002820191906000526020600020905b815481526020019060010190808311613dd8575b505050505081526020016007820160009054906101000a900460ff1615151515815260200160088201805480602002602001604051908101604052809291908181526020016000905b82821015613ee1578382906000526020600020018054613e5490616acc565b80601f0160208091040260200160405190810160405280929190818152602001828054613e8090616acc565b8015613ecd5780601f10613ea257610100808354040283529160200191613ecd565b820191906000526020600020905b815481529060010190602001808311613eb057829003601f168201915b505050505081526020019060010190613e35565b50505050815250509050919050565b6060600f805480602002602001604051908101604052809291908181526020018280548015613f7457602002820191906000526020600020905b8160009054906101000a900473ffffffffffffffffffffffffffffffffffffffff1673ffffffffffffffffffffffffffffffffffffffff1681526020019060010190808311613f2a575b5050505050905090565b6060613f968383600c61561b9092919063ffffffff16565b905092915050565b6000600560008473ffffffffffffffffffffffffffffffffffffffff1673ffffffffffffffffffffffffffffffffffffffff16815260200190815260200160002060008373ffffffffffffffffffffffffffffffffffffffff1673ffffffffffffffffffffffffffffffffffffffff16815260200190815260200160002060009054906101000a900460ff16905092915050565b61403a6141ff565b73ffffffffffffffffffffffffffffffffffffffff1661405861276e565b73ffffffffffffffffffffffffffffffffffffffff16146140ae576040517f08c379a00000000000000000000000000000000000000000000000000000000081526004016140a59061734d565b60405180910390fd5b600073ffffffffffffffffffffffffffffffffffffffff168173ffffffffffffffffffffffffffffffffffffffff160361411d576040517f08c379a0000000000000000000000000000000000000000000000000000000008152600401614114906179a5565b60405180910390fd5b61412681614f10565b50565b60007f01ffc9a7000000000000000000000000000000000000000000000000000000007bffffffffffffffffffffffffffffffffffffffffffffffffffffffff1916827bffffffffffffffffffffffffffffffffffffffffffffffffffffffff1916149050919050565b60008073ffffffffffffffffffffffffffffffffffffffff166002600084815260200190815260200160002060009054906101000a900473ffffffffffffffffffffffffffffffffffffffff1673ffffffffffffffffffffffffffffffffffffffff1614159050919050565b600033905090565b816004600083815260200190815260200160002060006101000a81548173ffffffffffffffffffffffffffffffffffffffff021916908373ffffffffffffffffffffffffffffffffffffffff160217905550808273ffffffffffffffffffffffffffffffffffffffff1661427a83611d93565b73ffffffffffffffffffffffffffffffffffffffff167f8c5be1e5ebec7d5bd14f71427d1e84f3dd0314c0f7b2291e5b200ac8c7c3b92560405160405180910390a45050565b60008383836040516142d39291906170b9565b908152602001604051809103902060020160009054906101000a900460ff1690509392505050565b60008888905011614341576040517f08c379a000000000000000000000000000000000000000000000000000000000815260040161433890617a11565b60405180910390fd5b60008989896040516143549291906170b9565b9081526020016040518091039020600001805461437090616acc565b9050146143b2576040517f08c379a00000000000000000000000000000000000000000000000000000000081526004016143a990617a7d565b60405180910390fd5b60008989896040516143c59291906170b9565b9081526020016040518091039020905088888260000191826143e8929190616fb9565b5086868260010191826143fc929190616fb9565b508484826002019182614410929190616fb9565b50818160040181905550828160030160006101000a81548173ffffffffffffffffffffffffffffffffffffffff021916908373ffffffffffffffffffffffffffffffffffffffff16021790555080600501839080600181540180825580915050600190039060005260206000200160009091909190916101000a81548173ffffffffffffffffffffffffffffffffffffffff021916908373ffffffffffffffffffffffffffffffffffffffff16021790555050505050505050505050565b8260080182829091806001815401808255809150506001900390600052602060002001600090919290919290919290919250918261450d929190616fb9565b50505050565b600073ffffffffffffffffffffffffffffffffffffffff168273ffffffffffffffffffffffffffffffffffffffff1603614582576040517f08c379a000000000000000000000000000000000000000000000000000000000815260040161457990617ae9565b60405180910390fd5b61458b81614193565b156145cb576040517f08c379a00000000000000000000000000000000000000000000000000000000081526004016145c290617b55565b60405180910390fd5b6145d76000838361573e565b6001600360008473ffffffffffffffffffffffffffffffffffffffff1673ffffffffffffffffffffffffffffffffffffffff16815260200190815260200160002060008282546146279190617b75565b92505081905550816002600083815260200190815260200160002060006101000a81548173ffffffffffffffffffffffffffffffffffffffff021916908373ffffffffffffffffffffffffffffffffffffffff160217905550808273ffffffffffffffffffffffffffffffffffffffff16600073ffffffffffffffffffffffffffffffffffffffff167fddf252ad1be2c89b69c2b068fc378daa952ba7f163c4a11628f55a4df523b3ef60405160405180910390a46146e860008383615743565b5050565b816006018190806001815401808255809150506001900390600052602060002001600090919091909150555050565b600061472682614193565b614765576040517f08c379a000000000000000000000000000000000000000000000000000000000815260040161475c90617c1b565b60405180910390fd5b600061477083611d93565b90508073ffffffffffffffffffffffffffffffffffffffff168473ffffffffffffffffffffffffffffffffffffffff1614806147b257506147b18185613f9e565b5b806147f057508373ffffffffffffffffffffffffffffffffffffffff166147d884610c51565b73ffffffffffffffffffffffffffffffffffffffff16145b91505092915050565b8273ffffffffffffffffffffffffffffffffffffffff1661481982611d93565b73ffffffffffffffffffffffffffffffffffffffff161461486f576040517f08c379a000000000000000000000000000000000000000000000000000000000815260040161486690617cad565b60405180910390fd5b600073ffffffffffffffffffffffffffffffffffffffff168273ffffffffffffffffffffffffffffffffffffffff16036148de576040517f08c379a00000000000000000000000000000000000000000000000000000000081526004016148d590617d3f565b60405180910390fd5b6148e983838361573e565b6148f4600082614207565b6001600360008573ffffffffffffffffffffffffffffffffffffffff1673ffffffffffffffffffffffffffffffffffffffff16815260200190815260200160002060008282546149449190617d5f565b925050819055506001600360008473ffffffffffffffffffffffffffffffffffffffff1673ffffffffffffffffffffffffffffffffffffffff168152602001908152602001600020600082825461499b9190617b75565b92505081905550816002600083815260200190815260200160002060006101000a81548173ffffffffffffffffffffffffffffffffffffffff021916908373ffffffffffffffffffffffffffffffffffffffff160217905550808273ffffffffffffffffffffffffffffffffffffffff168473ffffffffffffffffffffffffffffffffffffffff167fddf252ad1be2c89b69c2b068fc378daa952ba7f163c4a11628f55a4df523b3ef60405160405180910390a4614a5a838383615743565b505050565b60008282905011614aa5576040517f08c379a0000000000000000000000000000000000000000000000000000000008152600401614a9c90617ddf565b60405180910390fd5b82600201828290918060018154018082558091505060019003906000526020600020016000909192909192909192909192509182614ae4929190616fb9565b50505050565b6000848484604051614afd9291906170b9565b908152602001604051809103902090506000816000018054614b1e90616acc565b905011614b60576040517f08c379a0000000000000000000000000000000000000000000000000000000008152600401614b5790617e4b565b60405180910390fd5b6000805b8260050180549050811015614c02578373ffffffffffffffffffffffffffffffffffffffff16836005018281548110614ba057614b9f617e6b565b5b9060005260206000200160009054906101000a900473ffffffffffffffffffffffffffffffffffffffff1673ffffffffffffffffffffffffffffffffffffffff1603614bef5760019150614c02565b8080614bfa90616dba565b915050614b64565b508015614c44576040517f08c379a0000000000000000000000000000000000000000000000000000000008152600401614c3b90617ee6565b60405180910390fd5b81600501839080600181540180825580915050600190039060005260206000200160009091909190916101000a81548173ffffffffffffffffffffffffffffffffffffffff021916908373ffffffffffffffffffffffffffffffffffffffff160217905550505050505050565b600080848484604051614cc59291906170b9565b90815260200160405180910390206000018054614ce190616acc565b90501190509392505050565b60008282905011614d33576040517f08c379a0000000000000000000000000000000000000000000000000000000008152600401614d2a90617f52565b60405180910390fd5b8181846005019182614d46929190616fb9565b50505050565b828282604051614d5d9291906170b9565b908152602001604051809103902060020160009054906101000a900460ff16614dbb576040517f08c379a0000000000000000000000000000000000000000000000000000000008152600401614db290616d6b565b60405180910390fd5b828282604051614dcc9291906170b9565b908152602001604051809103902060008082016000614deb91906159af565b60018201600090556002820160006101000a81549060ff02191690555050505050565b60005b8380549050811015614f0a578282604051614e2d929190617f97565b6040518091039020848281548110614e4857614e47617e6b565b5b90600052602060002001604051614e5f9190618048565b604051809103902003614ef7578360018580549050614e7e9190617d5f565b81548110614e8f57614e8e617e6b565b5b90600052602060002001848281548110614eac57614eab617e6b565b5b906000526020600020019081614ec2919061808a565b5083805480614ed457614ed3618172565b5b600190038181906000526020600020016000614ef091906159af565b9055614f0a565b8080614f0290616dba565b915050614e11565b50505050565b6000600660009054906101000a900473ffffffffffffffffffffffffffffffffffffffff16905081600660006101000a81548173ffffffffffffffffffffffffffffffffffffffff021916908373ffffffffffffffffffffffffffffffffffffffff1602179055508173ffffffffffffffffffffffffffffffffffffffff168173ffffffffffffffffffffffffffffffffffffffff167f8be0079c531659141344cd1fd0a4f28419497f9722a3daafe3b4186f6b6457e060405160405180910390a35050565b6000828290501161501c576040517f08c379a000000000000000000000000000000000000000000000000000000000815260040161501390617ddf565b60405180910390fd5b8260030182829091806001815401808255809150506001900390600052602060002001600090919290919290919290919250918261505b929190616fb9565b50505050565b8383836040516150729291906170b9565b908152602001604051809103902060020160009054906101000a900460ff166150d0576040517f08c379a00000000000000000000000000000000000000000000000000000000081526004016150c790616d6b565b60405180910390fd5b808484846040516150e29291906170b9565b90815260200160405180910390206001018190555050505050565b8173ffffffffffffffffffffffffffffffffffffffff168373ffffffffffffffffffffffffffffffffffffffff160361516b576040517f08c379a0000000000000000000000000000000000000000000000000000000008152600401615162906181ed565b60405180910390fd5b80600560008573ffffffffffffffffffffffffffffffffffffffff1673ffffffffffffffffffffffffffffffffffffffff16815260200190815260200160002060008473ffffffffffffffffffffffffffffffffffffffff1673ffffffffffffffffffffffffffffffffffffffff16815260200190815260200160002060006101000a81548160ff0219169083151502179055508173ffffffffffffffffffffffffffffffffffffffff168373ffffffffffffffffffffffffffffffffffffffff167f17307eab39ab6107e8899845ad3d59bd9653f200f220920489ca2b5937696c318360405161525c9190615ac0565b60405180910390a3505050565b600082829050116152af576040517f08c379a00000000000000000000000000000000000000000000000000000000081526004016152a690618259565b60405180910390fd5b826001018282909180600181540180825580915050600190039060005260206000200160009091929091929091929091925091826152ee929190616fb9565b50505050565b60008383836040516153079291906170b9565b908152602001604051809103902060020160009054906101000a900460ff16615365576040517f08c379a000000000000000000000000000000000000000000000000000000000815260040161535c90616d6b565b60405180910390fd5b8383836040516153769291906170b9565b90815260200160405180910390206001015490509392505050565b83600401604051806040016040528085858080601f016020809104026020016040519081016040528093929190818152602001838380828437600081840152601f19601f820116905080830192505050505050508152602001838152509080600181540180825580915050600190039060005260206000209060020201600090919091909150600082015181600001908161542c919061719d565b5060208201518160010155505050505050565b61544a8484846147f9565b61545684848484615748565b615495576040517f08c379a000000000000000000000000000000000000000000000000000000000815260040161548c906182eb565b60405180910390fd5b50505050565b600083839050116154e1576040517f08c379a00000000000000000000000000000000000000000000000000000000081526004016154d890618357565b60405180910390fd5b8383836040516154f29291906170b9565b908152602001604051809103902060020160009054906101000a900460ff1615615551576040517f08c379a0000000000000000000000000000000000000000000000000000000008152600401615548906183c3565b60405180910390fd5b604051806060016040528084848080601f016020809104026020016040519081016040528093929190818152602001838380828437600081840152601f19601f820116905080830192505050505050508152602001828152602001600115158152508484846040516155c49291906170b9565b908152602001604051809103902060008201518160000190816155e7919061719d565b506020820151816001015560408201518160020160006101000a81548160ff02191690831515021790555090505050505050565b606060008484846040516156309291906170b9565b9081526020016040518091039020600001805461564c90616acc565b90501161568e576040517f08c379a0000000000000000000000000000000000000000000000000000000008152600401615685906174fb565b60405180910390fd5b83838360405161569f9291906170b9565b908152602001604051809103902060050180548060200260200160405190810160405280929190818152602001828054801561573057602002820191906000526020600020905b8160009054906101000a900473ffffffffffffffffffffffffffffffffffffffff1673ffffffffffffffffffffffffffffffffffffffff16815260200190600101908083116156e6575b505050505090509392505050565b505050565b505050565b60006157698473ffffffffffffffffffffffffffffffffffffffff166158cf565b156158c2578373ffffffffffffffffffffffffffffffffffffffff1663150b7a026157926141ff565b8786866040518563ffffffff1660e01b81526004016157b49493929190618438565b6020604051808303816000875af19250505080156157f057506040513d601f19601f820116820180604052508101906157ed9190618499565b60015b615872573d8060008114615820576040519150601f19603f3d011682016040523d82523d6000602084013e615825565b606091505b50600081510361586a576040517f08c379a0000000000000000000000000000000000000000000000000000000008152600401615861906182eb565b60405180910390fd5b805181602001fd5b63150b7a0260e01b7bffffffffffffffffffffffffffffffffffffffffffffffffffffffff1916817bffffffffffffffffffffffffffffffffffffffffffffffffffffffff1916149150506158c7565b600190505b949350505050565b6000808273ffffffffffffffffffffffffffffffffffffffff163b119050919050565b6040518060c00160405280606081526020016060815260200160608152602001600073ffffffffffffffffffffffffffffffffffffffff16815260200160008152602001606081525090565b604051806060016040528060608152602001600081526020016000151581525090565b60405180610120016040528060608152602001606081526020016060815260200160608152602001606081526020016060815260200160608152602001600015158152602001606081525090565b5080546159bb90616acc565b6000825580601f106159cd57506159ec565b601f0160209004906000526020600020908101906159eb91906159ef565b5b50565b5b80821115615a085760008160009055506001016159f0565b5090565b6000604051905090565b600080fd5b600080fd5b60007fffffffff0000000000000000000000000000000000000000000000000000000082169050919050565b615a5581615a20565b8114615a6057600080fd5b50565b600081359050615a7281615a4c565b92915050565b600060208284031215615a8e57615a8d615a16565b5b6000615a9c84828501615a63565b91505092915050565b60008115159050919050565b615aba81615aa5565b82525050565b6000602082019050615ad56000830184615ab1565b92915050565b600081519050919050565b600082825260208201905092915050565b60005b83811015615b15578082015181840152602081019050615afa565b60008484015250505050565b6000601f19601f8301169050919050565b6000615b3d82615adb565b615b478185615ae6565b9350615b57818560208601615af7565b615b6081615b21565b840191505092915050565b60006020820190508181036000830152615b858184615b32565b905092915050565b6000819050919050565b615ba081615b8d565b8114615bab57600080fd5b50565b600081359050615bbd81615b97565b92915050565b600060208284031215615bd957615bd8615a16565b5b6000615be784828501615bae565b91505092915050565b600073ffffffffffffffffffffffffffffffffffffffff82169050919050565b6000615c1b82615bf0565b9050919050565b615c2b81615c10565b82525050565b6000602082019050615c466000830184615c22565b92915050565b615c5581615c10565b8114615c6057600080fd5b50565b600081359050615c7281615c4c565b92915050565b60008060408385031215615c8f57615c8e615a16565b5b6000615c9d85828601615c63565b9250506020615cae85828601615bae565b9150509250929050565b600060208284031215615cce57615ccd615a16565b5b6000615cdc84828501615c63565b91505092915050565b600080fd5b600080fd5b600080fd5b60008083601f840112615d0a57615d09615ce5565b5b8235905067ffffffffffffffff811115615d2757615d26615cea565b5b602083019150836001820283011115615d4357615d42615cef565b5b9250929050565b60008060008060008060608789031215615d6757615d66615a16565b5b600087013567ffffffffffffffff811115615d8557615d84615a1b565b5b615d9189828a01615cf4565b9650965050602087013567ffffffffffffffff811115615db457615db3615a1b565b5b615dc089828a01615cf4565b9450945050604087013567ffffffffffffffff811115615de357615de2615a1b565b5b615def89828a01615cf4565b92509250509295509295509295565b600080fd5b7f4e487b7100000000000000000000000000000000000000000000000000000000600052604160045260246000fd5b615e3b82615b21565b810181811067ffffffffffffffff82111715615e5a57615e59615e03565b5b80604052505050565b6000615e6d615a0c565b9050615e798282615e32565b919050565b600067ffffffffffffffff821115615e9957615e98615e03565b5b615ea282615b21565b9050602081019050919050565b82818337600083830152505050565b6000615ed1615ecc84615e7e565b615e63565b905082815260208101848484011115615eed57615eec615dfe565b5b615ef8848285615eaf565b509392505050565b600082601f830112615f1557615f14615ce5565b5b8135615f25848260208601615ebe565b91505092915050565b600060208284031215615f4457615f43615a16565b5b600082013567ffffffffffffffff811115615f6257615f61615a1b565b5b615f6e84828501615f00565b91505092915050565b600080600060608486031215615f9057615f8f615a16565b5b6000615f9e86828701615c63565b9350506020615faf86828701615c63565b9250506040615fc086828701615bae565b9150509250925092565b60008060208385031215615fe157615fe0615a16565b5b600083013567ffffffffffffffff811115615fff57615ffe615a1b565b5b61600b85828601615cf4565b92509250509250929050565b600081519050919050565b600082825260208201905092915050565b6000819050602082019050919050565b600082825260208201905092915050565b600061605f82615adb565b6160698185616043565b9350616079818560208601615af7565b61608281615b21565b840191505092915050565b61609681615b8d565b82525050565b600060408301600083015184820360008601526160b98282616054565b91505060208301516160ce602086018261608d565b508091505092915050565b60006160e5838361609c565b905092915050565b6000602082019050919050565b600061610582616017565b61610f8185616022565b93508360208202850161612185616033565b8060005b8581101561615d578484038952815161613e85826160d9565b9450616149836160ed565b925060208a01995050600181019050616125565b50829750879550505050505092915050565b6000602082019050818103600083015261618981846160fa565b905092915050565b61619a81615b8d565b82525050565b60006020820190506161b56000830184616191565b92915050565b6161c481615c10565b82525050565b600081519050919050565b600082825260208201905092915050565b6000819050602082019050919050565b600061620283836161bb565b60208301905092915050565b6000602082019050919050565b6000616226826161ca565b61623081856161d5565b935061623b836161e6565b8060005b8381101561626c57815161625388826161f6565b975061625e8361620e565b92505060018101905061623f565b5085935050505092915050565b600060c08301600083015184820360008601526162968282616054565b915050602083015184820360208601526162b08282616054565b915050604083015184820360408601526162ca8282616054565b91505060608301516162df60608601826161bb565b5060808301516162f2608086018261608d565b5060a083015184820360a086015261630a828261621b565b9150508091505092915050565b600060208201905081810360008301526163318184616279565b905092915050565b600061634482615bf0565b9050919050565b61635481616339565b811461635f57600080fd5b50565b6000813590506163718161634b565b92915050565b60006020828403121561638d5761638c615a16565b5b600061639b84828501616362565b91505092915050565b600081519050919050565b600082825260208201905092915050565b6000819050602082019050919050565b60006163dc8383616054565b905092915050565b6000602082019050919050565b60006163fc826163a4565b61640681856163af565b935083602082028501616418856163c0565b8060005b85811015616454578484038952815161643585826163d0565b9450616440836163e4565b925060208a0199505060018101905061641c565b50829750879550505050505092915050565b6000602082019050818103600083015261648081846163f1565b905092915050565b61649181615aa5565b82525050565b600060608301600083015184820360008601526164b48282616054565b91505060208301516164c9602086018261608d565b5060408301516164dc6040860182616488565b508091505092915050565b600060208201905081810360008301526165018184616497565b905092915050565b600082825260208201905092915050565b6000616525826163a4565b61652f8185616509565b935083602082028501616541856163c0565b8060005b8581101561657d578484038952815161655e85826163d0565b9450616569836163e4565b925060208a01995050600181019050616545565b50829750879550505050505092915050565b600082825260208201905092915050565b60006165ab82616017565b6165b5818561658f565b9350836020820285016165c785616033565b8060005b8581101561660357848403895281516165e485826160d9565b94506165ef836160ed565b925060208a019950506001810190506165cb565b50829750879550505050505092915050565b600081519050919050565b600082825260208201905092915050565b6000819050602082019050919050565b600061664d838361608d565b60208301905092915050565b6000602082019050919050565b600061667182616615565b61667b8185616620565b935061668683616631565b8060005b838110156166b757815161669e8882616641565b97506166a983616659565b92505060018101905061668a565b5085935050505092915050565b60006101208301600083015184820360008601526166e28282616054565b915050602083015184820360208601526166fc828261651a565b91505060408301518482036040860152616716828261651a565b91505060608301518482036060860152616730828261651a565b9150506080830151848203608086015261674a82826165a0565b91505060a083015184820360a08601526167648282616054565b91505060c083015184820360c086015261677e8282616666565b91505060e083015161679360e0860182616488565b506101008301518482036101008601526167ad828261651a565b9150508091505092915050565b600060208201905081810360008301526167d481846166c4565b905092915050565b6000806000604084860312156167f5576167f4615a16565b5b600084013567ffffffffffffffff81111561681357616812615a1b565b5b61681f86828701615cf4565b9350935050602061683286828701615bae565b9150509250925092565b61684581615aa5565b811461685057600080fd5b50565b6000813590506168628161683c565b92915050565b6000806040838503121561687f5761687e615a16565b5b600061688d85828601615c63565b925050602061689e85828601616853565b9150509250929050565b600067ffffffffffffffff8211156168c3576168c2615e03565b5b6168cc82615b21565b9050602081019050919050565b60006168ec6168e7846168a8565b615e63565b90508281526020810184848401111561690857616907615dfe565b5b616913848285615eaf565b509392505050565b600082601f8301126169305761692f615ce5565b5b81356169408482602086016168d9565b91505092915050565b6000806000806080858703121561696357616962615a16565b5b600061697187828801615c63565b945050602061698287828801615c63565b935050604061699387828801615bae565b925050606085013567ffffffffffffffff8111156169b4576169b3615a1b565b5b6169c08782880161691b565b91505092959194509250565b600082825260208201905092915050565b60006169e8826161ca565b6169f281856169cc565b93506169fd836161e6565b8060005b83811015616a2e578151616a1588826161f6565b9750616a208361620e565b925050600181019050616a01565b5085935050505092915050565b60006020820190508181036000830152616a5581846169dd565b905092915050565b60008060408385031215616a7457616a73615a16565b5b6000616a8285828601615c63565b9250506020616a9385828601615c63565b9150509250929050565b7f4e487b7100000000000000000000000000000000000000000000000000000000600052602260045260246000fd5b60006002820490506001821680616ae457607f821691505b602082108103616af757616af6616a9d565b5b50919050565b7f4552433732313a20617070726f76656420717565727920666f72206e6f6e657860008201527f697374656e7420746f6b656e0000000000000000000000000000000000000000602082015250565b6000616b59602c83615ae6565b9150616b6482616afd565b604082019050919050565b60006020820190508181036000830152616b8881616b4c565b9050919050565b7f4552433732313a20617070726f76616c20746f2063757272656e74206f776e6560008201527f7200000000000000000000000000000000000000000000000000000000000000602082015250565b6000616beb602183615ae6565b9150616bf682616b8f565b604082019050919050565b60006020820190508181036000830152616c1a81616bde565b9050919050565b7f4552433732313a20617070726f76652063616c6c6572206973206e6f74206f7760008201527f6e6572206e6f7220617070726f76656420666f7220616c6c0000000000000000602082015250565b6000616c7d603883615ae6565b9150616c8882616c21565b604082019050919050565b60006020820190508181036000830152616cac81616c70565b9050919050565b7f4e6f742072656769737465726564000000000000000000000000000000000000600082015250565b6000616ce9600e83615ae6565b9150616cf482616cb3565b602082019050919050565b60006020820190508181036000830152616d1881616cdc565b9050919050565b7f426f7420646f6573206e6f742065786973740000000000000000000000000000600082015250565b6000616d55601283615ae6565b9150616d6082616d1f565b602082019050919050565b60006020820190508181036000830152616d8481616d48565b9050919050565b7f4e487b7100000000000000000000000000000000000000000000000000000000600052601160045260246000fd5b6000616dc582615b8d565b91507fffffffffffffffffffffffffffffffffffffffffffffffffffffffffffffffff8203616df757616df6616d8b565b5b600182019050919050565b600082905092915050565b60008190508160005260206000209050919050565b60006020601f8301049050919050565b600082821b905092915050565b600060088302616e6f7fffffffffffffffffffffffffffffffffffffffffffffffffffffffffffffffff82616e32565b616e798683616e32565b95508019841693508086168417925050509392505050565b6000819050919050565b6000616eb6616eb1616eac84615b8d565b616e91565b615b8d565b9050919050565b6000819050919050565b616ed083616e9b565b616ee4616edc82616ebd565b848454616e3f565b825550505050565b600090565b616ef9616eec565b616f04818484616ec7565b505050565b5b81811015616f2857616f1d600082616ef1565b600181019050616f0a565b5050565b601f821115616f6d57616f3e81616e0d565b616f4784616e22565b81016020851015616f56578190505b616f6a616f6285616e22565b830182616f09565b50505b505050565b600082821c905092915050565b6000616f9060001984600802616f72565b1980831691505092915050565b6000616fa98383616f7f565b9150826002028217905092915050565b616fc38383616e02565b67ffffffffffffffff811115616fdc57616fdb615e03565b5b616fe68254616acc565b616ff1828285616f2c565b6000601f831160018114617020576000841561700e578287013590505b6170188582616f9d565b865550617080565b601f19841661702e86616e0d565b60005b8281101561705657848901358255600182019150602085019450602081019050617031565b86831015617073578489013561706f601f891682616f7f565b8355505b6001600288020188555050505b50505050505050565b600081905092915050565b60006170a08385617089565b93506170ad838584615eaf565b82840190509392505050565b60006170c6828486617094565b91508190509392505050565b60006170de8385615ae6565b93506170eb838584615eaf565b6170f483615b21565b840190509392505050565b6000604082019050818103600083015261711a8185876170d2565b90506171296020830184616191565b949350505050565b7f5552492063616e6e6f7420626520656d70747900000000000000000000000000600082015250565b6000617167601383615ae6565b915061717282617131565b602082019050919050565b600060208201905081810360008301526171968161715a565b9050919050565b6171a682615adb565b67ffffffffffffffff8111156171bf576171be615e03565b5b6171c98254616acc565b6171d4828285616f2c565b600060209050601f83116001811461720757600084156171f5578287015190505b6171ff8582616f9d565b865550617267565b601f19841661721586616e0d565b60005b8281101561723d57848901518255600182019150602085019450602081019050617218565b8683101561725a5784890151617256601f891682616f7f565b8355505b6001600288020188555050505b505050505050565b7f4552433732313a207472616e736665722063616c6c6572206973206e6f74206f60008201527f776e6572206e6f7220617070726f766564000000000000000000000000000000602082015250565b60006172cb603183615ae6565b91506172d68261726f565b604082019050919050565b600060208201905081810360008301526172fa816172be565b9050919050565b7f4f776e61626c653a2063616c6c6572206973206e6f7420746865206f776e6572600082015250565b6000617337602083615ae6565b915061734282617301565b602082019050919050565b600060208201905081810360008301526173668161732a565b9050919050565b7f4e6f2066756e647320746f207769746864726177000000000000000000000000600082015250565b60006173a3601483615ae6565b91506173ae8261736d565b602082019050919050565b600060208201905081810360008301526173d281617396565b9050919050565b600081905092915050565b50565b60006173f46000836173d9565b91506173ff826173e4565b600082019050919050565b6000617415826173e7565b9150819050919050565b7f5769746864726177616c206661696c6564000000000000000000000000000000600082015250565b6000617455601183615ae6565b91506174608261741f565b602082019050919050565b6000602082019050818103600083015261748481617448565b9050919050565b600060208201905081810360008301526174a68184866170d2565b90509392505050565b7f436f6d6d756e69747920646f6573206e6f742065786973740000000000000000600082015250565b60006174e5601883615ae6565b91506174f0826174af565b602082019050919050565b60006020820190508181036000830152617514816174d8565b9050919050565b7f4552433732313a206f776e657220717565727920666f72206e6f6e657869737460008201527f656e7420746f6b656e0000000000000000000000000000000000000000000000602082015250565b6000617577602983615ae6565b91506175828261751b565b604082019050919050565b600060208201905081810360008301526175a68161756a565b9050919050565b7f456d657267656e6379207769746864726177616c206661696c65640000000000600082015250565b60006175e3601b83615ae6565b91506175ee826175ad565b602082019050919050565b60006020820190508181036000830152617612816175d6565b9050919050565b7f5573657220616c72656164792072656769737465726564000000000000000000600082015250565b600061764f601783615ae6565b915061765a82617619565b602082019050919050565b6000602082019050818103600083015261767e81617642565b9050919050565b7f4d657461646174612063616e6e6f7420626520656d7074790000000000000000600082015250565b60006176bb601883615ae6565b91506176c682617685565b602082019050919050565b600060208201905081810360008301526176ea816176ae565b9050919050565b7f4552433732313a2062616c616e636520717565727920666f7220746865207a6560008201527f726f206164647265737300000000000000000000000000000000000000000000602082015250565b600061774d602a83615ae6565b9150617758826176f1565b604082019050919050565b6000602082019050818103600083015261777c81617740565b9050919050565b7f5265656e7472616e637947756172643a207265656e7472616e742063616c6c00600082015250565b60006177b9601f83615ae6565b91506177c482617783565b602082019050919050565b600060208201905081810360008301526177e8816177ac565b9050919050565b7f496e73756666696369656e74207061796d656e74000000000000000000000000600082015250565b6000617825601483615ae6565b9150617830826177ef565b602082019050919050565b6000602082019050818103600083015261785481617818565b9050919050565b7f546f6b656e20646f6573206e6f74206578697374000000000000000000000000600082015250565b6000617891601483615ae6565b915061789c8261785b565b602082019050919050565b600060208201905081810360008301526178c081617884565b9050919050565b7f55736572206e6f74207265676973746572656400000000000000000000000000600082015250565b60006178fd601383615ae6565b9150617908826178c7565b602082019050919050565b6000602082019050818103600083015261792c816178f0565b9050919050565b7f4f776e61626c653a206e6577206f776e657220697320746865207a65726f206160008201527f6464726573730000000000000000000000000000000000000000000000000000602082015250565b600061798f602683615ae6565b915061799a82617933565b604082019050919050565b600060208201905081810360008301526179be81617982565b9050919050565b7f436f6d6d756e697479206e616d652063616e6e6f7420626520656d7074790000600082015250565b60006179fb601e83615ae6565b9150617a06826179c5565b602082019050919050565b60006020820190508181036000830152617a2a816179ee565b9050919050565b7f436f6d6d756e69747920616c7265616479206578697374730000000000000000600082015250565b6000617a67601883615ae6565b9150617a7282617a31565b602082019050919050565b60006020820190508181036000830152617a9681617a5a565b9050919050565b7f4552433732313a206d696e7420746f20746865207a65726f2061646472657373600082015250565b6000617ad3602083615ae6565b9150617ade82617a9d565b602082019050919050565b60006020820190508181036000830152617b0281617ac6565b9050919050565b7f4552433732313a20746f6b656e20616c7265616479206d696e74656400000000600082015250565b6000617b3f601c83615ae6565b9150617b4a82617b09565b602082019050919050565b60006020820190508181036000830152617b6e81617b32565b9050919050565b6000617b8082615b8d565b9150617b8b83615b8d565b9250828201905080821115617ba357617ba2616d8b565b5b92915050565b7f4552433732313a206f70657261746f7220717565727920666f72206e6f6e657860008201527f697374656e7420746f6b656e0000000000000000000000000000000000000000602082015250565b6000617c05602c83615ae6565b9150617c1082617ba9565b604082019050919050565b60006020820190508181036000830152617c3481617bf8565b9050919050565b7f4552433732313a207472616e736665722066726f6d20696e636f72726563742060008201527f6f776e6572000000000000000000000000000000000000000000000000000000602082015250565b6000617c97602583615ae6565b9150617ca282617c3b565b604082019050919050565b60006020820190508181036000830152617cc681617c8a565b9050919050565b7f4552433732313a207472616e7366657220746f20746865207a65726f2061646460008201527f7265737300000000000000000000000000000000000000000000000000000000602082015250565b6000617d29602483615ae6565b9150617d3482617ccd565b604082019050919050565b60006020820190508181036000830152617d5881617d1c565b9050919050565b6000617d6a82615b8d565b9150617d7583615b8d565b9250828203905081811115617d8d57617d8c616d8b565b5b92915050565b7f476f616c2049442063616e6e6f7420626520656d707479000000000000000000600082015250565b6000617dc9601783615ae6565b9150617dd482617d93565b602082019050919050565b60006020820190508181036000830152617df881617dbc565b9050919050565b7f436f6d6d756e69747920726f6f6d20646f6573206e6f74206578697374000000600082015250565b6000617e35601d83615ae6565b9150617e4082617dff565b602082019050919050565b60006020820190508181036000830152617e6481617e28565b9050919050565b7f4e487b7100000000000000000000000000000000000000000000000000000000600052603260045260246000fd5b7f416c72656164792061206d656d62657200000000000000000000000000000000600082015250565b6000617ed0601083615ae6565b9150617edb82617e9a565b602082019050919050565b60006020820190508181036000830152617eff81617ec3565b9050919050565b7f496e6a7572792049442063616e6e6f7420626520656d70747900000000000000600082015250565b6000617f3c601983615ae6565b9150617f4782617f06565b602082019050919050565b60006020820190508181036000830152617f6b81617f2f565b9050919050565b6000617f7e83856173d9565b9350617f8b838584615eaf565b82840190509392505050565b6000617fa4828486617f72565b91508190509392505050565b60008190508160005260206000209050919050565b60008154617fd281616acc565b617fdc81866173d9565b94506001821660008114617ff7576001811461800c5761803f565b60ff198316865281151582028601935061803f565b61801585617fb0565b60005b8381101561803757815481890152600182019150602081019050618018565b838801955050505b50505092915050565b60006180548284617fc5565b915081905092915050565b60008154905061806e81616acc565b9050919050565b60008190508160005260206000209050919050565b818103618098575050618170565b6180a18261805f565b67ffffffffffffffff8111156180ba576180b9615e03565b5b6180c48254616acc565b6180cf828285616f2c565b6000601f8311600181146180fe57600084156180ec578287015490505b6180f68582616f9d565b865550618169565b601f19841661810c87618075565b965061811786616e0d565b60005b8281101561813f5784890154825560018201915060018501945060208101905061811a565b8683101561815c5784890154618158601f891682616f7f565b8355505b6001600288020188555050505b5050505050505b565b7f4e487b7100000000000000000000000000000000000000000000000000000000600052603160045260246000fd5b7f4552433732313a20617070726f766520746f2063616c6c657200000000000000600082015250565b60006181d7601983615ae6565b91506181e2826181a1565b602082019050919050565b60006020820190508181036000830152618206816181ca565b9050919050565b7f41637469766974792049442063616e6e6f7420626520656d7074790000000000600082015250565b6000618243601b83615ae6565b915061824e8261820d565b602082019050919050565b6000602082019050818103600083015261827281618236565b9050919050565b7f4552433732313a207472616e7366657220746f206e6f6e20455243373231526560008201527f63656976657220696d706c656d656e7465720000000000000000000000000000602082015250565b60006182d5603283615ae6565b91506182e082618279565b604082019050919050565b60006020820190508181036000830152618304816182c8565b9050919050565b7f426f74206e616d652063616e6e6f7420626520656d7074790000000000000000600082015250565b6000618341601883615ae6565b915061834c8261830b565b602082019050919050565b6000602082019050818103600083015261837081618334565b9050919050565b7f426f7420616c7265616479206578697374730000000000000000000000000000600082015250565b60006183ad601283615ae6565b91506183b882618377565b602082019050919050565b600060208201905081810360008301526183dc816183a0565b9050919050565b600081519050919050565b600082825260208201905092915050565b600061840a826183e3565b61841481856183ee565b9350618424818560208601615af7565b61842d81615b21565b840191505092915050565b600060808201905061844d6000830187615c22565b61845a6020830186615c22565b6184676040830185616191565b818103606083015261847981846183ff565b905095945050505050565b60008151905061849381615a4c565b92915050565b6000602082840312156184af576184ae615a16565b5b60006184bd84828501618484565b9150509291505056fea264697066735822122087bdab7fecce5089e88001c3293a9a9a3afc6aba56f972e24aa565c78c3368be64736f6c6343000814003360a06040523480156200001157600080fd5b5060405162001c2c38038062001c2c8339818101604052810190620000379190620000dc565b8073ffffffffffffffffffffffffffffffffffffffff1660808173ffffffffffffffffffffffffffffffffffffffff1681525050506200010e565b600080fd5b600073ffffffffffffffffffffffffffffffffffffffff82169050919050565b6000620000a48262000077565b9050919050565b620000b68162000097565b8114620000c257600080fd5b50565b600081519050620000d681620000ab565b92915050565b600060208284031215620000f557620000f462000072565b5b60006200010584828501620000c5565b91505092915050565b608051611ae6620001466000396000818161013a015281816102b9015281816104330152818161083d0152610b130152611ae66000f3fe608060405234801561001057600080fd5b50600436106100575760003560e01c80634e43603a1461005c5780636c6af86714610091578063ad0b2555146100af578063d03aae12146100df578063d270e7ab1461010f575b600080fd5b61007660048036038101906100719190610ba7565b61012d565b60405161008896959493929190610bed565b60405180910390f35b6100996102b4565b6040516100a69190610c4e565b60405180910390f35b6100c960048036038101906100c49190610cce565b61042d565b6040516100d69190610dd9565b60405180910390f35b6100f960048036038101906100f49190610cce565b610837565b6040516101069190610f4d565b60405180910390f35b610117610b11565b6040516101249190610f7e565b60405180910390f35b60008060008060008060007f000000000000000000000000000000000000000000000000000000000000000090508073ffffffffffffffffffffffffffffffffffffffff1663163f7522896040518263ffffffff1660e01b81526004016101949190610f7e565b602060405180830381865afa1580156101b1573d6000803e3d6000fd5b505050506040513d601f19601f820116820180604052508101906101d59190610fd1565b6101f457600080600080600080965096509650965096509650506102ab565b60008173ffffffffffffffffffffffffffffffffffffffff1663cc3d967b8a6040518263ffffffff1660e01b815260040161022f9190610f7e565b600060405180830381865afa15801561024c573d6000803e3d6000fd5b505050506040513d6000823e3d601f19601f820116820180604052508101906102759190611606565b90508060200151518160400151518260600151518360c00151518461010001515185608001515197509750975097509750975050505b91939550919395565b6000807f0000000000000000000000000000000000000000000000000000000000000000905060008173ffffffffffffffffffffffffffffffffffffffff16638272e1d46040518163ffffffff1660e01b8152600401600060405180830381865afa158015610327573d6000803e3d6000fd5b505050506040513d6000823e3d601f19601f82011682018060405250810190610350919061164f565b90506000805b82518110156104235760008473ffffffffffffffffffffffffffffffffffffffff166354d9ea158584815181106103905761038f611698565b5b60200260200101516040518263ffffffff1660e01b81526004016103b49190611711565b600060405180830381865afa1580156103d1573d6000803e3d6000fd5b505050506040513d6000823e3d601f19601f820116820180604052508101906103fa919061191b565b90508060a00151518361040d9190611993565b925050808061041b906119c7565b915050610356565b5080935050505090565b606060007f0000000000000000000000000000000000000000000000000000000000000000905060008173ffffffffffffffffffffffffffffffffffffffff1663e2842d796040518163ffffffff1660e01b8152600401600060405180830381865afa1580156104a1573d6000803e3d6000fd5b505050506040513d6000823e3d601f19601f820116820180604052508101906104ca9190611a0f565b90506000815167ffffffffffffffff8111156104e9576104e8611003565b5b6040519080825280602002602001820160405280156105175781602001602082028036833780820191505090505b5090506000805b8351811015610754578473ffffffffffffffffffffffffffffffffffffffff1663163f752285838151811061055657610555611698565b5b60200260200101516040518263ffffffff1660e01b815260040161057a9190610f7e565b602060405180830381865afa158015610597573d6000803e3d6000fd5b505050506040513d601f19601f820116820180604052508101906105bb9190610fd1565b156107415760008573ffffffffffffffffffffffffffffffffffffffff1663cc3d967b8684815181106105f1576105f0611698565b5b60200260200101516040518263ffffffff1660e01b81526004016106159190610f7e565b600060405180830381865afa158015610632573d6000803e3d6000fd5b505050506040513d6000823e3d601f19601f8201168201806040525081019061065b9190611606565b905060005b81602001515181101561073e57898960405161067d929190611a97565b60405180910390208260200151828151811061069c5761069b611698565b5b6020026020010151805190602001200361072b578583815181106106c3576106c2611698565b5b60200260200101518585815181106106de576106dd611698565b5b602002602001019073ffffffffffffffffffffffffffffffffffffffff16908173ffffffffffffffffffffffffffffffffffffffff16815250508380610723906119c7565b94505061073e565b8080610736906119c7565b915050610660565b50505b808061074c906119c7565b91505061051e565b5060008167ffffffffffffffff81111561077157610770611003565b5b60405190808252806020026020018201604052801561079f5781602001602082028036833780820191505090505b50905060005b82811015610828578381815181106107c0576107bf611698565b5b60200260200101518282815181106107db576107da611698565b5b602002602001019073ffffffffffffffffffffffffffffffffffffffff16908173ffffffffffffffffffffffffffffffffffffffff16815250508080610820906119c7565b9150506107a5565b50809550505050505092915050565b606060007f0000000000000000000000000000000000000000000000000000000000000000905060008173ffffffffffffffffffffffffffffffffffffffff16638272e1d46040518163ffffffff1660e01b8152600401600060405180830381865afa1580156108ab573d6000803e3d6000fd5b505050506040513d6000823e3d601f19601f820116820180604052508101906108d4919061164f565b90506000815167ffffffffffffffff8111156108f3576108f2611003565b5b60405190808252806020026020018201604052801561092657816020015b60608152602001906001900390816109115790505b5090506000805b8351811015610a585760008573ffffffffffffffffffffffffffffffffffffffff166354d9ea1586848151811061096757610966611698565b5b60200260200101516040518263ffffffff1660e01b815260040161098b9190611711565b600060405180830381865afa1580156109a8573d6000803e3d6000fd5b505050506040513d6000823e3d601f19601f820116820180604052508101906109d1919061191b565b905088886040516109e3929190611a97565b604051809103902081604001518051906020012003610a4457848281518110610a0f57610a0e611698565b5b6020026020010151848481518110610a2a57610a29611698565b5b60200260200101819052508280610a40906119c7565b9350505b508080610a50906119c7565b91505061092d565b5060008167ffffffffffffffff811115610a7557610a74611003565b5b604051908082528060200260200182016040528015610aa857816020015b6060815260200190600190039081610a935790505b50905060005b82811015610b0257838181518110610ac957610ac8611698565b5b6020026020010151828281518110610ae457610ae3611698565b5b60200260200101819052508080610afa906119c7565b915050610aae565b50809550505050505092915050565b7f000000000000000000000000000000000000000000000000000000000000000081565b6000604051905090565b600080fd5b600080fd5b600073ffffffffffffffffffffffffffffffffffffffff82169050919050565b6000610b7482610b49565b9050919050565b610b8481610b69565b8114610b8f57600080fd5b50565b600081359050610ba181610b7b565b92915050565b600060208284031215610bbd57610bbc610b3f565b5b6000610bcb84828501610b92565b91505092915050565b6000819050919050565b610be781610bd4565b82525050565b600060c082019050610c026000830189610bde565b610c0f6020830188610bde565b610c1c6040830187610bde565b610c296060830186610bde565b610c366080830185610bde565b610c4360a0830184610bde565b979650505050505050565b6000602082019050610c636000830184610bde565b92915050565b600080fd5b600080fd5b600080fd5b60008083601f840112610c8e57610c8d610c69565b5b8235905067ffffffffffffffff811115610cab57610caa610c6e565b5b602083019150836001820283011115610cc757610cc6610c73565b5b9250929050565b60008060208385031215610ce557610ce4610b3f565b5b600083013567ffffffffffffffff811115610d0357610d02610b44565b5b610d0f85828601610c78565b92509250509250929050565b600081519050919050565b600082825260208201905092915050565b6000819050602082019050919050565b610d5081610b69565b82525050565b6000610d628383610d47565b60208301905092915050565b6000602082019050919050565b6000610d8682610d1b565b610d908185610d26565b9350610d9b83610d37565b8060005b83811015610dcc578151610db38882610d56565b9750610dbe83610d6e565b925050600181019050610d9f565b5085935050505092915050565b60006020820190508181036000830152610df38184610d7b565b905092915050565b600081519050919050565b600082825260208201905092915050565b6000819050602082019050919050565b600081519050919050565b600082825260208201905092915050565b60005b83811015610e61578082015181840152602081019050610e46565b60008484015250505050565b6000601f19601f8301169050919050565b6000610e8982610e27565b610e938185610e32565b9350610ea3818560208601610e43565b610eac81610e6d565b840191505092915050565b6000610ec38383610e7e565b905092915050565b6000602082019050919050565b6000610ee382610dfb565b610eed8185610e06565b935083602082028501610eff85610e17565b8060005b85811015610f3b5784840389528151610f1c8582610eb7565b9450610f2783610ecb565b925060208a01995050600181019050610f03565b50829750879550505050505092915050565b60006020820190508181036000830152610f678184610ed8565b905092915050565b610f7881610b69565b82525050565b6000602082019050610f936000830184610f6f565b92915050565b60008115159050919050565b610fae81610f99565b8114610fb957600080fd5b50565b600081519050610fcb81610fa5565b92915050565b600060208284031215610fe757610fe6610b3f565b5b6000610ff584828501610fbc565b91505092915050565b600080fd5b7f4e487b7100000000000000000000000000000000000000000000000000000000600052604160045260246000fd5b61103b82610e6d565b810181811067ffffffffffffffff8211171561105a57611059611003565b5b80604052505050565b600061106d610b35565b90506110798282611032565b919050565b600080fd5b600080fd5b600067ffffffffffffffff8211156110a3576110a2611003565b5b6110ac82610e6d565b9050602081019050919050565b60006110cc6110c784611088565b611063565b9050828152602081018484840111156110e8576110e7611083565b5b6110f3848285610e43565b509392505050565b600082601f8301126111105761110f610c69565b5b81516111208482602086016110b9565b91505092915050565b600067ffffffffffffffff82111561114457611143611003565b5b602082029050602081019050919050565b600061116861116384611129565b611063565b9050808382526020820190506020840283018581111561118b5761118a610c73565b5b835b818110156111d257805167ffffffffffffffff8111156111b0576111af610c69565b5b8086016111bd89826110fb565b8552602085019450505060208101905061118d565b5050509392505050565b600082601f8301126111f1576111f0610c69565b5b8151611201848260208601611155565b91505092915050565b600067ffffffffffffffff82111561122557611224611003565b5b602082029050602081019050919050565b61123f81610bd4565b811461124a57600080fd5b50565b60008151905061125c81611236565b92915050565b60006040828403121561127857611277610ffe565b5b6112826040611063565b9050600082015167ffffffffffffffff8111156112a2576112a161107e565b5b6112ae848285016110fb565b60008301525060206112c28482850161124d565b60208301525092915050565b60006112e16112dc8461120a565b611063565b9050808382526020820190506020840283018581111561130457611303610c73565b5b835b8181101561134b57805167ffffffffffffffff81111561132957611328610c69565b5b8086016113368982611262565b85526020850194505050602081019050611306565b5050509392505050565b600082601f83011261136a57611369610c69565b5b815161137a8482602086016112ce565b91505092915050565b600067ffffffffffffffff82111561139e5761139d611003565b5b602082029050602081019050919050565b60006113c26113bd84611383565b611063565b905080838252602082019050602084028301858111156113e5576113e4610c73565b5b835b8181101561140e57806113fa888261124d565b8452602084019350506020810190506113e7565b5050509392505050565b600082601f83011261142d5761142c610c69565b5b815161143d8482602086016113af565b91505092915050565b6000610120828403121561145d5761145c610ffe565b5b611468610120611063565b9050600082015167ffffffffffffffff8111156114885761148761107e565b5b611494848285016110fb565b600083015250602082015167ffffffffffffffff8111156114b8576114b761107e565b5b6114c4848285016111dc565b602083015250604082015167ffffffffffffffff8111156114e8576114e761107e565b5b6114f4848285016111dc565b604083015250606082015167ffffffffffffffff8111156115185761151761107e565b5b611524848285016111dc565b606083015250608082015167ffffffffffffffff8111156115485761154761107e565b5b61155484828501611355565b60808301525060a082015167ffffffffffffffff8111156115785761157761107e565b5b611584848285016110fb565b60a08301525060c082015167ffffffffffffffff8111156115a8576115a761107e565b5b6115b484828501611418565b60c08301525060e06115c884828501610fbc565b60e08301525061010082015167ffffffffffffffff8111156115ed576115ec61107e565b5b6115f9848285016111dc565b6101008301525092915050565b60006020828403121561161c5761161b610b3f565b5b600082015167ffffffffffffffff81111561163a57611639610b44565b5b61164684828501611446565b91505092915050565b60006020828403121561166557611664610b3f565b5b600082015167ffffffffffffffff81111561168357611682610b44565b5b61168f848285016111dc565b91505092915050565b7f4e487b7100000000000000000000000000000000000000000000000000000000600052603260045260246000fd5b600082825260208201905092915050565b60006116e382610e27565b6116ed81856116c7565b93506116fd818560208601610e43565b61170681610e6d565b840191505092915050565b6000602082019050818103600083015261172b81846116d8565b905092915050565b60008151905061174281610b7b565b92915050565b600067ffffffffffffffff82111561176357611762611003565b5b602082029050602081019050919050565b600061178761178284611748565b611063565b905080838252602082019050602084028301858111156117aa576117a9610c73565b5b835b818110156117d357806117bf8882611733565b8452602084019350506020810190506117ac565b5050509392505050565b600082601f8301126117f2576117f1610c69565b5b8151611802848260208601611774565b91505092915050565b600060c0828403121561182157611820610ffe565b5b61182b60c0611063565b9050600082015167ffffffffffffffff81111561184b5761184a61107e565b5b611857848285016110fb565b600083015250602082015167ffffffffffffffff81111561187b5761187a61107e565b5b611887848285016110fb565b602083015250604082015167ffffffffffffffff8111156118ab576118aa61107e565b5b6118b7848285016110fb565b60408301525060606118cb84828501611733565b60608301525060806118df8482850161124d565b60808301525060a082015167ffffffffffffffff8111156119035761190261107e565b5b61190f848285016117dd565b60a08301525092915050565b60006020828403121561193157611930610b3f565b5b600082015167ffffffffffffffff81111561194f5761194e610b44565b5b61195b8482850161180b565b91505092915050565b7f4e487b7100000000000000000000000000000000000000000000000000000000600052601160045260246000fd5b600061199e82610bd4565b91506119a983610bd4565b92508282019050808211156119c1576119c0611964565b5b92915050565b60006119d282610bd4565b91507fffffffffffffffffffffffffffffffffffffffffffffffffffffffffffffffff8203611a0457611a03611964565b5b600182019050919050565b600060208284031215611a2557611a24610b3f565b5b600082015167ffffffffffffffff811115611a4357611a42610b44565b5b611a4f848285016117dd565b91505092915050565b600081905092915050565b82818337600083830152505050565b6000611a7e8385611a58565b9350611a8b838584611a63565b82840190509392505050565b6000611aa4828486611a72565b9150819050939250505056fea2646970667358221220585f38eee7fb6b7c233dd828118b1ecc138ee96034af832df56bdb543884bf6c64736f6c63430008140033a2646970667358221220bd739ba641c4cb9a74f0a1abd85bc3ae1ee98f27109f08840b863255f0778a3964736f6c63430008140033","opcodes":"PUSH1 0x80 PUSH1 0x40 MSTORE CALLVALUE DUP1 ISZERO PUSH2 0x10 JUMPI PUSH1 0x0 DUP1 REVERT JUMPDEST POP PUSH2 0xACE4 DUP1 PUSH2 0x20 PUSH1 0x0 CODECOPY PUSH1 0x0 RETURN INVALID PUSH1 0x80 PUSH1 0x40 MSTORE CALLVALUE DUP1 ISZERO PUSH3 0x11 JUMPI PUSH1 0x0 DUP1 REVERT JUMPDEST POP PUSH1 0x4 CALLDATASIZE LT PUSH3 0x2E JUMPI PUSH1 0x0 CALLDATALOAD PUSH1 0xE0 SHR DUP1 PUSH4 0x7CC48AC7 EQ PUSH3 0x33 JUMPI JUMPDEST PUSH1 0x0 DUP1 REVERT JUMPDEST PUSH3 0x51 PUSH1 0x4 DUP1 CALLDATASIZE SUB DUP2 ADD SWAP1 PUSH3 0x4B SWAP2 SWAP1 PUSH3 0x2EF JUMP JUMPDEST PUSH3 0x6A JUMP JUMPDEST PUSH1 0x40 MLOAD PUSH3 0x61 SWAP3 SWAP2 SWAP1 PUSH3 0x3B9 JUMP JUMPDEST PUSH1 0x40 MLOAD DUP1 SWAP2 SUB SWAP1 RETURN JUMPDEST PUSH1 0x0 DUP1 DUP4 DUP4 PUSH1 0x40 MLOAD PUSH3 0x7D SWAP1 PUSH3 0x15D JUMP JUMPDEST PUSH3 0x8A SWAP3 SWAP2 SWAP1 PUSH3 0x46F JUMP JUMPDEST PUSH1 0x40 MLOAD DUP1 SWAP2 SUB SWAP1 PUSH1 0x0 CREATE DUP1 ISZERO DUP1 ISZERO PUSH3 0xA7 JUMPI RETURNDATASIZE PUSH1 0x0 DUP1 RETURNDATACOPY RETURNDATASIZE PUSH1 0x0 REVERT JUMPDEST POP SWAP2 POP DUP2 PUSH1 0x40 MLOAD PUSH3 0xB9 SWAP1 PUSH3 0x16B JUMP JUMPDEST PUSH3 0xC5 SWAP2 SWAP1 PUSH3 0x4AA JUMP JUMPDEST PUSH1 0x40 MLOAD DUP1 SWAP2 SUB SWAP1 PUSH1 0x0 CREATE DUP1 ISZERO DUP1 ISZERO PUSH3 0xE2 JUMPI RETURNDATASIZE PUSH1 0x0 DUP1 RETURNDATACOPY RETURNDATASIZE PUSH1 0x0 REVERT JUMPDEST POP SWAP1 POP CALLER PUSH20 0xFFFFFFFFFFFFFFFFFFFFFFFFFFFFFFFFFFFFFFFF AND DUP2 PUSH20 0xFFFFFFFFFFFFFFFFFFFFFFFFFFFFFFFFFFFFFFFF AND DUP4 PUSH20 0xFFFFFFFFFFFFFFFFFFFFFFFFFFFFFFFFFFFFFFFF AND PUSH32 0x64FF5F080A9FBAC5FD2B92EE5D223AB47ABF2BC09CAAD8EEFB67CDF7F7A1796C PUSH1 0x40 MLOAD PUSH1 0x40 MLOAD DUP1 SWAP2 SUB SWAP1 LOG4 SWAP3 POP SWAP3 SWAP1 POP JUMP JUMPDEST PUSH2 0x8BBB DUP1 PUSH3 0x4C8 DUP4 CODECOPY ADD SWAP1 JUMP JUMPDEST PUSH2 0x1C2C DUP1 PUSH3 0x9083 DUP4 CODECOPY ADD SWAP1 JUMP JUMPDEST PUSH1 0x0 PUSH1 0x40 MLOAD SWAP1 POP SWAP1 JUMP JUMPDEST PUSH1 0x0 DUP1 REVERT JUMPDEST PUSH1 0x0 DUP1 REVERT JUMPDEST PUSH1 0x0 DUP1 REVERT JUMPDEST PUSH1 0x0 DUP1 REVERT JUMPDEST PUSH1 0x0 PUSH1 0x1F NOT PUSH1 0x1F DUP4 ADD AND SWAP1 POP SWAP2 SWAP1 POP JUMP JUMPDEST PUSH32 0x4E487B7100000000000000000000000000000000000000000000000000000000 PUSH1 0x0 MSTORE PUSH1 0x41 PUSH1 0x4 MSTORE PUSH1 0x24 PUSH1 0x0 REVERT JUMPDEST PUSH3 0x1E2 DUP3 PUSH3 0x197 JUMP JUMPDEST DUP2 ADD DUP2 DUP2 LT PUSH8 0xFFFFFFFFFFFFFFFF DUP3 GT OR ISZERO PUSH3 0x204 JUMPI PUSH3 0x203 PUSH3 0x1A8 JUMP JUMPDEST JUMPDEST DUP1 PUSH1 0x40 MSTORE POP POP POP JUMP JUMPDEST PUSH1 0x0 PUSH3 0x219 PUSH3 0x179 JUMP JUMPDEST SWAP1 POP PUSH3 0x227 DUP3 DUP3 PUSH3 0x1D7 JUMP JUMPDEST SWAP2 SWAP1 POP JUMP JUMPDEST PUSH1 0x0 PUSH8 0xFFFFFFFFFFFFFFFF DUP3 GT ISZERO PUSH3 0x24A JUMPI PUSH3 0x249 PUSH3 0x1A8 JUMP JUMPDEST JUMPDEST PUSH3 0x255 DUP3 PUSH3 0x197 JUMP JUMPDEST SWAP1 POP PUSH1 0x20 DUP2 ADD SWAP1 POP SWAP2 SWAP1 POP JUMP JUMPDEST DUP3 DUP2 DUP4 CALLDATACOPY PUSH1 0x0 DUP4 DUP4 ADD MSTORE POP POP POP JUMP JUMPDEST PUSH1 0x0 PUSH3 0x288 PUSH3 0x282 DUP5 PUSH3 0x22C JUMP JUMPDEST PUSH3 0x20D JUMP JUMPDEST SWAP1 POP DUP3 DUP2 MSTORE PUSH1 0x20 DUP2 ADD DUP5 DUP5 DUP5 ADD GT ISZERO PUSH3 0x2A7 JUMPI PUSH3 0x2A6 PUSH3 0x192 JUMP JUMPDEST JUMPDEST PUSH3 0x2B4 DUP5 DUP3 DUP6 PUSH3 0x262 JUMP JUMPDEST POP SWAP4 SWAP3 POP POP POP JUMP JUMPDEST PUSH1 0x0 DUP3 PUSH1 0x1F DUP4 ADD SLT PUSH3 0x2D4 JUMPI PUSH3 0x2D3 PUSH3 0x18D JUMP JUMPDEST JUMPDEST DUP2 CALLDATALOAD PUSH3 0x2E6 DUP5 DUP3 PUSH1 0x20 DUP7 ADD PUSH3 0x271 JUMP JUMPDEST SWAP2 POP POP SWAP3 SWAP2 POP POP JUMP JUMPDEST PUSH1 0x0 DUP1 PUSH1 0x40 DUP4 DUP6 SUB SLT ISZERO PUSH3 0x309 JUMPI PUSH3 0x308 PUSH3 0x183 JUMP JUMPDEST JUMPDEST PUSH1 0x0 DUP4 ADD CALLDATALOAD PUSH8 0xFFFFFFFFFFFFFFFF DUP2 GT ISZERO PUSH3 0x32A JUMPI PUSH3 0x329 PUSH3 0x188 JUMP JUMPDEST JUMPDEST PUSH3 0x338 DUP6 DUP3 DUP7 ADD PUSH3 0x2BC JUMP JUMPDEST SWAP3 POP POP PUSH1 0x20 DUP4 ADD CALLDATALOAD PUSH8 0xFFFFFFFFFFFFFFFF DUP2 GT ISZERO PUSH3 0x35C JUMPI PUSH3 0x35B PUSH3 0x188 JUMP JUMPDEST JUMPDEST PUSH3 0x36A DUP6 DUP3 DUP7 ADD PUSH3 0x2BC JUMP JUMPDEST SWAP2 POP POP SWAP3 POP SWAP3 SWAP1 POP JUMP JUMPDEST PUSH1 0x0 PUSH20 0xFFFFFFFFFFFFFFFFFFFFFFFFFFFFFFFFFFFFFFFF DUP3 AND SWAP1 POP SWAP2 SWAP1 POP JUMP JUMPDEST PUSH1 0x0 PUSH3 0x3A1 DUP3 PUSH3 0x374 JUMP JUMPDEST SWAP1 POP SWAP2 SWAP1 POP JUMP JUMPDEST PUSH3 0x3B3 DUP2 PUSH3 0x394 JUMP JUMPDEST DUP3 MSTORE POP POP JUMP JUMPDEST PUSH1 0x0 PUSH1 0x40 DUP3 ADD SWAP1 POP PUSH3 0x3D0 PUSH1 0x0 DUP4 ADD DUP6 PUSH3 0x3A8 JUMP JUMPDEST PUSH3 0x3DF PUSH1 0x20 DUP4 ADD DUP5 PUSH3 0x3A8 JUMP JUMPDEST SWAP4 SWAP3 POP POP POP JUMP JUMPDEST PUSH1 0x0 DUP2 MLOAD SWAP1 POP SWAP2 SWAP1 POP JUMP JUMPDEST PUSH1 0x0 DUP3 DUP3 MSTORE PUSH1 0x20 DUP3 ADD SWAP1 POP SWAP3 SWAP2 POP POP JUMP JUMPDEST PUSH1 0x0 JUMPDEST DUP4 DUP2 LT ISZERO PUSH3 0x422 JUMPI DUP1 DUP3 ADD MLOAD DUP2 DUP5 ADD MSTORE PUSH1 0x20 DUP2 ADD SWAP1 POP PUSH3 0x405 JUMP JUMPDEST PUSH1 0x0 DUP5 DUP5 ADD MSTORE POP POP POP POP JUMP JUMPDEST PUSH1 0x0 PUSH3 0x43B DUP3 PUSH3 0x3E6 JUMP JUMPDEST PUSH3 0x447 DUP2 DUP6 PUSH3 0x3F1 JUMP JUMPDEST SWAP4 POP PUSH3 0x459 DUP2 DUP6 PUSH1 0x20 DUP7 ADD PUSH3 0x402 JUMP JUMPDEST PUSH3 0x464 DUP2 PUSH3 0x197 JUMP JUMPDEST DUP5 ADD SWAP2 POP POP SWAP3 SWAP2 POP POP JUMP JUMPDEST PUSH1 0x0 PUSH1 0x40 DUP3 ADD SWAP1 POP DUP2 DUP2 SUB PUSH1 0x0 DUP4 ADD MSTORE PUSH3 0x48B DUP2 DUP6 PUSH3 0x42E JUMP JUMPDEST SWAP1 POP DUP2 DUP2 SUB PUSH1 0x20 DUP4 ADD MSTORE PUSH3 0x4A1 DUP2 DUP5 PUSH3 0x42E JUMP JUMPDEST SWAP1 POP SWAP4 SWAP3 POP POP POP JUMP JUMPDEST PUSH1 0x0 PUSH1 0x20 DUP3 ADD SWAP1 POP PUSH3 0x4C1 PUSH1 0x0 DUP4 ADD DUP5 PUSH3 0x3A8 JUMP JUMPDEST SWAP3 SWAP2 POP POP JUMP INVALID PUSH1 0x80 PUSH1 0x40 MSTORE CALLVALUE DUP1 ISZERO PUSH3 0x11 JUMPI PUSH1 0x0 DUP1 REVERT JUMPDEST POP PUSH1 0x40 MLOAD PUSH3 0x8BBB CODESIZE SUB DUP1 PUSH3 0x8BBB DUP4 CODECOPY DUP2 DUP2 ADD PUSH1 0x40 MSTORE DUP2 ADD SWAP1 PUSH3 0x37 SWAP2 SWAP1 PUSH3 0x2F8 JUMP JUMPDEST DUP2 DUP2 DUP2 PUSH1 0x0 SWAP1 DUP2 PUSH3 0x4A SWAP2 SWAP1 PUSH3 0x5C8 JUMP JUMPDEST POP DUP1 PUSH1 0x1 SWAP1 DUP2 PUSH3 0x5C SWAP2 SWAP1 PUSH3 0x5C8 JUMP JUMPDEST POP POP POP PUSH3 0x7F PUSH3 0x73 PUSH3 0x97 PUSH1 0x20 SHL PUSH1 0x20 SHR JUMP JUMPDEST PUSH3 0x9F PUSH1 0x20 SHL PUSH1 0x20 SHR JUMP JUMPDEST PUSH1 0x1 PUSH1 0x7 DUP2 SWAP1 SSTORE POP PUSH1 0x1 PUSH1 0x8 DUP2 SWAP1 SSTORE POP POP POP PUSH3 0x6AF JUMP JUMPDEST PUSH1 0x0 CALLER SWAP1 POP SWAP1 JUMP JUMPDEST PUSH1 0x0 PUSH1 0x6 PUSH1 0x0 SWAP1 SLOAD SWAP1 PUSH2 0x100 EXP SWAP1 DIV PUSH20 0xFFFFFFFFFFFFFFFFFFFFFFFFFFFFFFFFFFFFFFFF AND SWAP1 POP DUP2 PUSH1 0x6 PUSH1 0x0 PUSH2 0x100 EXP DUP2 SLOAD DUP2 PUSH20 0xFFFFFFFFFFFFFFFFFFFFFFFFFFFFFFFFFFFFFFFF MUL NOT AND SWAP1 DUP4 PUSH20 0xFFFFFFFFFFFFFFFFFFFFFFFFFFFFFFFFFFFFFFFF AND MUL OR SWAP1 SSTORE POP DUP2 PUSH20 0xFFFFFFFFFFFFFFFFFFFFFFFFFFFFFFFFFFFFFFFF AND DUP2 PUSH20 0xFFFFFFFFFFFFFFFFFFFFFFFFFFFFFFFFFFFFFFFF AND PUSH32 0x8BE0079C531659141344CD1FD0A4F28419497F9722A3DAAFE3B4186F6B6457E0 PUSH1 0x40 MLOAD PUSH1 0x40 MLOAD DUP1 SWAP2 SUB SWAP1 LOG3 POP POP JUMP JUMPDEST PUSH1 0x0 PUSH1 0x40 MLOAD SWAP1 POP SWAP1 JUMP JUMPDEST PUSH1 0x0 DUP1 REVERT JUMPDEST PUSH1 0x0 DUP1 REVERT JUMPDEST PUSH1 0x0 DUP1 REVERT JUMPDEST PUSH1 0x0 DUP1 REVERT JUMPDEST PUSH1 0x0 PUSH1 0x1F NOT PUSH1 0x1F DUP4 ADD AND SWAP1 POP SWAP2 SWAP1 POP JUMP JUMPDEST PUSH32 0x4E487B7100000000000000000000000000000000000000000000000000000000 PUSH1 0x0 MSTORE PUSH1 0x41 PUSH1 0x4 MSTORE PUSH1 0x24 PUSH1 0x0 REVERT JUMPDEST PUSH3 0x1CE DUP3 PUSH3 0x183 JUMP JUMPDEST DUP2 ADD DUP2 DUP2 LT PUSH8 0xFFFFFFFFFFFFFFFF DUP3 GT OR ISZERO PUSH3 0x1F0 JUMPI PUSH3 0x1EF PUSH3 0x194 JUMP JUMPDEST JUMPDEST DUP1 PUSH1 0x40 MSTORE POP POP POP JUMP JUMPDEST PUSH1 0x0 PUSH3 0x205 PUSH3 0x165 JUMP JUMPDEST SWAP1 POP PUSH3 0x213 DUP3 DUP3 PUSH3 0x1C3 JUMP JUMPDEST SWAP2 SWAP1 POP JUMP JUMPDEST PUSH1 0x0 PUSH8 0xFFFFFFFFFFFFFFFF DUP3 GT ISZERO PUSH3 0x236 JUMPI PUSH3 0x235 PUSH3 0x194 JUMP JUMPDEST JUMPDEST PUSH3 0x241 DUP3 PUSH3 0x183 JUMP JUMPDEST SWAP1 POP PUSH1 0x20 DUP2 ADD SWAP1 POP SWAP2 SWAP1 POP JUMP JUMPDEST PUSH1 0x0 JUMPDEST DUP4 DUP2 LT ISZERO PUSH3 0x26E JUMPI DUP1 DUP3 ADD MLOAD DUP2 DUP5 ADD MSTORE PUSH1 0x20 DUP2 ADD SWAP1 POP PUSH3 0x251 JUMP JUMPDEST PUSH1 0x0 DUP5 DUP5 ADD MSTORE POP POP POP POP JUMP JUMPDEST PUSH1 0x0 PUSH3 0x291 PUSH3 0x28B DUP5 PUSH3 0x218 JUMP JUMPDEST PUSH3 0x1F9 JUMP JUMPDEST SWAP1 POP DUP3 DUP2 MSTORE PUSH1 0x20 DUP2 ADD DUP5 DUP5 DUP5 ADD GT ISZERO PUSH3 0x2B0 JUMPI PUSH3 0x2AF PUSH3 0x17E JUMP JUMPDEST JUMPDEST PUSH3 0x2BD DUP5 DUP3 DUP6 PUSH3 0x24E JUMP JUMPDEST POP SWAP4 SWAP3 POP POP POP JUMP JUMPDEST PUSH1 0x0 DUP3 PUSH1 0x1F DUP4 ADD SLT PUSH3 0x2DD JUMPI PUSH3 0x2DC PUSH3 0x179 JUMP JUMPDEST JUMPDEST DUP2 MLOAD PUSH3 0x2EF DUP5 DUP3 PUSH1 0x20 DUP7 ADD PUSH3 0x27A JUMP JUMPDEST SWAP2 POP POP SWAP3 SWAP2 POP POP JUMP JUMPDEST PUSH1 0x0 DUP1 PUSH1 0x40 DUP4 DUP6 SUB SLT ISZERO PUSH3 0x312 JUMPI PUSH3 0x311 PUSH3 0x16F JUMP JUMPDEST JUMPDEST PUSH1 0x0 DUP4 ADD MLOAD PUSH8 0xFFFFFFFFFFFFFFFF DUP2 GT ISZERO PUSH3 0x333 JUMPI PUSH3 0x332 PUSH3 0x174 JUMP JUMPDEST JUMPDEST PUSH3 0x341 DUP6 DUP3 DUP7 ADD PUSH3 0x2C5 JUMP JUMPDEST SWAP3 POP POP PUSH1 0x20 DUP4 ADD MLOAD PUSH8 0xFFFFFFFFFFFFFFFF DUP2 GT ISZERO PUSH3 0x365 JUMPI PUSH3 0x364 PUSH3 0x174 JUMP JUMPDEST JUMPDEST PUSH3 0x373 DUP6 DUP3 DUP7 ADD PUSH3 0x2C5 JUMP JUMPDEST SWAP2 POP POP SWAP3 POP SWAP3 SWAP1 POP JUMP JUMPDEST PUSH1 0x0 DUP2 MLOAD SWAP1 POP SWAP2 SWAP1 POP JUMP JUMPDEST PUSH32 0x4E487B7100000000000000000000000000000000000000000000000000000000 PUSH1 0x0 MSTORE PUSH1 0x22 PUSH1 0x4 MSTORE PUSH1 0x24 PUSH1 0x0 REVERT JUMPDEST PUSH1 0x0 PUSH1 0x2 DUP3 DIV SWAP1 POP PUSH1 0x1 DUP3 AND DUP1 PUSH3 0x3D0 JUMPI PUSH1 0x7F DUP3 AND SWAP2 POP JUMPDEST PUSH1 0x20 DUP3 LT DUP2 SUB PUSH3 0x3E6 JUMPI PUSH3 0x3E5 PUSH3 0x388 JUMP JUMPDEST JUMPDEST POP SWAP2 SWAP1 POP JUMP JUMPDEST PUSH1 0x0 DUP2 SWAP1 POP DUP2 PUSH1 0x0 MSTORE PUSH1 0x20 PUSH1 0x0 KECCAK256 SWAP1 POP SWAP2 SWAP1 POP JUMP JUMPDEST PUSH1 0x0 PUSH1 0x20 PUSH1 0x1F DUP4 ADD DIV SWAP1 POP SWAP2 SWAP1 POP JUMP JUMPDEST PUSH1 0x0 DUP3 DUP3 SHL SWAP1 POP SWAP3 SWAP2 POP POP JUMP JUMPDEST PUSH1 0x0 PUSH1 0x8 DUP4 MUL PUSH3 0x450 PUSH32 0xFFFFFFFFFFFFFFFFFFFFFFFFFFFFFFFFFFFFFFFFFFFFFFFFFFFFFFFFFFFFFFFF DUP3 PUSH3 0x411 JUMP JUMPDEST PUSH3 0x45C DUP7 DUP4 PUSH3 0x411 JUMP JUMPDEST SWAP6 POP DUP1 NOT DUP5 AND SWAP4 POP DUP1 DUP7 AND DUP5 OR SWAP3 POP POP POP SWAP4 SWAP3 POP POP POP JUMP JUMPDEST PUSH1 0x0 DUP2 SWAP1 POP SWAP2 SWAP1 POP JUMP JUMPDEST PUSH1 0x0 DUP2 SWAP1 POP SWAP2 SWAP1 POP JUMP JUMPDEST PUSH1 0x0 PUSH3 0x4A9 PUSH3 0x4A3 PUSH3 0x49D DUP5 PUSH3 0x474 JUMP JUMPDEST PUSH3 0x47E JUMP JUMPDEST PUSH3 0x474 JUMP JUMPDEST SWAP1 POP SWAP2 SWAP1 POP JUMP JUMPDEST PUSH1 0x0 DUP2 SWAP1 POP SWAP2 SWAP1 POP JUMP JUMPDEST PUSH3 0x4C5 DUP4 PUSH3 0x488 JUMP JUMPDEST PUSH3 0x4DD PUSH3 0x4D4 DUP3 PUSH3 0x4B0 JUMP JUMPDEST DUP5 DUP5 SLOAD PUSH3 0x41E JUMP JUMPDEST DUP3 SSTORE POP POP POP POP JUMP JUMPDEST PUSH1 0x0 SWAP1 JUMP JUMPDEST PUSH3 0x4F4 PUSH3 0x4E5 JUMP JUMPDEST PUSH3 0x501 DUP2 DUP5 DUP5 PUSH3 0x4BA JUMP JUMPDEST POP POP POP JUMP JUMPDEST JUMPDEST DUP2 DUP2 LT ISZERO PUSH3 0x529 JUMPI PUSH3 0x51D PUSH1 0x0 DUP3 PUSH3 0x4EA JUMP JUMPDEST PUSH1 0x1 DUP2 ADD SWAP1 POP PUSH3 0x507 JUMP JUMPDEST POP POP JUMP JUMPDEST PUSH1 0x1F DUP3 GT ISZERO PUSH3 0x578 JUMPI PUSH3 0x542 DUP2 PUSH3 0x3EC JUMP JUMPDEST PUSH3 0x54D DUP5 PUSH3 0x401 JUMP JUMPDEST DUP2 ADD PUSH1 0x20 DUP6 LT ISZERO PUSH3 0x55D JUMPI DUP2 SWAP1 POP JUMPDEST PUSH3 0x575 PUSH3 0x56C DUP6 PUSH3 0x401 JUMP JUMPDEST DUP4 ADD DUP3 PUSH3 0x506 JUMP JUMPDEST POP POP JUMPDEST POP POP POP JUMP JUMPDEST PUSH1 0x0 DUP3 DUP3 SHR SWAP1 POP SWAP3 SWAP2 POP POP JUMP JUMPDEST PUSH1 0x0 PUSH3 0x59D PUSH1 0x0 NOT DUP5 PUSH1 0x8 MUL PUSH3 0x57D JUMP JUMPDEST NOT DUP1 DUP4 AND SWAP2 POP POP SWAP3 SWAP2 POP POP JUMP JUMPDEST PUSH1 0x0 PUSH3 0x5B8 DUP4 DUP4 PUSH3 0x58A JUMP JUMPDEST SWAP2 POP DUP3 PUSH1 0x2 MUL DUP3 OR SWAP1 POP SWAP3 SWAP2 POP POP JUMP JUMPDEST PUSH3 0x5D3 DUP3 PUSH3 0x37D JUMP JUMPDEST PUSH8 0xFFFFFFFFFFFFFFFF DUP2 GT ISZERO PUSH3 0x5EF JUMPI PUSH3 0x5EE PUSH3 0x194 JUMP JUMPDEST JUMPDEST PUSH3 0x5FB DUP3 SLOAD PUSH3 0x3B7 JUMP JUMPDEST PUSH3 0x608 DUP3 DUP3 DUP6 PUSH3 0x52D JUMP JUMPDEST PUSH1 0x0 PUSH1 0x20 SWAP1 POP PUSH1 0x1F DUP4 GT PUSH1 0x1 DUP2 EQ PUSH3 0x640 JUMPI PUSH1 0x0 DUP5 ISZERO PUSH3 0x62B JUMPI DUP3 DUP8 ADD MLOAD SWAP1 POP JUMPDEST PUSH3 0x637 DUP6 DUP3 PUSH3 0x5AA JUMP JUMPDEST DUP7 SSTORE POP PUSH3 0x6A7 JUMP JUMPDEST PUSH1 0x1F NOT DUP5 AND PUSH3 0x650 DUP7 PUSH3 0x3EC JUMP JUMPDEST PUSH1 0x0 JUMPDEST DUP3 DUP2 LT ISZERO PUSH3 0x67A JUMPI DUP5 DUP10 ADD MLOAD DUP3 SSTORE PUSH1 0x1 DUP3 ADD SWAP2 POP PUSH1 0x20 DUP6 ADD SWAP5 POP PUSH1 0x20 DUP2 ADD SWAP1 POP PUSH3 0x653 JUMP JUMPDEST DUP7 DUP4 LT ISZERO PUSH3 0x69A JUMPI DUP5 DUP10 ADD MLOAD PUSH3 0x696 PUSH1 0x1F DUP10 AND DUP3 PUSH3 0x58A JUMP JUMPDEST DUP4 SSTORE POP JUMPDEST PUSH1 0x1 PUSH1 0x2 DUP9 MUL ADD DUP9 SSTORE POP POP POP JUMPDEST POP POP POP POP POP POP JUMP JUMPDEST PUSH2 0x84FC DUP1 PUSH3 0x6BF PUSH1 0x0 CODECOPY PUSH1 0x0 RETURN INVALID PUSH1 0x80 PUSH1 0x40 MSTORE PUSH1 0x4 CALLDATASIZE LT PUSH2 0x27D JUMPI PUSH1 0x0 CALLDATALOAD PUSH1 0xE0 SHR DUP1 PUSH4 0x75AD6404 GT PUSH2 0x14F JUMPI DUP1 PUSH4 0xB841E45A GT PUSH2 0xC1 JUMPI DUP1 PUSH4 0xC87B56DD GT PUSH2 0x7A JUMPI DUP1 PUSH4 0xC87B56DD EQ PUSH2 0x995 JUMPI DUP1 PUSH4 0xCC3D967B EQ PUSH2 0x9D2 JUMPI DUP1 PUSH4 0xE2842D79 EQ PUSH2 0xA0F JUMPI DUP1 PUSH4 0xE7D98840 EQ PUSH2 0xA3A JUMPI DUP1 PUSH4 0xE985E9C5 EQ PUSH2 0xA77 JUMPI DUP1 PUSH4 0xF2FDE38B EQ PUSH2 0xAB4 JUMPI PUSH2 0x27D JUMP JUMPDEST DUP1 PUSH4 0xB841E45A EQ PUSH2 0x896 JUMPI DUP1 PUSH4 0xB84F14B7 EQ PUSH2 0x8BF JUMPI DUP1 PUSH4 0xB88D4FDE EQ PUSH2 0x8DB JUMPI DUP1 PUSH4 0xB8B86A30 EQ PUSH2 0x904 JUMPI DUP1 PUSH4 0xBA0FAC15 EQ PUSH2 0x92D JUMPI DUP1 PUSH4 0xC122B3CB EQ PUSH2 0x96A JUMPI PUSH2 0x27D JUMP JUMPDEST DUP1 PUSH4 0x942886BE GT PUSH2 0x113 JUMPI DUP1 PUSH4 0x942886BE EQ PUSH2 0x798 JUMPI DUP1 PUSH4 0x95D89B41 EQ PUSH2 0x7C3 JUMPI DUP1 PUSH4 0x9F9783E4 EQ PUSH2 0x7EE JUMPI DUP1 PUSH4 0xA22CB465 EQ PUSH2 0x817 JUMPI DUP1 PUSH4 0xB028E967 EQ PUSH2 0x840 JUMPI DUP1 PUSH4 0xB5CB15F7 EQ PUSH2 0x86B JUMPI PUSH2 0x27D JUMP JUMPDEST DUP1 PUSH4 0x75AD6404 EQ PUSH2 0x6B1 JUMPI DUP1 PUSH4 0x79181EEA EQ PUSH2 0x6DC JUMPI DUP1 PUSH4 0x8272E1D4 EQ PUSH2 0x719 JUMPI DUP1 PUSH4 0x8DA5CB5B EQ PUSH2 0x744 JUMPI DUP1 PUSH4 0x903D3626 EQ PUSH2 0x76F JUMPI PUSH2 0x27D JUMP JUMPDEST DUP1 PUSH4 0x42842E0E GT PUSH2 0x1F3 JUMPI DUP1 PUSH4 0x6352211E GT PUSH2 0x1AC JUMPI DUP1 PUSH4 0x6352211E EQ PUSH2 0x5A5 JUMPI DUP1 PUSH4 0x6FF1C9BC EQ PUSH2 0x5E2 JUMPI DUP1 PUSH4 0x704F1B94 EQ PUSH2 0x60B JUMPI DUP1 PUSH4 0x709D42BB EQ PUSH2 0x634 JUMPI DUP1 PUSH4 0x70A08231 EQ PUSH2 0x65D JUMPI DUP1 PUSH4 0x715018A6 EQ PUSH2 0x69A JUMPI PUSH2 0x27D JUMP JUMPDEST DUP1 PUSH4 0x42842E0E EQ PUSH2 0x485 JUMPI DUP1 PUSH4 0x43DFC73C EQ PUSH2 0x4AE JUMPI DUP1 PUSH4 0x4E78F923 EQ PUSH2 0x4D7 JUMPI DUP1 PUSH4 0x51D19A4E EQ PUSH2 0x514 JUMPI DUP1 PUSH4 0x54D9EA15 EQ PUSH2 0x53F JUMPI DUP1 PUSH4 0x610693E7 EQ PUSH2 0x57C JUMPI PUSH2 0x27D JUMP JUMPDEST DUP1 PUSH4 0x1DD20A8B GT PUSH2 0x245 JUMPI DUP1 PUSH4 0x1DD20A8B EQ PUSH2 0x38D JUMPI DUP1 PUSH4 0x226E4FD5 EQ PUSH2 0x3B6 JUMPI DUP1 PUSH4 0x23B872DD EQ PUSH2 0x3DF JUMPI DUP1 PUSH4 0x2980D80B EQ PUSH2 0x408 JUMPI DUP1 PUSH4 0x3CCFD60B EQ PUSH2 0x445 JUMPI DUP1 PUSH4 0x3FCCB4A5 EQ PUSH2 0x45C JUMPI PUSH2 0x27D JUMP JUMPDEST DUP1 PUSH4 0x1FFC9A7 EQ PUSH2 0x282 JUMPI DUP1 PUSH4 0x6FDDE03 EQ PUSH2 0x2BF JUMPI DUP1 PUSH4 0x81812FC EQ PUSH2 0x2EA JUMPI DUP1 PUSH4 0x95EA7B3 EQ PUSH2 0x327 JUMPI DUP1 PUSH4 0x163F7522 EQ PUSH2 0x350 JUMPI JUMPDEST PUSH1 0x0 DUP1 REVERT JUMPDEST CALLVALUE DUP1 ISZERO PUSH2 0x28E JUMPI PUSH1 0x0 DUP1 REVERT JUMPDEST POP PUSH2 0x2A9 PUSH1 0x4 DUP1 CALLDATASIZE SUB DUP2 ADD SWAP1 PUSH2 0x2A4 SWAP2 SWAP1 PUSH2 0x5A78 JUMP JUMPDEST PUSH2 0xADD JUMP JUMPDEST PUSH1 0x40 MLOAD PUSH2 0x2B6 SWAP2 SWAP1 PUSH2 0x5AC0 JUMP JUMPDEST PUSH1 0x40 MLOAD DUP1 SWAP2 SUB SWAP1 RETURN JUMPDEST CALLVALUE DUP1 ISZERO PUSH2 0x2CB JUMPI PUSH1 0x0 DUP1 REVERT JUMPDEST POP PUSH2 0x2D4 PUSH2 0xBBF JUMP JUMPDEST PUSH1 0x40 MLOAD PUSH2 0x2E1 SWAP2 SWAP1 PUSH2 0x5B6B JUMP JUMPDEST PUSH1 0x40 MLOAD DUP1 SWAP2 SUB SWAP1 RETURN JUMPDEST CALLVALUE DUP1 ISZERO PUSH2 0x2F6 JUMPI PUSH1 0x0 DUP1 REVERT JUMPDEST POP PUSH2 0x311 PUSH1 0x4 DUP1 CALLDATASIZE SUB DUP2 ADD SWAP1 PUSH2 0x30C SWAP2 SWAP1 PUSH2 0x5BC3 JUMP JUMPDEST PUSH2 0xC51 JUMP JUMPDEST PUSH1 0x40 MLOAD PUSH2 0x31E SWAP2 SWAP1 PUSH2 0x5C31 JUMP JUMPDEST PUSH1 0x40 MLOAD DUP1 SWAP2 SUB SWAP1 RETURN JUMPDEST CALLVALUE DUP1 ISZERO PUSH2 0x333 JUMPI PUSH1 0x0 DUP1 REVERT JUMPDEST POP PUSH2 0x34E PUSH1 0x4 DUP1 CALLDATASIZE SUB DUP2 ADD SWAP1 PUSH2 0x349 SWAP2 SWAP1 PUSH2 0x5C78 JUMP JUMPDEST PUSH2 0xCD6 JUMP JUMPDEST STOP JUMPDEST CALLVALUE DUP1 ISZERO PUSH2 0x35C JUMPI PUSH1 0x0 DUP1 REVERT JUMPDEST POP PUSH2 0x377 PUSH1 0x4 DUP1 CALLDATASIZE SUB DUP2 ADD SWAP1 PUSH2 0x372 SWAP2 SWAP1 PUSH2 0x5CB8 JUMP JUMPDEST PUSH2 0xDED JUMP JUMPDEST PUSH1 0x40 MLOAD PUSH2 0x384 SWAP2 SWAP1 PUSH2 0x5AC0 JUMP JUMPDEST PUSH1 0x40 MLOAD DUP1 SWAP2 SUB SWAP1 RETURN JUMPDEST CALLVALUE DUP1 ISZERO PUSH2 0x399 JUMPI PUSH1 0x0 DUP1 REVERT JUMPDEST POP PUSH2 0x3B4 PUSH1 0x4 DUP1 CALLDATASIZE SUB DUP2 ADD SWAP1 PUSH2 0x3AF SWAP2 SWAP1 PUSH2 0x5D4A JUMP JUMPDEST PUSH2 0xE46 JUMP JUMPDEST STOP JUMPDEST CALLVALUE DUP1 ISZERO PUSH2 0x3C2 JUMPI PUSH1 0x0 DUP1 REVERT JUMPDEST POP PUSH2 0x3DD PUSH1 0x4 DUP1 CALLDATASIZE SUB DUP2 ADD SWAP1 PUSH2 0x3D8 SWAP2 SWAP1 PUSH2 0x5F2E JUMP JUMPDEST PUSH2 0x106B JUMP JUMPDEST STOP JUMPDEST CALLVALUE DUP1 ISZERO PUSH2 0x3EB JUMPI PUSH1 0x0 DUP1 REVERT JUMPDEST POP PUSH2 0x406 PUSH1 0x4 DUP1 CALLDATASIZE SUB DUP2 ADD SWAP1 PUSH2 0x401 SWAP2 SWAP1 PUSH2 0x5F77 JUMP JUMPDEST PUSH2 0x122C JUMP JUMPDEST STOP JUMPDEST CALLVALUE DUP1 ISZERO PUSH2 0x414 JUMPI PUSH1 0x0 DUP1 REVERT JUMPDEST POP PUSH2 0x42F PUSH1 0x4 DUP1 CALLDATASIZE SUB DUP2 ADD SWAP1 PUSH2 0x42A SWAP2 SWAP1 PUSH2 0x5BC3 JUMP JUMPDEST PUSH2 0x128C JUMP JUMPDEST PUSH1 0x40 MLOAD PUSH2 0x43C SWAP2 SWAP1 PUSH2 0x5B6B JUMP JUMPDEST PUSH1 0x40 MLOAD DUP1 SWAP2 SUB SWAP1 RETURN JUMPDEST CALLVALUE DUP1 ISZERO PUSH2 0x451 JUMPI PUSH1 0x0 DUP1 REVERT JUMPDEST POP PUSH2 0x45A PUSH2 0x1331 JUMP JUMPDEST STOP JUMPDEST CALLVALUE DUP1 ISZERO PUSH2 0x468 JUMPI PUSH1 0x0 DUP1 REVERT JUMPDEST POP PUSH2 0x483 PUSH1 0x4 DUP1 CALLDATASIZE SUB DUP2 ADD SWAP1 PUSH2 0x47E SWAP2 SWAP1 PUSH2 0x5FCA JUMP JUMPDEST PUSH2 0x14AC JUMP JUMPDEST STOP JUMPDEST CALLVALUE DUP1 ISZERO PUSH2 0x491 JUMPI PUSH1 0x0 DUP1 REVERT JUMPDEST POP PUSH2 0x4AC PUSH1 0x4 DUP1 CALLDATASIZE SUB DUP2 ADD SWAP1 PUSH2 0x4A7 SWAP2 SWAP1 PUSH2 0x5F77 JUMP JUMPDEST PUSH2 0x15E2 JUMP JUMPDEST STOP JUMPDEST CALLVALUE DUP1 ISZERO PUSH2 0x4BA JUMPI PUSH1 0x0 DUP1 REVERT JUMPDEST POP PUSH2 0x4D5 PUSH1 0x4 DUP1 CALLDATASIZE SUB DUP2 ADD SWAP1 PUSH2 0x4D0 SWAP2 SWAP1 PUSH2 0x5FCA JUMP JUMPDEST PUSH2 0x1602 JUMP JUMPDEST STOP JUMPDEST CALLVALUE DUP1 ISZERO PUSH2 0x4E3 JUMPI PUSH1 0x0 DUP1 REVERT JUMPDEST POP PUSH2 0x4FE PUSH1 0x4 DUP1 CALLDATASIZE SUB DUP2 ADD SWAP1 PUSH2 0x4F9 SWAP2 SWAP1 PUSH2 0x5CB8 JUMP JUMPDEST PUSH2 0x1750 JUMP JUMPDEST PUSH1 0x40 MLOAD PUSH2 0x50B SWAP2 SWAP1 PUSH2 0x616F JUMP JUMPDEST PUSH1 0x40 MLOAD DUP1 SWAP2 SUB SWAP1 RETURN JUMPDEST CALLVALUE DUP1 ISZERO PUSH2 0x520 JUMPI PUSH1 0x0 DUP1 REVERT JUMPDEST POP PUSH2 0x529 PUSH2 0x191C JUMP JUMPDEST PUSH1 0x40 MLOAD PUSH2 0x536 SWAP2 SWAP1 PUSH2 0x61A0 JUMP JUMPDEST PUSH1 0x40 MLOAD DUP1 SWAP2 SUB SWAP1 RETURN JUMPDEST CALLVALUE DUP1 ISZERO PUSH2 0x54B JUMPI PUSH1 0x0 DUP1 REVERT JUMPDEST POP PUSH2 0x566 PUSH1 0x4 DUP1 CALLDATASIZE SUB DUP2 ADD SWAP1 PUSH2 0x561 SWAP2 SWAP1 PUSH2 0x5FCA JUMP JUMPDEST PUSH2 0x1929 JUMP JUMPDEST PUSH1 0x40 MLOAD PUSH2 0x573 SWAP2 SWAP1 PUSH2 0x6317 JUMP JUMPDEST PUSH1 0x40 MLOAD DUP1 SWAP2 SUB SWAP1 RETURN JUMPDEST CALLVALUE DUP1 ISZERO PUSH2 0x588 JUMPI PUSH1 0x0 DUP1 REVERT JUMPDEST POP PUSH2 0x5A3 PUSH1 0x4 DUP1 CALLDATASIZE SUB DUP2 ADD SWAP1 PUSH2 0x59E SWAP2 SWAP1 PUSH2 0x5FCA JUMP JUMPDEST PUSH2 0x1C5D JUMP JUMPDEST STOP JUMPDEST CALLVALUE DUP1 ISZERO PUSH2 0x5B1 JUMPI PUSH1 0x0 DUP1 REVERT JUMPDEST POP PUSH2 0x5CC PUSH1 0x4 DUP1 CALLDATASIZE SUB DUP2 ADD SWAP1 PUSH2 0x5C7 SWAP2 SWAP1 PUSH2 0x5BC3 JUMP JUMPDEST PUSH2 0x1D93 JUMP JUMPDEST PUSH1 0x40 MLOAD PUSH2 0x5D9 SWAP2 SWAP1 PUSH2 0x5C31 JUMP JUMPDEST PUSH1 0x40 MLOAD DUP1 SWAP2 SUB SWAP1 RETURN JUMPDEST CALLVALUE DUP1 ISZERO PUSH2 0x5EE JUMPI PUSH1 0x0 DUP1 REVERT JUMPDEST POP PUSH2 0x609 PUSH1 0x4 DUP1 CALLDATASIZE SUB DUP2 ADD SWAP1 PUSH2 0x604 SWAP2 SWAP1 PUSH2 0x6377 JUMP JUMPDEST PUSH2 0x1E44 JUMP JUMPDEST STOP JUMPDEST CALLVALUE DUP1 ISZERO PUSH2 0x617 JUMPI PUSH1 0x0 DUP1 REVERT JUMPDEST POP PUSH2 0x632 PUSH1 0x4 DUP1 CALLDATASIZE SUB DUP2 ADD SWAP1 PUSH2 0x62D SWAP2 SWAP1 PUSH2 0x5FCA JUMP JUMPDEST PUSH2 0x1FB9 JUMP JUMPDEST STOP JUMPDEST CALLVALUE DUP1 ISZERO PUSH2 0x640 JUMPI PUSH1 0x0 DUP1 REVERT JUMPDEST POP PUSH2 0x65B PUSH1 0x4 DUP1 CALLDATASIZE SUB DUP2 ADD SWAP1 PUSH2 0x656 SWAP2 SWAP1 PUSH2 0x5FCA JUMP JUMPDEST PUSH2 0x21BB JUMP JUMPDEST STOP JUMPDEST CALLVALUE DUP1 ISZERO PUSH2 0x669 JUMPI PUSH1 0x0 DUP1 REVERT JUMPDEST POP PUSH2 0x684 PUSH1 0x4 DUP1 CALLDATASIZE SUB DUP2 ADD SWAP1 PUSH2 0x67F SWAP2 SWAP1 PUSH2 0x5CB8 JUMP JUMPDEST PUSH2 0x2267 JUMP JUMPDEST PUSH1 0x40 MLOAD PUSH2 0x691 SWAP2 SWAP1 PUSH2 0x61A0 JUMP JUMPDEST PUSH1 0x40 MLOAD DUP1 SWAP2 SUB SWAP1 RETURN JUMPDEST CALLVALUE DUP1 ISZERO PUSH2 0x6A6 JUMPI PUSH1 0x0 DUP1 REVERT JUMPDEST POP PUSH2 0x6AF PUSH2 0x231E JUMP JUMPDEST STOP JUMPDEST CALLVALUE DUP1 ISZERO PUSH2 0x6BD JUMPI PUSH1 0x0 DUP1 REVERT JUMPDEST POP PUSH2 0x6C6 PUSH2 0x23A6 JUMP JUMPDEST PUSH1 0x40 MLOAD PUSH2 0x6D3 SWAP2 SWAP1 PUSH2 0x6466 JUMP JUMPDEST PUSH1 0x40 MLOAD DUP1 SWAP2 SUB SWAP1 RETURN JUMPDEST CALLVALUE DUP1 ISZERO PUSH2 0x6E8 JUMPI PUSH1 0x0 DUP1 REVERT JUMPDEST POP PUSH2 0x703 PUSH1 0x4 DUP1 CALLDATASIZE SUB DUP2 ADD SWAP1 PUSH2 0x6FE SWAP2 SWAP1 PUSH2 0x5FCA JUMP JUMPDEST PUSH2 0x254E JUMP JUMPDEST PUSH1 0x40 MLOAD PUSH2 0x710 SWAP2 SWAP1 PUSH2 0x64E7 JUMP JUMPDEST PUSH1 0x40 MLOAD DUP1 SWAP2 SUB SWAP1 RETURN JUMPDEST CALLVALUE DUP1 ISZERO PUSH2 0x725 JUMPI PUSH1 0x0 DUP1 REVERT JUMPDEST POP PUSH2 0x72E PUSH2 0x2695 JUMP JUMPDEST PUSH1 0x40 MLOAD PUSH2 0x73B SWAP2 SWAP1 PUSH2 0x6466 JUMP JUMPDEST PUSH1 0x40 MLOAD DUP1 SWAP2 SUB SWAP1 RETURN JUMPDEST CALLVALUE DUP1 ISZERO PUSH2 0x750 JUMPI PUSH1 0x0 DUP1 REVERT JUMPDEST POP PUSH2 0x759 PUSH2 0x276E JUMP JUMPDEST PUSH1 0x40 MLOAD PUSH2 0x766 SWAP2 SWAP1 PUSH2 0x5C31 JUMP JUMPDEST PUSH1 0x40 MLOAD DUP1 SWAP2 SUB SWAP1 RETURN JUMPDEST CALLVALUE DUP1 ISZERO PUSH2 0x77B JUMPI PUSH1 0x0 DUP1 REVERT JUMPDEST POP PUSH2 0x796 PUSH1 0x4 DUP1 CALLDATASIZE SUB DUP2 ADD SWAP1 PUSH2 0x791 SWAP2 SWAP1 PUSH2 0x5FCA JUMP JUMPDEST PUSH2 0x2798 JUMP JUMPDEST STOP JUMPDEST CALLVALUE DUP1 ISZERO PUSH2 0x7A4 JUMPI PUSH1 0x0 DUP1 REVERT JUMPDEST POP PUSH2 0x7AD PUSH2 0x28CE JUMP JUMPDEST PUSH1 0x40 MLOAD PUSH2 0x7BA SWAP2 SWAP1 PUSH2 0x67BA JUMP JUMPDEST PUSH1 0x40 MLOAD DUP1 SWAP2 SUB SWAP1 RETURN JUMPDEST CALLVALUE DUP1 ISZERO PUSH2 0x7CF JUMPI PUSH1 0x0 DUP1 REVERT JUMPDEST POP PUSH2 0x7D8 PUSH2 0x2FAB JUMP JUMPDEST PUSH1 0x40 MLOAD PUSH2 0x7E5 SWAP2 SWAP1 PUSH2 0x5B6B JUMP JUMPDEST PUSH1 0x40 MLOAD DUP1 SWAP2 SUB SWAP1 RETURN JUMPDEST CALLVALUE DUP1 ISZERO PUSH2 0x7FA JUMPI PUSH1 0x0 DUP1 REVERT JUMPDEST POP PUSH2 0x815 PUSH1 0x4 DUP1 CALLDATASIZE SUB DUP2 ADD SWAP1 PUSH2 0x810 SWAP2 SWAP1 PUSH2 0x67DC JUMP JUMPDEST PUSH2 0x303D JUMP JUMPDEST STOP JUMPDEST CALLVALUE DUP1 ISZERO PUSH2 0x823 JUMPI PUSH1 0x0 DUP1 REVERT JUMPDEST POP PUSH2 0x83E PUSH1 0x4 DUP1 CALLDATASIZE SUB DUP2 ADD SWAP1 PUSH2 0x839 SWAP2 SWAP1 PUSH2 0x6868 JUMP JUMPDEST PUSH2 0x30D6 JUMP JUMPDEST STOP JUMPDEST CALLVALUE DUP1 ISZERO PUSH2 0x84C JUMPI PUSH1 0x0 DUP1 REVERT JUMPDEST POP PUSH2 0x855 PUSH2 0x30EC JUMP JUMPDEST PUSH1 0x40 MLOAD PUSH2 0x862 SWAP2 SWAP1 PUSH2 0x6466 JUMP JUMPDEST PUSH1 0x40 MLOAD DUP1 SWAP2 SUB SWAP1 RETURN JUMPDEST CALLVALUE DUP1 ISZERO PUSH2 0x877 JUMPI PUSH1 0x0 DUP1 REVERT JUMPDEST POP PUSH2 0x880 PUSH2 0x31C5 JUMP JUMPDEST PUSH1 0x40 MLOAD PUSH2 0x88D SWAP2 SWAP1 PUSH2 0x61A0 JUMP JUMPDEST PUSH1 0x40 MLOAD DUP1 SWAP2 SUB SWAP1 RETURN JUMPDEST CALLVALUE DUP1 ISZERO PUSH2 0x8A2 JUMPI PUSH1 0x0 DUP1 REVERT JUMPDEST POP PUSH2 0x8BD PUSH1 0x4 DUP1 CALLDATASIZE SUB DUP2 ADD SWAP1 PUSH2 0x8B8 SWAP2 SWAP1 PUSH2 0x5FCA JUMP JUMPDEST PUSH2 0x31D2 JUMP JUMPDEST STOP JUMPDEST PUSH2 0x8D9 PUSH1 0x4 DUP1 CALLDATASIZE SUB DUP2 ADD SWAP1 PUSH2 0x8D4 SWAP2 SWAP1 PUSH2 0x5FCA JUMP JUMPDEST PUSH2 0x3308 JUMP JUMPDEST STOP JUMPDEST CALLVALUE DUP1 ISZERO PUSH2 0x8E7 JUMPI PUSH1 0x0 DUP1 REVERT JUMPDEST POP PUSH2 0x902 PUSH1 0x4 DUP1 CALLDATASIZE SUB DUP2 ADD SWAP1 PUSH2 0x8FD SWAP2 SWAP1 PUSH2 0x6949 JUMP JUMPDEST PUSH2 0x3560 JUMP JUMPDEST STOP JUMPDEST CALLVALUE DUP1 ISZERO PUSH2 0x910 JUMPI PUSH1 0x0 DUP1 REVERT JUMPDEST POP PUSH2 0x92B PUSH1 0x4 DUP1 CALLDATASIZE SUB DUP2 ADD SWAP1 PUSH2 0x926 SWAP2 SWAP1 PUSH2 0x67DC JUMP JUMPDEST PUSH2 0x35C2 JUMP JUMPDEST STOP JUMPDEST CALLVALUE DUP1 ISZERO PUSH2 0x939 JUMPI PUSH1 0x0 DUP1 REVERT JUMPDEST POP PUSH2 0x954 PUSH1 0x4 DUP1 CALLDATASIZE SUB DUP2 ADD SWAP1 PUSH2 0x94F SWAP2 SWAP1 PUSH2 0x5CB8 JUMP JUMPDEST PUSH2 0x3699 JUMP JUMPDEST PUSH1 0x40 MLOAD PUSH2 0x961 SWAP2 SWAP1 PUSH2 0x61A0 JUMP JUMPDEST PUSH1 0x40 MLOAD DUP1 SWAP2 SUB SWAP1 RETURN JUMPDEST CALLVALUE DUP1 ISZERO PUSH2 0x976 JUMPI PUSH1 0x0 DUP1 REVERT JUMPDEST POP PUSH2 0x97F PUSH2 0x36E8 JUMP JUMPDEST PUSH1 0x40 MLOAD PUSH2 0x98C SWAP2 SWAP1 PUSH2 0x61A0 JUMP JUMPDEST PUSH1 0x40 MLOAD DUP1 SWAP2 SUB SWAP1 RETURN JUMPDEST CALLVALUE DUP1 ISZERO PUSH2 0x9A1 JUMPI PUSH1 0x0 DUP1 REVERT JUMPDEST POP PUSH2 0x9BC PUSH1 0x4 DUP1 CALLDATASIZE SUB DUP2 ADD SWAP1 PUSH2 0x9B7 SWAP2 SWAP1 PUSH2 0x5BC3 JUMP JUMPDEST PUSH2 0x36F5 JUMP JUMPDEST PUSH1 0x40 MLOAD PUSH2 0x9C9 SWAP2 SWAP1 PUSH2 0x5B6B JUMP JUMPDEST PUSH1 0x40 MLOAD DUP1 SWAP2 SUB SWAP1 RETURN JUMPDEST CALLVALUE DUP1 ISZERO PUSH2 0x9DE JUMPI PUSH1 0x0 DUP1 REVERT JUMPDEST POP PUSH2 0x9F9 PUSH1 0x4 DUP1 CALLDATASIZE SUB DUP2 ADD SWAP1 PUSH2 0x9F4 SWAP2 SWAP1 PUSH2 0x5CB8 JUMP JUMPDEST PUSH2 0x3811 JUMP JUMPDEST PUSH1 0x40 MLOAD PUSH2 0xA06 SWAP2 SWAP1 PUSH2 0x67BA JUMP JUMPDEST PUSH1 0x40 MLOAD DUP1 SWAP2 SUB SWAP1 RETURN JUMPDEST CALLVALUE DUP1 ISZERO PUSH2 0xA1B JUMPI PUSH1 0x0 DUP1 REVERT JUMPDEST POP PUSH2 0xA24 PUSH2 0x3EF0 JUMP JUMPDEST PUSH1 0x40 MLOAD PUSH2 0xA31 SWAP2 SWAP1 PUSH2 0x6A3B JUMP JUMPDEST PUSH1 0x40 MLOAD DUP1 SWAP2 SUB SWAP1 RETURN JUMPDEST CALLVALUE DUP1 ISZERO PUSH2 0xA46 JUMPI PUSH1 0x0 DUP1 REVERT JUMPDEST POP PUSH2 0xA61 PUSH1 0x4 DUP1 CALLDATASIZE SUB DUP2 ADD SWAP1 PUSH2 0xA5C SWAP2 SWAP1 PUSH2 0x5FCA JUMP JUMPDEST PUSH2 0x3F7E JUMP JUMPDEST PUSH1 0x40 MLOAD PUSH2 0xA6E SWAP2 SWAP1 PUSH2 0x6A3B JUMP JUMPDEST PUSH1 0x40 MLOAD DUP1 SWAP2 SUB SWAP1 RETURN JUMPDEST CALLVALUE DUP1 ISZERO PUSH2 0xA83 JUMPI PUSH1 0x0 DUP1 REVERT JUMPDEST POP PUSH2 0xA9E PUSH1 0x4 DUP1 CALLDATASIZE SUB DUP2 ADD SWAP1 PUSH2 0xA99 SWAP2 SWAP1 PUSH2 0x6A5D JUMP JUMPDEST PUSH2 0x3F9E JUMP JUMPDEST PUSH1 0x40 MLOAD PUSH2 0xAAB SWAP2 SWAP1 PUSH2 0x5AC0 JUMP JUMPDEST PUSH1 0x40 MLOAD DUP1 SWAP2 SUB SWAP1 RETURN JUMPDEST CALLVALUE DUP1 ISZERO PUSH2 0xAC0 JUMPI PUSH1 0x0 DUP1 REVERT JUMPDEST POP PUSH2 0xADB PUSH1 0x4 DUP1 CALLDATASIZE SUB DUP2 ADD SWAP1 PUSH2 0xAD6 SWAP2 SWAP1 PUSH2 0x5CB8 JUMP JUMPDEST PUSH2 0x4032 JUMP JUMPDEST STOP JUMPDEST PUSH1 0x0 PUSH32 0x80AC58CD00000000000000000000000000000000000000000000000000000000 PUSH28 0xFFFFFFFFFFFFFFFFFFFFFFFFFFFFFFFFFFFFFFFFFFFFFFFFFFFFFFFF NOT AND DUP3 PUSH28 0xFFFFFFFFFFFFFFFFFFFFFFFFFFFFFFFFFFFFFFFFFFFFFFFFFFFFFFFF NOT AND EQ DUP1 PUSH2 0xBA8 JUMPI POP PUSH32 0x5B5E139F00000000000000000000000000000000000000000000000000000000 PUSH28 0xFFFFFFFFFFFFFFFFFFFFFFFFFFFFFFFFFFFFFFFFFFFFFFFFFFFFFFFF NOT AND DUP3 PUSH28 0xFFFFFFFFFFFFFFFFFFFFFFFFFFFFFFFFFFFFFFFFFFFFFFFFFFFFFFFF NOT AND EQ JUMPDEST DUP1 PUSH2 0xBB8 JUMPI POP PUSH2 0xBB7 DUP3 PUSH2 0x4129 JUMP JUMPDEST JUMPDEST SWAP1 POP SWAP2 SWAP1 POP JUMP JUMPDEST PUSH1 0x60 PUSH1 0x0 DUP1 SLOAD PUSH2 0xBCE SWAP1 PUSH2 0x6ACC JUMP JUMPDEST DUP1 PUSH1 0x1F ADD PUSH1 0x20 DUP1 SWAP2 DIV MUL PUSH1 0x20 ADD PUSH1 0x40 MLOAD SWAP1 DUP2 ADD PUSH1 0x40 MSTORE DUP1 SWAP3 SWAP2 SWAP1 DUP2 DUP2 MSTORE PUSH1 0x20 ADD DUP3 DUP1 SLOAD PUSH2 0xBFA SWAP1 PUSH2 0x6ACC JUMP JUMPDEST DUP1 ISZERO PUSH2 0xC47 JUMPI DUP1 PUSH1 0x1F LT PUSH2 0xC1C JUMPI PUSH2 0x100 DUP1 DUP4 SLOAD DIV MUL DUP4 MSTORE SWAP2 PUSH1 0x20 ADD SWAP2 PUSH2 0xC47 JUMP JUMPDEST DUP3 ADD SWAP2 SWAP1 PUSH1 0x0 MSTORE PUSH1 0x20 PUSH1 0x0 KECCAK256 SWAP1 JUMPDEST DUP2 SLOAD DUP2 MSTORE SWAP1 PUSH1 0x1 ADD SWAP1 PUSH1 0x20 ADD DUP1 DUP4 GT PUSH2 0xC2A JUMPI DUP3 SWAP1 SUB PUSH1 0x1F AND DUP3 ADD SWAP2 JUMPDEST POP POP POP POP POP SWAP1 POP SWAP1 JUMP JUMPDEST PUSH1 0x0 PUSH2 0xC5C DUP3 PUSH2 0x4193 JUMP JUMPDEST PUSH2 0xC9B JUMPI PUSH1 0x40 MLOAD PUSH32 0x8C379A000000000000000000000000000000000000000000000000000000000 DUP2 MSTORE PUSH1 0x4 ADD PUSH2 0xC92 SWAP1 PUSH2 0x6B6F JUMP JUMPDEST PUSH1 0x40 MLOAD DUP1 SWAP2 SUB SWAP1 REVERT JUMPDEST PUSH1 0x4 PUSH1 0x0 DUP4 DUP2 MSTORE PUSH1 0x20 ADD SWAP1 DUP2 MSTORE PUSH1 0x20 ADD PUSH1 0x0 KECCAK256 PUSH1 0x0 SWAP1 SLOAD SWAP1 PUSH2 0x100 EXP SWAP1 DIV PUSH20 0xFFFFFFFFFFFFFFFFFFFFFFFFFFFFFFFFFFFFFFFF AND SWAP1 POP SWAP2 SWAP1 POP JUMP JUMPDEST PUSH1 0x0 PUSH2 0xCE1 DUP3 PUSH2 0x1D93 JUMP JUMPDEST SWAP1 POP DUP1 PUSH20 0xFFFFFFFFFFFFFFFFFFFFFFFFFFFFFFFFFFFFFFFF AND DUP4 PUSH20 0xFFFFFFFFFFFFFFFFFFFFFFFFFFFFFFFFFFFFFFFF AND SUB PUSH2 0xD51 JUMPI PUSH1 0x40 MLOAD PUSH32 0x8C379A000000000000000000000000000000000000000000000000000000000 DUP2 MSTORE PUSH1 0x4 ADD PUSH2 0xD48 SWAP1 PUSH2 0x6C01 JUMP JUMPDEST PUSH1 0x40 MLOAD DUP1 SWAP2 SUB SWAP1 REVERT JUMPDEST DUP1 PUSH20 0xFFFFFFFFFFFFFFFFFFFFFFFFFFFFFFFFFFFFFFFF AND PUSH2 0xD70 PUSH2 0x41FF JUMP JUMPDEST PUSH20 0xFFFFFFFFFFFFFFFFFFFFFFFFFFFFFFFFFFFFFFFF AND EQ DUP1 PUSH2 0xD9F JUMPI POP PUSH2 0xD9E DUP2 PUSH2 0xD99 PUSH2 0x41FF JUMP JUMPDEST PUSH2 0x3F9E JUMP JUMPDEST JUMPDEST PUSH2 0xDDE JUMPI PUSH1 0x40 MLOAD PUSH32 0x8C379A000000000000000000000000000000000000000000000000000000000 DUP2 MSTORE PUSH1 0x4 ADD PUSH2 0xDD5 SWAP1 PUSH2 0x6C93 JUMP JUMPDEST PUSH1 0x40 MLOAD DUP1 SWAP2 SUB SWAP1 REVERT JUMPDEST PUSH2 0xDE8 DUP4 DUP4 PUSH2 0x4207 JUMP JUMPDEST POP POP POP JUMP JUMPDEST PUSH1 0x0 PUSH1 0xA PUSH1 0x0 DUP4 PUSH20 0xFFFFFFFFFFFFFFFFFFFFFFFFFFFFFFFFFFFFFFFF AND PUSH20 0xFFFFFFFFFFFFFFFFFFFFFFFFFFFFFFFFFFFFFFFF AND DUP2 MSTORE PUSH1 0x20 ADD SWAP1 DUP2 MSTORE PUSH1 0x20 ADD PUSH1 0x0 KECCAK256 PUSH1 0x7 ADD PUSH1 0x0 SWAP1 SLOAD SWAP1 PUSH2 0x100 EXP SWAP1 DIV PUSH1 0xFF AND SWAP1 POP SWAP2 SWAP1 POP JUMP JUMPDEST PUSH1 0xA PUSH1 0x0 CALLER PUSH20 0xFFFFFFFFFFFFFFFFFFFFFFFFFFFFFFFFFFFFFFFF AND PUSH20 0xFFFFFFFFFFFFFFFFFFFFFFFFFFFFFFFFFFFFFFFF AND DUP2 MSTORE PUSH1 0x20 ADD SWAP1 DUP2 MSTORE PUSH1 0x20 ADD PUSH1 0x0 KECCAK256 PUSH1 0x7 ADD PUSH1 0x0 SWAP1 SLOAD SWAP1 PUSH2 0x100 EXP SWAP1 DIV PUSH1 0xFF AND PUSH2 0xED5 JUMPI PUSH1 0x40 MLOAD PUSH32 0x8C379A000000000000000000000000000000000000000000000000000000000 DUP2 MSTORE PUSH1 0x4 ADD PUSH2 0xECC SWAP1 PUSH2 0x6CFF JUMP JUMPDEST PUSH1 0x40 MLOAD DUP1 SWAP2 SUB SWAP1 REVERT JUMPDEST PUSH2 0xEEB DUP3 DUP3 PUSH1 0xB PUSH2 0x42C0 SWAP1 SWAP3 SWAP2 SWAP1 PUSH4 0xFFFFFFFF AND JUMP JUMPDEST PUSH2 0xF2A JUMPI PUSH1 0x40 MLOAD PUSH32 0x8C379A000000000000000000000000000000000000000000000000000000000 DUP2 MSTORE PUSH1 0x4 ADD PUSH2 0xF21 SWAP1 PUSH2 0x6D6B JUMP JUMPDEST PUSH1 0x40 MLOAD DUP1 SWAP2 SUB SWAP1 REVERT JUMPDEST PUSH1 0x9 PUSH1 0x0 DUP2 SLOAD DUP1 SWAP3 SWAP2 SWAP1 PUSH2 0xF3D SWAP1 PUSH2 0x6DBA JUMP JUMPDEST SWAP2 SWAP1 POP SSTORE POP PUSH2 0xF66 DUP7 DUP7 DUP7 DUP7 DUP7 DUP7 CALLER PUSH1 0x9 SLOAD PUSH1 0xC PUSH2 0x42FB SWAP1 SWAP9 SWAP8 SWAP7 SWAP6 SWAP5 SWAP4 SWAP3 SWAP2 SWAP1 PUSH4 0xFFFFFFFF AND JUMP JUMPDEST PUSH1 0x10 DUP7 DUP7 SWAP1 SWAP2 DUP1 PUSH1 0x1 DUP2 SLOAD ADD DUP1 DUP3 SSTORE DUP1 SWAP2 POP POP PUSH1 0x1 SWAP1 SUB SWAP1 PUSH1 0x0 MSTORE PUSH1 0x20 PUSH1 0x0 KECCAK256 ADD PUSH1 0x0 SWAP1 SWAP2 SWAP3 SWAP1 SWAP2 SWAP3 SWAP1 SWAP2 SWAP3 SWAP1 SWAP2 SWAP3 POP SWAP2 DUP3 PUSH2 0xFA3 SWAP3 SWAP2 SWAP1 PUSH2 0x6FB9 JUMP JUMPDEST POP PUSH2 0xFF7 DUP7 DUP7 PUSH1 0xA PUSH1 0x0 CALLER PUSH20 0xFFFFFFFFFFFFFFFFFFFFFFFFFFFFFFFFFFFFFFFF AND PUSH20 0xFFFFFFFFFFFFFFFFFFFFFFFFFFFFFFFFFFFFFFFF AND DUP2 MSTORE PUSH1 0x20 ADD SWAP1 DUP2 MSTORE PUSH1 0x20 ADD PUSH1 0x0 KECCAK256 PUSH2 0x44CE SWAP1 SWAP3 SWAP2 SWAP1 PUSH4 0xFFFFFFFF AND JUMP JUMPDEST CALLER PUSH20 0xFFFFFFFFFFFFFFFFFFFFFFFFFFFFFFFFFFFFFFFF AND DUP7 DUP7 PUSH1 0x40 MLOAD PUSH2 0x101E SWAP3 SWAP2 SWAP1 PUSH2 0x70B9 JUMP JUMPDEST PUSH1 0x40 MLOAD DUP1 SWAP2 SUB SWAP1 KECCAK256 PUSH32 0x966070CE2FF7CFD3F6EC46ED7394A2F5EE5E3021344A9878EEE674334B84B080 DUP5 DUP5 PUSH1 0x9 SLOAD PUSH1 0x40 MLOAD PUSH2 0x105B SWAP4 SWAP3 SWAP2 SWAP1 PUSH2 0x70FF JUMP JUMPDEST PUSH1 0x40 MLOAD DUP1 SWAP2 SUB SWAP1 LOG3 POP POP POP POP POP POP JUMP JUMPDEST PUSH1 0xA PUSH1 0x0 CALLER PUSH20 0xFFFFFFFFFFFFFFFFFFFFFFFFFFFFFFFFFFFFFFFF AND PUSH20 0xFFFFFFFFFFFFFFFFFFFFFFFFFFFFFFFFFFFFFFFF AND DUP2 MSTORE PUSH1 0x20 ADD SWAP1 DUP2 MSTORE PUSH1 0x20 ADD PUSH1 0x0 KECCAK256 PUSH1 0x7 ADD PUSH1 0x0 SWAP1 SLOAD SWAP1 PUSH2 0x100 EXP SWAP1 DIV PUSH1 0xFF AND PUSH2 0x10FA JUMPI PUSH1 0x40 MLOAD PUSH32 0x8C379A000000000000000000000000000000000000000000000000000000000 DUP2 MSTORE PUSH1 0x4 ADD PUSH2 0x10F1 SWAP1 PUSH2 0x6CFF JUMP JUMPDEST PUSH1 0x40 MLOAD DUP1 SWAP2 SUB SWAP1 REVERT JUMPDEST PUSH1 0x0 DUP2 MLOAD GT PUSH2 0x113E JUMPI PUSH1 0x40 MLOAD PUSH32 0x8C379A000000000000000000000000000000000000000000000000000000000 DUP2 MSTORE PUSH1 0x4 ADD PUSH2 0x1135 SWAP1 PUSH2 0x717D JUMP JUMPDEST PUSH1 0x40 MLOAD DUP1 SWAP2 SUB SWAP1 REVERT JUMPDEST PUSH1 0x0 PUSH1 0x8 SLOAD SWAP1 POP PUSH1 0x8 PUSH1 0x0 DUP2 SLOAD DUP1 SWAP3 SWAP2 SWAP1 PUSH2 0x1158 SWAP1 PUSH2 0x6DBA JUMP JUMPDEST SWAP2 SWAP1 POP SSTORE POP PUSH2 0x1167 CALLER DUP3 PUSH2 0x4513 JUMP JUMPDEST DUP2 PUSH1 0xD PUSH1 0x0 DUP4 DUP2 MSTORE PUSH1 0x20 ADD SWAP1 DUP2 MSTORE PUSH1 0x20 ADD PUSH1 0x0 KECCAK256 SWAP1 DUP2 PUSH2 0x1187 SWAP2 SWAP1 PUSH2 0x719D JUMP JUMPDEST POP PUSH2 0x11D9 DUP2 PUSH1 0xA PUSH1 0x0 CALLER PUSH20 0xFFFFFFFFFFFFFFFFFFFFFFFFFFFFFFFFFFFFFFFF AND PUSH20 0xFFFFFFFFFFFFFFFFFFFFFFFFFFFFFFFFFFFFFFFF AND DUP2 MSTORE PUSH1 0x20 ADD SWAP1 DUP2 MSTORE PUSH1 0x20 ADD PUSH1 0x0 KECCAK256 PUSH2 0x46EC SWAP1 SWAP2 SWAP1 PUSH4 0xFFFFFFFF AND JUMP JUMPDEST DUP1 CALLER PUSH20 0xFFFFFFFFFFFFFFFFFFFFFFFFFFFFFFFFFFFFFFFF AND PUSH32 0xE7CD4CE7F2A465EDC730269A1305E8A48BAD821E8FB7E152EC413829C01A53C4 DUP5 PUSH1 0x40 MLOAD PUSH2 0x1220 SWAP2 SWAP1 PUSH2 0x5B6B JUMP JUMPDEST PUSH1 0x40 MLOAD DUP1 SWAP2 SUB SWAP1 LOG3 POP POP JUMP JUMPDEST PUSH2 0x123D PUSH2 0x1237 PUSH2 0x41FF JUMP JUMPDEST DUP3 PUSH2 0x471B JUMP JUMPDEST PUSH2 0x127C JUMPI PUSH1 0x40 MLOAD PUSH32 0x8C379A000000000000000000000000000000000000000000000000000000000 DUP2 MSTORE PUSH1 0x4 ADD PUSH2 0x1273 SWAP1 PUSH2 0x72E1 JUMP JUMPDEST PUSH1 0x40 MLOAD DUP1 SWAP2 SUB SWAP1 REVERT JUMPDEST PUSH2 0x1287 DUP4 DUP4 DUP4 PUSH2 0x47F9 JUMP JUMPDEST POP POP POP JUMP JUMPDEST PUSH1 0x60 PUSH1 0xD PUSH1 0x0 DUP4 DUP2 MSTORE PUSH1 0x20 ADD SWAP1 DUP2 MSTORE PUSH1 0x20 ADD PUSH1 0x0 KECCAK256 DUP1 SLOAD PUSH2 0x12AC SWAP1 PUSH2 0x6ACC JUMP JUMPDEST DUP1 PUSH1 0x1F ADD PUSH1 0x20 DUP1 SWAP2 DIV MUL PUSH1 0x20 ADD PUSH1 0x40 MLOAD SWAP1 DUP2 ADD PUSH1 0x40 MSTORE DUP1 SWAP3 SWAP2 SWAP1 DUP2 DUP2 MSTORE PUSH1 0x20 ADD DUP3 DUP1 SLOAD PUSH2 0x12D8 SWAP1 PUSH2 0x6ACC JUMP JUMPDEST DUP1 ISZERO PUSH2 0x1325 JUMPI DUP1 PUSH1 0x1F LT PUSH2 0x12FA JUMPI PUSH2 0x100 DUP1 DUP4 SLOAD DIV MUL DUP4 MSTORE SWAP2 PUSH1 0x20 ADD SWAP2 PUSH2 0x1325 JUMP JUMPDEST DUP3 ADD SWAP2 SWAP1 PUSH1 0x0 MSTORE PUSH1 0x20 PUSH1 0x0 KECCAK256 SWAP1 JUMPDEST DUP2 SLOAD DUP2 MSTORE SWAP1 PUSH1 0x1 ADD SWAP1 PUSH1 0x20 ADD DUP1 DUP4 GT PUSH2 0x1308 JUMPI DUP3 SWAP1 SUB PUSH1 0x1F AND DUP3 ADD SWAP2 JUMPDEST POP POP POP POP POP SWAP1 POP SWAP2 SWAP1 POP JUMP JUMPDEST PUSH2 0x1339 PUSH2 0x41FF JUMP JUMPDEST PUSH20 0xFFFFFFFFFFFFFFFFFFFFFFFFFFFFFFFFFFFFFFFF AND PUSH2 0x1357 PUSH2 0x276E JUMP JUMPDEST PUSH20 0xFFFFFFFFFFFFFFFFFFFFFFFFFFFFFFFFFFFFFFFF AND EQ PUSH2 0x13AD JUMPI PUSH1 0x40 MLOAD PUSH32 0x8C379A000000000000000000000000000000000000000000000000000000000 DUP2 MSTORE PUSH1 0x4 ADD PUSH2 0x13A4 SWAP1 PUSH2 0x734D JUMP JUMPDEST PUSH1 0x40 MLOAD DUP1 SWAP2 SUB SWAP1 REVERT JUMPDEST PUSH1 0x0 SELFBALANCE SWAP1 POP PUSH1 0x0 DUP2 GT PUSH2 0x13F5 JUMPI PUSH1 0x40 MLOAD PUSH32 0x8C379A000000000000000000000000000000000000000000000000000000000 DUP2 MSTORE PUSH1 0x4 ADD PUSH2 0x13EC SWAP1 PUSH2 0x73B9 JUMP JUMPDEST PUSH1 0x40 MLOAD DUP1 SWAP2 SUB SWAP1 REVERT JUMPDEST PUSH1 0x0 PUSH2 0x13FF PUSH2 0x276E JUMP JUMPDEST PUSH20 0xFFFFFFFFFFFFFFFFFFFFFFFFFFFFFFFFFFFFFFFF AND DUP3 PUSH1 0x40 MLOAD PUSH2 0x1422 SWAP1 PUSH2 0x740A JUMP JUMPDEST PUSH1 0x0 PUSH1 0x40 MLOAD DUP1 DUP4 SUB DUP2 DUP6 DUP8 GAS CALL SWAP3 POP POP POP RETURNDATASIZE DUP1 PUSH1 0x0 DUP2 EQ PUSH2 0x145F JUMPI PUSH1 0x40 MLOAD SWAP2 POP PUSH1 0x1F NOT PUSH1 0x3F RETURNDATASIZE ADD AND DUP3 ADD PUSH1 0x40 MSTORE RETURNDATASIZE DUP3 MSTORE RETURNDATASIZE PUSH1 0x0 PUSH1 0x20 DUP5 ADD RETURNDATACOPY PUSH2 0x1464 JUMP JUMPDEST PUSH1 0x60 SWAP2 POP JUMPDEST POP POP SWAP1 POP DUP1 PUSH2 0x14A8 JUMPI PUSH1 0x40 MLOAD PUSH32 0x8C379A000000000000000000000000000000000000000000000000000000000 DUP2 MSTORE PUSH1 0x4 ADD PUSH2 0x149F SWAP1 PUSH2 0x746B JUMP JUMPDEST PUSH1 0x40 MLOAD DUP1 SWAP2 SUB SWAP1 REVERT JUMPDEST POP POP JUMP JUMPDEST PUSH1 0xA PUSH1 0x0 CALLER PUSH20 0xFFFFFFFFFFFFFFFFFFFFFFFFFFFFFFFFFFFFFFFF AND PUSH20 0xFFFFFFFFFFFFFFFFFFFFFFFFFFFFFFFFFFFFFFFF AND DUP2 MSTORE PUSH1 0x20 ADD SWAP1 DUP2 MSTORE PUSH1 0x20 ADD PUSH1 0x0 KECCAK256 PUSH1 0x7 ADD PUSH1 0x0 SWAP1 SLOAD SWAP1 PUSH2 0x100 EXP SWAP1 DIV PUSH1 0xFF AND PUSH2 0x153B JUMPI PUSH1 0x40 MLOAD PUSH32 0x8C379A000000000000000000000000000000000000000000000000000000000 DUP2 MSTORE PUSH1 0x4 ADD PUSH2 0x1532 SWAP1 PUSH2 0x6CFF JUMP JUMPDEST PUSH1 0x40 MLOAD DUP1 SWAP2 SUB SWAP1 REVERT JUMPDEST PUSH2 0x158E DUP3 DUP3 PUSH1 0xA PUSH1 0x0 CALLER PUSH20 0xFFFFFFFFFFFFFFFFFFFFFFFFFFFFFFFFFFFFFFFF AND PUSH20 0xFFFFFFFFFFFFFFFFFFFFFFFFFFFFFFFFFFFFFFFF AND DUP2 MSTORE PUSH1 0x20 ADD SWAP1 DUP2 MSTORE PUSH1 0x20 ADD PUSH1 0x0 KECCAK256 PUSH2 0x4A5F SWAP1 SWAP3 SWAP2 SWAP1 PUSH4 0xFFFFFFFF AND JUMP JUMPDEST CALLER PUSH20 0xFFFFFFFFFFFFFFFFFFFFFFFFFFFFFFFFFFFFFFFF AND PUSH32 0xB8E50056DB55E8C4B78F3AEE6869149CC55C970443C6BFC700FA83A0B793AE2A DUP4 DUP4 PUSH1 0x40 MLOAD PUSH2 0x15D6 SWAP3 SWAP2 SWAP1 PUSH2 0x748B JUMP JUMPDEST PUSH1 0x40 MLOAD DUP1 SWAP2 SUB SWAP1 LOG2 POP POP JUMP JUMPDEST PUSH2 0x15FD DUP4 DUP4 DUP4 PUSH1 0x40 MLOAD DUP1 PUSH1 0x20 ADD PUSH1 0x40 MSTORE DUP1 PUSH1 0x0 DUP2 MSTORE POP PUSH2 0x3560 JUMP JUMPDEST POP POP POP JUMP JUMPDEST PUSH1 0xA PUSH1 0x0 CALLER PUSH20 0xFFFFFFFFFFFFFFFFFFFFFFFFFFFFFFFFFFFFFFFF AND PUSH20 0xFFFFFFFFFFFFFFFFFFFFFFFFFFFFFFFFFFFFFFFF AND DUP2 MSTORE PUSH1 0x20 ADD SWAP1 DUP2 MSTORE PUSH1 0x20 ADD PUSH1 0x0 KECCAK256 PUSH1 0x7 ADD PUSH1 0x0 SWAP1 SLOAD SWAP1 PUSH2 0x100 EXP SWAP1 DIV PUSH1 0xFF AND PUSH2 0x1691 JUMPI PUSH1 0x40 MLOAD PUSH32 0x8C379A000000000000000000000000000000000000000000000000000000000 DUP2 MSTORE PUSH1 0x4 ADD PUSH2 0x1688 SWAP1 PUSH2 0x6CFF JUMP JUMPDEST PUSH1 0x40 MLOAD DUP1 SWAP2 SUB SWAP1 REVERT JUMPDEST PUSH2 0x16A9 DUP3 DUP3 CALLER PUSH1 0xC PUSH2 0x4AEA SWAP1 SWAP4 SWAP3 SWAP2 SWAP1 PUSH4 0xFFFFFFFF AND JUMP JUMPDEST PUSH2 0x16FC DUP3 DUP3 PUSH1 0xA PUSH1 0x0 CALLER PUSH20 0xFFFFFFFFFFFFFFFFFFFFFFFFFFFFFFFFFFFFFFFF AND PUSH20 0xFFFFFFFFFFFFFFFFFFFFFFFFFFFFFFFFFFFFFFFF AND DUP2 MSTORE PUSH1 0x20 ADD SWAP1 DUP2 MSTORE PUSH1 0x20 ADD PUSH1 0x0 KECCAK256 PUSH2 0x44CE SWAP1 SWAP3 SWAP2 SWAP1 PUSH4 0xFFFFFFFF AND JUMP JUMPDEST CALLER PUSH20 0xFFFFFFFFFFFFFFFFFFFFFFFFFFFFFFFFFFFFFFFF AND PUSH32 0x48BC22B3EAB0C993CD29049A8E0A06FA00E13EC87407C1EABD56C3100205D6AD DUP4 DUP4 PUSH1 0x40 MLOAD PUSH2 0x1744 SWAP3 SWAP2 SWAP1 PUSH2 0x748B JUMP JUMPDEST PUSH1 0x40 MLOAD DUP1 SWAP2 SUB SWAP1 LOG2 POP POP JUMP JUMPDEST PUSH1 0x60 PUSH1 0xA PUSH1 0x0 CALLER PUSH20 0xFFFFFFFFFFFFFFFFFFFFFFFFFFFFFFFFFFFFFFFF AND PUSH20 0xFFFFFFFFFFFFFFFFFFFFFFFFFFFFFFFFFFFFFFFF AND DUP2 MSTORE PUSH1 0x20 ADD SWAP1 DUP2 MSTORE PUSH1 0x20 ADD PUSH1 0x0 KECCAK256 PUSH1 0x7 ADD PUSH1 0x0 SWAP1 SLOAD SWAP1 PUSH2 0x100 EXP SWAP1 DIV PUSH1 0xFF AND PUSH2 0x17E1 JUMPI PUSH1 0x40 MLOAD PUSH32 0x8C379A000000000000000000000000000000000000000000000000000000000 DUP2 MSTORE PUSH1 0x4 ADD PUSH2 0x17D8 SWAP1 PUSH2 0x6CFF JUMP JUMPDEST PUSH1 0x40 MLOAD DUP1 SWAP2 SUB SWAP1 REVERT JUMPDEST PUSH1 0xA PUSH1 0x0 DUP4 PUSH20 0xFFFFFFFFFFFFFFFFFFFFFFFFFFFFFFFFFFFFFFFF AND PUSH20 0xFFFFFFFFFFFFFFFFFFFFFFFFFFFFFFFFFFFFFFFF AND DUP2 MSTORE PUSH1 0x20 ADD SWAP1 DUP2 MSTORE PUSH1 0x20 ADD PUSH1 0x0 KECCAK256 PUSH1 0x4 ADD DUP1 SLOAD DUP1 PUSH1 0x20 MUL PUSH1 0x20 ADD PUSH1 0x40 MLOAD SWAP1 DUP2 ADD PUSH1 0x40 MSTORE DUP1 SWAP3 SWAP2 SWAP1 DUP2 DUP2 MSTORE PUSH1 0x20 ADD PUSH1 0x0 SWAP1 JUMPDEST DUP3 DUP3 LT ISZERO PUSH2 0x1911 JUMPI DUP4 DUP3 SWAP1 PUSH1 0x0 MSTORE PUSH1 0x20 PUSH1 0x0 KECCAK256 SWAP1 PUSH1 0x2 MUL ADD PUSH1 0x40 MLOAD DUP1 PUSH1 0x40 ADD PUSH1 0x40 MSTORE SWAP1 DUP2 PUSH1 0x0 DUP3 ADD DUP1 SLOAD PUSH2 0x1876 SWAP1 PUSH2 0x6ACC JUMP JUMPDEST DUP1 PUSH1 0x1F ADD PUSH1 0x20 DUP1 SWAP2 DIV MUL PUSH1 0x20 ADD PUSH1 0x40 MLOAD SWAP1 DUP2 ADD PUSH1 0x40 MSTORE DUP1 SWAP3 SWAP2 SWAP1 DUP2 DUP2 MSTORE PUSH1 0x20 ADD DUP3 DUP1 SLOAD PUSH2 0x18A2 SWAP1 PUSH2 0x6ACC JUMP JUMPDEST DUP1 ISZERO PUSH2 0x18EF JUMPI DUP1 PUSH1 0x1F LT PUSH2 0x18C4 JUMPI PUSH2 0x100 DUP1 DUP4 SLOAD DIV MUL DUP4 MSTORE SWAP2 PUSH1 0x20 ADD SWAP2 PUSH2 0x18EF JUMP JUMPDEST DUP3 ADD SWAP2 SWAP1 PUSH1 0x0 MSTORE PUSH1 0x20 PUSH1 0x0 KECCAK256 SWAP1 JUMPDEST DUP2 SLOAD DUP2 MSTORE SWAP1 PUSH1 0x1 ADD SWAP1 PUSH1 0x20 ADD DUP1 DUP4 GT PUSH2 0x18D2 JUMPI DUP3 SWAP1 SUB PUSH1 0x1F AND DUP3 ADD SWAP2 JUMPDEST POP POP POP POP POP DUP2 MSTORE PUSH1 0x20 ADD PUSH1 0x1 DUP3 ADD SLOAD DUP2 MSTORE POP POP DUP2 MSTORE PUSH1 0x20 ADD SWAP1 PUSH1 0x1 ADD SWAP1 PUSH2 0x1843 JUMP JUMPDEST POP POP POP POP SWAP1 POP SWAP2 SWAP1 POP JUMP JUMPDEST PUSH1 0x0 PUSH1 0xE DUP1 SLOAD SWAP1 POP SWAP1 POP SWAP1 JUMP JUMPDEST PUSH2 0x1931 PUSH2 0x58F2 JUMP JUMPDEST PUSH2 0x1947 DUP4 DUP4 PUSH1 0xC PUSH2 0x4CB1 SWAP1 SWAP3 SWAP2 SWAP1 PUSH4 0xFFFFFFFF AND JUMP JUMPDEST PUSH2 0x1986 JUMPI PUSH1 0x40 MLOAD PUSH32 0x8C379A000000000000000000000000000000000000000000000000000000000 DUP2 MSTORE PUSH1 0x4 ADD PUSH2 0x197D SWAP1 PUSH2 0x74FB JUMP JUMPDEST PUSH1 0x40 MLOAD DUP1 SWAP2 SUB SWAP1 REVERT JUMPDEST PUSH1 0xC DUP4 DUP4 PUSH1 0x40 MLOAD PUSH2 0x1998 SWAP3 SWAP2 SWAP1 PUSH2 0x70B9 JUMP JUMPDEST SWAP1 DUP2 MSTORE PUSH1 0x20 ADD PUSH1 0x40 MLOAD DUP1 SWAP2 SUB SWAP1 KECCAK256 PUSH1 0x40 MLOAD DUP1 PUSH1 0xC0 ADD PUSH1 0x40 MSTORE SWAP1 DUP2 PUSH1 0x0 DUP3 ADD DUP1 SLOAD PUSH2 0x19C1 SWAP1 PUSH2 0x6ACC JUMP JUMPDEST DUP1 PUSH1 0x1F ADD PUSH1 0x20 DUP1 SWAP2 DIV MUL PUSH1 0x20 ADD PUSH1 0x40 MLOAD SWAP1 DUP2 ADD PUSH1 0x40 MSTORE DUP1 SWAP3 SWAP2 SWAP1 DUP2 DUP2 MSTORE PUSH1 0x20 ADD DUP3 DUP1 SLOAD PUSH2 0x19ED SWAP1 PUSH2 0x6ACC JUMP JUMPDEST DUP1 ISZERO PUSH2 0x1A3A JUMPI DUP1 PUSH1 0x1F LT PUSH2 0x1A0F JUMPI PUSH2 0x100 DUP1 DUP4 SLOAD DIV MUL DUP4 MSTORE SWAP2 PUSH1 0x20 ADD SWAP2 PUSH2 0x1A3A JUMP JUMPDEST DUP3 ADD SWAP2 SWAP1 PUSH1 0x0 MSTORE PUSH1 0x20 PUSH1 0x0 KECCAK256 SWAP1 JUMPDEST DUP2 SLOAD DUP2 MSTORE SWAP1 PUSH1 0x1 ADD SWAP1 PUSH1 0x20 ADD DUP1 DUP4 GT PUSH2 0x1A1D JUMPI DUP3 SWAP1 SUB PUSH1 0x1F AND DUP3 ADD SWAP2 JUMPDEST POP POP POP POP POP DUP2 MSTORE PUSH1 0x20 ADD PUSH1 0x1 DUP3 ADD DUP1 SLOAD PUSH2 0x1A53 SWAP1 PUSH2 0x6ACC JUMP JUMPDEST DUP1 PUSH1 0x1F ADD PUSH1 0x20 DUP1 SWAP2 DIV MUL PUSH1 0x20 ADD PUSH1 0x40 MLOAD SWAP1 DUP2 ADD PUSH1 0x40 MSTORE DUP1 SWAP3 SWAP2 SWAP1 DUP2 DUP2 MSTORE PUSH1 0x20 ADD DUP3 DUP1 SLOAD PUSH2 0x1A7F SWAP1 PUSH2 0x6ACC JUMP JUMPDEST DUP1 ISZERO PUSH2 0x1ACC JUMPI DUP1 PUSH1 0x1F LT PUSH2 0x1AA1 JUMPI PUSH2 0x100 DUP1 DUP4 SLOAD DIV MUL DUP4 MSTORE SWAP2 PUSH1 0x20 ADD SWAP2 PUSH2 0x1ACC JUMP JUMPDEST DUP3 ADD SWAP2 SWAP1 PUSH1 0x0 MSTORE PUSH1 0x20 PUSH1 0x0 KECCAK256 SWAP1 JUMPDEST DUP2 SLOAD DUP2 MSTORE SWAP1 PUSH1 0x1 ADD SWAP1 PUSH1 0x20 ADD DUP1 DUP4 GT PUSH2 0x1AAF JUMPI DUP3 SWAP1 SUB PUSH1 0x1F AND DUP3 ADD SWAP2 JUMPDEST POP POP POP POP POP DUP2 MSTORE PUSH1 0x20 ADD PUSH1 0x2 DUP3 ADD DUP1 SLOAD PUSH2 0x1AE5 SWAP1 PUSH2 0x6ACC JUMP JUMPDEST DUP1 PUSH1 0x1F ADD PUSH1 0x20 DUP1 SWAP2 DIV MUL PUSH1 0x20 ADD PUSH1 0x40 MLOAD SWAP1 DUP2 ADD PUSH1 0x40 MSTORE DUP1 SWAP3 SWAP2 SWAP1 DUP2 DUP2 MSTORE PUSH1 0x20 ADD DUP3 DUP1 SLOAD PUSH2 0x1B11 SWAP1 PUSH2 0x6ACC JUMP JUMPDEST DUP1 ISZERO PUSH2 0x1B5E JUMPI DUP1 PUSH1 0x1F LT PUSH2 0x1B33 JUMPI PUSH2 0x100 DUP1 DUP4 SLOAD DIV MUL DUP4 MSTORE SWAP2 PUSH1 0x20 ADD SWAP2 PUSH2 0x1B5E JUMP JUMPDEST DUP3 ADD SWAP2 SWAP1 PUSH1 0x0 MSTORE PUSH1 0x20 PUSH1 0x0 KECCAK256 SWAP1 JUMPDEST DUP2 SLOAD DUP2 MSTORE SWAP1 PUSH1 0x1 ADD SWAP1 PUSH1 0x20 ADD DUP1 DUP4 GT PUSH2 0x1B41 JUMPI DUP3 SWAP1 SUB PUSH1 0x1F AND DUP3 ADD SWAP2 JUMPDEST POP POP POP POP POP DUP2 MSTORE PUSH1 0x20 ADD PUSH1 0x3 DUP3 ADD PUSH1 0x0 SWAP1 SLOAD SWAP1 PUSH2 0x100 EXP SWAP1 DIV PUSH20 0xFFFFFFFFFFFFFFFFFFFFFFFFFFFFFFFFFFFFFFFF AND PUSH20 0xFFFFFFFFFFFFFFFFFFFFFFFFFFFFFFFFFFFFFFFF AND PUSH20 0xFFFFFFFFFFFFFFFFFFFFFFFFFFFFFFFFFFFFFFFF AND DUP2 MSTORE PUSH1 0x20 ADD PUSH1 0x4 DUP3 ADD SLOAD DUP2 MSTORE PUSH1 0x20 ADD PUSH1 0x5 DUP3 ADD DUP1 SLOAD DUP1 PUSH1 0x20 MUL PUSH1 0x20 ADD PUSH1 0x40 MLOAD SWAP1 DUP2 ADD PUSH1 0x40 MSTORE DUP1 SWAP3 SWAP2 SWAP1 DUP2 DUP2 MSTORE PUSH1 0x20 ADD DUP3 DUP1 SLOAD DUP1 ISZERO PUSH2 0x1C4C JUMPI PUSH1 0x20 MUL DUP3 ADD SWAP2 SWAP1 PUSH1 0x0 MSTORE PUSH1 0x20 PUSH1 0x0 KECCAK256 SWAP1 JUMPDEST DUP2 PUSH1 0x0 SWAP1 SLOAD SWAP1 PUSH2 0x100 EXP SWAP1 DIV PUSH20 0xFFFFFFFFFFFFFFFFFFFFFFFFFFFFFFFFFFFFFFFF AND PUSH20 0xFFFFFFFFFFFFFFFFFFFFFFFFFFFFFFFFFFFFFFFF AND DUP2 MSTORE PUSH1 0x20 ADD SWAP1 PUSH1 0x1 ADD SWAP1 DUP1 DUP4 GT PUSH2 0x1C02 JUMPI JUMPDEST POP POP POP POP POP DUP2 MSTORE POP POP SWAP1 POP SWAP3 SWAP2 POP POP JUMP JUMPDEST PUSH1 0xA PUSH1 0x0 CALLER PUSH20 0xFFFFFFFFFFFFFFFFFFFFFFFFFFFFFFFFFFFFFFFF AND PUSH20 0xFFFFFFFFFFFFFFFFFFFFFFFFFFFFFFFFFFFFFFFF AND DUP2 MSTORE PUSH1 0x20 ADD SWAP1 DUP2 MSTORE PUSH1 0x20 ADD PUSH1 0x0 KECCAK256 PUSH1 0x7 ADD PUSH1 0x0 SWAP1 SLOAD SWAP1 PUSH2 0x100 EXP SWAP1 DIV PUSH1 0xFF AND PUSH2 0x1CEC JUMPI PUSH1 0x40 MLOAD PUSH32 0x8C379A000000000000000000000000000000000000000000000000000000000 DUP2 MSTORE PUSH1 0x4 ADD PUSH2 0x1CE3 SWAP1 PUSH2 0x6CFF JUMP JUMPDEST PUSH1 0x40 MLOAD DUP1 SWAP2 SUB SWAP1 REVERT JUMPDEST PUSH2 0x1D3F DUP3 DUP3 PUSH1 0xA PUSH1 0x0 CALLER PUSH20 0xFFFFFFFFFFFFFFFFFFFFFFFFFFFFFFFFFFFFFFFF AND PUSH20 0xFFFFFFFFFFFFFFFFFFFFFFFFFFFFFFFFFFFFFFFF AND DUP2 MSTORE PUSH1 0x20 ADD SWAP1 DUP2 MSTORE PUSH1 0x20 ADD PUSH1 0x0 KECCAK256 PUSH2 0x4CED SWAP1 SWAP3 SWAP2 SWAP1 PUSH4 0xFFFFFFFF AND JUMP JUMPDEST CALLER PUSH20 0xFFFFFFFFFFFFFFFFFFFFFFFFFFFFFFFFFFFFFFFF AND PUSH32 0xFB02F8B5008BB4E6551AC10938980A836239B9187014AD8BD7D4166234196A99 DUP4 DUP4 PUSH1 0x40 MLOAD PUSH2 0x1D87 SWAP3 SWAP2 SWAP1 PUSH2 0x748B JUMP JUMPDEST PUSH1 0x40 MLOAD DUP1 SWAP2 SUB SWAP1 LOG2 POP POP JUMP JUMPDEST PUSH1 0x0 DUP1 PUSH1 0x2 PUSH1 0x0 DUP5 DUP2 MSTORE PUSH1 0x20 ADD SWAP1 DUP2 MSTORE PUSH1 0x20 ADD PUSH1 0x0 KECCAK256 PUSH1 0x0 SWAP1 SLOAD SWAP1 PUSH2 0x100 EXP SWAP1 DIV PUSH20 0xFFFFFFFFFFFFFFFFFFFFFFFFFFFFFFFFFFFFFFFF AND SWAP1 POP PUSH1 0x0 PUSH20 0xFFFFFFFFFFFFFFFFFFFFFFFFFFFFFFFFFFFFFFFF AND DUP2 PUSH20 0xFFFFFFFFFFFFFFFFFFFFFFFFFFFFFFFFFFFFFFFF AND SUB PUSH2 0x1E3B JUMPI PUSH1 0x40 MLOAD PUSH32 0x8C379A000000000000000000000000000000000000000000000000000000000 DUP2 MSTORE PUSH1 0x4 ADD PUSH2 0x1E32 SWAP1 PUSH2 0x758D JUMP JUMPDEST PUSH1 0x40 MLOAD DUP1 SWAP2 SUB SWAP1 REVERT JUMPDEST DUP1 SWAP2 POP POP SWAP2 SWAP1 POP JUMP JUMPDEST PUSH2 0x1E4C PUSH2 0x41FF JUMP JUMPDEST PUSH20 0xFFFFFFFFFFFFFFFFFFFFFFFFFFFFFFFFFFFFFFFF AND PUSH2 0x1E6A PUSH2 0x276E JUMP JUMPDEST PUSH20 0xFFFFFFFFFFFFFFFFFFFFFFFFFFFFFFFFFFFFFFFF AND EQ PUSH2 0x1EC0 JUMPI PUSH1 0x40 MLOAD PUSH32 0x8C379A000000000000000000000000000000000000000000000000000000000 DUP2 MSTORE PUSH1 0x4 ADD PUSH2 0x1EB7 SWAP1 PUSH2 0x734D JUMP JUMPDEST PUSH1 0x40 MLOAD DUP1 SWAP2 SUB SWAP1 REVERT JUMPDEST PUSH1 0x0 SELFBALANCE SWAP1 POP PUSH1 0x0 DUP2 GT PUSH2 0x1F08 JUMPI PUSH1 0x40 MLOAD PUSH32 0x8C379A000000000000000000000000000000000000000000000000000000000 DUP2 MSTORE PUSH1 0x4 ADD PUSH2 0x1EFF SWAP1 PUSH2 0x73B9 JUMP JUMPDEST PUSH1 0x40 MLOAD DUP1 SWAP2 SUB SWAP1 REVERT JUMPDEST PUSH1 0x0 DUP3 PUSH20 0xFFFFFFFFFFFFFFFFFFFFFFFFFFFFFFFFFFFFFFFF AND DUP3 PUSH1 0x40 MLOAD PUSH2 0x1F2E SWAP1 PUSH2 0x740A JUMP JUMPDEST PUSH1 0x0 PUSH1 0x40 MLOAD DUP1 DUP4 SUB DUP2 DUP6 DUP8 GAS CALL SWAP3 POP POP POP RETURNDATASIZE DUP1 PUSH1 0x0 DUP2 EQ PUSH2 0x1F6B JUMPI PUSH1 0x40 MLOAD SWAP2 POP PUSH1 0x1F NOT PUSH1 0x3F RETURNDATASIZE ADD AND DUP3 ADD PUSH1 0x40 MSTORE RETURNDATASIZE DUP3 MSTORE RETURNDATASIZE PUSH1 0x0 PUSH1 0x20 DUP5 ADD RETURNDATACOPY PUSH2 0x1F70 JUMP JUMPDEST PUSH1 0x60 SWAP2 POP JUMPDEST POP POP SWAP1 POP DUP1 PUSH2 0x1FB4 JUMPI PUSH1 0x40 MLOAD PUSH32 0x8C379A000000000000000000000000000000000000000000000000000000000 DUP2 MSTORE PUSH1 0x4 ADD PUSH2 0x1FAB SWAP1 PUSH2 0x75F9 JUMP JUMPDEST PUSH1 0x40 MLOAD DUP1 SWAP2 SUB SWAP1 REVERT JUMPDEST POP POP POP JUMP JUMPDEST PUSH1 0xA PUSH1 0x0 CALLER PUSH20 0xFFFFFFFFFFFFFFFFFFFFFFFFFFFFFFFFFFFFFFFF AND PUSH20 0xFFFFFFFFFFFFFFFFFFFFFFFFFFFFFFFFFFFFFFFF AND DUP2 MSTORE PUSH1 0x20 ADD SWAP1 DUP2 MSTORE PUSH1 0x20 ADD PUSH1 0x0 KECCAK256 PUSH1 0x7 ADD PUSH1 0x0 SWAP1 SLOAD SWAP1 PUSH2 0x100 EXP SWAP1 DIV PUSH1 0xFF AND ISZERO PUSH2 0x2049 JUMPI PUSH1 0x40 MLOAD PUSH32 0x8C379A000000000000000000000000000000000000000000000000000000000 DUP2 MSTORE PUSH1 0x4 ADD PUSH2 0x2040 SWAP1 PUSH2 0x7665 JUMP JUMPDEST PUSH1 0x40 MLOAD DUP1 SWAP2 SUB SWAP1 REVERT JUMPDEST PUSH1 0x0 DUP3 DUP3 SWAP1 POP GT PUSH2 0x208F JUMPI PUSH1 0x40 MLOAD PUSH32 0x8C379A000000000000000000000000000000000000000000000000000000000 DUP2 MSTORE PUSH1 0x4 ADD PUSH2 0x2086 SWAP1 PUSH2 0x76D1 JUMP JUMPDEST PUSH1 0x40 MLOAD DUP1 SWAP2 SUB SWAP1 REVERT JUMPDEST PUSH1 0x0 PUSH1 0xA PUSH1 0x0 CALLER PUSH20 0xFFFFFFFFFFFFFFFFFFFFFFFFFFFFFFFFFFFFFFFF AND PUSH20 0xFFFFFFFFFFFFFFFFFFFFFFFFFFFFFFFFFFFFFFFF AND DUP2 MSTORE PUSH1 0x20 ADD SWAP1 DUP2 MSTORE PUSH1 0x20 ADD PUSH1 0x0 KECCAK256 SWAP1 POP PUSH1 0x1 DUP2 PUSH1 0x7 ADD PUSH1 0x0 PUSH2 0x100 EXP DUP2 SLOAD DUP2 PUSH1 0xFF MUL NOT AND SWAP1 DUP4 ISZERO ISZERO MUL OR SWAP1 SSTORE POP DUP3 DUP3 DUP3 PUSH1 0x0 ADD SWAP2 DUP3 PUSH2 0x2102 SWAP3 SWAP2 SWAP1 PUSH2 0x6FB9 JUMP JUMPDEST POP PUSH1 0xF CALLER SWAP1 DUP1 PUSH1 0x1 DUP2 SLOAD ADD DUP1 DUP3 SSTORE DUP1 SWAP2 POP POP PUSH1 0x1 SWAP1 SUB SWAP1 PUSH1 0x0 MSTORE PUSH1 0x20 PUSH1 0x0 KECCAK256 ADD PUSH1 0x0 SWAP1 SWAP2 SWAP1 SWAP2 SWAP1 SWAP2 PUSH2 0x100 EXP DUP2 SLOAD DUP2 PUSH20 0xFFFFFFFFFFFFFFFFFFFFFFFFFFFFFFFFFFFFFFFF MUL NOT AND SWAP1 DUP4 PUSH20 0xFFFFFFFFFFFFFFFFFFFFFFFFFFFFFFFFFFFFFFFF AND MUL OR SWAP1 SSTORE POP CALLER PUSH20 0xFFFFFFFFFFFFFFFFFFFFFFFFFFFFFFFFFFFFFFFF AND PUSH32 0x48CAC28AD4DC618E15F4C2DD5E97751182F166DE97B25618318B2112AA951A2F DUP5 DUP5 PUSH1 0x40 MLOAD PUSH2 0x21AE SWAP3 SWAP2 SWAP1 PUSH2 0x748B JUMP JUMPDEST PUSH1 0x40 MLOAD DUP1 SWAP2 SUB SWAP1 LOG2 POP POP POP JUMP JUMPDEST PUSH2 0x21C3 PUSH2 0x41FF JUMP JUMPDEST PUSH20 0xFFFFFFFFFFFFFFFFFFFFFFFFFFFFFFFFFFFFFFFF AND PUSH2 0x21E1 PUSH2 0x276E JUMP JUMPDEST PUSH20 0xFFFFFFFFFFFFFFFFFFFFFFFFFFFFFFFFFFFFFFFF AND EQ PUSH2 0x2237 JUMPI PUSH1 0x40 MLOAD PUSH32 0x8C379A000000000000000000000000000000000000000000000000000000000 DUP2 MSTORE PUSH1 0x4 ADD PUSH2 0x222E SWAP1 PUSH2 0x734D JUMP JUMPDEST PUSH1 0x40 MLOAD DUP1 SWAP2 SUB SWAP1 REVERT JUMPDEST PUSH2 0x224D DUP3 DUP3 PUSH1 0xB PUSH2 0x4D4C SWAP1 SWAP3 SWAP2 SWAP1 PUSH4 0xFFFFFFFF AND JUMP JUMPDEST PUSH2 0x2263 DUP3 DUP3 PUSH1 0xE PUSH2 0x4E0E SWAP1 SWAP3 SWAP2 SWAP1 PUSH4 0xFFFFFFFF AND JUMP JUMPDEST POP POP JUMP JUMPDEST PUSH1 0x0 DUP1 PUSH20 0xFFFFFFFFFFFFFFFFFFFFFFFFFFFFFFFFFFFFFFFF AND DUP3 PUSH20 0xFFFFFFFFFFFFFFFFFFFFFFFFFFFFFFFFFFFFFFFF AND SUB PUSH2 0x22D7 JUMPI PUSH1 0x40 MLOAD PUSH32 0x8C379A000000000000000000000000000000000000000000000000000000000 DUP2 MSTORE PUSH1 0x4 ADD PUSH2 0x22CE SWAP1 PUSH2 0x7763 JUMP JUMPDEST PUSH1 0x40 MLOAD DUP1 SWAP2 SUB SWAP1 REVERT JUMPDEST PUSH1 0x3 PUSH1 0x0 DUP4 PUSH20 0xFFFFFFFFFFFFFFFFFFFFFFFFFFFFFFFFFFFFFFFF AND PUSH20 0xFFFFFFFFFFFFFFFFFFFFFFFFFFFFFFFFFFFFFFFF AND DUP2 MSTORE PUSH1 0x20 ADD SWAP1 DUP2 MSTORE PUSH1 0x20 ADD PUSH1 0x0 KECCAK256 SLOAD SWAP1 POP SWAP2 SWAP1 POP JUMP JUMPDEST PUSH2 0x2326 PUSH2 0x41FF JUMP JUMPDEST PUSH20 0xFFFFFFFFFFFFFFFFFFFFFFFFFFFFFFFFFFFFFFFF AND PUSH2 0x2344 PUSH2 0x276E JUMP JUMPDEST PUSH20 0xFFFFFFFFFFFFFFFFFFFFFFFFFFFFFFFFFFFFFFFF AND EQ PUSH2 0x239A JUMPI PUSH1 0x40 MLOAD PUSH32 0x8C379A000000000000000000000000000000000000000000000000000000000 DUP2 MSTORE PUSH1 0x4 ADD PUSH2 0x2391 SWAP1 PUSH2 0x734D JUMP JUMPDEST PUSH1 0x40 MLOAD DUP1 SWAP2 SUB SWAP1 REVERT JUMPDEST PUSH2 0x23A4 PUSH1 0x0 PUSH2 0x4F10 JUMP JUMPDEST JUMP JUMPDEST PUSH1 0x60 PUSH1 0xA PUSH1 0x0 CALLER PUSH20 0xFFFFFFFFFFFFFFFFFFFFFFFFFFFFFFFFFFFFFFFF AND PUSH20 0xFFFFFFFFFFFFFFFFFFFFFFFFFFFFFFFFFFFFFFFF AND DUP2 MSTORE PUSH1 0x20 ADD SWAP1 DUP2 MSTORE PUSH1 0x20 ADD PUSH1 0x0 KECCAK256 PUSH1 0x7 ADD PUSH1 0x0 SWAP1 SLOAD SWAP1 PUSH2 0x100 EXP SWAP1 DIV PUSH1 0xFF AND PUSH2 0x2437 JUMPI PUSH1 0x40 MLOAD PUSH32 0x8C379A000000000000000000000000000000000000000000000000000000000 DUP2 MSTORE PUSH1 0x4 ADD PUSH2 0x242E SWAP1 PUSH2 0x6CFF JUMP JUMPDEST PUSH1 0x40 MLOAD DUP1 SWAP2 SUB SWAP1 REVERT JUMPDEST PUSH1 0xA PUSH1 0x0 CALLER PUSH20 0xFFFFFFFFFFFFFFFFFFFFFFFFFFFFFFFFFFFFFFFF AND PUSH20 0xFFFFFFFFFFFFFFFFFFFFFFFFFFFFFFFFFFFFFFFF AND DUP2 MSTORE PUSH1 0x20 ADD SWAP1 DUP2 MSTORE PUSH1 0x20 ADD PUSH1 0x0 KECCAK256 PUSH1 0x8 ADD DUP1 SLOAD DUP1 PUSH1 0x20 MUL PUSH1 0x20 ADD PUSH1 0x40 MLOAD SWAP1 DUP2 ADD PUSH1 0x40 MSTORE DUP1 SWAP3 SWAP2 SWAP1 DUP2 DUP2 MSTORE PUSH1 0x20 ADD PUSH1 0x0 SWAP1 JUMPDEST DUP3 DUP3 LT ISZERO PUSH2 0x2545 JUMPI DUP4 DUP3 SWAP1 PUSH1 0x0 MSTORE PUSH1 0x20 PUSH1 0x0 KECCAK256 ADD DUP1 SLOAD PUSH2 0x24B8 SWAP1 PUSH2 0x6ACC JUMP JUMPDEST DUP1 PUSH1 0x1F ADD PUSH1 0x20 DUP1 SWAP2 DIV MUL PUSH1 0x20 ADD PUSH1 0x40 MLOAD SWAP1 DUP2 ADD PUSH1 0x40 MSTORE DUP1 SWAP3 SWAP2 SWAP1 DUP2 DUP2 MSTORE PUSH1 0x20 ADD DUP3 DUP1 SLOAD PUSH2 0x24E4 SWAP1 PUSH2 0x6ACC JUMP JUMPDEST DUP1 ISZERO PUSH2 0x2531 JUMPI DUP1 PUSH1 0x1F LT PUSH2 0x2506 JUMPI PUSH2 0x100 DUP1 DUP4 SLOAD DIV MUL DUP4 MSTORE SWAP2 PUSH1 0x20 ADD SWAP2 PUSH2 0x2531 JUMP JUMPDEST DUP3 ADD SWAP2 SWAP1 PUSH1 0x0 MSTORE PUSH1 0x20 PUSH1 0x0 KECCAK256 SWAP1 JUMPDEST DUP2 SLOAD DUP2 MSTORE SWAP1 PUSH1 0x1 ADD SWAP1 PUSH1 0x20 ADD DUP1 DUP4 GT PUSH2 0x2514 JUMPI DUP3 SWAP1 SUB PUSH1 0x1F AND DUP3 ADD SWAP2 JUMPDEST POP POP POP POP POP DUP2 MSTORE PUSH1 0x20 ADD SWAP1 PUSH1 0x1 ADD SWAP1 PUSH2 0x2499 JUMP JUMPDEST POP POP POP POP SWAP1 POP SWAP1 JUMP JUMPDEST PUSH2 0x2556 PUSH2 0x593E JUMP JUMPDEST PUSH2 0x256C DUP4 DUP4 PUSH1 0xB PUSH2 0x42C0 SWAP1 SWAP3 SWAP2 SWAP1 PUSH4 0xFFFFFFFF AND JUMP JUMPDEST PUSH2 0x25AB JUMPI PUSH1 0x40 MLOAD PUSH32 0x8C379A000000000000000000000000000000000000000000000000000000000 DUP2 MSTORE PUSH1 0x4 ADD PUSH2 0x25A2 SWAP1 PUSH2 0x6D6B JUMP JUMPDEST PUSH1 0x40 MLOAD DUP1 SWAP2 SUB SWAP1 REVERT JUMPDEST PUSH1 0xB DUP4 DUP4 PUSH1 0x40 MLOAD PUSH2 0x25BD SWAP3 SWAP2 SWAP1 PUSH2 0x70B9 JUMP JUMPDEST SWAP1 DUP2 MSTORE PUSH1 0x20 ADD PUSH1 0x40 MLOAD DUP1 SWAP2 SUB SWAP1 KECCAK256 PUSH1 0x40 MLOAD DUP1 PUSH1 0x60 ADD PUSH1 0x40 MSTORE SWAP1 DUP2 PUSH1 0x0 DUP3 ADD DUP1 SLOAD PUSH2 0x25E6 SWAP1 PUSH2 0x6ACC JUMP JUMPDEST DUP1 PUSH1 0x1F ADD PUSH1 0x20 DUP1 SWAP2 DIV MUL PUSH1 0x20 ADD PUSH1 0x40 MLOAD SWAP1 DUP2 ADD PUSH1 0x40 MSTORE DUP1 SWAP3 SWAP2 SWAP1 DUP2 DUP2 MSTORE PUSH1 0x20 ADD DUP3 DUP1 SLOAD PUSH2 0x2612 SWAP1 PUSH2 0x6ACC JUMP JUMPDEST DUP1 ISZERO PUSH2 0x265F JUMPI DUP1 PUSH1 0x1F LT PUSH2 0x2634 JUMPI PUSH2 0x100 DUP1 DUP4 SLOAD DIV MUL DUP4 MSTORE SWAP2 PUSH1 0x20 ADD SWAP2 PUSH2 0x265F JUMP JUMPDEST DUP3 ADD SWAP2 SWAP1 PUSH1 0x0 MSTORE PUSH1 0x20 PUSH1 0x0 KECCAK256 SWAP1 JUMPDEST DUP2 SLOAD DUP2 MSTORE SWAP1 PUSH1 0x1 ADD SWAP1 PUSH1 0x20 ADD DUP1 DUP4 GT PUSH2 0x2642 JUMPI DUP3 SWAP1 SUB PUSH1 0x1F AND DUP3 ADD SWAP2 JUMPDEST POP POP POP POP POP DUP2 MSTORE PUSH1 0x20 ADD PUSH1 0x1 DUP3 ADD SLOAD DUP2 MSTORE PUSH1 0x20 ADD PUSH1 0x2 DUP3 ADD PUSH1 0x0 SWAP1 SLOAD SWAP1 PUSH2 0x100 EXP SWAP1 DIV PUSH1 0xFF AND ISZERO ISZERO ISZERO ISZERO DUP2 MSTORE POP POP SWAP1 POP SWAP3 SWAP2 POP POP JUMP JUMPDEST PUSH1 0x60 PUSH1 0x10 DUP1 SLOAD DUP1 PUSH1 0x20 MUL PUSH1 0x20 ADD PUSH1 0x40 MLOAD SWAP1 DUP2 ADD PUSH1 0x40 MSTORE DUP1 SWAP3 SWAP2 SWAP1 DUP2 DUP2 MSTORE PUSH1 0x20 ADD PUSH1 0x0 SWAP1 JUMPDEST DUP3 DUP3 LT ISZERO PUSH2 0x2765 JUMPI DUP4 DUP3 SWAP1 PUSH1 0x0 MSTORE PUSH1 0x20 PUSH1 0x0 KECCAK256 ADD DUP1 SLOAD PUSH2 0x26D8 SWAP1 PUSH2 0x6ACC JUMP JUMPDEST DUP1 PUSH1 0x1F ADD PUSH1 0x20 DUP1 SWAP2 DIV MUL PUSH1 0x20 ADD PUSH1 0x40 MLOAD SWAP1 DUP2 ADD PUSH1 0x40 MSTORE DUP1 SWAP3 SWAP2 SWAP1 DUP2 DUP2 MSTORE PUSH1 0x20 ADD DUP3 DUP1 SLOAD PUSH2 0x2704 SWAP1 PUSH2 0x6ACC JUMP JUMPDEST DUP1 ISZERO PUSH2 0x2751 JUMPI DUP1 PUSH1 0x1F LT PUSH2 0x2726 JUMPI PUSH2 0x100 DUP1 DUP4 SLOAD DIV MUL DUP4 MSTORE SWAP2 PUSH1 0x20 ADD SWAP2 PUSH2 0x2751 JUMP JUMPDEST DUP3 ADD SWAP2 SWAP1 PUSH1 0x0 MSTORE PUSH1 0x20 PUSH1 0x0 KECCAK256 SWAP1 JUMPDEST DUP2 SLOAD DUP2 MSTORE SWAP1 PUSH1 0x1 ADD SWAP1 PUSH1 0x20 ADD DUP1 DUP4 GT PUSH2 0x2734 JUMPI DUP3 SWAP1 SUB PUSH1 0x1F AND DUP3 ADD SWAP2 JUMPDEST POP POP POP POP POP DUP2 MSTORE PUSH1 0x20 ADD SWAP1 PUSH1 0x1 ADD SWAP1 PUSH2 0x26B9 JUMP JUMPDEST POP POP POP POP SWAP1 POP SWAP1 JUMP JUMPDEST PUSH1 0x0 PUSH1 0x6 PUSH1 0x0 SWAP1 SLOAD SWAP1 PUSH2 0x100 EXP SWAP1 DIV PUSH20 0xFFFFFFFFFFFFFFFFFFFFFFFFFFFFFFFFFFFFFFFF AND SWAP1 POP SWAP1 JUMP JUMPDEST PUSH1 0xA PUSH1 0x0 CALLER PUSH20 0xFFFFFFFFFFFFFFFFFFFFFFFFFFFFFFFFFFFFFFFF AND PUSH20 0xFFFFFFFFFFFFFFFFFFFFFFFFFFFFFFFFFFFFFFFF AND DUP2 MSTORE PUSH1 0x20 ADD SWAP1 DUP2 MSTORE PUSH1 0x20 ADD PUSH1 0x0 KECCAK256 PUSH1 0x7 ADD PUSH1 0x0 SWAP1 SLOAD SWAP1 PUSH2 0x100 EXP SWAP1 DIV PUSH1 0xFF AND PUSH2 0x2827 JUMPI PUSH1 0x40 MLOAD PUSH32 0x8C379A000000000000000000000000000000000000000000000000000000000 DUP2 MSTORE PUSH1 0x4 ADD PUSH2 0x281E SWAP1 PUSH2 0x6CFF JUMP JUMPDEST PUSH1 0x40 MLOAD DUP1 SWAP2 SUB SWAP1 REVERT JUMPDEST PUSH2 0x287A DUP3 DUP3 PUSH1 0xA PUSH1 0x0 CALLER PUSH20 0xFFFFFFFFFFFFFFFFFFFFFFFFFFFFFFFFFFFFFFFF AND PUSH20 0xFFFFFFFFFFFFFFFFFFFFFFFFFFFFFFFFFFFFFFFF AND DUP2 MSTORE PUSH1 0x20 ADD SWAP1 DUP2 MSTORE PUSH1 0x20 ADD PUSH1 0x0 KECCAK256 PUSH2 0x4FD6 SWAP1 SWAP3 SWAP2 SWAP1 PUSH4 0xFFFFFFFF AND JUMP JUMPDEST CALLER PUSH20 0xFFFFFFFFFFFFFFFFFFFFFFFFFFFFFFFFFFFFFFFF AND PUSH32 0x9FEA722A78BC03B22869A8FA8DB043E542F7B63A042973693E67DFB1C5BAAEA4 DUP4 DUP4 PUSH1 0x40 MLOAD PUSH2 0x28C2 SWAP3 SWAP2 SWAP1 PUSH2 0x748B JUMP JUMPDEST PUSH1 0x40 MLOAD DUP1 SWAP2 SUB SWAP1 LOG2 POP POP JUMP JUMPDEST PUSH2 0x28D6 PUSH2 0x5961 JUMP JUMPDEST PUSH1 0xA PUSH1 0x0 CALLER PUSH20 0xFFFFFFFFFFFFFFFFFFFFFFFFFFFFFFFFFFFFFFFF AND PUSH20 0xFFFFFFFFFFFFFFFFFFFFFFFFFFFFFFFFFFFFFFFF AND DUP2 MSTORE PUSH1 0x20 ADD SWAP1 DUP2 MSTORE PUSH1 0x20 ADD PUSH1 0x0 KECCAK256 PUSH1 0x7 ADD PUSH1 0x0 SWAP1 SLOAD SWAP1 PUSH2 0x100 EXP SWAP1 DIV PUSH1 0xFF AND PUSH2 0x2965 JUMPI PUSH1 0x40 MLOAD PUSH32 0x8C379A000000000000000000000000000000000000000000000000000000000 DUP2 MSTORE PUSH1 0x4 ADD PUSH2 0x295C SWAP1 PUSH2 0x6CFF JUMP JUMPDEST PUSH1 0x40 MLOAD DUP1 SWAP2 SUB SWAP1 REVERT JUMPDEST PUSH1 0xA PUSH1 0x0 CALLER PUSH20 0xFFFFFFFFFFFFFFFFFFFFFFFFFFFFFFFFFFFFFFFF AND PUSH20 0xFFFFFFFFFFFFFFFFFFFFFFFFFFFFFFFFFFFFFFFF AND DUP2 MSTORE PUSH1 0x20 ADD SWAP1 DUP2 MSTORE PUSH1 0x20 ADD PUSH1 0x0 KECCAK256 PUSH1 0x40 MLOAD DUP1 PUSH2 0x120 ADD PUSH1 0x40 MSTORE SWAP1 DUP2 PUSH1 0x0 DUP3 ADD DUP1 SLOAD PUSH2 0x29C0 SWAP1 PUSH2 0x6ACC JUMP JUMPDEST DUP1 PUSH1 0x1F ADD PUSH1 0x20 DUP1 SWAP2 DIV MUL PUSH1 0x20 ADD PUSH1 0x40 MLOAD SWAP1 DUP2 ADD PUSH1 0x40 MSTORE DUP1 SWAP3 SWAP2 SWAP1 DUP2 DUP2 MSTORE PUSH1 0x20 ADD DUP3 DUP1 SLOAD PUSH2 0x29EC SWAP1 PUSH2 0x6ACC JUMP JUMPDEST DUP1 ISZERO PUSH2 0x2A39 JUMPI DUP1 PUSH1 0x1F LT PUSH2 0x2A0E JUMPI PUSH2 0x100 DUP1 DUP4 SLOAD DIV MUL DUP4 MSTORE SWAP2 PUSH1 0x20 ADD SWAP2 PUSH2 0x2A39 JUMP JUMPDEST DUP3 ADD SWAP2 SWAP1 PUSH1 0x0 MSTORE PUSH1 0x20 PUSH1 0x0 KECCAK256 SWAP1 JUMPDEST DUP2 SLOAD DUP2 MSTORE SWAP1 PUSH1 0x1 ADD SWAP1 PUSH1 0x20 ADD DUP1 DUP4 GT PUSH2 0x2A1C JUMPI DUP3 SWAP1 SUB PUSH1 0x1F AND DUP3 ADD SWAP2 JUMPDEST POP POP POP POP POP DUP2 MSTORE PUSH1 0x20 ADD PUSH1 0x1 DUP3 ADD DUP1 SLOAD DUP1 PUSH1 0x20 MUL PUSH1 0x20 ADD PUSH1 0x40 MLOAD SWAP1 DUP2 ADD PUSH1 0x40 MSTORE DUP1 SWAP3 SWAP2 SWAP1 DUP2 DUP2 MSTORE PUSH1 0x20 ADD PUSH1 0x0 SWAP1 JUMPDEST DUP3 DUP3 LT ISZERO PUSH2 0x2B13 JUMPI DUP4 DUP3 SWAP1 PUSH1 0x0 MSTORE PUSH1 0x20 PUSH1 0x0 KECCAK256 ADD DUP1 SLOAD PUSH2 0x2A86 SWAP1 PUSH2 0x6ACC JUMP JUMPDEST DUP1 PUSH1 0x1F ADD PUSH1 0x20 DUP1 SWAP2 DIV MUL PUSH1 0x20 ADD PUSH1 0x40 MLOAD SWAP1 DUP2 ADD PUSH1 0x40 MSTORE DUP1 SWAP3 SWAP2 SWAP1 DUP2 DUP2 MSTORE PUSH1 0x20 ADD DUP3 DUP1 SLOAD PUSH2 0x2AB2 SWAP1 PUSH2 0x6ACC JUMP JUMPDEST DUP1 ISZERO PUSH2 0x2AFF JUMPI DUP1 PUSH1 0x1F LT PUSH2 0x2AD4 JUMPI PUSH2 0x100 DUP1 DUP4 SLOAD DIV MUL DUP4 MSTORE SWAP2 PUSH1 0x20 ADD SWAP2 PUSH2 0x2AFF JUMP JUMPDEST DUP3 ADD SWAP2 SWAP1 PUSH1 0x0 MSTORE PUSH1 0x20 PUSH1 0x0 KECCAK256 SWAP1 JUMPDEST DUP2 SLOAD DUP2 MSTORE SWAP1 PUSH1 0x1 ADD SWAP1 PUSH1 0x20 ADD DUP1 DUP4 GT PUSH2 0x2AE2 JUMPI DUP3 SWAP1 SUB PUSH1 0x1F AND DUP3 ADD SWAP2 JUMPDEST POP POP POP POP POP DUP2 MSTORE PUSH1 0x20 ADD SWAP1 PUSH1 0x1 ADD SWAP1 PUSH2 0x2A67 JUMP JUMPDEST POP POP POP POP DUP2 MSTORE PUSH1 0x20 ADD PUSH1 0x2 DUP3 ADD DUP1 SLOAD DUP1 PUSH1 0x20 MUL PUSH1 0x20 ADD PUSH1 0x40 MLOAD SWAP1 DUP2 ADD PUSH1 0x40 MSTORE DUP1 SWAP3 SWAP2 SWAP1 DUP2 DUP2 MSTORE PUSH1 0x20 ADD PUSH1 0x0 SWAP1 JUMPDEST DUP3 DUP3 LT ISZERO PUSH2 0x2BEC JUMPI DUP4 DUP3 SWAP1 PUSH1 0x0 MSTORE PUSH1 0x20 PUSH1 0x0 KECCAK256 ADD DUP1 SLOAD PUSH2 0x2B5F SWAP1 PUSH2 0x6ACC JUMP JUMPDEST DUP1 PUSH1 0x1F ADD PUSH1 0x20 DUP1 SWAP2 DIV MUL PUSH1 0x20 ADD PUSH1 0x40 MLOAD SWAP1 DUP2 ADD PUSH1 0x40 MSTORE DUP1 SWAP3 SWAP2 SWAP1 DUP2 DUP2 MSTORE PUSH1 0x20 ADD DUP3 DUP1 SLOAD PUSH2 0x2B8B SWAP1 PUSH2 0x6ACC JUMP JUMPDEST DUP1 ISZERO PUSH2 0x2BD8 JUMPI DUP1 PUSH1 0x1F LT PUSH2 0x2BAD JUMPI PUSH2 0x100 DUP1 DUP4 SLOAD DIV MUL DUP4 MSTORE SWAP2 PUSH1 0x20 ADD SWAP2 PUSH2 0x2BD8 JUMP JUMPDEST DUP3 ADD SWAP2 SWAP1 PUSH1 0x0 MSTORE PUSH1 0x20 PUSH1 0x0 KECCAK256 SWAP1 JUMPDEST DUP2 SLOAD DUP2 MSTORE SWAP1 PUSH1 0x1 ADD SWAP1 PUSH1 0x20 ADD DUP1 DUP4 GT PUSH2 0x2BBB JUMPI DUP3 SWAP1 SUB PUSH1 0x1F AND DUP3 ADD SWAP2 JUMPDEST POP POP POP POP POP DUP2 MSTORE PUSH1 0x20 ADD SWAP1 PUSH1 0x1 ADD SWAP1 PUSH2 0x2B40 JUMP JUMPDEST POP POP POP POP DUP2 MSTORE PUSH1 0x20 ADD PUSH1 0x3 DUP3 ADD DUP1 SLOAD DUP1 PUSH1 0x20 MUL PUSH1 0x20 ADD PUSH1 0x40 MLOAD SWAP1 DUP2 ADD PUSH1 0x40 MSTORE DUP1 SWAP3 SWAP2 SWAP1 DUP2 DUP2 MSTORE PUSH1 0x20 ADD PUSH1 0x0 SWAP1 JUMPDEST DUP3 DUP3 LT ISZERO PUSH2 0x2CC5 JUMPI DUP4 DUP3 SWAP1 PUSH1 0x0 MSTORE PUSH1 0x20 PUSH1 0x0 KECCAK256 ADD DUP1 SLOAD PUSH2 0x2C38 SWAP1 PUSH2 0x6ACC JUMP JUMPDEST DUP1 PUSH1 0x1F ADD PUSH1 0x20 DUP1 SWAP2 DIV MUL PUSH1 0x20 ADD PUSH1 0x40 MLOAD SWAP1 DUP2 ADD PUSH1 0x40 MSTORE DUP1 SWAP3 SWAP2 SWAP1 DUP2 DUP2 MSTORE PUSH1 0x20 ADD DUP3 DUP1 SLOAD PUSH2 0x2C64 SWAP1 PUSH2 0x6ACC JUMP JUMPDEST DUP1 ISZERO PUSH2 0x2CB1 JUMPI DUP1 PUSH1 0x1F LT PUSH2 0x2C86 JUMPI PUSH2 0x100 DUP1 DUP4 SLOAD DIV MUL DUP4 MSTORE SWAP2 PUSH1 0x20 ADD SWAP2 PUSH2 0x2CB1 JUMP JUMPDEST DUP3 ADD SWAP2 SWAP1 PUSH1 0x0 MSTORE PUSH1 0x20 PUSH1 0x0 KECCAK256 SWAP1 JUMPDEST DUP2 SLOAD DUP2 MSTORE SWAP1 PUSH1 0x1 ADD SWAP1 PUSH1 0x20 ADD DUP1 DUP4 GT PUSH2 0x2C94 JUMPI DUP3 SWAP1 SUB PUSH1 0x1F AND DUP3 ADD SWAP2 JUMPDEST POP POP POP POP POP DUP2 MSTORE PUSH1 0x20 ADD SWAP1 PUSH1 0x1 ADD SWAP1 PUSH2 0x2C19 JUMP JUMPDEST POP POP POP POP DUP2 MSTORE PUSH1 0x20 ADD PUSH1 0x4 DUP3 ADD DUP1 SLOAD DUP1 PUSH1 0x20 MUL PUSH1 0x20 ADD PUSH1 0x40 MLOAD SWAP1 DUP2 ADD PUSH1 0x40 MSTORE DUP1 SWAP3 SWAP2 SWAP1 DUP2 DUP2 MSTORE PUSH1 0x20 ADD PUSH1 0x0 SWAP1 JUMPDEST DUP3 DUP3 LT ISZERO PUSH2 0x2DC0 JUMPI DUP4 DUP3 SWAP1 PUSH1 0x0 MSTORE PUSH1 0x20 PUSH1 0x0 KECCAK256 SWAP1 PUSH1 0x2 MUL ADD PUSH1 0x40 MLOAD DUP1 PUSH1 0x40 ADD PUSH1 0x40 MSTORE SWAP1 DUP2 PUSH1 0x0 DUP3 ADD DUP1 SLOAD PUSH2 0x2D25 SWAP1 PUSH2 0x6ACC JUMP JUMPDEST DUP1 PUSH1 0x1F ADD PUSH1 0x20 DUP1 SWAP2 DIV MUL PUSH1 0x20 ADD PUSH1 0x40 MLOAD SWAP1 DUP2 ADD PUSH1 0x40 MSTORE DUP1 SWAP3 SWAP2 SWAP1 DUP2 DUP2 MSTORE PUSH1 0x20 ADD DUP3 DUP1 SLOAD PUSH2 0x2D51 SWAP1 PUSH2 0x6ACC JUMP JUMPDEST DUP1 ISZERO PUSH2 0x2D9E JUMPI DUP1 PUSH1 0x1F LT PUSH2 0x2D73 JUMPI PUSH2 0x100 DUP1 DUP4 SLOAD DIV MUL DUP4 MSTORE SWAP2 PUSH1 0x20 ADD SWAP2 PUSH2 0x2D9E JUMP JUMPDEST DUP3 ADD SWAP2 SWAP1 PUSH1 0x0 MSTORE PUSH1 0x20 PUSH1 0x0 KECCAK256 SWAP1 JUMPDEST DUP2 SLOAD DUP2 MSTORE SWAP1 PUSH1 0x1 ADD SWAP1 PUSH1 0x20 ADD DUP1 DUP4 GT PUSH2 0x2D81 JUMPI DUP3 SWAP1 SUB PUSH1 0x1F AND DUP3 ADD SWAP2 JUMPDEST POP POP POP POP POP DUP2 MSTORE PUSH1 0x20 ADD PUSH1 0x1 DUP3 ADD SLOAD DUP2 MSTORE POP POP DUP2 MSTORE PUSH1 0x20 ADD SWAP1 PUSH1 0x1 ADD SWAP1 PUSH2 0x2CF2 JUMP JUMPDEST POP POP POP POP DUP2 MSTORE PUSH1 0x20 ADD PUSH1 0x5 DUP3 ADD DUP1 SLOAD PUSH2 0x2DD8 SWAP1 PUSH2 0x6ACC JUMP JUMPDEST DUP1 PUSH1 0x1F ADD PUSH1 0x20 DUP1 SWAP2 DIV MUL PUSH1 0x20 ADD PUSH1 0x40 MLOAD SWAP1 DUP2 ADD PUSH1 0x40 MSTORE DUP1 SWAP3 SWAP2 SWAP1 DUP2 DUP2 MSTORE PUSH1 0x20 ADD DUP3 DUP1 SLOAD PUSH2 0x2E04 SWAP1 PUSH2 0x6ACC JUMP JUMPDEST DUP1 ISZERO PUSH2 0x2E51 JUMPI DUP1 PUSH1 0x1F LT PUSH2 0x2E26 JUMPI PUSH2 0x100 DUP1 DUP4 SLOAD DIV MUL DUP4 MSTORE SWAP2 PUSH1 0x20 ADD SWAP2 PUSH2 0x2E51 JUMP JUMPDEST DUP3 ADD SWAP2 SWAP1 PUSH1 0x0 MSTORE PUSH1 0x20 PUSH1 0x0 KECCAK256 SWAP1 JUMPDEST DUP2 SLOAD DUP2 MSTORE SWAP1 PUSH1 0x1 ADD SWAP1 PUSH1 0x20 ADD DUP1 DUP4 GT PUSH2 0x2E34 JUMPI DUP3 SWAP1 SUB PUSH1 0x1F AND DUP3 ADD SWAP2 JUMPDEST POP POP POP POP POP DUP2 MSTORE PUSH1 0x20 ADD PUSH1 0x6 DUP3 ADD DUP1 SLOAD DUP1 PUSH1 0x20 MUL PUSH1 0x20 ADD PUSH1 0x40 MLOAD SWAP1 DUP2 ADD PUSH1 0x40 MSTORE DUP1 SWAP3 SWAP2 SWAP1 DUP2 DUP2 MSTORE PUSH1 0x20 ADD DUP3 DUP1 SLOAD DUP1 ISZERO PUSH2 0x2EA9 JUMPI PUSH1 0x20 MUL DUP3 ADD SWAP2 SWAP1 PUSH1 0x0 MSTORE PUSH1 0x20 PUSH1 0x0 KECCAK256 SWAP1 JUMPDEST DUP2 SLOAD DUP2 MSTORE PUSH1 0x20 ADD SWAP1 PUSH1 0x1 ADD SWAP1 DUP1 DUP4 GT PUSH2 0x2E95 JUMPI JUMPDEST POP POP POP POP POP DUP2 MSTORE PUSH1 0x20 ADD PUSH1 0x7 DUP3 ADD PUSH1 0x0 SWAP1 SLOAD SWAP1 PUSH2 0x100 EXP SWAP1 DIV PUSH1 0xFF AND ISZERO ISZERO ISZERO ISZERO DUP2 MSTORE PUSH1 0x20 ADD PUSH1 0x8 DUP3 ADD DUP1 SLOAD DUP1 PUSH1 0x20 MUL PUSH1 0x20 ADD PUSH1 0x40 MLOAD SWAP1 DUP2 ADD PUSH1 0x40 MSTORE DUP1 SWAP3 SWAP2 SWAP1 DUP2 DUP2 MSTORE PUSH1 0x20 ADD PUSH1 0x0 SWAP1 JUMPDEST DUP3 DUP3 LT ISZERO PUSH2 0x2F9E JUMPI DUP4 DUP3 SWAP1 PUSH1 0x0 MSTORE PUSH1 0x20 PUSH1 0x0 KECCAK256 ADD DUP1 SLOAD PUSH2 0x2F11 SWAP1 PUSH2 0x6ACC JUMP JUMPDEST DUP1 PUSH1 0x1F ADD PUSH1 0x20 DUP1 SWAP2 DIV MUL PUSH1 0x20 ADD PUSH1 0x40 MLOAD SWAP1 DUP2 ADD PUSH1 0x40 MSTORE DUP1 SWAP3 SWAP2 SWAP1 DUP2 DUP2 MSTORE PUSH1 0x20 ADD DUP3 DUP1 SLOAD PUSH2 0x2F3D SWAP1 PUSH2 0x6ACC JUMP JUMPDEST DUP1 ISZERO PUSH2 0x2F8A JUMPI DUP1 PUSH1 0x1F LT PUSH2 0x2F5F JUMPI PUSH2 0x100 DUP1 DUP4 SLOAD DIV MUL DUP4 MSTORE SWAP2 PUSH1 0x20 ADD SWAP2 PUSH2 0x2F8A JUMP JUMPDEST DUP3 ADD SWAP2 SWAP1 PUSH1 0x0 MSTORE PUSH1 0x20 PUSH1 0x0 KECCAK256 SWAP1 JUMPDEST DUP2 SLOAD DUP2 MSTORE SWAP1 PUSH1 0x1 ADD SWAP1 PUSH1 0x20 ADD DUP1 DUP4 GT PUSH2 0x2F6D JUMPI DUP3 SWAP1 SUB PUSH1 0x1F AND DUP3 ADD SWAP2 JUMPDEST POP POP POP POP POP DUP2 MSTORE PUSH1 0x20 ADD SWAP1 PUSH1 0x1 ADD SWAP1 PUSH2 0x2EF2 JUMP JUMPDEST POP POP POP POP DUP2 MSTORE POP POP SWAP1 POP SWAP1 JUMP JUMPDEST PUSH1 0x60 PUSH1 0x1 DUP1 SLOAD PUSH2 0x2FBA SWAP1 PUSH2 0x6ACC JUMP JUMPDEST DUP1 PUSH1 0x1F ADD PUSH1 0x20 DUP1 SWAP2 DIV MUL PUSH1 0x20 ADD PUSH1 0x40 MLOAD SWAP1 DUP2 ADD PUSH1 0x40 MSTORE DUP1 SWAP3 SWAP2 SWAP1 DUP2 DUP2 MSTORE PUSH1 0x20 ADD DUP3 DUP1 SLOAD PUSH2 0x2FE6 SWAP1 PUSH2 0x6ACC JUMP JUMPDEST DUP1 ISZERO PUSH2 0x3033 JUMPI DUP1 PUSH1 0x1F LT PUSH2 0x3008 JUMPI PUSH2 0x100 DUP1 DUP4 SLOAD DIV MUL DUP4 MSTORE SWAP2 PUSH1 0x20 ADD SWAP2 PUSH2 0x3033 JUMP JUMPDEST DUP3 ADD SWAP2 SWAP1 PUSH1 0x0 MSTORE PUSH1 0x20 PUSH1 0x0 KECCAK256 SWAP1 JUMPDEST DUP2 SLOAD DUP2 MSTORE SWAP1 PUSH1 0x1 ADD SWAP1 PUSH1 0x20 ADD DUP1 DUP4 GT PUSH2 0x3016 JUMPI DUP3 SWAP1 SUB PUSH1 0x1F AND DUP3 ADD SWAP2 JUMPDEST POP POP POP POP POP SWAP1 POP SWAP1 JUMP JUMPDEST PUSH2 0x3045 PUSH2 0x41FF JUMP JUMPDEST PUSH20 0xFFFFFFFFFFFFFFFFFFFFFFFFFFFFFFFFFFFFFFFF AND PUSH2 0x3063 PUSH2 0x276E JUMP JUMPDEST PUSH20 0xFFFFFFFFFFFFFFFFFFFFFFFFFFFFFFFFFFFFFFFF AND EQ PUSH2 0x30B9 JUMPI PUSH1 0x40 MLOAD PUSH32 0x8C379A000000000000000000000000000000000000000000000000000000000 DUP2 MSTORE PUSH1 0x4 ADD PUSH2 0x30B0 SWAP1 PUSH2 0x734D JUMP JUMPDEST PUSH1 0x40 MLOAD DUP1 SWAP2 SUB SWAP1 REVERT JUMPDEST PUSH2 0x30D1 DUP4 DUP4 DUP4 PUSH1 0xB PUSH2 0x5061 SWAP1 SWAP4 SWAP3 SWAP2 SWAP1 PUSH4 0xFFFFFFFF AND JUMP JUMPDEST POP POP POP JUMP JUMPDEST PUSH2 0x30E8 PUSH2 0x30E1 PUSH2 0x41FF JUMP JUMPDEST DUP4 DUP4 PUSH2 0x50FD JUMP JUMPDEST POP POP JUMP JUMPDEST PUSH1 0x60 PUSH1 0xE DUP1 SLOAD DUP1 PUSH1 0x20 MUL PUSH1 0x20 ADD PUSH1 0x40 MLOAD SWAP1 DUP2 ADD PUSH1 0x40 MSTORE DUP1 SWAP3 SWAP2 SWAP1 DUP2 DUP2 MSTORE PUSH1 0x20 ADD PUSH1 0x0 SWAP1 JUMPDEST DUP3 DUP3 LT ISZERO PUSH2 0x31BC JUMPI DUP4 DUP3 SWAP1 PUSH1 0x0 MSTORE PUSH1 0x20 PUSH1 0x0 KECCAK256 ADD DUP1 SLOAD PUSH2 0x312F SWAP1 PUSH2 0x6ACC JUMP JUMPDEST DUP1 PUSH1 0x1F ADD PUSH1 0x20 DUP1 SWAP2 DIV MUL PUSH1 0x20 ADD PUSH1 0x40 MLOAD SWAP1 DUP2 ADD PUSH1 0x40 MSTORE DUP1 SWAP3 SWAP2 SWAP1 DUP2 DUP2 MSTORE PUSH1 0x20 ADD DUP3 DUP1 SLOAD PUSH2 0x315B SWAP1 PUSH2 0x6ACC JUMP JUMPDEST DUP1 ISZERO PUSH2 0x31A8 JUMPI DUP1 PUSH1 0x1F LT PUSH2 0x317D JUMPI PUSH2 0x100 DUP1 DUP4 SLOAD DIV MUL DUP4 MSTORE SWAP2 PUSH1 0x20 ADD SWAP2 PUSH2 0x31A8 JUMP JUMPDEST DUP3 ADD SWAP2 SWAP1 PUSH1 0x0 MSTORE PUSH1 0x20 PUSH1 0x0 KECCAK256 SWAP1 JUMPDEST DUP2 SLOAD DUP2 MSTORE SWAP1 PUSH1 0x1 ADD SWAP1 PUSH1 0x20 ADD DUP1 DUP4 GT PUSH2 0x318B JUMPI DUP3 SWAP1 SUB PUSH1 0x1F AND DUP3 ADD SWAP2 JUMPDEST POP POP POP POP POP DUP2 MSTORE PUSH1 0x20 ADD SWAP1 PUSH1 0x1 ADD SWAP1 PUSH2 0x3110 JUMP JUMPDEST POP POP POP POP SWAP1 POP SWAP1 JUMP JUMPDEST PUSH1 0x0 PUSH1 0xF DUP1 SLOAD SWAP1 POP SWAP1 POP SWAP1 JUMP JUMPDEST PUSH1 0xA PUSH1 0x0 CALLER PUSH20 0xFFFFFFFFFFFFFFFFFFFFFFFFFFFFFFFFFFFFFFFF AND PUSH20 0xFFFFFFFFFFFFFFFFFFFFFFFFFFFFFFFFFFFFFFFF AND DUP2 MSTORE PUSH1 0x20 ADD SWAP1 DUP2 MSTORE PUSH1 0x20 ADD PUSH1 0x0 KECCAK256 PUSH1 0x7 ADD PUSH1 0x0 SWAP1 SLOAD SWAP1 PUSH2 0x100 EXP SWAP1 DIV PUSH1 0xFF AND PUSH2 0x3261 JUMPI PUSH1 0x40 MLOAD PUSH32 0x8C379A000000000000000000000000000000000000000000000000000000000 DUP2 MSTORE PUSH1 0x4 ADD PUSH2 0x3258 SWAP1 PUSH2 0x6CFF JUMP JUMPDEST PUSH1 0x40 MLOAD DUP1 SWAP2 SUB SWAP1 REVERT JUMPDEST PUSH2 0x32B4 DUP3 DUP3 PUSH1 0xA PUSH1 0x0 CALLER PUSH20 0xFFFFFFFFFFFFFFFFFFFFFFFFFFFFFFFFFFFFFFFF AND PUSH20 0xFFFFFFFFFFFFFFFFFFFFFFFFFFFFFFFFFFFFFFFF AND DUP2 MSTORE PUSH1 0x20 ADD SWAP1 DUP2 MSTORE PUSH1 0x20 ADD PUSH1 0x0 KECCAK256 PUSH2 0x5269 SWAP1 SWAP3 SWAP2 SWAP1 PUSH4 0xFFFFFFFF AND JUMP JUMPDEST CALLER PUSH20 0xFFFFFFFFFFFFFFFFFFFFFFFFFFFFFFFFFFFFFFFF AND PUSH32 0x9DC5C994CEE1FFA2E2C3FC4D4D0D9E24511EB0CEEF3EFE59FF6F57EDA374BB27 DUP4 DUP4 PUSH1 0x40 MLOAD PUSH2 0x32FC SWAP3 SWAP2 SWAP1 PUSH2 0x748B JUMP JUMPDEST PUSH1 0x40 MLOAD DUP1 SWAP2 SUB SWAP1 LOG2 POP POP JUMP JUMPDEST PUSH1 0xA PUSH1 0x0 CALLER PUSH20 0xFFFFFFFFFFFFFFFFFFFFFFFFFFFFFFFFFFFFFFFF AND PUSH20 0xFFFFFFFFFFFFFFFFFFFFFFFFFFFFFFFFFFFFFFFF AND DUP2 MSTORE PUSH1 0x20 ADD SWAP1 DUP2 MSTORE PUSH1 0x20 ADD PUSH1 0x0 KECCAK256 PUSH1 0x7 ADD PUSH1 0x0 SWAP1 SLOAD SWAP1 PUSH2 0x100 EXP SWAP1 DIV PUSH1 0xFF AND PUSH2 0x3397 JUMPI PUSH1 0x40 MLOAD PUSH32 0x8C379A000000000000000000000000000000000000000000000000000000000 DUP2 MSTORE PUSH1 0x4 ADD PUSH2 0x338E SWAP1 PUSH2 0x6CFF JUMP JUMPDEST PUSH1 0x40 MLOAD DUP1 SWAP2 SUB SWAP1 REVERT JUMPDEST PUSH1 0x2 PUSH1 0x7 SLOAD SUB PUSH2 0x33DC JUMPI PUSH1 0x40 MLOAD PUSH32 0x8C379A000000000000000000000000000000000000000000000000000000000 DUP2 MSTORE PUSH1 0x4 ADD PUSH2 0x33D3 SWAP1 PUSH2 0x77CF JUMP JUMPDEST PUSH1 0x40 MLOAD DUP1 SWAP2 SUB SWAP1 REVERT JUMPDEST PUSH1 0x2 PUSH1 0x7 DUP2 SWAP1 SSTORE POP PUSH2 0x33FA DUP3 DUP3 PUSH1 0xB PUSH2 0x42C0 SWAP1 SWAP3 SWAP2 SWAP1 PUSH4 0xFFFFFFFF AND JUMP JUMPDEST PUSH2 0x3439 JUMPI PUSH1 0x40 MLOAD PUSH32 0x8C379A000000000000000000000000000000000000000000000000000000000 DUP2 MSTORE PUSH1 0x4 ADD PUSH2 0x3430 SWAP1 PUSH2 0x6D6B JUMP JUMPDEST PUSH1 0x40 MLOAD DUP1 SWAP2 SUB SWAP1 REVERT JUMPDEST PUSH2 0x344F DUP3 DUP3 PUSH1 0xB PUSH2 0x52F4 SWAP1 SWAP3 SWAP2 SWAP1 PUSH4 0xFFFFFFFF AND JUMP JUMPDEST CALLVALUE LT ISZERO PUSH2 0x3491 JUMPI PUSH1 0x40 MLOAD PUSH32 0x8C379A000000000000000000000000000000000000000000000000000000000 DUP2 MSTORE PUSH1 0x4 ADD PUSH2 0x3488 SWAP1 PUSH2 0x783B JUMP JUMPDEST PUSH1 0x40 MLOAD DUP1 SWAP2 SUB SWAP1 REVERT JUMPDEST PUSH1 0x9 PUSH1 0x0 DUP2 SLOAD DUP1 SWAP3 SWAP2 SWAP1 PUSH2 0x34A4 SWAP1 PUSH2 0x6DBA JUMP JUMPDEST SWAP2 SWAP1 POP SSTORE POP PUSH2 0x3500 DUP3 DUP3 PUSH1 0x9 SLOAD PUSH1 0xA PUSH1 0x0 CALLER PUSH20 0xFFFFFFFFFFFFFFFFFFFFFFFFFFFFFFFFFFFFFFFF AND PUSH20 0xFFFFFFFFFFFFFFFFFFFFFFFFFFFFFFFFFFFFFFFF AND DUP2 MSTORE PUSH1 0x20 ADD SWAP1 DUP2 MSTORE PUSH1 0x20 ADD PUSH1 0x0 KECCAK256 PUSH2 0x5391 SWAP1 SWAP4 SWAP3 SWAP2 SWAP1 PUSH4 0xFFFFFFFF AND JUMP JUMPDEST CALLER PUSH20 0xFFFFFFFFFFFFFFFFFFFFFFFFFFFFFFFFFFFFFFFF AND PUSH32 0x92904D8C10560A367E402F96FC80C79668C5A9850462A718473E9F671B28EA38 DUP4 DUP4 PUSH1 0x9 SLOAD PUSH1 0x40 MLOAD PUSH2 0x354C SWAP4 SWAP3 SWAP2 SWAP1 PUSH2 0x70FF JUMP JUMPDEST PUSH1 0x40 MLOAD DUP1 SWAP2 SUB SWAP1 LOG2 PUSH1 0x1 PUSH1 0x7 DUP2 SWAP1 SSTORE POP POP POP JUMP JUMPDEST PUSH2 0x3571 PUSH2 0x356B PUSH2 0x41FF JUMP JUMPDEST DUP4 PUSH2 0x471B JUMP JUMPDEST PUSH2 0x35B0 JUMPI PUSH1 0x40 MLOAD PUSH32 0x8C379A000000000000000000000000000000000000000000000000000000000 DUP2 MSTORE PUSH1 0x4 ADD PUSH2 0x35A7 SWAP1 PUSH2 0x72E1 JUMP JUMPDEST PUSH1 0x40 MLOAD DUP1 SWAP2 SUB SWAP1 REVERT JUMPDEST PUSH2 0x35BC DUP5 DUP5 DUP5 DUP5 PUSH2 0x543F JUMP JUMPDEST POP POP POP POP JUMP JUMPDEST PUSH2 0x35CA PUSH2 0x41FF JUMP JUMPDEST PUSH20 0xFFFFFFFFFFFFFFFFFFFFFFFFFFFFFFFFFFFFFFFF AND PUSH2 0x35E8 PUSH2 0x276E JUMP JUMPDEST PUSH20 0xFFFFFFFFFFFFFFFFFFFFFFFFFFFFFFFFFFFFFFFF AND EQ PUSH2 0x363E JUMPI PUSH1 0x40 MLOAD PUSH32 0x8C379A000000000000000000000000000000000000000000000000000000000 DUP2 MSTORE PUSH1 0x4 ADD PUSH2 0x3635 SWAP1 PUSH2 0x734D JUMP JUMPDEST PUSH1 0x40 MLOAD DUP1 SWAP2 SUB SWAP1 REVERT JUMPDEST PUSH2 0x3656 DUP4 DUP4 DUP4 PUSH1 0xB PUSH2 0x549B SWAP1 SWAP4 SWAP3 SWAP2 SWAP1 PUSH4 0xFFFFFFFF AND JUMP JUMPDEST PUSH1 0xE DUP4 DUP4 SWAP1 SWAP2 DUP1 PUSH1 0x1 DUP2 SLOAD ADD DUP1 DUP3 SSTORE DUP1 SWAP2 POP POP PUSH1 0x1 SWAP1 SUB SWAP1 PUSH1 0x0 MSTORE PUSH1 0x20 PUSH1 0x0 KECCAK256 ADD PUSH1 0x0 SWAP1 SWAP2 SWAP3 SWAP1 SWAP2 SWAP3 SWAP1 SWAP2 SWAP3 SWAP1 SWAP2 SWAP3 POP SWAP2 DUP3 PUSH2 0x3693 SWAP3 SWAP2 SWAP1 PUSH2 0x6FB9 JUMP JUMPDEST POP POP POP POP JUMP JUMPDEST PUSH1 0x0 PUSH1 0xA PUSH1 0x0 DUP4 PUSH20 0xFFFFFFFFFFFFFFFFFFFFFFFFFFFFFFFFFFFFFFFF AND PUSH20 0xFFFFFFFFFFFFFFFFFFFFFFFFFFFFFFFFFFFFFFFF AND DUP2 MSTORE PUSH1 0x20 ADD SWAP1 DUP2 MSTORE PUSH1 0x20 ADD PUSH1 0x0 KECCAK256 PUSH1 0x6 ADD DUP1 SLOAD SWAP1 POP SWAP1 POP SWAP2 SWAP1 POP JUMP JUMPDEST PUSH1 0x0 PUSH1 0x10 DUP1 SLOAD SWAP1 POP SWAP1 POP SWAP1 JUMP JUMPDEST PUSH1 0x60 PUSH1 0x0 PUSH20 0xFFFFFFFFFFFFFFFFFFFFFFFFFFFFFFFFFFFFFFFF AND PUSH2 0x3718 DUP4 PUSH2 0x1D93 JUMP JUMPDEST PUSH20 0xFFFFFFFFFFFFFFFFFFFFFFFFFFFFFFFFFFFFFFFF AND SUB PUSH2 0x376E JUMPI PUSH1 0x40 MLOAD PUSH32 0x8C379A000000000000000000000000000000000000000000000000000000000 DUP2 MSTORE PUSH1 0x4 ADD PUSH2 0x3765 SWAP1 PUSH2 0x78A7 JUMP JUMPDEST PUSH1 0x40 MLOAD DUP1 SWAP2 SUB SWAP1 REVERT JUMPDEST PUSH1 0xD PUSH1 0x0 DUP4 DUP2 MSTORE PUSH1 0x20 ADD SWAP1 DUP2 MSTORE PUSH1 0x20 ADD PUSH1 0x0 KECCAK256 DUP1 SLOAD PUSH2 0x378C SWAP1 PUSH2 0x6ACC JUMP JUMPDEST DUP1 PUSH1 0x1F ADD PUSH1 0x20 DUP1 SWAP2 DIV MUL PUSH1 0x20 ADD PUSH1 0x40 MLOAD SWAP1 DUP2 ADD PUSH1 0x40 MSTORE DUP1 SWAP3 SWAP2 SWAP1 DUP2 DUP2 MSTORE PUSH1 0x20 ADD DUP3 DUP1 SLOAD PUSH2 0x37B8 SWAP1 PUSH2 0x6ACC JUMP JUMPDEST DUP1 ISZERO PUSH2 0x3805 JUMPI DUP1 PUSH1 0x1F LT PUSH2 0x37DA JUMPI PUSH2 0x100 DUP1 DUP4 SLOAD DIV MUL DUP4 MSTORE SWAP2 PUSH1 0x20 ADD SWAP2 PUSH2 0x3805 JUMP JUMPDEST DUP3 ADD SWAP2 SWAP1 PUSH1 0x0 MSTORE PUSH1 0x20 PUSH1 0x0 KECCAK256 SWAP1 JUMPDEST DUP2 SLOAD DUP2 MSTORE SWAP1 PUSH1 0x1 ADD SWAP1 PUSH1 0x20 ADD DUP1 DUP4 GT PUSH2 0x37E8 JUMPI DUP3 SWAP1 SUB PUSH1 0x1F AND DUP3 ADD SWAP2 JUMPDEST POP POP POP POP POP SWAP1 POP SWAP2 SWAP1 POP JUMP JUMPDEST PUSH2 0x3819 PUSH2 0x5961 JUMP JUMPDEST PUSH1 0xA PUSH1 0x0 DUP4 PUSH20 0xFFFFFFFFFFFFFFFFFFFFFFFFFFFFFFFFFFFFFFFF AND PUSH20 0xFFFFFFFFFFFFFFFFFFFFFFFFFFFFFFFFFFFFFFFF AND DUP2 MSTORE PUSH1 0x20 ADD SWAP1 DUP2 MSTORE PUSH1 0x20 ADD PUSH1 0x0 KECCAK256 PUSH1 0x7 ADD PUSH1 0x0 SWAP1 SLOAD SWAP1 PUSH2 0x100 EXP SWAP1 DIV PUSH1 0xFF AND PUSH2 0x38A8 JUMPI PUSH1 0x40 MLOAD PUSH32 0x8C379A000000000000000000000000000000000000000000000000000000000 DUP2 MSTORE PUSH1 0x4 ADD PUSH2 0x389F SWAP1 PUSH2 0x7913 JUMP JUMPDEST PUSH1 0x40 MLOAD DUP1 SWAP2 SUB SWAP1 REVERT JUMPDEST PUSH1 0xA PUSH1 0x0 DUP4 PUSH20 0xFFFFFFFFFFFFFFFFFFFFFFFFFFFFFFFFFFFFFFFF AND PUSH20 0xFFFFFFFFFFFFFFFFFFFFFFFFFFFFFFFFFFFFFFFF AND DUP2 MSTORE PUSH1 0x20 ADD SWAP1 DUP2 MSTORE PUSH1 0x20 ADD PUSH1 0x0 KECCAK256 PUSH1 0x40 MLOAD DUP1 PUSH2 0x120 ADD PUSH1 0x40 MSTORE SWAP1 DUP2 PUSH1 0x0 DUP3 ADD DUP1 SLOAD PUSH2 0x3903 SWAP1 PUSH2 0x6ACC JUMP JUMPDEST DUP1 PUSH1 0x1F ADD PUSH1 0x20 DUP1 SWAP2 DIV MUL PUSH1 0x20 ADD PUSH1 0x40 MLOAD SWAP1 DUP2 ADD PUSH1 0x40 MSTORE DUP1 SWAP3 SWAP2 SWAP1 DUP2 DUP2 MSTORE PUSH1 0x20 ADD DUP3 DUP1 SLOAD PUSH2 0x392F SWAP1 PUSH2 0x6ACC JUMP JUMPDEST DUP1 ISZERO PUSH2 0x397C JUMPI DUP1 PUSH1 0x1F LT PUSH2 0x3951 JUMPI PUSH2 0x100 DUP1 DUP4 SLOAD DIV MUL DUP4 MSTORE SWAP2 PUSH1 0x20 ADD SWAP2 PUSH2 0x397C JUMP JUMPDEST DUP3 ADD SWAP2 SWAP1 PUSH1 0x0 MSTORE PUSH1 0x20 PUSH1 0x0 KECCAK256 SWAP1 JUMPDEST DUP2 SLOAD DUP2 MSTORE SWAP1 PUSH1 0x1 ADD SWAP1 PUSH1 0x20 ADD DUP1 DUP4 GT PUSH2 0x395F JUMPI DUP3 SWAP1 SUB PUSH1 0x1F AND DUP3 ADD SWAP2 JUMPDEST POP POP POP POP POP DUP2 MSTORE PUSH1 0x20 ADD PUSH1 0x1 DUP3 ADD DUP1 SLOAD DUP1 PUSH1 0x20 MUL PUSH1 0x20 ADD PUSH1 0x40 MLOAD SWAP1 DUP2 ADD PUSH1 0x40 MSTORE DUP1 SWAP3 SWAP2 SWAP1 DUP2 DUP2 MSTORE PUSH1 0x20 ADD PUSH1 0x0 SWAP1 JUMPDEST DUP3 DUP3 LT ISZERO PUSH2 0x3A56 JUMPI DUP4 DUP3 SWAP1 PUSH1 0x0 MSTORE PUSH1 0x20 PUSH1 0x0 KECCAK256 ADD DUP1 SLOAD PUSH2 0x39C9 SWAP1 PUSH2 0x6ACC JUMP JUMPDEST DUP1 PUSH1 0x1F ADD PUSH1 0x20 DUP1 SWAP2 DIV MUL PUSH1 0x20 ADD PUSH1 0x40 MLOAD SWAP1 DUP2 ADD PUSH1 0x40 MSTORE DUP1 SWAP3 SWAP2 SWAP1 DUP2 DUP2 MSTORE PUSH1 0x20 ADD DUP3 DUP1 SLOAD PUSH2 0x39F5 SWAP1 PUSH2 0x6ACC JUMP JUMPDEST DUP1 ISZERO PUSH2 0x3A42 JUMPI DUP1 PUSH1 0x1F LT PUSH2 0x3A17 JUMPI PUSH2 0x100 DUP1 DUP4 SLOAD DIV MUL DUP4 MSTORE SWAP2 PUSH1 0x20 ADD SWAP2 PUSH2 0x3A42 JUMP JUMPDEST DUP3 ADD SWAP2 SWAP1 PUSH1 0x0 MSTORE PUSH1 0x20 PUSH1 0x0 KECCAK256 SWAP1 JUMPDEST DUP2 SLOAD DUP2 MSTORE SWAP1 PUSH1 0x1 ADD SWAP1 PUSH1 0x20 ADD DUP1 DUP4 GT PUSH2 0x3A25 JUMPI DUP3 SWAP1 SUB PUSH1 0x1F AND DUP3 ADD SWAP2 JUMPDEST POP POP POP POP POP DUP2 MSTORE PUSH1 0x20 ADD SWAP1 PUSH1 0x1 ADD SWAP1 PUSH2 0x39AA JUMP JUMPDEST POP POP POP POP DUP2 MSTORE PUSH1 0x20 ADD PUSH1 0x2 DUP3 ADD DUP1 SLOAD DUP1 PUSH1 0x20 MUL PUSH1 0x20 ADD PUSH1 0x40 MLOAD SWAP1 DUP2 ADD PUSH1 0x40 MSTORE DUP1 SWAP3 SWAP2 SWAP1 DUP2 DUP2 MSTORE PUSH1 0x20 ADD PUSH1 0x0 SWAP1 JUMPDEST DUP3 DUP3 LT ISZERO PUSH2 0x3B2F JUMPI DUP4 DUP3 SWAP1 PUSH1 0x0 MSTORE PUSH1 0x20 PUSH1 0x0 KECCAK256 ADD DUP1 SLOAD PUSH2 0x3AA2 SWAP1 PUSH2 0x6ACC JUMP JUMPDEST DUP1 PUSH1 0x1F ADD PUSH1 0x20 DUP1 SWAP2 DIV MUL PUSH1 0x20 ADD PUSH1 0x40 MLOAD SWAP1 DUP2 ADD PUSH1 0x40 MSTORE DUP1 SWAP3 SWAP2 SWAP1 DUP2 DUP2 MSTORE PUSH1 0x20 ADD DUP3 DUP1 SLOAD PUSH2 0x3ACE SWAP1 PUSH2 0x6ACC JUMP JUMPDEST DUP1 ISZERO PUSH2 0x3B1B JUMPI DUP1 PUSH1 0x1F LT PUSH2 0x3AF0 JUMPI PUSH2 0x100 DUP1 DUP4 SLOAD DIV MUL DUP4 MSTORE SWAP2 PUSH1 0x20 ADD SWAP2 PUSH2 0x3B1B JUMP JUMPDEST DUP3 ADD SWAP2 SWAP1 PUSH1 0x0 MSTORE PUSH1 0x20 PUSH1 0x0 KECCAK256 SWAP1 JUMPDEST DUP2 SLOAD DUP2 MSTORE SWAP1 PUSH1 0x1 ADD SWAP1 PUSH1 0x20 ADD DUP1 DUP4 GT PUSH2 0x3AFE JUMPI DUP3 SWAP1 SUB PUSH1 0x1F AND DUP3 ADD SWAP2 JUMPDEST POP POP POP POP POP DUP2 MSTORE PUSH1 0x20 ADD SWAP1 PUSH1 0x1 ADD SWAP1 PUSH2 0x3A83 JUMP JUMPDEST POP POP POP POP DUP2 MSTORE PUSH1 0x20 ADD PUSH1 0x3 DUP3 ADD DUP1 SLOAD DUP1 PUSH1 0x20 MUL PUSH1 0x20 ADD PUSH1 0x40 MLOAD SWAP1 DUP2 ADD PUSH1 0x40 MSTORE DUP1 SWAP3 SWAP2 SWAP1 DUP2 DUP2 MSTORE PUSH1 0x20 ADD PUSH1 0x0 SWAP1 JUMPDEST DUP3 DUP3 LT ISZERO PUSH2 0x3C08 JUMPI DUP4 DUP3 SWAP1 PUSH1 0x0 MSTORE PUSH1 0x20 PUSH1 0x0 KECCAK256 ADD DUP1 SLOAD PUSH2 0x3B7B SWAP1 PUSH2 0x6ACC JUMP JUMPDEST DUP1 PUSH1 0x1F ADD PUSH1 0x20 DUP1 SWAP2 DIV MUL PUSH1 0x20 ADD PUSH1 0x40 MLOAD SWAP1 DUP2 ADD PUSH1 0x40 MSTORE DUP1 SWAP3 SWAP2 SWAP1 DUP2 DUP2 MSTORE PUSH1 0x20 ADD DUP3 DUP1 SLOAD PUSH2 0x3BA7 SWAP1 PUSH2 0x6ACC JUMP JUMPDEST DUP1 ISZERO PUSH2 0x3BF4 JUMPI DUP1 PUSH1 0x1F LT PUSH2 0x3BC9 JUMPI PUSH2 0x100 DUP1 DUP4 SLOAD DIV MUL DUP4 MSTORE SWAP2 PUSH1 0x20 ADD SWAP2 PUSH2 0x3BF4 JUMP JUMPDEST DUP3 ADD SWAP2 SWAP1 PUSH1 0x0 MSTORE PUSH1 0x20 PUSH1 0x0 KECCAK256 SWAP1 JUMPDEST DUP2 SLOAD DUP2 MSTORE SWAP1 PUSH1 0x1 ADD SWAP1 PUSH1 0x20 ADD DUP1 DUP4 GT PUSH2 0x3BD7 JUMPI DUP3 SWAP1 SUB PUSH1 0x1F AND DUP3 ADD SWAP2 JUMPDEST POP POP POP POP POP DUP2 MSTORE PUSH1 0x20 ADD SWAP1 PUSH1 0x1 ADD SWAP1 PUSH2 0x3B5C JUMP JUMPDEST POP POP POP POP DUP2 MSTORE PUSH1 0x20 ADD PUSH1 0x4 DUP3 ADD DUP1 SLOAD DUP1 PUSH1 0x20 MUL PUSH1 0x20 ADD PUSH1 0x40 MLOAD SWAP1 DUP2 ADD PUSH1 0x40 MSTORE DUP1 SWAP3 SWAP2 SWAP1 DUP2 DUP2 MSTORE PUSH1 0x20 ADD PUSH1 0x0 SWAP1 JUMPDEST DUP3 DUP3 LT ISZERO PUSH2 0x3D03 JUMPI DUP4 DUP3 SWAP1 PUSH1 0x0 MSTORE PUSH1 0x20 PUSH1 0x0 KECCAK256 SWAP1 PUSH1 0x2 MUL ADD PUSH1 0x40 MLOAD DUP1 PUSH1 0x40 ADD PUSH1 0x40 MSTORE SWAP1 DUP2 PUSH1 0x0 DUP3 ADD DUP1 SLOAD PUSH2 0x3C68 SWAP1 PUSH2 0x6ACC JUMP JUMPDEST DUP1 PUSH1 0x1F ADD PUSH1 0x20 DUP1 SWAP2 DIV MUL PUSH1 0x20 ADD PUSH1 0x40 MLOAD SWAP1 DUP2 ADD PUSH1 0x40 MSTORE DUP1 SWAP3 SWAP2 SWAP1 DUP2 DUP2 MSTORE PUSH1 0x20 ADD DUP3 DUP1 SLOAD PUSH2 0x3C94 SWAP1 PUSH2 0x6ACC JUMP JUMPDEST DUP1 ISZERO PUSH2 0x3CE1 JUMPI DUP1 PUSH1 0x1F LT PUSH2 0x3CB6 JUMPI PUSH2 0x100 DUP1 DUP4 SLOAD DIV MUL DUP4 MSTORE SWAP2 PUSH1 0x20 ADD SWAP2 PUSH2 0x3CE1 JUMP JUMPDEST DUP3 ADD SWAP2 SWAP1 PUSH1 0x0 MSTORE PUSH1 0x20 PUSH1 0x0 KECCAK256 SWAP1 JUMPDEST DUP2 SLOAD DUP2 MSTORE SWAP1 PUSH1 0x1 ADD SWAP1 PUSH1 0x20 ADD DUP1 DUP4 GT PUSH2 0x3CC4 JUMPI DUP3 SWAP1 SUB PUSH1 0x1F AND DUP3 ADD SWAP2 JUMPDEST POP POP POP POP POP DUP2 MSTORE PUSH1 0x20 ADD PUSH1 0x1 DUP3 ADD SLOAD DUP2 MSTORE POP POP DUP2 MSTORE PUSH1 0x20 ADD SWAP1 PUSH1 0x1 ADD SWAP1 PUSH2 0x3C35 JUMP JUMPDEST POP POP POP POP DUP2 MSTORE PUSH1 0x20 ADD PUSH1 0x5 DUP3 ADD DUP1 SLOAD PUSH2 0x3D1B SWAP1 PUSH2 0x6ACC JUMP JUMPDEST DUP1 PUSH1 0x1F ADD PUSH1 0x20 DUP1 SWAP2 DIV MUL PUSH1 0x20 ADD PUSH1 0x40 MLOAD SWAP1 DUP2 ADD PUSH1 0x40 MSTORE DUP1 SWAP3 SWAP2 SWAP1 DUP2 DUP2 MSTORE PUSH1 0x20 ADD DUP3 DUP1 SLOAD PUSH2 0x3D47 SWAP1 PUSH2 0x6ACC JUMP JUMPDEST DUP1 ISZERO PUSH2 0x3D94 JUMPI DUP1 PUSH1 0x1F LT PUSH2 0x3D69 JUMPI PUSH2 0x100 DUP1 DUP4 SLOAD DIV MUL DUP4 MSTORE SWAP2 PUSH1 0x20 ADD SWAP2 PUSH2 0x3D94 JUMP JUMPDEST DUP3 ADD SWAP2 SWAP1 PUSH1 0x0 MSTORE PUSH1 0x20 PUSH1 0x0 KECCAK256 SWAP1 JUMPDEST DUP2 SLOAD DUP2 MSTORE SWAP1 PUSH1 0x1 ADD SWAP1 PUSH1 0x20 ADD DUP1 DUP4 GT PUSH2 0x3D77 JUMPI DUP3 SWAP1 SUB PUSH1 0x1F AND DUP3 ADD SWAP2 JUMPDEST POP POP POP POP POP DUP2 MSTORE PUSH1 0x20 ADD PUSH1 0x6 DUP3 ADD DUP1 SLOAD DUP1 PUSH1 0x20 MUL PUSH1 0x20 ADD PUSH1 0x40 MLOAD SWAP1 DUP2 ADD PUSH1 0x40 MSTORE DUP1 SWAP3 SWAP2 SWAP1 DUP2 DUP2 MSTORE PUSH1 0x20 ADD DUP3 DUP1 SLOAD DUP1 ISZERO PUSH2 0x3DEC JUMPI PUSH1 0x20 MUL DUP3 ADD SWAP2 SWAP1 PUSH1 0x0 MSTORE PUSH1 0x20 PUSH1 0x0 KECCAK256 SWAP1 JUMPDEST DUP2 SLOAD DUP2 MSTORE PUSH1 0x20 ADD SWAP1 PUSH1 0x1 ADD SWAP1 DUP1 DUP4 GT PUSH2 0x3DD8 JUMPI JUMPDEST POP POP POP POP POP DUP2 MSTORE PUSH1 0x20 ADD PUSH1 0x7 DUP3 ADD PUSH1 0x0 SWAP1 SLOAD SWAP1 PUSH2 0x100 EXP SWAP1 DIV PUSH1 0xFF AND ISZERO ISZERO ISZERO ISZERO DUP2 MSTORE PUSH1 0x20 ADD PUSH1 0x8 DUP3 ADD DUP1 SLOAD DUP1 PUSH1 0x20 MUL PUSH1 0x20 ADD PUSH1 0x40 MLOAD SWAP1 DUP2 ADD PUSH1 0x40 MSTORE DUP1 SWAP3 SWAP2 SWAP1 DUP2 DUP2 MSTORE PUSH1 0x20 ADD PUSH1 0x0 SWAP1 JUMPDEST DUP3 DUP3 LT ISZERO PUSH2 0x3EE1 JUMPI DUP4 DUP3 SWAP1 PUSH1 0x0 MSTORE PUSH1 0x20 PUSH1 0x0 KECCAK256 ADD DUP1 SLOAD PUSH2 0x3E54 SWAP1 PUSH2 0x6ACC JUMP JUMPDEST DUP1 PUSH1 0x1F ADD PUSH1 0x20 DUP1 SWAP2 DIV MUL PUSH1 0x20 ADD PUSH1 0x40 MLOAD SWAP1 DUP2 ADD PUSH1 0x40 MSTORE DUP1 SWAP3 SWAP2 SWAP1 DUP2 DUP2 MSTORE PUSH1 0x20 ADD DUP3 DUP1 SLOAD PUSH2 0x3E80 SWAP1 PUSH2 0x6ACC JUMP JUMPDEST DUP1 ISZERO PUSH2 0x3ECD JUMPI DUP1 PUSH1 0x1F LT PUSH2 0x3EA2 JUMPI PUSH2 0x100 DUP1 DUP4 SLOAD DIV MUL DUP4 MSTORE SWAP2 PUSH1 0x20 ADD SWAP2 PUSH2 0x3ECD JUMP JUMPDEST DUP3 ADD SWAP2 SWAP1 PUSH1 0x0 MSTORE PUSH1 0x20 PUSH1 0x0 KECCAK256 SWAP1 JUMPDEST DUP2 SLOAD DUP2 MSTORE SWAP1 PUSH1 0x1 ADD SWAP1 PUSH1 0x20 ADD DUP1 DUP4 GT PUSH2 0x3EB0 JUMPI DUP3 SWAP1 SUB PUSH1 0x1F AND DUP3 ADD SWAP2 JUMPDEST POP POP POP POP POP DUP2 MSTORE PUSH1 0x20 ADD SWAP1 PUSH1 0x1 ADD SWAP1 PUSH2 0x3E35 JUMP JUMPDEST POP POP POP POP DUP2 MSTORE POP POP SWAP1 POP SWAP2 SWAP1 POP JUMP JUMPDEST PUSH1 0x60 PUSH1 0xF DUP1 SLOAD DUP1 PUSH1 0x20 MUL PUSH1 0x20 ADD PUSH1 0x40 MLOAD SWAP1 DUP2 ADD PUSH1 0x40 MSTORE DUP1 SWAP3 SWAP2 SWAP1 DUP2 DUP2 MSTORE PUSH1 0x20 ADD DUP3 DUP1 SLOAD DUP1 ISZERO PUSH2 0x3F74 JUMPI PUSH1 0x20 MUL DUP3 ADD SWAP2 SWAP1 PUSH1 0x0 MSTORE PUSH1 0x20 PUSH1 0x0 KECCAK256 SWAP1 JUMPDEST DUP2 PUSH1 0x0 SWAP1 SLOAD SWAP1 PUSH2 0x100 EXP SWAP1 DIV PUSH20 0xFFFFFFFFFFFFFFFFFFFFFFFFFFFFFFFFFFFFFFFF AND PUSH20 0xFFFFFFFFFFFFFFFFFFFFFFFFFFFFFFFFFFFFFFFF AND DUP2 MSTORE PUSH1 0x20 ADD SWAP1 PUSH1 0x1 ADD SWAP1 DUP1 DUP4 GT PUSH2 0x3F2A JUMPI JUMPDEST POP POP POP POP POP SWAP1 POP SWAP1 JUMP JUMPDEST PUSH1 0x60 PUSH2 0x3F96 DUP4 DUP4 PUSH1 0xC PUSH2 0x561B SWAP1 SWAP3 SWAP2 SWAP1 PUSH4 0xFFFFFFFF AND JUMP JUMPDEST SWAP1 POP SWAP3 SWAP2 POP POP JUMP JUMPDEST PUSH1 0x0 PUSH1 0x5 PUSH1 0x0 DUP5 PUSH20 0xFFFFFFFFFFFFFFFFFFFFFFFFFFFFFFFFFFFFFFFF AND PUSH20 0xFFFFFFFFFFFFFFFFFFFFFFFFFFFFFFFFFFFFFFFF AND DUP2 MSTORE PUSH1 0x20 ADD SWAP1 DUP2 MSTORE PUSH1 0x20 ADD PUSH1 0x0 KECCAK256 PUSH1 0x0 DUP4 PUSH20 0xFFFFFFFFFFFFFFFFFFFFFFFFFFFFFFFFFFFFFFFF AND PUSH20 0xFFFFFFFFFFFFFFFFFFFFFFFFFFFFFFFFFFFFFFFF AND DUP2 MSTORE PUSH1 0x20 ADD SWAP1 DUP2 MSTORE PUSH1 0x20 ADD PUSH1 0x0 KECCAK256 PUSH1 0x0 SWAP1 SLOAD SWAP1 PUSH2 0x100 EXP SWAP1 DIV PUSH1 0xFF AND SWAP1 POP SWAP3 SWAP2 POP POP JUMP JUMPDEST PUSH2 0x403A PUSH2 0x41FF JUMP JUMPDEST PUSH20 0xFFFFFFFFFFFFFFFFFFFFFFFFFFFFFFFFFFFFFFFF AND PUSH2 0x4058 PUSH2 0x276E JUMP JUMPDEST PUSH20 0xFFFFFFFFFFFFFFFFFFFFFFFFFFFFFFFFFFFFFFFF AND EQ PUSH2 0x40AE JUMPI PUSH1 0x40 MLOAD PUSH32 0x8C379A000000000000000000000000000000000000000000000000000000000 DUP2 MSTORE PUSH1 0x4 ADD PUSH2 0x40A5 SWAP1 PUSH2 0x734D JUMP JUMPDEST PUSH1 0x40 MLOAD DUP1 SWAP2 SUB SWAP1 REVERT JUMPDEST PUSH1 0x0 PUSH20 0xFFFFFFFFFFFFFFFFFFFFFFFFFFFFFFFFFFFFFFFF AND DUP2 PUSH20 0xFFFFFFFFFFFFFFFFFFFFFFFFFFFFFFFFFFFFFFFF AND SUB PUSH2 0x411D JUMPI PUSH1 0x40 MLOAD PUSH32 0x8C379A000000000000000000000000000000000000000000000000000000000 DUP2 MSTORE PUSH1 0x4 ADD PUSH2 0x4114 SWAP1 PUSH2 0x79A5 JUMP JUMPDEST PUSH1 0x40 MLOAD DUP1 SWAP2 SUB SWAP1 REVERT JUMPDEST PUSH2 0x4126 DUP2 PUSH2 0x4F10 JUMP JUMPDEST POP JUMP JUMPDEST PUSH1 0x0 PUSH32 0x1FFC9A700000000000000000000000000000000000000000000000000000000 PUSH28 0xFFFFFFFFFFFFFFFFFFFFFFFFFFFFFFFFFFFFFFFFFFFFFFFFFFFFFFFF NOT AND DUP3 PUSH28 0xFFFFFFFFFFFFFFFFFFFFFFFFFFFFFFFFFFFFFFFFFFFFFFFFFFFFFFFF NOT AND EQ SWAP1 POP SWAP2 SWAP1 POP JUMP JUMPDEST PUSH1 0x0 DUP1 PUSH20 0xFFFFFFFFFFFFFFFFFFFFFFFFFFFFFFFFFFFFFFFF AND PUSH1 0x2 PUSH1 0x0 DUP5 DUP2 MSTORE PUSH1 0x20 ADD SWAP1 DUP2 MSTORE PUSH1 0x20 ADD PUSH1 0x0 KECCAK256 PUSH1 0x0 SWAP1 SLOAD SWAP1 PUSH2 0x100 EXP SWAP1 DIV PUSH20 0xFFFFFFFFFFFFFFFFFFFFFFFFFFFFFFFFFFFFFFFF AND PUSH20 0xFFFFFFFFFFFFFFFFFFFFFFFFFFFFFFFFFFFFFFFF AND EQ ISZERO SWAP1 POP SWAP2 SWAP1 POP JUMP JUMPDEST PUSH1 0x0 CALLER SWAP1 POP SWAP1 JUMP JUMPDEST DUP2 PUSH1 0x4 PUSH1 0x0 DUP4 DUP2 MSTORE PUSH1 0x20 ADD SWAP1 DUP2 MSTORE PUSH1 0x20 ADD PUSH1 0x0 KECCAK256 PUSH1 0x0 PUSH2 0x100 EXP DUP2 SLOAD DUP2 PUSH20 0xFFFFFFFFFFFFFFFFFFFFFFFFFFFFFFFFFFFFFFFF MUL NOT AND SWAP1 DUP4 PUSH20 0xFFFFFFFFFFFFFFFFFFFFFFFFFFFFFFFFFFFFFFFF AND MUL OR SWAP1 SSTORE POP DUP1 DUP3 PUSH20 0xFFFFFFFFFFFFFFFFFFFFFFFFFFFFFFFFFFFFFFFF AND PUSH2 0x427A DUP4 PUSH2 0x1D93 JUMP JUMPDEST PUSH20 0xFFFFFFFFFFFFFFFFFFFFFFFFFFFFFFFFFFFFFFFF AND PUSH32 0x8C5BE1E5EBEC7D5BD14F71427D1E84F3DD0314C0F7B2291E5B200AC8C7C3B925 PUSH1 0x40 MLOAD PUSH1 0x40 MLOAD DUP1 SWAP2 SUB SWAP1 LOG4 POP POP JUMP JUMPDEST PUSH1 0x0 DUP4 DUP4 DUP4 PUSH1 0x40 MLOAD PUSH2 0x42D3 SWAP3 SWAP2 SWAP1 PUSH2 0x70B9 JUMP JUMPDEST SWAP1 DUP2 MSTORE PUSH1 0x20 ADD PUSH1 0x40 MLOAD DUP1 SWAP2 SUB SWAP1 KECCAK256 PUSH1 0x2 ADD PUSH1 0x0 SWAP1 SLOAD SWAP1 PUSH2 0x100 EXP SWAP1 DIV PUSH1 0xFF AND SWAP1 POP SWAP4 SWAP3 POP POP POP JUMP JUMPDEST PUSH1 0x0 DUP9 DUP9 SWAP1 POP GT PUSH2 0x4341 JUMPI PUSH1 0x40 MLOAD PUSH32 0x8C379A000000000000000000000000000000000000000000000000000000000 DUP2 MSTORE PUSH1 0x4 ADD PUSH2 0x4338 SWAP1 PUSH2 0x7A11 JUMP JUMPDEST PUSH1 0x40 MLOAD DUP1 SWAP2 SUB SWAP1 REVERT JUMPDEST PUSH1 0x0 DUP10 DUP10 DUP10 PUSH1 0x40 MLOAD PUSH2 0x4354 SWAP3 SWAP2 SWAP1 PUSH2 0x70B9 JUMP JUMPDEST SWAP1 DUP2 MSTORE PUSH1 0x20 ADD PUSH1 0x40 MLOAD DUP1 SWAP2 SUB SWAP1 KECCAK256 PUSH1 0x0 ADD DUP1 SLOAD PUSH2 0x4370 SWAP1 PUSH2 0x6ACC JUMP JUMPDEST SWAP1 POP EQ PUSH2 0x43B2 JUMPI PUSH1 0x40 MLOAD PUSH32 0x8C379A000000000000000000000000000000000000000000000000000000000 DUP2 MSTORE PUSH1 0x4 ADD PUSH2 0x43A9 SWAP1 PUSH2 0x7A7D JUMP JUMPDEST PUSH1 0x40 MLOAD DUP1 SWAP2 SUB SWAP1 REVERT JUMPDEST PUSH1 0x0 DUP10 DUP10 DUP10 PUSH1 0x40 MLOAD PUSH2 0x43C5 SWAP3 SWAP2 SWAP1 PUSH2 0x70B9 JUMP JUMPDEST SWAP1 DUP2 MSTORE PUSH1 0x20 ADD PUSH1 0x40 MLOAD DUP1 SWAP2 SUB SWAP1 KECCAK256 SWAP1 POP DUP9 DUP9 DUP3 PUSH1 0x0 ADD SWAP2 DUP3 PUSH2 0x43E8 SWAP3 SWAP2 SWAP1 PUSH2 0x6FB9 JUMP JUMPDEST POP DUP7 DUP7 DUP3 PUSH1 0x1 ADD SWAP2 DUP3 PUSH2 0x43FC SWAP3 SWAP2 SWAP1 PUSH2 0x6FB9 JUMP JUMPDEST POP DUP5 DUP5 DUP3 PUSH1 0x2 ADD SWAP2 DUP3 PUSH2 0x4410 SWAP3 SWAP2 SWAP1 PUSH2 0x6FB9 JUMP JUMPDEST POP DUP2 DUP2 PUSH1 0x4 ADD DUP2 SWAP1 SSTORE POP DUP3 DUP2 PUSH1 0x3 ADD PUSH1 0x0 PUSH2 0x100 EXP DUP2 SLOAD DUP2 PUSH20 0xFFFFFFFFFFFFFFFFFFFFFFFFFFFFFFFFFFFFFFFF MUL NOT AND SWAP1 DUP4 PUSH20 0xFFFFFFFFFFFFFFFFFFFFFFFFFFFFFFFFFFFFFFFF AND MUL OR SWAP1 SSTORE POP DUP1 PUSH1 0x5 ADD DUP4 SWAP1 DUP1 PUSH1 0x1 DUP2 SLOAD ADD DUP1 DUP3 SSTORE DUP1 SWAP2 POP POP PUSH1 0x1 SWAP1 SUB SWAP1 PUSH1 0x0 MSTORE PUSH1 0x20 PUSH1 0x0 KECCAK256 ADD PUSH1 0x0 SWAP1 SWAP2 SWAP1 SWAP2 SWAP1 SWAP2 PUSH2 0x100 EXP DUP2 SLOAD DUP2 PUSH20 0xFFFFFFFFFFFFFFFFFFFFFFFFFFFFFFFFFFFFFFFF MUL NOT AND SWAP1 DUP4 PUSH20 0xFFFFFFFFFFFFFFFFFFFFFFFFFFFFFFFFFFFFFFFF AND MUL OR SWAP1 SSTORE POP POP POP POP POP POP POP POP POP POP POP JUMP JUMPDEST DUP3 PUSH1 0x8 ADD DUP3 DUP3 SWAP1 SWAP2 DUP1 PUSH1 0x1 DUP2 SLOAD ADD DUP1 DUP3 SSTORE DUP1 SWAP2 POP POP PUSH1 0x1 SWAP1 SUB SWAP1 PUSH1 0x0 MSTORE PUSH1 0x20 PUSH1 0x0 KECCAK256 ADD PUSH1 0x0 SWAP1 SWAP2 SWAP3 SWAP1 SWAP2 SWAP3 SWAP1 SWAP2 SWAP3 SWAP1 SWAP2 SWAP3 POP SWAP2 DUP3 PUSH2 0x450D SWAP3 SWAP2 SWAP1 PUSH2 0x6FB9 JUMP JUMPDEST POP POP POP POP JUMP JUMPDEST PUSH1 0x0 PUSH20 0xFFFFFFFFFFFFFFFFFFFFFFFFFFFFFFFFFFFFFFFF AND DUP3 PUSH20 0xFFFFFFFFFFFFFFFFFFFFFFFFFFFFFFFFFFFFFFFF AND SUB PUSH2 0x4582 JUMPI PUSH1 0x40 MLOAD PUSH32 0x8C379A000000000000000000000000000000000000000000000000000000000 DUP2 MSTORE PUSH1 0x4 ADD PUSH2 0x4579 SWAP1 PUSH2 0x7AE9 JUMP JUMPDEST PUSH1 0x40 MLOAD DUP1 SWAP2 SUB SWAP1 REVERT JUMPDEST PUSH2 0x458B DUP2 PUSH2 0x4193 JUMP JUMPDEST ISZERO PUSH2 0x45CB JUMPI PUSH1 0x40 MLOAD PUSH32 0x8C379A000000000000000000000000000000000000000000000000000000000 DUP2 MSTORE PUSH1 0x4 ADD PUSH2 0x45C2 SWAP1 PUSH2 0x7B55 JUMP JUMPDEST PUSH1 0x40 MLOAD DUP1 SWAP2 SUB SWAP1 REVERT JUMPDEST PUSH2 0x45D7 PUSH1 0x0 DUP4 DUP4 PUSH2 0x573E JUMP JUMPDEST PUSH1 0x1 PUSH1 0x3 PUSH1 0x0 DUP5 PUSH20 0xFFFFFFFFFFFFFFFFFFFFFFFFFFFFFFFFFFFFFFFF AND PUSH20 0xFFFFFFFFFFFFFFFFFFFFFFFFFFFFFFFFFFFFFFFF AND DUP2 MSTORE PUSH1 0x20 ADD SWAP1 DUP2 MSTORE PUSH1 0x20 ADD PUSH1 0x0 KECCAK256 PUSH1 0x0 DUP3 DUP3 SLOAD PUSH2 0x4627 SWAP2 SWAP1 PUSH2 0x7B75 JUMP JUMPDEST SWAP3 POP POP DUP2 SWAP1 SSTORE POP DUP2 PUSH1 0x2 PUSH1 0x0 DUP4 DUP2 MSTORE PUSH1 0x20 ADD SWAP1 DUP2 MSTORE PUSH1 0x20 ADD PUSH1 0x0 KECCAK256 PUSH1 0x0 PUSH2 0x100 EXP DUP2 SLOAD DUP2 PUSH20 0xFFFFFFFFFFFFFFFFFFFFFFFFFFFFFFFFFFFFFFFF MUL NOT AND SWAP1 DUP4 PUSH20 0xFFFFFFFFFFFFFFFFFFFFFFFFFFFFFFFFFFFFFFFF AND MUL OR SWAP1 SSTORE POP DUP1 DUP3 PUSH20 0xFFFFFFFFFFFFFFFFFFFFFFFFFFFFFFFFFFFFFFFF AND PUSH1 0x0 PUSH20 0xFFFFFFFFFFFFFFFFFFFFFFFFFFFFFFFFFFFFFFFF AND PUSH32 0xDDF252AD1BE2C89B69C2B068FC378DAA952BA7F163C4A11628F55A4DF523B3EF PUSH1 0x40 MLOAD PUSH1 0x40 MLOAD DUP1 SWAP2 SUB SWAP1 LOG4 PUSH2 0x46E8 PUSH1 0x0 DUP4 DUP4 PUSH2 0x5743 JUMP JUMPDEST POP POP JUMP JUMPDEST DUP2 PUSH1 0x6 ADD DUP2 SWAP1 DUP1 PUSH1 0x1 DUP2 SLOAD ADD DUP1 DUP3 SSTORE DUP1 SWAP2 POP POP PUSH1 0x1 SWAP1 SUB SWAP1 PUSH1 0x0 MSTORE PUSH1 0x20 PUSH1 0x0 KECCAK256 ADD PUSH1 0x0 SWAP1 SWAP2 SWAP1 SWAP2 SWAP1 SWAP2 POP SSTORE POP POP JUMP JUMPDEST PUSH1 0x0 PUSH2 0x4726 DUP3 PUSH2 0x4193 JUMP JUMPDEST PUSH2 0x4765 JUMPI PUSH1 0x40 MLOAD PUSH32 0x8C379A000000000000000000000000000000000000000000000000000000000 DUP2 MSTORE PUSH1 0x4 ADD PUSH2 0x475C SWAP1 PUSH2 0x7C1B JUMP JUMPDEST PUSH1 0x40 MLOAD DUP1 SWAP2 SUB SWAP1 REVERT JUMPDEST PUSH1 0x0 PUSH2 0x4770 DUP4 PUSH2 0x1D93 JUMP JUMPDEST SWAP1 POP DUP1 PUSH20 0xFFFFFFFFFFFFFFFFFFFFFFFFFFFFFFFFFFFFFFFF AND DUP5 PUSH20 0xFFFFFFFFFFFFFFFFFFFFFFFFFFFFFFFFFFFFFFFF AND EQ DUP1 PUSH2 0x47B2 JUMPI POP PUSH2 0x47B1 DUP2 DUP6 PUSH2 0x3F9E JUMP JUMPDEST JUMPDEST DUP1 PUSH2 0x47F0 JUMPI POP DUP4 PUSH20 0xFFFFFFFFFFFFFFFFFFFFFFFFFFFFFFFFFFFFFFFF AND PUSH2 0x47D8 DUP5 PUSH2 0xC51 JUMP JUMPDEST PUSH20 0xFFFFFFFFFFFFFFFFFFFFFFFFFFFFFFFFFFFFFFFF AND EQ JUMPDEST SWAP2 POP POP SWAP3 SWAP2 POP POP JUMP JUMPDEST DUP3 PUSH20 0xFFFFFFFFFFFFFFFFFFFFFFFFFFFFFFFFFFFFFFFF AND PUSH2 0x4819 DUP3 PUSH2 0x1D93 JUMP JUMPDEST PUSH20 0xFFFFFFFFFFFFFFFFFFFFFFFFFFFFFFFFFFFFFFFF AND EQ PUSH2 0x486F JUMPI PUSH1 0x40 MLOAD PUSH32 0x8C379A000000000000000000000000000000000000000000000000000000000 DUP2 MSTORE PUSH1 0x4 ADD PUSH2 0x4866 SWAP1 PUSH2 0x7CAD JUMP JUMPDEST PUSH1 0x40 MLOAD DUP1 SWAP2 SUB SWAP1 REVERT JUMPDEST PUSH1 0x0 PUSH20 0xFFFFFFFFFFFFFFFFFFFFFFFFFFFFFFFFFFFFFFFF AND DUP3 PUSH20 0xFFFFFFFFFFFFFFFFFFFFFFFFFFFFFFFFFFFFFFFF AND SUB PUSH2 0x48DE JUMPI PUSH1 0x40 MLOAD PUSH32 0x8C379A000000000000000000000000000000000000000000000000000000000 DUP2 MSTORE PUSH1 0x4 ADD PUSH2 0x48D5 SWAP1 PUSH2 0x7D3F JUMP JUMPDEST PUSH1 0x40 MLOAD DUP1 SWAP2 SUB SWAP1 REVERT JUMPDEST PUSH2 0x48E9 DUP4 DUP4 DUP4 PUSH2 0x573E JUMP JUMPDEST PUSH2 0x48F4 PUSH1 0x0 DUP3 PUSH2 0x4207 JUMP JUMPDEST PUSH1 0x1 PUSH1 0x3 PUSH1 0x0 DUP6 PUSH20 0xFFFFFFFFFFFFFFFFFFFFFFFFFFFFFFFFFFFFFFFF AND PUSH20 0xFFFFFFFFFFFFFFFFFFFFFFFFFFFFFFFFFFFFFFFF AND DUP2 MSTORE PUSH1 0x20 ADD SWAP1 DUP2 MSTORE PUSH1 0x20 ADD PUSH1 0x0 KECCAK256 PUSH1 0x0 DUP3 DUP3 SLOAD PUSH2 0x4944 SWAP2 SWAP1 PUSH2 0x7D5F JUMP JUMPDEST SWAP3 POP POP DUP2 SWAP1 SSTORE POP PUSH1 0x1 PUSH1 0x3 PUSH1 0x0 DUP5 PUSH20 0xFFFFFFFFFFFFFFFFFFFFFFFFFFFFFFFFFFFFFFFF AND PUSH20 0xFFFFFFFFFFFFFFFFFFFFFFFFFFFFFFFFFFFFFFFF AND DUP2 MSTORE PUSH1 0x20 ADD SWAP1 DUP2 MSTORE PUSH1 0x20 ADD PUSH1 0x0 KECCAK256 PUSH1 0x0 DUP3 DUP3 SLOAD PUSH2 0x499B SWAP2 SWAP1 PUSH2 0x7B75 JUMP JUMPDEST SWAP3 POP POP DUP2 SWAP1 SSTORE POP DUP2 PUSH1 0x2 PUSH1 0x0 DUP4 DUP2 MSTORE PUSH1 0x20 ADD SWAP1 DUP2 MSTORE PUSH1 0x20 ADD PUSH1 0x0 KECCAK256 PUSH1 0x0 PUSH2 0x100 EXP DUP2 SLOAD DUP2 PUSH20 0xFFFFFFFFFFFFFFFFFFFFFFFFFFFFFFFFFFFFFFFF MUL NOT AND SWAP1 DUP4 PUSH20 0xFFFFFFFFFFFFFFFFFFFFFFFFFFFFFFFFFFFFFFFF AND MUL OR SWAP1 SSTORE POP DUP1 DUP3 PUSH20 0xFFFFFFFFFFFFFFFFFFFFFFFFFFFFFFFFFFFFFFFF AND DUP5 PUSH20 0xFFFFFFFFFFFFFFFFFFFFFFFFFFFFFFFFFFFFFFFF AND PUSH32 0xDDF252AD1BE2C89B69C2B068FC378DAA952BA7F163C4A11628F55A4DF523B3EF PUSH1 0x40 MLOAD PUSH1 0x40 MLOAD DUP1 SWAP2 SUB SWAP1 LOG4 PUSH2 0x4A5A DUP4 DUP4 DUP4 PUSH2 0x5743 JUMP JUMPDEST POP POP POP JUMP JUMPDEST PUSH1 0x0 DUP3 DUP3 SWAP1 POP GT PUSH2 0x4AA5 JUMPI PUSH1 0x40 MLOAD PUSH32 0x8C379A000000000000000000000000000000000000000000000000000000000 DUP2 MSTORE PUSH1 0x4 ADD PUSH2 0x4A9C SWAP1 PUSH2 0x7DDF JUMP JUMPDEST PUSH1 0x40 MLOAD DUP1 SWAP2 SUB SWAP1 REVERT JUMPDEST DUP3 PUSH1 0x2 ADD DUP3 DUP3 SWAP1 SWAP2 DUP1 PUSH1 0x1 DUP2 SLOAD ADD DUP1 DUP3 SSTORE DUP1 SWAP2 POP POP PUSH1 0x1 SWAP1 SUB SWAP1 PUSH1 0x0 MSTORE PUSH1 0x20 PUSH1 0x0 KECCAK256 ADD PUSH1 0x0 SWAP1 SWAP2 SWAP3 SWAP1 SWAP2 SWAP3 SWAP1 SWAP2 SWAP3 SWAP1 SWAP2 SWAP3 POP SWAP2 DUP3 PUSH2 0x4AE4 SWAP3 SWAP2 SWAP1 PUSH2 0x6FB9 JUMP JUMPDEST POP POP POP POP JUMP JUMPDEST PUSH1 0x0 DUP5 DUP5 DUP5 PUSH1 0x40 MLOAD PUSH2 0x4AFD SWAP3 SWAP2 SWAP1 PUSH2 0x70B9 JUMP JUMPDEST SWAP1 DUP2 MSTORE PUSH1 0x20 ADD PUSH1 0x40 MLOAD DUP1 SWAP2 SUB SWAP1 KECCAK256 SWAP1 POP PUSH1 0x0 DUP2 PUSH1 0x0 ADD DUP1 SLOAD PUSH2 0x4B1E SWAP1 PUSH2 0x6ACC JUMP JUMPDEST SWAP1 POP GT PUSH2 0x4B60 JUMPI PUSH1 0x40 MLOAD PUSH32 0x8C379A000000000000000000000000000000000000000000000000000000000 DUP2 MSTORE PUSH1 0x4 ADD PUSH2 0x4B57 SWAP1 PUSH2 0x7E4B JUMP JUMPDEST PUSH1 0x40 MLOAD DUP1 SWAP2 SUB SWAP1 REVERT JUMPDEST PUSH1 0x0 DUP1 JUMPDEST DUP3 PUSH1 0x5 ADD DUP1 SLOAD SWAP1 POP DUP2 LT ISZERO PUSH2 0x4C02 JUMPI DUP4 PUSH20 0xFFFFFFFFFFFFFFFFFFFFFFFFFFFFFFFFFFFFFFFF AND DUP4 PUSH1 0x5 ADD DUP3 DUP2 SLOAD DUP2 LT PUSH2 0x4BA0 JUMPI PUSH2 0x4B9F PUSH2 0x7E6B JUMP JUMPDEST JUMPDEST SWAP1 PUSH1 0x0 MSTORE PUSH1 0x20 PUSH1 0x0 KECCAK256 ADD PUSH1 0x0 SWAP1 SLOAD SWAP1 PUSH2 0x100 EXP SWAP1 DIV PUSH20 0xFFFFFFFFFFFFFFFFFFFFFFFFFFFFFFFFFFFFFFFF AND PUSH20 0xFFFFFFFFFFFFFFFFFFFFFFFFFFFFFFFFFFFFFFFF AND SUB PUSH2 0x4BEF JUMPI PUSH1 0x1 SWAP2 POP PUSH2 0x4C02 JUMP JUMPDEST DUP1 DUP1 PUSH2 0x4BFA SWAP1 PUSH2 0x6DBA JUMP JUMPDEST SWAP2 POP POP PUSH2 0x4B64 JUMP JUMPDEST POP DUP1 ISZERO PUSH2 0x4C44 JUMPI PUSH1 0x40 MLOAD PUSH32 0x8C379A000000000000000000000000000000000000000000000000000000000 DUP2 MSTORE PUSH1 0x4 ADD PUSH2 0x4C3B SWAP1 PUSH2 0x7EE6 JUMP JUMPDEST PUSH1 0x40 MLOAD DUP1 SWAP2 SUB SWAP1 REVERT JUMPDEST DUP2 PUSH1 0x5 ADD DUP4 SWAP1 DUP1 PUSH1 0x1 DUP2 SLOAD ADD DUP1 DUP3 SSTORE DUP1 SWAP2 POP POP PUSH1 0x1 SWAP1 SUB SWAP1 PUSH1 0x0 MSTORE PUSH1 0x20 PUSH1 0x0 KECCAK256 ADD PUSH1 0x0 SWAP1 SWAP2 SWAP1 SWAP2 SWAP1 SWAP2 PUSH2 0x100 EXP DUP2 SLOAD DUP2 PUSH20 0xFFFFFFFFFFFFFFFFFFFFFFFFFFFFFFFFFFFFFFFF MUL NOT AND SWAP1 DUP4 PUSH20 0xFFFFFFFFFFFFFFFFFFFFFFFFFFFFFFFFFFFFFFFF AND MUL OR SWAP1 SSTORE POP POP POP POP POP POP POP JUMP JUMPDEST PUSH1 0x0 DUP1 DUP5 DUP5 DUP5 PUSH1 0x40 MLOAD PUSH2 0x4CC5 SWAP3 SWAP2 SWAP1 PUSH2 0x70B9 JUMP JUMPDEST SWAP1 DUP2 MSTORE PUSH1 0x20 ADD PUSH1 0x40 MLOAD DUP1 SWAP2 SUB SWAP1 KECCAK256 PUSH1 0x0 ADD DUP1 SLOAD PUSH2 0x4CE1 SWAP1 PUSH2 0x6ACC JUMP JUMPDEST SWAP1 POP GT SWAP1 POP SWAP4 SWAP3 POP POP POP JUMP JUMPDEST PUSH1 0x0 DUP3 DUP3 SWAP1 POP GT PUSH2 0x4D33 JUMPI PUSH1 0x40 MLOAD PUSH32 0x8C379A000000000000000000000000000000000000000000000000000000000 DUP2 MSTORE PUSH1 0x4 ADD PUSH2 0x4D2A SWAP1 PUSH2 0x7F52 JUMP JUMPDEST PUSH1 0x40 MLOAD DUP1 SWAP2 SUB SWAP1 REVERT JUMPDEST DUP2 DUP2 DUP5 PUSH1 0x5 ADD SWAP2 DUP3 PUSH2 0x4D46 SWAP3 SWAP2 SWAP1 PUSH2 0x6FB9 JUMP JUMPDEST POP POP POP POP JUMP JUMPDEST DUP3 DUP3 DUP3 PUSH1 0x40 MLOAD PUSH2 0x4D5D SWAP3 SWAP2 SWAP1 PUSH2 0x70B9 JUMP JUMPDEST SWAP1 DUP2 MSTORE PUSH1 0x20 ADD PUSH1 0x40 MLOAD DUP1 SWAP2 SUB SWAP1 KECCAK256 PUSH1 0x2 ADD PUSH1 0x0 SWAP1 SLOAD SWAP1 PUSH2 0x100 EXP SWAP1 DIV PUSH1 0xFF AND PUSH2 0x4DBB JUMPI PUSH1 0x40 MLOAD PUSH32 0x8C379A000000000000000000000000000000000000000000000000000000000 DUP2 MSTORE PUSH1 0x4 ADD PUSH2 0x4DB2 SWAP1 PUSH2 0x6D6B JUMP JUMPDEST PUSH1 0x40 MLOAD DUP1 SWAP2 SUB SWAP1 REVERT JUMPDEST DUP3 DUP3 DUP3 PUSH1 0x40 MLOAD PUSH2 0x4DCC SWAP3 SWAP2 SWAP1 PUSH2 0x70B9 JUMP JUMPDEST SWAP1 DUP2 MSTORE PUSH1 0x20 ADD PUSH1 0x40 MLOAD DUP1 SWAP2 SUB SWAP1 KECCAK256 PUSH1 0x0 DUP1 DUP3 ADD PUSH1 0x0 PUSH2 0x4DEB SWAP2 SWAP1 PUSH2 0x59AF JUMP JUMPDEST PUSH1 0x1 DUP3 ADD PUSH1 0x0 SWAP1 SSTORE PUSH1 0x2 DUP3 ADD PUSH1 0x0 PUSH2 0x100 EXP DUP2 SLOAD SWAP1 PUSH1 0xFF MUL NOT AND SWAP1 SSTORE POP POP POP POP POP JUMP JUMPDEST PUSH1 0x0 JUMPDEST DUP4 DUP1 SLOAD SWAP1 POP DUP2 LT ISZERO PUSH2 0x4F0A JUMPI DUP3 DUP3 PUSH1 0x40 MLOAD PUSH2 0x4E2D SWAP3 SWAP2 SWAP1 PUSH2 0x7F97 JUMP JUMPDEST PUSH1 0x40 MLOAD DUP1 SWAP2 SUB SWAP1 KECCAK256 DUP5 DUP3 DUP2 SLOAD DUP2 LT PUSH2 0x4E48 JUMPI PUSH2 0x4E47 PUSH2 0x7E6B JUMP JUMPDEST JUMPDEST SWAP1 PUSH1 0x0 MSTORE PUSH1 0x20 PUSH1 0x0 KECCAK256 ADD PUSH1 0x40 MLOAD PUSH2 0x4E5F SWAP2 SWAP1 PUSH2 0x8048 JUMP JUMPDEST PUSH1 0x40 MLOAD DUP1 SWAP2 SUB SWAP1 KECCAK256 SUB PUSH2 0x4EF7 JUMPI DUP4 PUSH1 0x1 DUP6 DUP1 SLOAD SWAP1 POP PUSH2 0x4E7E SWAP2 SWAP1 PUSH2 0x7D5F JUMP JUMPDEST DUP2 SLOAD DUP2 LT PUSH2 0x4E8F JUMPI PUSH2 0x4E8E PUSH2 0x7E6B JUMP JUMPDEST JUMPDEST SWAP1 PUSH1 0x0 MSTORE PUSH1 0x20 PUSH1 0x0 KECCAK256 ADD DUP5 DUP3 DUP2 SLOAD DUP2 LT PUSH2 0x4EAC JUMPI PUSH2 0x4EAB PUSH2 0x7E6B JUMP JUMPDEST JUMPDEST SWAP1 PUSH1 0x0 MSTORE PUSH1 0x20 PUSH1 0x0 KECCAK256 ADD SWAP1 DUP2 PUSH2 0x4EC2 SWAP2 SWAP1 PUSH2 0x808A JUMP JUMPDEST POP DUP4 DUP1 SLOAD DUP1 PUSH2 0x4ED4 JUMPI PUSH2 0x4ED3 PUSH2 0x8172 JUMP JUMPDEST JUMPDEST PUSH1 0x1 SWAP1 SUB DUP2 DUP2 SWAP1 PUSH1 0x0 MSTORE PUSH1 0x20 PUSH1 0x0 KECCAK256 ADD PUSH1 0x0 PUSH2 0x4EF0 SWAP2 SWAP1 PUSH2 0x59AF JUMP JUMPDEST SWAP1 SSTORE PUSH2 0x4F0A JUMP JUMPDEST DUP1 DUP1 PUSH2 0x4F02 SWAP1 PUSH2 0x6DBA JUMP JUMPDEST SWAP2 POP POP PUSH2 0x4E11 JUMP JUMPDEST POP POP POP POP JUMP JUMPDEST PUSH1 0x0 PUSH1 0x6 PUSH1 0x0 SWAP1 SLOAD SWAP1 PUSH2 0x100 EXP SWAP1 DIV PUSH20 0xFFFFFFFFFFFFFFFFFFFFFFFFFFFFFFFFFFFFFFFF AND SWAP1 POP DUP2 PUSH1 0x6 PUSH1 0x0 PUSH2 0x100 EXP DUP2 SLOAD DUP2 PUSH20 0xFFFFFFFFFFFFFFFFFFFFFFFFFFFFFFFFFFFFFFFF MUL NOT AND SWAP1 DUP4 PUSH20 0xFFFFFFFFFFFFFFFFFFFFFFFFFFFFFFFFFFFFFFFF AND MUL OR SWAP1 SSTORE POP DUP2 PUSH20 0xFFFFFFFFFFFFFFFFFFFFFFFFFFFFFFFFFFFFFFFF AND DUP2 PUSH20 0xFFFFFFFFFFFFFFFFFFFFFFFFFFFFFFFFFFFFFFFF AND PUSH32 0x8BE0079C531659141344CD1FD0A4F28419497F9722A3DAAFE3B4186F6B6457E0 PUSH1 0x40 MLOAD PUSH1 0x40 MLOAD DUP1 SWAP2 SUB SWAP1 LOG3 POP POP JUMP JUMPDEST PUSH1 0x0 DUP3 DUP3 SWAP1 POP GT PUSH2 0x501C JUMPI PUSH1 0x40 MLOAD PUSH32 0x8C379A000000000000000000000000000000000000000000000000000000000 DUP2 MSTORE PUSH1 0x4 ADD PUSH2 0x5013 SWAP1 PUSH2 0x7DDF JUMP JUMPDEST PUSH1 0x40 MLOAD DUP1 SWAP2 SUB SWAP1 REVERT JUMPDEST DUP3 PUSH1 0x3 ADD DUP3 DUP3 SWAP1 SWAP2 DUP1 PUSH1 0x1 DUP2 SLOAD ADD DUP1 DUP3 SSTORE DUP1 SWAP2 POP POP PUSH1 0x1 SWAP1 SUB SWAP1 PUSH1 0x0 MSTORE PUSH1 0x20 PUSH1 0x0 KECCAK256 ADD PUSH1 0x0 SWAP1 SWAP2 SWAP3 SWAP1 SWAP2 SWAP3 SWAP1 SWAP2 SWAP3 SWAP1 SWAP2 SWAP3 POP SWAP2 DUP3 PUSH2 0x505B SWAP3 SWAP2 SWAP1 PUSH2 0x6FB9 JUMP JUMPDEST POP POP POP POP JUMP JUMPDEST DUP4 DUP4 DUP4 PUSH1 0x40 MLOAD PUSH2 0x5072 SWAP3 SWAP2 SWAP1 PUSH2 0x70B9 JUMP JUMPDEST SWAP1 DUP2 MSTORE PUSH1 0x20 ADD PUSH1 0x40 MLOAD DUP1 SWAP2 SUB SWAP1 KECCAK256 PUSH1 0x2 ADD PUSH1 0x0 SWAP1 SLOAD SWAP1 PUSH2 0x100 EXP SWAP1 DIV PUSH1 0xFF AND PUSH2 0x50D0 JUMPI PUSH1 0x40 MLOAD PUSH32 0x8C379A000000000000000000000000000000000000000000000000000000000 DUP2 MSTORE PUSH1 0x4 ADD PUSH2 0x50C7 SWAP1 PUSH2 0x6D6B JUMP JUMPDEST PUSH1 0x40 MLOAD DUP1 SWAP2 SUB SWAP1 REVERT JUMPDEST DUP1 DUP5 DUP5 DUP5 PUSH1 0x40 MLOAD PUSH2 0x50E2 SWAP3 SWAP2 SWAP1 PUSH2 0x70B9 JUMP JUMPDEST SWAP1 DUP2 MSTORE PUSH1 0x20 ADD PUSH1 0x40 MLOAD DUP1 SWAP2 SUB SWAP1 KECCAK256 PUSH1 0x1 ADD DUP2 SWAP1 SSTORE POP POP POP POP POP JUMP JUMPDEST DUP2 PUSH20 0xFFFFFFFFFFFFFFFFFFFFFFFFFFFFFFFFFFFFFFFF AND DUP4 PUSH20 0xFFFFFFFFFFFFFFFFFFFFFFFFFFFFFFFFFFFFFFFF AND SUB PUSH2 0x516B JUMPI PUSH1 0x40 MLOAD PUSH32 0x8C379A000000000000000000000000000000000000000000000000000000000 DUP2 MSTORE PUSH1 0x4 ADD PUSH2 0x5162 SWAP1 PUSH2 0x81ED JUMP JUMPDEST PUSH1 0x40 MLOAD DUP1 SWAP2 SUB SWAP1 REVERT JUMPDEST DUP1 PUSH1 0x5 PUSH1 0x0 DUP6 PUSH20 0xFFFFFFFFFFFFFFFFFFFFFFFFFFFFFFFFFFFFFFFF AND PUSH20 0xFFFFFFFFFFFFFFFFFFFFFFFFFFFFFFFFFFFFFFFF AND DUP2 MSTORE PUSH1 0x20 ADD SWAP1 DUP2 MSTORE PUSH1 0x20 ADD PUSH1 0x0 KECCAK256 PUSH1 0x0 DUP5 PUSH20 0xFFFFFFFFFFFFFFFFFFFFFFFFFFFFFFFFFFFFFFFF AND PUSH20 0xFFFFFFFFFFFFFFFFFFFFFFFFFFFFFFFFFFFFFFFF AND DUP2 MSTORE PUSH1 0x20 ADD SWAP1 DUP2 MSTORE PUSH1 0x20 ADD PUSH1 0x0 KECCAK256 PUSH1 0x0 PUSH2 0x100 EXP DUP2 SLOAD DUP2 PUSH1 0xFF MUL NOT AND SWAP1 DUP4 ISZERO ISZERO MUL OR SWAP1 SSTORE POP DUP2 PUSH20 0xFFFFFFFFFFFFFFFFFFFFFFFFFFFFFFFFFFFFFFFF AND DUP4 PUSH20 0xFFFFFFFFFFFFFFFFFFFFFFFFFFFFFFFFFFFFFFFF AND PUSH32 0x17307EAB39AB6107E8899845AD3D59BD9653F200F220920489CA2B5937696C31 DUP4 PUSH1 0x40 MLOAD PUSH2 0x525C SWAP2 SWAP1 PUSH2 0x5AC0 JUMP JUMPDEST PUSH1 0x40 MLOAD DUP1 SWAP2 SUB SWAP1 LOG3 POP POP POP JUMP JUMPDEST PUSH1 0x0 DUP3 DUP3 SWAP1 POP GT PUSH2 0x52AF JUMPI PUSH1 0x40 MLOAD PUSH32 0x8C379A000000000000000000000000000000000000000000000000000000000 DUP2 MSTORE PUSH1 0x4 ADD PUSH2 0x52A6 SWAP1 PUSH2 0x8259 JUMP JUMPDEST PUSH1 0x40 MLOAD DUP1 SWAP2 SUB SWAP1 REVERT JUMPDEST DUP3 PUSH1 0x1 ADD DUP3 DUP3 SWAP1 SWAP2 DUP1 PUSH1 0x1 DUP2 SLOAD ADD DUP1 DUP3 SSTORE DUP1 SWAP2 POP POP PUSH1 0x1 SWAP1 SUB SWAP1 PUSH1 0x0 MSTORE PUSH1 0x20 PUSH1 0x0 KECCAK256 ADD PUSH1 0x0 SWAP1 SWAP2 SWAP3 SWAP1 SWAP2 SWAP3 SWAP1 SWAP2 SWAP3 SWAP1 SWAP2 SWAP3 POP SWAP2 DUP3 PUSH2 0x52EE SWAP3 SWAP2 SWAP1 PUSH2 0x6FB9 JUMP JUMPDEST POP POP POP POP JUMP JUMPDEST PUSH1 0x0 DUP4 DUP4 DUP4 PUSH1 0x40 MLOAD PUSH2 0x5307 SWAP3 SWAP2 SWAP1 PUSH2 0x70B9 JUMP JUMPDEST SWAP1 DUP2 MSTORE PUSH1 0x20 ADD PUSH1 0x40 MLOAD DUP1 SWAP2 SUB SWAP1 KECCAK256 PUSH1 0x2 ADD PUSH1 0x0 SWAP1 SLOAD SWAP1 PUSH2 0x100 EXP SWAP1 DIV PUSH1 0xFF AND PUSH2 0x5365 JUMPI PUSH1 0x40 MLOAD PUSH32 0x8C379A000000000000000000000000000000000000000000000000000000000 DUP2 MSTORE PUSH1 0x4 ADD PUSH2 0x535C SWAP1 PUSH2 0x6D6B JUMP JUMPDEST PUSH1 0x40 MLOAD DUP1 SWAP2 SUB SWAP1 REVERT JUMPDEST DUP4 DUP4 DUP4 PUSH1 0x40 MLOAD PUSH2 0x5376 SWAP3 SWAP2 SWAP1 PUSH2 0x70B9 JUMP JUMPDEST SWAP1 DUP2 MSTORE PUSH1 0x20 ADD PUSH1 0x40 MLOAD DUP1 SWAP2 SUB SWAP1 KECCAK256 PUSH1 0x1 ADD SLOAD SWAP1 POP SWAP4 SWAP3 POP POP POP JUMP JUMPDEST DUP4 PUSH1 0x4 ADD PUSH1 0x40 MLOAD DUP1 PUSH1 0x40 ADD PUSH1 0x40 MSTORE DUP1 DUP6 DUP6 DUP1 DUP1 PUSH1 0x1F ADD PUSH1 0x20 DUP1 SWAP2 DIV MUL PUSH1 0x20 ADD PUSH1 0x40 MLOAD SWAP1 DUP2 ADD PUSH1 0x40 MSTORE DUP1 SWAP4 SWAP3 SWAP2 SWAP1 DUP2 DUP2 MSTORE PUSH1 0x20 ADD DUP4 DUP4 DUP1 DUP3 DUP5 CALLDATACOPY PUSH1 0x0 DUP2 DUP5 ADD MSTORE PUSH1 0x1F NOT PUSH1 0x1F DUP3 ADD AND SWAP1 POP DUP1 DUP4 ADD SWAP3 POP POP POP POP POP POP POP DUP2 MSTORE PUSH1 0x20 ADD DUP4 DUP2 MSTORE POP SWAP1 DUP1 PUSH1 0x1 DUP2 SLOAD ADD DUP1 DUP3 SSTORE DUP1 SWAP2 POP POP PUSH1 0x1 SWAP1 SUB SWAP1 PUSH1 0x0 MSTORE PUSH1 0x20 PUSH1 0x0 KECCAK256 SWAP1 PUSH1 0x2 MUL ADD PUSH1 0x0 SWAP1 SWAP2 SWAP1 SWAP2 SWAP1 SWAP2 POP PUSH1 0x0 DUP3 ADD MLOAD DUP2 PUSH1 0x0 ADD SWAP1 DUP2 PUSH2 0x542C SWAP2 SWAP1 PUSH2 0x719D JUMP JUMPDEST POP PUSH1 0x20 DUP3 ADD MLOAD DUP2 PUSH1 0x1 ADD SSTORE POP POP POP POP POP POP JUMP JUMPDEST PUSH2 0x544A DUP5 DUP5 DUP5 PUSH2 0x47F9 JUMP JUMPDEST PUSH2 0x5456 DUP5 DUP5 DUP5 DUP5 PUSH2 0x5748 JUMP JUMPDEST PUSH2 0x5495 JUMPI PUSH1 0x40 MLOAD PUSH32 0x8C379A000000000000000000000000000000000000000000000000000000000 DUP2 MSTORE PUSH1 0x4 ADD PUSH2 0x548C SWAP1 PUSH2 0x82EB JUMP JUMPDEST PUSH1 0x40 MLOAD DUP1 SWAP2 SUB SWAP1 REVERT JUMPDEST POP POP POP POP JUMP JUMPDEST PUSH1 0x0 DUP4 DUP4 SWAP1 POP GT PUSH2 0x54E1 JUMPI PUSH1 0x40 MLOAD PUSH32 0x8C379A000000000000000000000000000000000000000000000000000000000 DUP2 MSTORE PUSH1 0x4 ADD PUSH2 0x54D8 SWAP1 PUSH2 0x8357 JUMP JUMPDEST PUSH1 0x40 MLOAD DUP1 SWAP2 SUB SWAP1 REVERT JUMPDEST DUP4 DUP4 DUP4 PUSH1 0x40 MLOAD PUSH2 0x54F2 SWAP3 SWAP2 SWAP1 PUSH2 0x70B9 JUMP JUMPDEST SWAP1 DUP2 MSTORE PUSH1 0x20 ADD PUSH1 0x40 MLOAD DUP1 SWAP2 SUB SWAP1 KECCAK256 PUSH1 0x2 ADD PUSH1 0x0 SWAP1 SLOAD SWAP1 PUSH2 0x100 EXP SWAP1 DIV PUSH1 0xFF AND ISZERO PUSH2 0x5551 JUMPI PUSH1 0x40 MLOAD PUSH32 0x8C379A000000000000000000000000000000000000000000000000000000000 DUP2 MSTORE PUSH1 0x4 ADD PUSH2 0x5548 SWAP1 PUSH2 0x83C3 JUMP JUMPDEST PUSH1 0x40 MLOAD DUP1 SWAP2 SUB SWAP1 REVERT JUMPDEST PUSH1 0x40 MLOAD DUP1 PUSH1 0x60 ADD PUSH1 0x40 MSTORE DUP1 DUP5 DUP5 DUP1 DUP1 PUSH1 0x1F ADD PUSH1 0x20 DUP1 SWAP2 DIV MUL PUSH1 0x20 ADD PUSH1 0x40 MLOAD SWAP1 DUP2 ADD PUSH1 0x40 MSTORE DUP1 SWAP4 SWAP3 SWAP2 SWAP1 DUP2 DUP2 MSTORE PUSH1 0x20 ADD DUP4 DUP4 DUP1 DUP3 DUP5 CALLDATACOPY PUSH1 0x0 DUP2 DUP5 ADD MSTORE PUSH1 0x1F NOT PUSH1 0x1F DUP3 ADD AND SWAP1 POP DUP1 DUP4 ADD SWAP3 POP POP POP POP POP POP POP DUP2 MSTORE PUSH1 0x20 ADD DUP3 DUP2 MSTORE PUSH1 0x20 ADD PUSH1 0x1 ISZERO ISZERO DUP2 MSTORE POP DUP5 DUP5 DUP5 PUSH1 0x40 MLOAD PUSH2 0x55C4 SWAP3 SWAP2 SWAP1 PUSH2 0x70B9 JUMP JUMPDEST SWAP1 DUP2 MSTORE PUSH1 0x20 ADD PUSH1 0x40 MLOAD DUP1 SWAP2 SUB SWAP1 KECCAK256 PUSH1 0x0 DUP3 ADD MLOAD DUP2 PUSH1 0x0 ADD SWAP1 DUP2 PUSH2 0x55E7 SWAP2 SWAP1 PUSH2 0x719D JUMP JUMPDEST POP PUSH1 0x20 DUP3 ADD MLOAD DUP2 PUSH1 0x1 ADD SSTORE PUSH1 0x40 DUP3 ADD MLOAD DUP2 PUSH1 0x2 ADD PUSH1 0x0 PUSH2 0x100 EXP DUP2 SLOAD DUP2 PUSH1 0xFF MUL NOT AND SWAP1 DUP4 ISZERO ISZERO MUL OR SWAP1 SSTORE POP SWAP1 POP POP POP POP POP POP JUMP JUMPDEST PUSH1 0x60 PUSH1 0x0 DUP5 DUP5 DUP5 PUSH1 0x40 MLOAD PUSH2 0x5630 SWAP3 SWAP2 SWAP1 PUSH2 0x70B9 JUMP JUMPDEST SWAP1 DUP2 MSTORE PUSH1 0x20 ADD PUSH1 0x40 MLOAD DUP1 SWAP2 SUB SWAP1 KECCAK256 PUSH1 0x0 ADD DUP1 SLOAD PUSH2 0x564C SWAP1 PUSH2 0x6ACC JUMP JUMPDEST SWAP1 POP GT PUSH2 0x568E JUMPI PUSH1 0x40 MLOAD PUSH32 0x8C379A000000000000000000000000000000000000000000000000000000000 DUP2 MSTORE PUSH1 0x4 ADD PUSH2 0x5685 SWAP1 PUSH2 0x74FB JUMP JUMPDEST PUSH1 0x40 MLOAD DUP1 SWAP2 SUB SWAP1 REVERT JUMPDEST DUP4 DUP4 DUP4 PUSH1 0x40 MLOAD PUSH2 0x569F SWAP3 SWAP2 SWAP1 PUSH2 0x70B9 JUMP JUMPDEST SWAP1 DUP2 MSTORE PUSH1 0x20 ADD PUSH1 0x40 MLOAD DUP1 SWAP2 SUB SWAP1 KECCAK256 PUSH1 0x5 ADD DUP1 SLOAD DUP1 PUSH1 0x20 MUL PUSH1 0x20 ADD PUSH1 0x40 MLOAD SWAP1 DUP2 ADD PUSH1 0x40 MSTORE DUP1 SWAP3 SWAP2 SWAP1 DUP2 DUP2 MSTORE PUSH1 0x20 ADD DUP3 DUP1 SLOAD DUP1 ISZERO PUSH2 0x5730 JUMPI PUSH1 0x20 MUL DUP3 ADD SWAP2 SWAP1 PUSH1 0x0 MSTORE PUSH1 0x20 PUSH1 0x0 KECCAK256 SWAP1 JUMPDEST DUP2 PUSH1 0x0 SWAP1 SLOAD SWAP1 PUSH2 0x100 EXP SWAP1 DIV PUSH20 0xFFFFFFFFFFFFFFFFFFFFFFFFFFFFFFFFFFFFFFFF AND PUSH20 0xFFFFFFFFFFFFFFFFFFFFFFFFFFFFFFFFFFFFFFFF AND DUP2 MSTORE PUSH1 0x20 ADD SWAP1 PUSH1 0x1 ADD SWAP1 DUP1 DUP4 GT PUSH2 0x56E6 JUMPI JUMPDEST POP POP POP POP POP SWAP1 POP SWAP4 SWAP3 POP POP POP JUMP JUMPDEST POP POP POP JUMP JUMPDEST POP POP POP JUMP JUMPDEST PUSH1 0x0 PUSH2 0x5769 DUP5 PUSH20 0xFFFFFFFFFFFFFFFFFFFFFFFFFFFFFFFFFFFFFFFF AND PUSH2 0x58CF JUMP JUMPDEST ISZERO PUSH2 0x58C2 JUMPI DUP4 PUSH20 0xFFFFFFFFFFFFFFFFFFFFFFFFFFFFFFFFFFFFFFFF AND PUSH4 0x150B7A02 PUSH2 0x5792 PUSH2 0x41FF JUMP JUMPDEST DUP8 DUP7 DUP7 PUSH1 0x40 MLOAD DUP6 PUSH4 0xFFFFFFFF AND PUSH1 0xE0 SHL DUP2 MSTORE PUSH1 0x4 ADD PUSH2 0x57B4 SWAP5 SWAP4 SWAP3 SWAP2 SWAP1 PUSH2 0x8438 JUMP JUMPDEST PUSH1 0x20 PUSH1 0x40 MLOAD DUP1 DUP4 SUB DUP2 PUSH1 0x0 DUP8 GAS CALL SWAP3 POP POP POP DUP1 ISZERO PUSH2 0x57F0 JUMPI POP PUSH1 0x40 MLOAD RETURNDATASIZE PUSH1 0x1F NOT PUSH1 0x1F DUP3 ADD AND DUP3 ADD DUP1 PUSH1 0x40 MSTORE POP DUP2 ADD SWAP1 PUSH2 0x57ED SWAP2 SWAP1 PUSH2 0x8499 JUMP JUMPDEST PUSH1 0x1 JUMPDEST PUSH2 0x5872 JUMPI RETURNDATASIZE DUP1 PUSH1 0x0 DUP2 EQ PUSH2 0x5820 JUMPI PUSH1 0x40 MLOAD SWAP2 POP PUSH1 0x1F NOT PUSH1 0x3F RETURNDATASIZE ADD AND DUP3 ADD PUSH1 0x40 MSTORE RETURNDATASIZE DUP3 MSTORE RETURNDATASIZE PUSH1 0x0 PUSH1 0x20 DUP5 ADD RETURNDATACOPY PUSH2 0x5825 JUMP JUMPDEST PUSH1 0x60 SWAP2 POP JUMPDEST POP PUSH1 0x0 DUP2 MLOAD SUB PUSH2 0x586A JUMPI PUSH1 0x40 MLOAD PUSH32 0x8C379A000000000000000000000000000000000000000000000000000000000 DUP2 MSTORE PUSH1 0x4 ADD PUSH2 0x5861 SWAP1 PUSH2 0x82EB JUMP JUMPDEST PUSH1 0x40 MLOAD DUP1 SWAP2 SUB SWAP1 REVERT JUMPDEST DUP1 MLOAD DUP2 PUSH1 0x20 ADD REVERT JUMPDEST PUSH4 0x150B7A02 PUSH1 0xE0 SHL PUSH28 0xFFFFFFFFFFFFFFFFFFFFFFFFFFFFFFFFFFFFFFFFFFFFFFFFFFFFFFFF NOT AND DUP2 PUSH28 0xFFFFFFFFFFFFFFFFFFFFFFFFFFFFFFFFFFFFFFFFFFFFFFFFFFFFFFFF NOT AND EQ SWAP2 POP POP PUSH2 0x58C7 JUMP JUMPDEST PUSH1 0x1 SWAP1 POP JUMPDEST SWAP5 SWAP4 POP POP POP POP JUMP JUMPDEST PUSH1 0x0 DUP1 DUP3 PUSH20 0xFFFFFFFFFFFFFFFFFFFFFFFFFFFFFFFFFFFFFFFF AND EXTCODESIZE GT SWAP1 POP SWAP2 SWAP1 POP JUMP JUMPDEST PUSH1 0x40 MLOAD DUP1 PUSH1 0xC0 ADD PUSH1 0x40 MSTORE DUP1 PUSH1 0x60 DUP2 MSTORE PUSH1 0x20 ADD PUSH1 0x60 DUP2 MSTORE PUSH1 0x20 ADD PUSH1 0x60 DUP2 MSTORE PUSH1 0x20 ADD PUSH1 0x0 PUSH20 0xFFFFFFFFFFFFFFFFFFFFFFFFFFFFFFFFFFFFFFFF AND DUP2 MSTORE PUSH1 0x20 ADD PUSH1 0x0 DUP2 MSTORE PUSH1 0x20 ADD PUSH1 0x60 DUP2 MSTORE POP SWAP1 JUMP JUMPDEST PUSH1 0x40 MLOAD DUP1 PUSH1 0x60 ADD PUSH1 0x40 MSTORE DUP1 PUSH1 0x60 DUP2 MSTORE PUSH1 0x20 ADD PUSH1 0x0 DUP2 MSTORE PUSH1 0x20 ADD PUSH1 0x0 ISZERO ISZERO DUP2 MSTORE POP SWAP1 JUMP JUMPDEST PUSH1 0x40 MLOAD DUP1 PUSH2 0x120 ADD PUSH1 0x40 MSTORE DUP1 PUSH1 0x60 DUP2 MSTORE PUSH1 0x20 ADD PUSH1 0x60 DUP2 MSTORE PUSH1 0x20 ADD PUSH1 0x60 DUP2 MSTORE PUSH1 0x20 ADD PUSH1 0x60 DUP2 MSTORE PUSH1 0x20 ADD PUSH1 0x60 DUP2 MSTORE PUSH1 0x20 ADD PUSH1 0x60 DUP2 MSTORE PUSH1 0x20 ADD PUSH1 0x60 DUP2 MSTORE PUSH1 0x20 ADD PUSH1 0x0 ISZERO ISZERO DUP2 MSTORE PUSH1 0x20 ADD PUSH1 0x60 DUP2 MSTORE POP SWAP1 JUMP JUMPDEST POP DUP1 SLOAD PUSH2 0x59BB SWAP1 PUSH2 0x6ACC JUMP JUMPDEST PUSH1 0x0 DUP3 SSTORE DUP1 PUSH1 0x1F LT PUSH2 0x59CD JUMPI POP PUSH2 0x59EC JUMP JUMPDEST PUSH1 0x1F ADD PUSH1 0x20 SWAP1 DIV SWAP1 PUSH1 0x0 MSTORE PUSH1 0x20 PUSH1 0x0 KECCAK256 SWAP1 DUP2 ADD SWAP1 PUSH2 0x59EB SWAP2 SWAP1 PUSH2 0x59EF JUMP JUMPDEST JUMPDEST POP JUMP JUMPDEST JUMPDEST DUP1 DUP3 GT ISZERO PUSH2 0x5A08 JUMPI PUSH1 0x0 DUP2 PUSH1 0x0 SWAP1 SSTORE POP PUSH1 0x1 ADD PUSH2 0x59F0 JUMP JUMPDEST POP SWAP1 JUMP JUMPDEST PUSH1 0x0 PUSH1 0x40 MLOAD SWAP1 POP SWAP1 JUMP JUMPDEST PUSH1 0x0 DUP1 REVERT JUMPDEST PUSH1 0x0 DUP1 REVERT JUMPDEST PUSH1 0x0 PUSH32 0xFFFFFFFF00000000000000000000000000000000000000000000000000000000 DUP3 AND SWAP1 POP SWAP2 SWAP1 POP JUMP JUMPDEST PUSH2 0x5A55 DUP2 PUSH2 0x5A20 JUMP JUMPDEST DUP2 EQ PUSH2 0x5A60 JUMPI PUSH1 0x0 DUP1 REVERT JUMPDEST POP JUMP JUMPDEST PUSH1 0x0 DUP2 CALLDATALOAD SWAP1 POP PUSH2 0x5A72 DUP2 PUSH2 0x5A4C JUMP JUMPDEST SWAP3 SWAP2 POP POP JUMP JUMPDEST PUSH1 0x0 PUSH1 0x20 DUP3 DUP5 SUB SLT ISZERO PUSH2 0x5A8E JUMPI PUSH2 0x5A8D PUSH2 0x5A16 JUMP JUMPDEST JUMPDEST PUSH1 0x0 PUSH2 0x5A9C DUP5 DUP3 DUP6 ADD PUSH2 0x5A63 JUMP JUMPDEST SWAP2 POP POP SWAP3 SWAP2 POP POP JUMP JUMPDEST PUSH1 0x0 DUP2 ISZERO ISZERO SWAP1 POP SWAP2 SWAP1 POP JUMP JUMPDEST PUSH2 0x5ABA DUP2 PUSH2 0x5AA5 JUMP JUMPDEST DUP3 MSTORE POP POP JUMP JUMPDEST PUSH1 0x0 PUSH1 0x20 DUP3 ADD SWAP1 POP PUSH2 0x5AD5 PUSH1 0x0 DUP4 ADD DUP5 PUSH2 0x5AB1 JUMP JUMPDEST SWAP3 SWAP2 POP POP JUMP JUMPDEST PUSH1 0x0 DUP2 MLOAD SWAP1 POP SWAP2 SWAP1 POP JUMP JUMPDEST PUSH1 0x0 DUP3 DUP3 MSTORE PUSH1 0x20 DUP3 ADD SWAP1 POP SWAP3 SWAP2 POP POP JUMP JUMPDEST PUSH1 0x0 JUMPDEST DUP4 DUP2 LT ISZERO PUSH2 0x5B15 JUMPI DUP1 DUP3 ADD MLOAD DUP2 DUP5 ADD MSTORE PUSH1 0x20 DUP2 ADD SWAP1 POP PUSH2 0x5AFA JUMP JUMPDEST PUSH1 0x0 DUP5 DUP5 ADD MSTORE POP POP POP POP JUMP JUMPDEST PUSH1 0x0 PUSH1 0x1F NOT PUSH1 0x1F DUP4 ADD AND SWAP1 POP SWAP2 SWAP1 POP JUMP JUMPDEST PUSH1 0x0 PUSH2 0x5B3D DUP3 PUSH2 0x5ADB JUMP JUMPDEST PUSH2 0x5B47 DUP2 DUP6 PUSH2 0x5AE6 JUMP JUMPDEST SWAP4 POP PUSH2 0x5B57 DUP2 DUP6 PUSH1 0x20 DUP7 ADD PUSH2 0x5AF7 JUMP JUMPDEST PUSH2 0x5B60 DUP2 PUSH2 0x5B21 JUMP JUMPDEST DUP5 ADD SWAP2 POP POP SWAP3 SWAP2 POP POP JUMP JUMPDEST PUSH1 0x0 PUSH1 0x20 DUP3 ADD SWAP1 POP DUP2 DUP2 SUB PUSH1 0x0 DUP4 ADD MSTORE PUSH2 0x5B85 DUP2 DUP5 PUSH2 0x5B32 JUMP JUMPDEST SWAP1 POP SWAP3 SWAP2 POP POP JUMP JUMPDEST PUSH1 0x0 DUP2 SWAP1 POP SWAP2 SWAP1 POP JUMP JUMPDEST PUSH2 0x5BA0 DUP2 PUSH2 0x5B8D JUMP JUMPDEST DUP2 EQ PUSH2 0x5BAB JUMPI PUSH1 0x0 DUP1 REVERT JUMPDEST POP JUMP JUMPDEST PUSH1 0x0 DUP2 CALLDATALOAD SWAP1 POP PUSH2 0x5BBD DUP2 PUSH2 0x5B97 JUMP JUMPDEST SWAP3 SWAP2 POP POP JUMP JUMPDEST PUSH1 0x0 PUSH1 0x20 DUP3 DUP5 SUB SLT ISZERO PUSH2 0x5BD9 JUMPI PUSH2 0x5BD8 PUSH2 0x5A16 JUMP JUMPDEST JUMPDEST PUSH1 0x0 PUSH2 0x5BE7 DUP5 DUP3 DUP6 ADD PUSH2 0x5BAE JUMP JUMPDEST SWAP2 POP POP SWAP3 SWAP2 POP POP JUMP JUMPDEST PUSH1 0x0 PUSH20 0xFFFFFFFFFFFFFFFFFFFFFFFFFFFFFFFFFFFFFFFF DUP3 AND SWAP1 POP SWAP2 SWAP1 POP JUMP JUMPDEST PUSH1 0x0 PUSH2 0x5C1B DUP3 PUSH2 0x5BF0 JUMP JUMPDEST SWAP1 POP SWAP2 SWAP1 POP JUMP JUMPDEST PUSH2 0x5C2B DUP2 PUSH2 0x5C10 JUMP JUMPDEST DUP3 MSTORE POP POP JUMP JUMPDEST PUSH1 0x0 PUSH1 0x20 DUP3 ADD SWAP1 POP PUSH2 0x5C46 PUSH1 0x0 DUP4 ADD DUP5 PUSH2 0x5C22 JUMP JUMPDEST SWAP3 SWAP2 POP POP JUMP JUMPDEST PUSH2 0x5C55 DUP2 PUSH2 0x5C10 JUMP JUMPDEST DUP2 EQ PUSH2 0x5C60 JUMPI PUSH1 0x0 DUP1 REVERT JUMPDEST POP JUMP JUMPDEST PUSH1 0x0 DUP2 CALLDATALOAD SWAP1 POP PUSH2 0x5C72 DUP2 PUSH2 0x5C4C JUMP JUMPDEST SWAP3 SWAP2 POP POP JUMP JUMPDEST PUSH1 0x0 DUP1 PUSH1 0x40 DUP4 DUP6 SUB SLT ISZERO PUSH2 0x5C8F JUMPI PUSH2 0x5C8E PUSH2 0x5A16 JUMP JUMPDEST JUMPDEST PUSH1 0x0 PUSH2 0x5C9D DUP6 DUP3 DUP7 ADD PUSH2 0x5C63 JUMP JUMPDEST SWAP3 POP POP PUSH1 0x20 PUSH2 0x5CAE DUP6 DUP3 DUP7 ADD PUSH2 0x5BAE JUMP JUMPDEST SWAP2 POP POP SWAP3 POP SWAP3 SWAP1 POP JUMP JUMPDEST PUSH1 0x0 PUSH1 0x20 DUP3 DUP5 SUB SLT ISZERO PUSH2 0x5CCE JUMPI PUSH2 0x5CCD PUSH2 0x5A16 JUMP JUMPDEST JUMPDEST PUSH1 0x0 PUSH2 0x5CDC DUP5 DUP3 DUP6 ADD PUSH2 0x5C63 JUMP JUMPDEST SWAP2 POP POP SWAP3 SWAP2 POP POP JUMP JUMPDEST PUSH1 0x0 DUP1 REVERT JUMPDEST PUSH1 0x0 DUP1 REVERT JUMPDEST PUSH1 0x0 DUP1 REVERT JUMPDEST PUSH1 0x0 DUP1 DUP4 PUSH1 0x1F DUP5 ADD SLT PUSH2 0x5D0A JUMPI PUSH2 0x5D09 PUSH2 0x5CE5 JUMP JUMPDEST JUMPDEST DUP3 CALLDATALOAD SWAP1 POP PUSH8 0xFFFFFFFFFFFFFFFF DUP2 GT ISZERO PUSH2 0x5D27 JUMPI PUSH2 0x5D26 PUSH2 0x5CEA JUMP JUMPDEST JUMPDEST PUSH1 0x20 DUP4 ADD SWAP2 POP DUP4 PUSH1 0x1 DUP3 MUL DUP4 ADD GT ISZERO PUSH2 0x5D43 JUMPI PUSH2 0x5D42 PUSH2 0x5CEF JUMP JUMPDEST JUMPDEST SWAP3 POP SWAP3 SWAP1 POP JUMP JUMPDEST PUSH1 0x0 DUP1 PUSH1 0x0 DUP1 PUSH1 0x0 DUP1 PUSH1 0x60 DUP8 DUP10 SUB SLT ISZERO PUSH2 0x5D67 JUMPI PUSH2 0x5D66 PUSH2 0x5A16 JUMP JUMPDEST JUMPDEST PUSH1 0x0 DUP8 ADD CALLDATALOAD PUSH8 0xFFFFFFFFFFFFFFFF DUP2 GT ISZERO PUSH2 0x5D85 JUMPI PUSH2 0x5D84 PUSH2 0x5A1B JUMP JUMPDEST JUMPDEST PUSH2 0x5D91 DUP10 DUP3 DUP11 ADD PUSH2 0x5CF4 JUMP JUMPDEST SWAP7 POP SWAP7 POP POP PUSH1 0x20 DUP8 ADD CALLDATALOAD PUSH8 0xFFFFFFFFFFFFFFFF DUP2 GT ISZERO PUSH2 0x5DB4 JUMPI PUSH2 0x5DB3 PUSH2 0x5A1B JUMP JUMPDEST JUMPDEST PUSH2 0x5DC0 DUP10 DUP3 DUP11 ADD PUSH2 0x5CF4 JUMP JUMPDEST SWAP5 POP SWAP5 POP POP PUSH1 0x40 DUP8 ADD CALLDATALOAD PUSH8 0xFFFFFFFFFFFFFFFF DUP2 GT ISZERO PUSH2 0x5DE3 JUMPI PUSH2 0x5DE2 PUSH2 0x5A1B JUMP JUMPDEST JUMPDEST PUSH2 0x5DEF DUP10 DUP3 DUP11 ADD PUSH2 0x5CF4 JUMP JUMPDEST SWAP3 POP SWAP3 POP POP SWAP3 SWAP6 POP SWAP3 SWAP6 POP SWAP3 SWAP6 JUMP JUMPDEST PUSH1 0x0 DUP1 REVERT JUMPDEST PUSH32 0x4E487B7100000000000000000000000000000000000000000000000000000000 PUSH1 0x0 MSTORE PUSH1 0x41 PUSH1 0x4 MSTORE PUSH1 0x24 PUSH1 0x0 REVERT JUMPDEST PUSH2 0x5E3B DUP3 PUSH2 0x5B21 JUMP JUMPDEST DUP2 ADD DUP2 DUP2 LT PUSH8 0xFFFFFFFFFFFFFFFF DUP3 GT OR ISZERO PUSH2 0x5E5A JUMPI PUSH2 0x5E59 PUSH2 0x5E03 JUMP JUMPDEST JUMPDEST DUP1 PUSH1 0x40 MSTORE POP POP POP JUMP JUMPDEST PUSH1 0x0 PUSH2 0x5E6D PUSH2 0x5A0C JUMP JUMPDEST SWAP1 POP PUSH2 0x5E79 DUP3 DUP3 PUSH2 0x5E32 JUMP JUMPDEST SWAP2 SWAP1 POP JUMP JUMPDEST PUSH1 0x0 PUSH8 0xFFFFFFFFFFFFFFFF DUP3 GT ISZERO PUSH2 0x5E99 JUMPI PUSH2 0x5E98 PUSH2 0x5E03 JUMP JUMPDEST JUMPDEST PUSH2 0x5EA2 DUP3 PUSH2 0x5B21 JUMP JUMPDEST SWAP1 POP PUSH1 0x20 DUP2 ADD SWAP1 POP SWAP2 SWAP1 POP JUMP JUMPDEST DUP3 DUP2 DUP4 CALLDATACOPY PUSH1 0x0 DUP4 DUP4 ADD MSTORE POP POP POP JUMP JUMPDEST PUSH1 0x0 PUSH2 0x5ED1 PUSH2 0x5ECC DUP5 PUSH2 0x5E7E JUMP JUMPDEST PUSH2 0x5E63 JUMP JUMPDEST SWAP1 POP DUP3 DUP2 MSTORE PUSH1 0x20 DUP2 ADD DUP5 DUP5 DUP5 ADD GT ISZERO PUSH2 0x5EED JUMPI PUSH2 0x5EEC PUSH2 0x5DFE JUMP JUMPDEST JUMPDEST PUSH2 0x5EF8 DUP5 DUP3 DUP6 PUSH2 0x5EAF JUMP JUMPDEST POP SWAP4 SWAP3 POP POP POP JUMP JUMPDEST PUSH1 0x0 DUP3 PUSH1 0x1F DUP4 ADD SLT PUSH2 0x5F15 JUMPI PUSH2 0x5F14 PUSH2 0x5CE5 JUMP JUMPDEST JUMPDEST DUP2 CALLDATALOAD PUSH2 0x5F25 DUP5 DUP3 PUSH1 0x20 DUP7 ADD PUSH2 0x5EBE JUMP JUMPDEST SWAP2 POP POP SWAP3 SWAP2 POP POP JUMP JUMPDEST PUSH1 0x0 PUSH1 0x20 DUP3 DUP5 SUB SLT ISZERO PUSH2 0x5F44 JUMPI PUSH2 0x5F43 PUSH2 0x5A16 JUMP JUMPDEST JUMPDEST PUSH1 0x0 DUP3 ADD CALLDATALOAD PUSH8 0xFFFFFFFFFFFFFFFF DUP2 GT ISZERO PUSH2 0x5F62 JUMPI PUSH2 0x5F61 PUSH2 0x5A1B JUMP JUMPDEST JUMPDEST PUSH2 0x5F6E DUP5 DUP3 DUP6 ADD PUSH2 0x5F00 JUMP JUMPDEST SWAP2 POP POP SWAP3 SWAP2 POP POP JUMP JUMPDEST PUSH1 0x0 DUP1 PUSH1 0x0 PUSH1 0x60 DUP5 DUP7 SUB SLT ISZERO PUSH2 0x5F90 JUMPI PUSH2 0x5F8F PUSH2 0x5A16 JUMP JUMPDEST JUMPDEST PUSH1 0x0 PUSH2 0x5F9E DUP7 DUP3 DUP8 ADD PUSH2 0x5C63 JUMP JUMPDEST SWAP4 POP POP PUSH1 0x20 PUSH2 0x5FAF DUP7 DUP3 DUP8 ADD PUSH2 0x5C63 JUMP JUMPDEST SWAP3 POP POP PUSH1 0x40 PUSH2 0x5FC0 DUP7 DUP3 DUP8 ADD PUSH2 0x5BAE JUMP JUMPDEST SWAP2 POP POP SWAP3 POP SWAP3 POP SWAP3 JUMP JUMPDEST PUSH1 0x0 DUP1 PUSH1 0x20 DUP4 DUP6 SUB SLT ISZERO PUSH2 0x5FE1 JUMPI PUSH2 0x5FE0 PUSH2 0x5A16 JUMP JUMPDEST JUMPDEST PUSH1 0x0 DUP4 ADD CALLDATALOAD PUSH8 0xFFFFFFFFFFFFFFFF DUP2 GT ISZERO PUSH2 0x5FFF JUMPI PUSH2 0x5FFE PUSH2 0x5A1B JUMP JUMPDEST JUMPDEST PUSH2 0x600B DUP6 DUP3 DUP7 ADD PUSH2 0x5CF4 JUMP JUMPDEST SWAP3 POP SWAP3 POP POP SWAP3 POP SWAP3 SWAP1 POP JUMP JUMPDEST PUSH1 0x0 DUP2 MLOAD SWAP1 POP SWAP2 SWAP1 POP JUMP JUMPDEST PUSH1 0x0 DUP3 DUP3 MSTORE PUSH1 0x20 DUP3 ADD SWAP1 POP SWAP3 SWAP2 POP POP JUMP JUMPDEST PUSH1 0x0 DUP2 SWAP1 POP PUSH1 0x20 DUP3 ADD SWAP1 POP SWAP2 SWAP1 POP JUMP JUMPDEST PUSH1 0x0 DUP3 DUP3 MSTORE PUSH1 0x20 DUP3 ADD SWAP1 POP SWAP3 SWAP2 POP POP JUMP JUMPDEST PUSH1 0x0 PUSH2 0x605F DUP3 PUSH2 0x5ADB JUMP JUMPDEST PUSH2 0x6069 DUP2 DUP6 PUSH2 0x6043 JUMP JUMPDEST SWAP4 POP PUSH2 0x6079 DUP2 DUP6 PUSH1 0x20 DUP7 ADD PUSH2 0x5AF7 JUMP JUMPDEST PUSH2 0x6082 DUP2 PUSH2 0x5B21 JUMP JUMPDEST DUP5 ADD SWAP2 POP POP SWAP3 SWAP2 POP POP JUMP JUMPDEST PUSH2 0x6096 DUP2 PUSH2 0x5B8D JUMP JUMPDEST DUP3 MSTORE POP POP JUMP JUMPDEST PUSH1 0x0 PUSH1 0x40 DUP4 ADD PUSH1 0x0 DUP4 ADD MLOAD DUP5 DUP3 SUB PUSH1 0x0 DUP7 ADD MSTORE PUSH2 0x60B9 DUP3 DUP3 PUSH2 0x6054 JUMP JUMPDEST SWAP2 POP POP PUSH1 0x20 DUP4 ADD MLOAD PUSH2 0x60CE PUSH1 0x20 DUP7 ADD DUP3 PUSH2 0x608D JUMP JUMPDEST POP DUP1 SWAP2 POP POP SWAP3 SWAP2 POP POP JUMP JUMPDEST PUSH1 0x0 PUSH2 0x60E5 DUP4 DUP4 PUSH2 0x609C JUMP JUMPDEST SWAP1 POP SWAP3 SWAP2 POP POP JUMP JUMPDEST PUSH1 0x0 PUSH1 0x20 DUP3 ADD SWAP1 POP SWAP2 SWAP1 POP JUMP JUMPDEST PUSH1 0x0 PUSH2 0x6105 DUP3 PUSH2 0x6017 JUMP JUMPDEST PUSH2 0x610F DUP2 DUP6 PUSH2 0x6022 JUMP JUMPDEST SWAP4 POP DUP4 PUSH1 0x20 DUP3 MUL DUP6 ADD PUSH2 0x6121 DUP6 PUSH2 0x6033 JUMP JUMPDEST DUP1 PUSH1 0x0 JUMPDEST DUP6 DUP2 LT ISZERO PUSH2 0x615D JUMPI DUP5 DUP5 SUB DUP10 MSTORE DUP2 MLOAD PUSH2 0x613E DUP6 DUP3 PUSH2 0x60D9 JUMP JUMPDEST SWAP5 POP PUSH2 0x6149 DUP4 PUSH2 0x60ED JUMP JUMPDEST SWAP3 POP PUSH1 0x20 DUP11 ADD SWAP10 POP POP PUSH1 0x1 DUP2 ADD SWAP1 POP PUSH2 0x6125 JUMP JUMPDEST POP DUP3 SWAP8 POP DUP8 SWAP6 POP POP POP POP POP POP SWAP3 SWAP2 POP POP JUMP JUMPDEST PUSH1 0x0 PUSH1 0x20 DUP3 ADD SWAP1 POP DUP2 DUP2 SUB PUSH1 0x0 DUP4 ADD MSTORE PUSH2 0x6189 DUP2 DUP5 PUSH2 0x60FA JUMP JUMPDEST SWAP1 POP SWAP3 SWAP2 POP POP JUMP JUMPDEST PUSH2 0x619A DUP2 PUSH2 0x5B8D JUMP JUMPDEST DUP3 MSTORE POP POP JUMP JUMPDEST PUSH1 0x0 PUSH1 0x20 DUP3 ADD SWAP1 POP PUSH2 0x61B5 PUSH1 0x0 DUP4 ADD DUP5 PUSH2 0x6191 JUMP JUMPDEST SWAP3 SWAP2 POP POP JUMP JUMPDEST PUSH2 0x61C4 DUP2 PUSH2 0x5C10 JUMP JUMPDEST DUP3 MSTORE POP POP JUMP JUMPDEST PUSH1 0x0 DUP2 MLOAD SWAP1 POP SWAP2 SWAP1 POP JUMP JUMPDEST PUSH1 0x0 DUP3 DUP3 MSTORE PUSH1 0x20 DUP3 ADD SWAP1 POP SWAP3 SWAP2 POP POP JUMP JUMPDEST PUSH1 0x0 DUP2 SWAP1 POP PUSH1 0x20 DUP3 ADD SWAP1 POP SWAP2 SWAP1 POP JUMP JUMPDEST PUSH1 0x0 PUSH2 0x6202 DUP4 DUP4 PUSH2 0x61BB JUMP JUMPDEST PUSH1 0x20 DUP4 ADD SWAP1 POP SWAP3 SWAP2 POP POP JUMP JUMPDEST PUSH1 0x0 PUSH1 0x20 DUP3 ADD SWAP1 POP SWAP2 SWAP1 POP JUMP JUMPDEST PUSH1 0x0 PUSH2 0x6226 DUP3 PUSH2 0x61CA JUMP JUMPDEST PUSH2 0x6230 DUP2 DUP6 PUSH2 0x61D5 JUMP JUMPDEST SWAP4 POP PUSH2 0x623B DUP4 PUSH2 0x61E6 JUMP JUMPDEST DUP1 PUSH1 0x0 JUMPDEST DUP4 DUP2 LT ISZERO PUSH2 0x626C JUMPI DUP2 MLOAD PUSH2 0x6253 DUP9 DUP3 PUSH2 0x61F6 JUMP JUMPDEST SWAP8 POP PUSH2 0x625E DUP4 PUSH2 0x620E JUMP JUMPDEST SWAP3 POP POP PUSH1 0x1 DUP2 ADD SWAP1 POP PUSH2 0x623F JUMP JUMPDEST POP DUP6 SWAP4 POP POP POP POP SWAP3 SWAP2 POP POP JUMP JUMPDEST PUSH1 0x0 PUSH1 0xC0 DUP4 ADD PUSH1 0x0 DUP4 ADD MLOAD DUP5 DUP3 SUB PUSH1 0x0 DUP7 ADD MSTORE PUSH2 0x6296 DUP3 DUP3 PUSH2 0x6054 JUMP JUMPDEST SWAP2 POP POP PUSH1 0x20 DUP4 ADD MLOAD DUP5 DUP3 SUB PUSH1 0x20 DUP7 ADD MSTORE PUSH2 0x62B0 DUP3 DUP3 PUSH2 0x6054 JUMP JUMPDEST SWAP2 POP POP PUSH1 0x40 DUP4 ADD MLOAD DUP5 DUP3 SUB PUSH1 0x40 DUP7 ADD MSTORE PUSH2 0x62CA DUP3 DUP3 PUSH2 0x6054 JUMP JUMPDEST SWAP2 POP POP PUSH1 0x60 DUP4 ADD MLOAD PUSH2 0x62DF PUSH1 0x60 DUP7 ADD DUP3 PUSH2 0x61BB JUMP JUMPDEST POP PUSH1 0x80 DUP4 ADD MLOAD PUSH2 0x62F2 PUSH1 0x80 DUP7 ADD DUP3 PUSH2 0x608D JUMP JUMPDEST POP PUSH1 0xA0 DUP4 ADD MLOAD DUP5 DUP3 SUB PUSH1 0xA0 DUP7 ADD MSTORE PUSH2 0x630A DUP3 DUP3 PUSH2 0x621B JUMP JUMPDEST SWAP2 POP POP DUP1 SWAP2 POP POP SWAP3 SWAP2 POP POP JUMP JUMPDEST PUSH1 0x0 PUSH1 0x20 DUP3 ADD SWAP1 POP DUP2 DUP2 SUB PUSH1 0x0 DUP4 ADD MSTORE PUSH2 0x6331 DUP2 DUP5 PUSH2 0x6279 JUMP JUMPDEST SWAP1 POP SWAP3 SWAP2 POP POP JUMP JUMPDEST PUSH1 0x0 PUSH2 0x6344 DUP3 PUSH2 0x5BF0 JUMP JUMPDEST SWAP1 POP SWAP2 SWAP1 POP JUMP JUMPDEST PUSH2 0x6354 DUP2 PUSH2 0x6339 JUMP JUMPDEST DUP2 EQ PUSH2 0x635F JUMPI PUSH1 0x0 DUP1 REVERT JUMPDEST POP JUMP JUMPDEST PUSH1 0x0 DUP2 CALLDATALOAD SWAP1 POP PUSH2 0x6371 DUP2 PUSH2 0x634B JUMP JUMPDEST SWAP3 SWAP2 POP POP JUMP JUMPDEST PUSH1 0x0 PUSH1 0x20 DUP3 DUP5 SUB SLT ISZERO PUSH2 0x638D JUMPI PUSH2 0x638C PUSH2 0x5A16 JUMP JUMPDEST JUMPDEST PUSH1 0x0 PUSH2 0x639B DUP5 DUP3 DUP6 ADD PUSH2 0x6362 JUMP JUMPDEST SWAP2 POP POP SWAP3 SWAP2 POP POP JUMP JUMPDEST PUSH1 0x0 DUP2 MLOAD SWAP1 POP SWAP2 SWAP1 POP JUMP JUMPDEST PUSH1 0x0 DUP3 DUP3 MSTORE PUSH1 0x20 DUP3 ADD SWAP1 POP SWAP3 SWAP2 POP POP JUMP JUMPDEST PUSH1 0x0 DUP2 SWAP1 POP PUSH1 0x20 DUP3 ADD SWAP1 POP SWAP2 SWAP1 POP JUMP JUMPDEST PUSH1 0x0 PUSH2 0x63DC DUP4 DUP4 PUSH2 0x6054 JUMP JUMPDEST SWAP1 POP SWAP3 SWAP2 POP POP JUMP JUMPDEST PUSH1 0x0 PUSH1 0x20 DUP3 ADD SWAP1 POP SWAP2 SWAP1 POP JUMP JUMPDEST PUSH1 0x0 PUSH2 0x63FC DUP3 PUSH2 0x63A4 JUMP JUMPDEST PUSH2 0x6406 DUP2 DUP6 PUSH2 0x63AF JUMP JUMPDEST SWAP4 POP DUP4 PUSH1 0x20 DUP3 MUL DUP6 ADD PUSH2 0x6418 DUP6 PUSH2 0x63C0 JUMP JUMPDEST DUP1 PUSH1 0x0 JUMPDEST DUP6 DUP2 LT ISZERO PUSH2 0x6454 JUMPI DUP5 DUP5 SUB DUP10 MSTORE DUP2 MLOAD PUSH2 0x6435 DUP6 DUP3 PUSH2 0x63D0 JUMP JUMPDEST SWAP5 POP PUSH2 0x6440 DUP4 PUSH2 0x63E4 JUMP JUMPDEST SWAP3 POP PUSH1 0x20 DUP11 ADD SWAP10 POP POP PUSH1 0x1 DUP2 ADD SWAP1 POP PUSH2 0x641C JUMP JUMPDEST POP DUP3 SWAP8 POP DUP8 SWAP6 POP POP POP POP POP POP SWAP3 SWAP2 POP POP JUMP JUMPDEST PUSH1 0x0 PUSH1 0x20 DUP3 ADD SWAP1 POP DUP2 DUP2 SUB PUSH1 0x0 DUP4 ADD MSTORE PUSH2 0x6480 DUP2 DUP5 PUSH2 0x63F1 JUMP JUMPDEST SWAP1 POP SWAP3 SWAP2 POP POP JUMP JUMPDEST PUSH2 0x6491 DUP2 PUSH2 0x5AA5 JUMP JUMPDEST DUP3 MSTORE POP POP JUMP JUMPDEST PUSH1 0x0 PUSH1 0x60 DUP4 ADD PUSH1 0x0 DUP4 ADD MLOAD DUP5 DUP3 SUB PUSH1 0x0 DUP7 ADD MSTORE PUSH2 0x64B4 DUP3 DUP3 PUSH2 0x6054 JUMP JUMPDEST SWAP2 POP POP PUSH1 0x20 DUP4 ADD MLOAD PUSH2 0x64C9 PUSH1 0x20 DUP7 ADD DUP3 PUSH2 0x608D JUMP JUMPDEST POP PUSH1 0x40 DUP4 ADD MLOAD PUSH2 0x64DC PUSH1 0x40 DUP7 ADD DUP3 PUSH2 0x6488 JUMP JUMPDEST POP DUP1 SWAP2 POP POP SWAP3 SWAP2 POP POP JUMP JUMPDEST PUSH1 0x0 PUSH1 0x20 DUP3 ADD SWAP1 POP DUP2 DUP2 SUB PUSH1 0x0 DUP4 ADD MSTORE PUSH2 0x6501 DUP2 DUP5 PUSH2 0x6497 JUMP JUMPDEST SWAP1 POP SWAP3 SWAP2 POP POP JUMP JUMPDEST PUSH1 0x0 DUP3 DUP3 MSTORE PUSH1 0x20 DUP3 ADD SWAP1 POP SWAP3 SWAP2 POP POP JUMP JUMPDEST PUSH1 0x0 PUSH2 0x6525 DUP3 PUSH2 0x63A4 JUMP JUMPDEST PUSH2 0x652F DUP2 DUP6 PUSH2 0x6509 JUMP JUMPDEST SWAP4 POP DUP4 PUSH1 0x20 DUP3 MUL DUP6 ADD PUSH2 0x6541 DUP6 PUSH2 0x63C0 JUMP JUMPDEST DUP1 PUSH1 0x0 JUMPDEST DUP6 DUP2 LT ISZERO PUSH2 0x657D JUMPI DUP5 DUP5 SUB DUP10 MSTORE DUP2 MLOAD PUSH2 0x655E DUP6 DUP3 PUSH2 0x63D0 JUMP JUMPDEST SWAP5 POP PUSH2 0x6569 DUP4 PUSH2 0x63E4 JUMP JUMPDEST SWAP3 POP PUSH1 0x20 DUP11 ADD SWAP10 POP POP PUSH1 0x1 DUP2 ADD SWAP1 POP PUSH2 0x6545 JUMP JUMPDEST POP DUP3 SWAP8 POP DUP8 SWAP6 POP POP POP POP POP POP SWAP3 SWAP2 POP POP JUMP JUMPDEST PUSH1 0x0 DUP3 DUP3 MSTORE PUSH1 0x20 DUP3 ADD SWAP1 POP SWAP3 SWAP2 POP POP JUMP JUMPDEST PUSH1 0x0 PUSH2 0x65AB DUP3 PUSH2 0x6017 JUMP JUMPDEST PUSH2 0x65B5 DUP2 DUP6 PUSH2 0x658F JUMP JUMPDEST SWAP4 POP DUP4 PUSH1 0x20 DUP3 MUL DUP6 ADD PUSH2 0x65C7 DUP6 PUSH2 0x6033 JUMP JUMPDEST DUP1 PUSH1 0x0 JUMPDEST DUP6 DUP2 LT ISZERO PUSH2 0x6603 JUMPI DUP5 DUP5 SUB DUP10 MSTORE DUP2 MLOAD PUSH2 0x65E4 DUP6 DUP3 PUSH2 0x60D9 JUMP JUMPDEST SWAP5 POP PUSH2 0x65EF DUP4 PUSH2 0x60ED JUMP JUMPDEST SWAP3 POP PUSH1 0x20 DUP11 ADD SWAP10 POP POP PUSH1 0x1 DUP2 ADD SWAP1 POP PUSH2 0x65CB JUMP JUMPDEST POP DUP3 SWAP8 POP DUP8 SWAP6 POP POP POP POP POP POP SWAP3 SWAP2 POP POP JUMP JUMPDEST PUSH1 0x0 DUP2 MLOAD SWAP1 POP SWAP2 SWAP1 POP JUMP JUMPDEST PUSH1 0x0 DUP3 DUP3 MSTORE PUSH1 0x20 DUP3 ADD SWAP1 POP SWAP3 SWAP2 POP POP JUMP JUMPDEST PUSH1 0x0 DUP2 SWAP1 POP PUSH1 0x20 DUP3 ADD SWAP1 POP SWAP2 SWAP1 POP JUMP JUMPDEST PUSH1 0x0 PUSH2 0x664D DUP4 DUP4 PUSH2 0x608D JUMP JUMPDEST PUSH1 0x20 DUP4 ADD SWAP1 POP SWAP3 SWAP2 POP POP JUMP JUMPDEST PUSH1 0x0 PUSH1 0x20 DUP3 ADD SWAP1 POP SWAP2 SWAP1 POP JUMP JUMPDEST PUSH1 0x0 PUSH2 0x6671 DUP3 PUSH2 0x6615 JUMP JUMPDEST PUSH2 0x667B DUP2 DUP6 PUSH2 0x6620 JUMP JUMPDEST SWAP4 POP PUSH2 0x6686 DUP4 PUSH2 0x6631 JUMP JUMPDEST DUP1 PUSH1 0x0 JUMPDEST DUP4 DUP2 LT ISZERO PUSH2 0x66B7 JUMPI DUP2 MLOAD PUSH2 0x669E DUP9 DUP3 PUSH2 0x6641 JUMP JUMPDEST SWAP8 POP PUSH2 0x66A9 DUP4 PUSH2 0x6659 JUMP JUMPDEST SWAP3 POP POP PUSH1 0x1 DUP2 ADD SWAP1 POP PUSH2 0x668A JUMP JUMPDEST POP DUP6 SWAP4 POP POP POP POP SWAP3 SWAP2 POP POP JUMP JUMPDEST PUSH1 0x0 PUSH2 0x120 DUP4 ADD PUSH1 0x0 DUP4 ADD MLOAD DUP5 DUP3 SUB PUSH1 0x0 DUP7 ADD MSTORE PUSH2 0x66E2 DUP3 DUP3 PUSH2 0x6054 JUMP JUMPDEST SWAP2 POP POP PUSH1 0x20 DUP4 ADD MLOAD DUP5 DUP3 SUB PUSH1 0x20 DUP7 ADD MSTORE PUSH2 0x66FC DUP3 DUP3 PUSH2 0x651A JUMP JUMPDEST SWAP2 POP POP PUSH1 0x40 DUP4 ADD MLOAD DUP5 DUP3 SUB PUSH1 0x40 DUP7 ADD MSTORE PUSH2 0x6716 DUP3 DUP3 PUSH2 0x651A JUMP JUMPDEST SWAP2 POP POP PUSH1 0x60 DUP4 ADD MLOAD DUP5 DUP3 SUB PUSH1 0x60 DUP7 ADD MSTORE PUSH2 0x6730 DUP3 DUP3 PUSH2 0x651A JUMP JUMPDEST SWAP2 POP POP PUSH1 0x80 DUP4 ADD MLOAD DUP5 DUP3 SUB PUSH1 0x80 DUP7 ADD MSTORE PUSH2 0x674A DUP3 DUP3 PUSH2 0x65A0 JUMP JUMPDEST SWAP2 POP POP PUSH1 0xA0 DUP4 ADD MLOAD DUP5 DUP3 SUB PUSH1 0xA0 DUP7 ADD MSTORE PUSH2 0x6764 DUP3 DUP3 PUSH2 0x6054 JUMP JUMPDEST SWAP2 POP POP PUSH1 0xC0 DUP4 ADD MLOAD DUP5 DUP3 SUB PUSH1 0xC0 DUP7 ADD MSTORE PUSH2 0x677E DUP3 DUP3 PUSH2 0x6666 JUMP JUMPDEST SWAP2 POP POP PUSH1 0xE0 DUP4 ADD MLOAD PUSH2 0x6793 PUSH1 0xE0 DUP7 ADD DUP3 PUSH2 0x6488 JUMP JUMPDEST POP PUSH2 0x100 DUP4 ADD MLOAD DUP5 DUP3 SUB PUSH2 0x100 DUP7 ADD MSTORE PUSH2 0x67AD DUP3 DUP3 PUSH2 0x651A JUMP JUMPDEST SWAP2 POP POP DUP1 SWAP2 POP POP SWAP3 SWAP2 POP POP JUMP JUMPDEST PUSH1 0x0 PUSH1 0x20 DUP3 ADD SWAP1 POP DUP2 DUP2 SUB PUSH1 0x0 DUP4 ADD MSTORE PUSH2 0x67D4 DUP2 DUP5 PUSH2 0x66C4 JUMP JUMPDEST SWAP1 POP SWAP3 SWAP2 POP POP JUMP JUMPDEST PUSH1 0x0 DUP1 PUSH1 0x0 PUSH1 0x40 DUP5 DUP7 SUB SLT ISZERO PUSH2 0x67F5 JUMPI PUSH2 0x67F4 PUSH2 0x5A16 JUMP JUMPDEST JUMPDEST PUSH1 0x0 DUP5 ADD CALLDATALOAD PUSH8 0xFFFFFFFFFFFFFFFF DUP2 GT ISZERO PUSH2 0x6813 JUMPI PUSH2 0x6812 PUSH2 0x5A1B JUMP JUMPDEST JUMPDEST PUSH2 0x681F DUP7 DUP3 DUP8 ADD PUSH2 0x5CF4 JUMP JUMPDEST SWAP4 POP SWAP4 POP POP PUSH1 0x20 PUSH2 0x6832 DUP7 DUP3 DUP8 ADD PUSH2 0x5BAE JUMP JUMPDEST SWAP2 POP POP SWAP3 POP SWAP3 POP SWAP3 JUMP JUMPDEST PUSH2 0x6845 DUP2 PUSH2 0x5AA5 JUMP JUMPDEST DUP2 EQ PUSH2 0x6850 JUMPI PUSH1 0x0 DUP1 REVERT JUMPDEST POP JUMP JUMPDEST PUSH1 0x0 DUP2 CALLDATALOAD SWAP1 POP PUSH2 0x6862 DUP2 PUSH2 0x683C JUMP JUMPDEST SWAP3 SWAP2 POP POP JUMP JUMPDEST PUSH1 0x0 DUP1 PUSH1 0x40 DUP4 DUP6 SUB SLT ISZERO PUSH2 0x687F JUMPI PUSH2 0x687E PUSH2 0x5A16 JUMP JUMPDEST JUMPDEST PUSH1 0x0 PUSH2 0x688D DUP6 DUP3 DUP7 ADD PUSH2 0x5C63 JUMP JUMPDEST SWAP3 POP POP PUSH1 0x20 PUSH2 0x689E DUP6 DUP3 DUP7 ADD PUSH2 0x6853 JUMP JUMPDEST SWAP2 POP POP SWAP3 POP SWAP3 SWAP1 POP JUMP JUMPDEST PUSH1 0x0 PUSH8 0xFFFFFFFFFFFFFFFF DUP3 GT ISZERO PUSH2 0x68C3 JUMPI PUSH2 0x68C2 PUSH2 0x5E03 JUMP JUMPDEST JUMPDEST PUSH2 0x68CC DUP3 PUSH2 0x5B21 JUMP JUMPDEST SWAP1 POP PUSH1 0x20 DUP2 ADD SWAP1 POP SWAP2 SWAP1 POP JUMP JUMPDEST PUSH1 0x0 PUSH2 0x68EC PUSH2 0x68E7 DUP5 PUSH2 0x68A8 JUMP JUMPDEST PUSH2 0x5E63 JUMP JUMPDEST SWAP1 POP DUP3 DUP2 MSTORE PUSH1 0x20 DUP2 ADD DUP5 DUP5 DUP5 ADD GT ISZERO PUSH2 0x6908 JUMPI PUSH2 0x6907 PUSH2 0x5DFE JUMP JUMPDEST JUMPDEST PUSH2 0x6913 DUP5 DUP3 DUP6 PUSH2 0x5EAF JUMP JUMPDEST POP SWAP4 SWAP3 POP POP POP JUMP JUMPDEST PUSH1 0x0 DUP3 PUSH1 0x1F DUP4 ADD SLT PUSH2 0x6930 JUMPI PUSH2 0x692F PUSH2 0x5CE5 JUMP JUMPDEST JUMPDEST DUP2 CALLDATALOAD PUSH2 0x6940 DUP5 DUP3 PUSH1 0x20 DUP7 ADD PUSH2 0x68D9 JUMP JUMPDEST SWAP2 POP POP SWAP3 SWAP2 POP POP JUMP JUMPDEST PUSH1 0x0 DUP1 PUSH1 0x0 DUP1 PUSH1 0x80 DUP6 DUP8 SUB SLT ISZERO PUSH2 0x6963 JUMPI PUSH2 0x6962 PUSH2 0x5A16 JUMP JUMPDEST JUMPDEST PUSH1 0x0 PUSH2 0x6971 DUP8 DUP3 DUP9 ADD PUSH2 0x5C63 JUMP JUMPDEST SWAP5 POP POP PUSH1 0x20 PUSH2 0x6982 DUP8 DUP3 DUP9 ADD PUSH2 0x5C63 JUMP JUMPDEST SWAP4 POP POP PUSH1 0x40 PUSH2 0x6993 DUP8 DUP3 DUP9 ADD PUSH2 0x5BAE JUMP JUMPDEST SWAP3 POP POP PUSH1 0x60 DUP6 ADD CALLDATALOAD PUSH8 0xFFFFFFFFFFFFFFFF DUP2 GT ISZERO PUSH2 0x69B4 JUMPI PUSH2 0x69B3 PUSH2 0x5A1B JUMP JUMPDEST JUMPDEST PUSH2 0x69C0 DUP8 DUP3 DUP9 ADD PUSH2 0x691B JUMP JUMPDEST SWAP2 POP POP SWAP3 SWAP6 SWAP2 SWAP5 POP SWAP3 POP JUMP JUMPDEST PUSH1 0x0 DUP3 DUP3 MSTORE PUSH1 0x20 DUP3 ADD SWAP1 POP SWAP3 SWAP2 POP POP JUMP JUMPDEST PUSH1 0x0 PUSH2 0x69E8 DUP3 PUSH2 0x61CA JUMP JUMPDEST PUSH2 0x69F2 DUP2 DUP6 PUSH2 0x69CC JUMP JUMPDEST SWAP4 POP PUSH2 0x69FD DUP4 PUSH2 0x61E6 JUMP JUMPDEST DUP1 PUSH1 0x0 JUMPDEST DUP4 DUP2 LT ISZERO PUSH2 0x6A2E JUMPI DUP2 MLOAD PUSH2 0x6A15 DUP9 DUP3 PUSH2 0x61F6 JUMP JUMPDEST SWAP8 POP PUSH2 0x6A20 DUP4 PUSH2 0x620E JUMP JUMPDEST SWAP3 POP POP PUSH1 0x1 DUP2 ADD SWAP1 POP PUSH2 0x6A01 JUMP JUMPDEST POP DUP6 SWAP4 POP POP POP POP SWAP3 SWAP2 POP POP JUMP JUMPDEST PUSH1 0x0 PUSH1 0x20 DUP3 ADD SWAP1 POP DUP2 DUP2 SUB PUSH1 0x0 DUP4 ADD MSTORE PUSH2 0x6A55 DUP2 DUP5 PUSH2 0x69DD JUMP JUMPDEST SWAP1 POP SWAP3 SWAP2 POP POP JUMP JUMPDEST PUSH1 0x0 DUP1 PUSH1 0x40 DUP4 DUP6 SUB SLT ISZERO PUSH2 0x6A74 JUMPI PUSH2 0x6A73 PUSH2 0x5A16 JUMP JUMPDEST JUMPDEST PUSH1 0x0 PUSH2 0x6A82 DUP6 DUP3 DUP7 ADD PUSH2 0x5C63 JUMP JUMPDEST SWAP3 POP POP PUSH1 0x20 PUSH2 0x6A93 DUP6 DUP3 DUP7 ADD PUSH2 0x5C63 JUMP JUMPDEST SWAP2 POP POP SWAP3 POP SWAP3 SWAP1 POP JUMP JUMPDEST PUSH32 0x4E487B7100000000000000000000000000000000000000000000000000000000 PUSH1 0x0 MSTORE PUSH1 0x22 PUSH1 0x4 MSTORE PUSH1 0x24 PUSH1 0x0 REVERT JUMPDEST PUSH1 0x0 PUSH1 0x2 DUP3 DIV SWAP1 POP PUSH1 0x1 DUP3 AND DUP1 PUSH2 0x6AE4 JUMPI PUSH1 0x7F DUP3 AND SWAP2 POP JUMPDEST PUSH1 0x20 DUP3 LT DUP2 SUB PUSH2 0x6AF7 JUMPI PUSH2 0x6AF6 PUSH2 0x6A9D JUMP JUMPDEST JUMPDEST POP SWAP2 SWAP1 POP JUMP JUMPDEST PUSH32 0x4552433732313A20617070726F76656420717565727920666F72206E6F6E6578 PUSH1 0x0 DUP3 ADD MSTORE PUSH32 0x697374656E7420746F6B656E0000000000000000000000000000000000000000 PUSH1 0x20 DUP3 ADD MSTORE POP JUMP JUMPDEST PUSH1 0x0 PUSH2 0x6B59 PUSH1 0x2C DUP4 PUSH2 0x5AE6 JUMP JUMPDEST SWAP2 POP PUSH2 0x6B64 DUP3 PUSH2 0x6AFD JUMP JUMPDEST PUSH1 0x40 DUP3 ADD SWAP1 POP SWAP2 SWAP1 POP JUMP JUMPDEST PUSH1 0x0 PUSH1 0x20 DUP3 ADD SWAP1 POP DUP2 DUP2 SUB PUSH1 0x0 DUP4 ADD MSTORE PUSH2 0x6B88 DUP2 PUSH2 0x6B4C JUMP JUMPDEST SWAP1 POP SWAP2 SWAP1 POP JUMP JUMPDEST PUSH32 0x4552433732313A20617070726F76616C20746F2063757272656E74206F776E65 PUSH1 0x0 DUP3 ADD MSTORE PUSH32 0x7200000000000000000000000000000000000000000000000000000000000000 PUSH1 0x20 DUP3 ADD MSTORE POP JUMP JUMPDEST PUSH1 0x0 PUSH2 0x6BEB PUSH1 0x21 DUP4 PUSH2 0x5AE6 JUMP JUMPDEST SWAP2 POP PUSH2 0x6BF6 DUP3 PUSH2 0x6B8F JUMP JUMPDEST PUSH1 0x40 DUP3 ADD SWAP1 POP SWAP2 SWAP1 POP JUMP JUMPDEST PUSH1 0x0 PUSH1 0x20 DUP3 ADD SWAP1 POP DUP2 DUP2 SUB PUSH1 0x0 DUP4 ADD MSTORE PUSH2 0x6C1A DUP2 PUSH2 0x6BDE JUMP JUMPDEST SWAP1 POP SWAP2 SWAP1 POP JUMP JUMPDEST PUSH32 0x4552433732313A20617070726F76652063616C6C6572206973206E6F74206F77 PUSH1 0x0 DUP3 ADD MSTORE PUSH32 0x6E6572206E6F7220617070726F76656420666F7220616C6C0000000000000000 PUSH1 0x20 DUP3 ADD MSTORE POP JUMP JUMPDEST PUSH1 0x0 PUSH2 0x6C7D PUSH1 0x38 DUP4 PUSH2 0x5AE6 JUMP JUMPDEST SWAP2 POP PUSH2 0x6C88 DUP3 PUSH2 0x6C21 JUMP JUMPDEST PUSH1 0x40 DUP3 ADD SWAP1 POP SWAP2 SWAP1 POP JUMP JUMPDEST PUSH1 0x0 PUSH1 0x20 DUP3 ADD SWAP1 POP DUP2 DUP2 SUB PUSH1 0x0 DUP4 ADD MSTORE PUSH2 0x6CAC DUP2 PUSH2 0x6C70 JUMP JUMPDEST SWAP1 POP SWAP2 SWAP1 POP JUMP JUMPDEST PUSH32 0x4E6F742072656769737465726564000000000000000000000000000000000000 PUSH1 0x0 DUP3 ADD MSTORE POP JUMP JUMPDEST PUSH1 0x0 PUSH2 0x6CE9 PUSH1 0xE DUP4 PUSH2 0x5AE6 JUMP JUMPDEST SWAP2 POP PUSH2 0x6CF4 DUP3 PUSH2 0x6CB3 JUMP JUMPDEST PUSH1 0x20 DUP3 ADD SWAP1 POP SWAP2 SWAP1 POP JUMP JUMPDEST PUSH1 0x0 PUSH1 0x20 DUP3 ADD SWAP1 POP DUP2 DUP2 SUB PUSH1 0x0 DUP4 ADD MSTORE PUSH2 0x6D18 DUP2 PUSH2 0x6CDC JUMP JUMPDEST SWAP1 POP SWAP2 SWAP1 POP JUMP JUMPDEST PUSH32 0x426F7420646F6573206E6F742065786973740000000000000000000000000000 PUSH1 0x0 DUP3 ADD MSTORE POP JUMP JUMPDEST PUSH1 0x0 PUSH2 0x6D55 PUSH1 0x12 DUP4 PUSH2 0x5AE6 JUMP JUMPDEST SWAP2 POP PUSH2 0x6D60 DUP3 PUSH2 0x6D1F JUMP JUMPDEST PUSH1 0x20 DUP3 ADD SWAP1 POP SWAP2 SWAP1 POP JUMP JUMPDEST PUSH1 0x0 PUSH1 0x20 DUP3 ADD SWAP1 POP DUP2 DUP2 SUB PUSH1 0x0 DUP4 ADD MSTORE PUSH2 0x6D84 DUP2 PUSH2 0x6D48 JUMP JUMPDEST SWAP1 POP SWAP2 SWAP1 POP JUMP JUMPDEST PUSH32 0x4E487B7100000000000000000000000000000000000000000000000000000000 PUSH1 0x0 MSTORE PUSH1 0x11 PUSH1 0x4 MSTORE PUSH1 0x24 PUSH1 0x0 REVERT JUMPDEST PUSH1 0x0 PUSH2 0x6DC5 DUP3 PUSH2 0x5B8D JUMP JUMPDEST SWAP2 POP PUSH32 0xFFFFFFFFFFFFFFFFFFFFFFFFFFFFFFFFFFFFFFFFFFFFFFFFFFFFFFFFFFFFFFFF DUP3 SUB PUSH2 0x6DF7 JUMPI PUSH2 0x6DF6 PUSH2 0x6D8B JUMP JUMPDEST JUMPDEST PUSH1 0x1 DUP3 ADD SWAP1 POP SWAP2 SWAP1 POP JUMP JUMPDEST PUSH1 0x0 DUP3 SWAP1 POP SWAP3 SWAP2 POP POP JUMP JUMPDEST PUSH1 0x0 DUP2 SWAP1 POP DUP2 PUSH1 0x0 MSTORE PUSH1 0x20 PUSH1 0x0 KECCAK256 SWAP1 POP SWAP2 SWAP1 POP JUMP JUMPDEST PUSH1 0x0 PUSH1 0x20 PUSH1 0x1F DUP4 ADD DIV SWAP1 POP SWAP2 SWAP1 POP JUMP JUMPDEST PUSH1 0x0 DUP3 DUP3 SHL SWAP1 POP SWAP3 SWAP2 POP POP JUMP JUMPDEST PUSH1 0x0 PUSH1 0x8 DUP4 MUL PUSH2 0x6E6F PUSH32 0xFFFFFFFFFFFFFFFFFFFFFFFFFFFFFFFFFFFFFFFFFFFFFFFFFFFFFFFFFFFFFFFF DUP3 PUSH2 0x6E32 JUMP JUMPDEST PUSH2 0x6E79 DUP7 DUP4 PUSH2 0x6E32 JUMP JUMPDEST SWAP6 POP DUP1 NOT DUP5 AND SWAP4 POP DUP1 DUP7 AND DUP5 OR SWAP3 POP POP POP SWAP4 SWAP3 POP POP POP JUMP JUMPDEST PUSH1 0x0 DUP2 SWAP1 POP SWAP2 SWAP1 POP JUMP JUMPDEST PUSH1 0x0 PUSH2 0x6EB6 PUSH2 0x6EB1 PUSH2 0x6EAC DUP5 PUSH2 0x5B8D JUMP JUMPDEST PUSH2 0x6E91 JUMP JUMPDEST PUSH2 0x5B8D JUMP JUMPDEST SWAP1 POP SWAP2 SWAP1 POP JUMP JUMPDEST PUSH1 0x0 DUP2 SWAP1 POP SWAP2 SWAP1 POP JUMP JUMPDEST PUSH2 0x6ED0 DUP4 PUSH2 0x6E9B JUMP JUMPDEST PUSH2 0x6EE4 PUSH2 0x6EDC DUP3 PUSH2 0x6EBD JUMP JUMPDEST DUP5 DUP5 SLOAD PUSH2 0x6E3F JUMP JUMPDEST DUP3 SSTORE POP POP POP POP JUMP JUMPDEST PUSH1 0x0 SWAP1 JUMP JUMPDEST PUSH2 0x6EF9 PUSH2 0x6EEC JUMP JUMPDEST PUSH2 0x6F04 DUP2 DUP5 DUP5 PUSH2 0x6EC7 JUMP JUMPDEST POP POP POP JUMP JUMPDEST JUMPDEST DUP2 DUP2 LT ISZERO PUSH2 0x6F28 JUMPI PUSH2 0x6F1D PUSH1 0x0 DUP3 PUSH2 0x6EF1 JUMP JUMPDEST PUSH1 0x1 DUP2 ADD SWAP1 POP PUSH2 0x6F0A JUMP JUMPDEST POP POP JUMP JUMPDEST PUSH1 0x1F DUP3 GT ISZERO PUSH2 0x6F6D JUMPI PUSH2 0x6F3E DUP2 PUSH2 0x6E0D JUMP JUMPDEST PUSH2 0x6F47 DUP5 PUSH2 0x6E22 JUMP JUMPDEST DUP2 ADD PUSH1 0x20 DUP6 LT ISZERO PUSH2 0x6F56 JUMPI DUP2 SWAP1 POP JUMPDEST PUSH2 0x6F6A PUSH2 0x6F62 DUP6 PUSH2 0x6E22 JUMP JUMPDEST DUP4 ADD DUP3 PUSH2 0x6F09 JUMP JUMPDEST POP POP JUMPDEST POP POP POP JUMP JUMPDEST PUSH1 0x0 DUP3 DUP3 SHR SWAP1 POP SWAP3 SWAP2 POP POP JUMP JUMPDEST PUSH1 0x0 PUSH2 0x6F90 PUSH1 0x0 NOT DUP5 PUSH1 0x8 MUL PUSH2 0x6F72 JUMP JUMPDEST NOT DUP1 DUP4 AND SWAP2 POP POP SWAP3 SWAP2 POP POP JUMP JUMPDEST PUSH1 0x0 PUSH2 0x6FA9 DUP4 DUP4 PUSH2 0x6F7F JUMP JUMPDEST SWAP2 POP DUP3 PUSH1 0x2 MUL DUP3 OR SWAP1 POP SWAP3 SWAP2 POP POP JUMP JUMPDEST PUSH2 0x6FC3 DUP4 DUP4 PUSH2 0x6E02 JUMP JUMPDEST PUSH8 0xFFFFFFFFFFFFFFFF DUP2 GT ISZERO PUSH2 0x6FDC JUMPI PUSH2 0x6FDB PUSH2 0x5E03 JUMP JUMPDEST JUMPDEST PUSH2 0x6FE6 DUP3 SLOAD PUSH2 0x6ACC JUMP JUMPDEST PUSH2 0x6FF1 DUP3 DUP3 DUP6 PUSH2 0x6F2C JUMP JUMPDEST PUSH1 0x0 PUSH1 0x1F DUP4 GT PUSH1 0x1 DUP2 EQ PUSH2 0x7020 JUMPI PUSH1 0x0 DUP5 ISZERO PUSH2 0x700E JUMPI DUP3 DUP8 ADD CALLDATALOAD SWAP1 POP JUMPDEST PUSH2 0x7018 DUP6 DUP3 PUSH2 0x6F9D JUMP JUMPDEST DUP7 SSTORE POP PUSH2 0x7080 JUMP JUMPDEST PUSH1 0x1F NOT DUP5 AND PUSH2 0x702E DUP7 PUSH2 0x6E0D JUMP JUMPDEST PUSH1 0x0 JUMPDEST DUP3 DUP2 LT ISZERO PUSH2 0x7056 JUMPI DUP5 DUP10 ADD CALLDATALOAD DUP3 SSTORE PUSH1 0x1 DUP3 ADD SWAP2 POP PUSH1 0x20 DUP6 ADD SWAP5 POP PUSH1 0x20 DUP2 ADD SWAP1 POP PUSH2 0x7031 JUMP JUMPDEST DUP7 DUP4 LT ISZERO PUSH2 0x7073 JUMPI DUP5 DUP10 ADD CALLDATALOAD PUSH2 0x706F PUSH1 0x1F DUP10 AND DUP3 PUSH2 0x6F7F JUMP JUMPDEST DUP4 SSTORE POP JUMPDEST PUSH1 0x1 PUSH1 0x2 DUP9 MUL ADD DUP9 SSTORE POP POP POP JUMPDEST POP POP POP POP POP POP POP JUMP JUMPDEST PUSH1 0x0 DUP2 SWAP1 POP SWAP3 SWAP2 POP POP JUMP JUMPDEST PUSH1 0x0 PUSH2 0x70A0 DUP4 DUP6 PUSH2 0x7089 JUMP JUMPDEST SWAP4 POP PUSH2 0x70AD DUP4 DUP6 DUP5 PUSH2 0x5EAF JUMP JUMPDEST DUP3 DUP5 ADD SWAP1 POP SWAP4 SWAP3 POP POP POP JUMP JUMPDEST PUSH1 0x0 PUSH2 0x70C6 DUP3 DUP5 DUP7 PUSH2 0x7094 JUMP JUMPDEST SWAP2 POP DUP2 SWAP1 POP SWAP4 SWAP3 POP POP POP JUMP JUMPDEST PUSH1 0x0 PUSH2 0x70DE DUP4 DUP6 PUSH2 0x5AE6 JUMP JUMPDEST SWAP4 POP PUSH2 0x70EB DUP4 DUP6 DUP5 PUSH2 0x5EAF JUMP JUMPDEST PUSH2 0x70F4 DUP4 PUSH2 0x5B21 JUMP JUMPDEST DUP5 ADD SWAP1 POP SWAP4 SWAP3 POP POP POP JUMP JUMPDEST PUSH1 0x0 PUSH1 0x40 DUP3 ADD SWAP1 POP DUP2 DUP2 SUB PUSH1 0x0 DUP4 ADD MSTORE PUSH2 0x711A DUP2 DUP6 DUP8 PUSH2 0x70D2 JUMP JUMPDEST SWAP1 POP PUSH2 0x7129 PUSH1 0x20 DUP4 ADD DUP5 PUSH2 0x6191 JUMP JUMPDEST SWAP5 SWAP4 POP POP POP POP JUMP JUMPDEST PUSH32 0x5552492063616E6E6F7420626520656D70747900000000000000000000000000 PUSH1 0x0 DUP3 ADD MSTORE POP JUMP JUMPDEST PUSH1 0x0 PUSH2 0x7167 PUSH1 0x13 DUP4 PUSH2 0x5AE6 JUMP JUMPDEST SWAP2 POP PUSH2 0x7172 DUP3 PUSH2 0x7131 JUMP JUMPDEST PUSH1 0x20 DUP3 ADD SWAP1 POP SWAP2 SWAP1 POP JUMP JUMPDEST PUSH1 0x0 PUSH1 0x20 DUP3 ADD SWAP1 POP DUP2 DUP2 SUB PUSH1 0x0 DUP4 ADD MSTORE PUSH2 0x7196 DUP2 PUSH2 0x715A JUMP JUMPDEST SWAP1 POP SWAP2 SWAP1 POP JUMP JUMPDEST PUSH2 0x71A6 DUP3 PUSH2 0x5ADB JUMP JUMPDEST PUSH8 0xFFFFFFFFFFFFFFFF DUP2 GT ISZERO PUSH2 0x71BF JUMPI PUSH2 0x71BE PUSH2 0x5E03 JUMP JUMPDEST JUMPDEST PUSH2 0x71C9 DUP3 SLOAD PUSH2 0x6ACC JUMP JUMPDEST PUSH2 0x71D4 DUP3 DUP3 DUP6 PUSH2 0x6F2C JUMP JUMPDEST PUSH1 0x0 PUSH1 0x20 SWAP1 POP PUSH1 0x1F DUP4 GT PUSH1 0x1 DUP2 EQ PUSH2 0x7207 JUMPI PUSH1 0x0 DUP5 ISZERO PUSH2 0x71F5 JUMPI DUP3 DUP8 ADD MLOAD SWAP1 POP JUMPDEST PUSH2 0x71FF DUP6 DUP3 PUSH2 0x6F9D JUMP JUMPDEST DUP7 SSTORE POP PUSH2 0x7267 JUMP JUMPDEST PUSH1 0x1F NOT DUP5 AND PUSH2 0x7215 DUP7 PUSH2 0x6E0D JUMP JUMPDEST PUSH1 0x0 JUMPDEST DUP3 DUP2 LT ISZERO PUSH2 0x723D JUMPI DUP5 DUP10 ADD MLOAD DUP3 SSTORE PUSH1 0x1 DUP3 ADD SWAP2 POP PUSH1 0x20 DUP6 ADD SWAP5 POP PUSH1 0x20 DUP2 ADD SWAP1 POP PUSH2 0x7218 JUMP JUMPDEST DUP7 DUP4 LT ISZERO PUSH2 0x725A JUMPI DUP5 DUP10 ADD MLOAD PUSH2 0x7256 PUSH1 0x1F DUP10 AND DUP3 PUSH2 0x6F7F JUMP JUMPDEST DUP4 SSTORE POP JUMPDEST PUSH1 0x1 PUSH1 0x2 DUP9 MUL ADD DUP9 SSTORE POP POP POP JUMPDEST POP POP POP POP POP POP JUMP JUMPDEST PUSH32 0x4552433732313A207472616E736665722063616C6C6572206973206E6F74206F PUSH1 0x0 DUP3 ADD MSTORE PUSH32 0x776E6572206E6F7220617070726F766564000000000000000000000000000000 PUSH1 0x20 DUP3 ADD MSTORE POP JUMP JUMPDEST PUSH1 0x0 PUSH2 0x72CB PUSH1 0x31 DUP4 PUSH2 0x5AE6 JUMP JUMPDEST SWAP2 POP PUSH2 0x72D6 DUP3 PUSH2 0x726F JUMP JUMPDEST PUSH1 0x40 DUP3 ADD SWAP1 POP SWAP2 SWAP1 POP JUMP JUMPDEST PUSH1 0x0 PUSH1 0x20 DUP3 ADD SWAP1 POP DUP2 DUP2 SUB PUSH1 0x0 DUP4 ADD MSTORE PUSH2 0x72FA DUP2 PUSH2 0x72BE JUMP JUMPDEST SWAP1 POP SWAP2 SWAP1 POP JUMP JUMPDEST PUSH32 0x4F776E61626C653A2063616C6C6572206973206E6F7420746865206F776E6572 PUSH1 0x0 DUP3 ADD MSTORE POP JUMP JUMPDEST PUSH1 0x0 PUSH2 0x7337 PUSH1 0x20 DUP4 PUSH2 0x5AE6 JUMP JUMPDEST SWAP2 POP PUSH2 0x7342 DUP3 PUSH2 0x7301 JUMP JUMPDEST PUSH1 0x20 DUP3 ADD SWAP1 POP SWAP2 SWAP1 POP JUMP JUMPDEST PUSH1 0x0 PUSH1 0x20 DUP3 ADD SWAP1 POP DUP2 DUP2 SUB PUSH1 0x0 DUP4 ADD MSTORE PUSH2 0x7366 DUP2 PUSH2 0x732A JUMP JUMPDEST SWAP1 POP SWAP2 SWAP1 POP JUMP JUMPDEST PUSH32 0x4E6F2066756E647320746F207769746864726177000000000000000000000000 PUSH1 0x0 DUP3 ADD MSTORE POP JUMP JUMPDEST PUSH1 0x0 PUSH2 0x73A3 PUSH1 0x14 DUP4 PUSH2 0x5AE6 JUMP JUMPDEST SWAP2 POP PUSH2 0x73AE DUP3 PUSH2 0x736D JUMP JUMPDEST PUSH1 0x20 DUP3 ADD SWAP1 POP SWAP2 SWAP1 POP JUMP JUMPDEST PUSH1 0x0 PUSH1 0x20 DUP3 ADD SWAP1 POP DUP2 DUP2 SUB PUSH1 0x0 DUP4 ADD MSTORE PUSH2 0x73D2 DUP2 PUSH2 0x7396 JUMP JUMPDEST SWAP1 POP SWAP2 SWAP1 POP JUMP JUMPDEST PUSH1 0x0 DUP2 SWAP1 POP SWAP3 SWAP2 POP POP JUMP JUMPDEST POP JUMP JUMPDEST PUSH1 0x0 PUSH2 0x73F4 PUSH1 0x0 DUP4 PUSH2 0x73D9 JUMP JUMPDEST SWAP2 POP PUSH2 0x73FF DUP3 PUSH2 0x73E4 JUMP JUMPDEST PUSH1 0x0 DUP3 ADD SWAP1 POP SWAP2 SWAP1 POP JUMP JUMPDEST PUSH1 0x0 PUSH2 0x7415 DUP3 PUSH2 0x73E7 JUMP JUMPDEST SWAP2 POP DUP2 SWAP1 POP SWAP2 SWAP1 POP JUMP JUMPDEST PUSH32 0x5769746864726177616C206661696C6564000000000000000000000000000000 PUSH1 0x0 DUP3 ADD MSTORE POP JUMP JUMPDEST PUSH1 0x0 PUSH2 0x7455 PUSH1 0x11 DUP4 PUSH2 0x5AE6 JUMP JUMPDEST SWAP2 POP PUSH2 0x7460 DUP3 PUSH2 0x741F JUMP JUMPDEST PUSH1 0x20 DUP3 ADD SWAP1 POP SWAP2 SWAP1 POP JUMP JUMPDEST PUSH1 0x0 PUSH1 0x20 DUP3 ADD SWAP1 POP DUP2 DUP2 SUB PUSH1 0x0 DUP4 ADD MSTORE PUSH2 0x7484 DUP2 PUSH2 0x7448 JUMP JUMPDEST SWAP1 POP SWAP2 SWAP1 POP JUMP JUMPDEST PUSH1 0x0 PUSH1 0x20 DUP3 ADD SWAP1 POP DUP2 DUP2 SUB PUSH1 0x0 DUP4 ADD MSTORE PUSH2 0x74A6 DUP2 DUP5 DUP7 PUSH2 0x70D2 JUMP JUMPDEST SWAP1 POP SWAP4 SWAP3 POP POP POP JUMP JUMPDEST PUSH32 0x436F6D6D756E69747920646F6573206E6F742065786973740000000000000000 PUSH1 0x0 DUP3 ADD MSTORE POP JUMP JUMPDEST PUSH1 0x0 PUSH2 0x74E5 PUSH1 0x18 DUP4 PUSH2 0x5AE6 JUMP JUMPDEST SWAP2 POP PUSH2 0x74F0 DUP3 PUSH2 0x74AF JUMP JUMPDEST PUSH1 0x20 DUP3 ADD SWAP1 POP SWAP2 SWAP1 POP JUMP JUMPDEST PUSH1 0x0 PUSH1 0x20 DUP3 ADD SWAP1 POP DUP2 DUP2 SUB PUSH1 0x0 DUP4 ADD MSTORE PUSH2 0x7514 DUP2 PUSH2 0x74D8 JUMP JUMPDEST SWAP1 POP SWAP2 SWAP1 POP JUMP JUMPDEST PUSH32 0x4552433732313A206F776E657220717565727920666F72206E6F6E6578697374 PUSH1 0x0 DUP3 ADD MSTORE PUSH32 0x656E7420746F6B656E0000000000000000000000000000000000000000000000 PUSH1 0x20 DUP3 ADD MSTORE POP JUMP JUMPDEST PUSH1 0x0 PUSH2 0x7577 PUSH1 0x29 DUP4 PUSH2 0x5AE6 JUMP JUMPDEST SWAP2 POP PUSH2 0x7582 DUP3 PUSH2 0x751B JUMP JUMPDEST PUSH1 0x40 DUP3 ADD SWAP1 POP SWAP2 SWAP1 POP JUMP JUMPDEST PUSH1 0x0 PUSH1 0x20 DUP3 ADD SWAP1 POP DUP2 DUP2 SUB PUSH1 0x0 DUP4 ADD MSTORE PUSH2 0x75A6 DUP2 PUSH2 0x756A JUMP JUMPDEST SWAP1 POP SWAP2 SWAP1 POP JUMP JUMPDEST PUSH32 0x456D657267656E6379207769746864726177616C206661696C65640000000000 PUSH1 0x0 DUP3 ADD MSTORE POP JUMP JUMPDEST PUSH1 0x0 PUSH2 0x75E3 PUSH1 0x1B DUP4 PUSH2 0x5AE6 JUMP JUMPDEST SWAP2 POP PUSH2 0x75EE DUP3 PUSH2 0x75AD JUMP JUMPDEST PUSH1 0x20 DUP3 ADD SWAP1 POP SWAP2 SWAP1 POP JUMP JUMPDEST PUSH1 0x0 PUSH1 0x20 DUP3 ADD SWAP1 POP DUP2 DUP2 SUB PUSH1 0x0 DUP4 ADD MSTORE PUSH2 0x7612 DUP2 PUSH2 0x75D6 JUMP JUMPDEST SWAP1 POP SWAP2 SWAP1 POP JUMP JUMPDEST PUSH32 0x5573657220616C72656164792072656769737465726564000000000000000000 PUSH1 0x0 DUP3 ADD MSTORE POP JUMP JUMPDEST PUSH1 0x0 PUSH2 0x764F PUSH1 0x17 DUP4 PUSH2 0x5AE6 JUMP JUMPDEST SWAP2 POP PUSH2 0x765A DUP3 PUSH2 0x7619 JUMP JUMPDEST PUSH1 0x20 DUP3 ADD SWAP1 POP SWAP2 SWAP1 POP JUMP JUMPDEST PUSH1 0x0 PUSH1 0x20 DUP3 ADD SWAP1 POP DUP2 DUP2 SUB PUSH1 0x0 DUP4 ADD MSTORE PUSH2 0x767E DUP2 PUSH2 0x7642 JUMP JUMPDEST SWAP1 POP SWAP2 SWAP1 POP JUMP JUMPDEST PUSH32 0x4D657461646174612063616E6E6F7420626520656D7074790000000000000000 PUSH1 0x0 DUP3 ADD MSTORE POP JUMP JUMPDEST PUSH1 0x0 PUSH2 0x76BB PUSH1 0x18 DUP4 PUSH2 0x5AE6 JUMP JUMPDEST SWAP2 POP PUSH2 0x76C6 DUP3 PUSH2 0x7685 JUMP JUMPDEST PUSH1 0x20 DUP3 ADD SWAP1 POP SWAP2 SWAP1 POP JUMP JUMPDEST PUSH1 0x0 PUSH1 0x20 DUP3 ADD SWAP1 POP DUP2 DUP2 SUB PUSH1 0x0 DUP4 ADD MSTORE PUSH2 0x76EA DUP2 PUSH2 0x76AE JUMP JUMPDEST SWAP1 POP SWAP2 SWAP1 POP JUMP JUMPDEST PUSH32 0x4552433732313A2062616C616E636520717565727920666F7220746865207A65 PUSH1 0x0 DUP3 ADD MSTORE PUSH32 0x726F206164647265737300000000000000000000000000000000000000000000 PUSH1 0x20 DUP3 ADD MSTORE POP JUMP JUMPDEST PUSH1 0x0 PUSH2 0x774D PUSH1 0x2A DUP4 PUSH2 0x5AE6 JUMP JUMPDEST SWAP2 POP PUSH2 0x7758 DUP3 PUSH2 0x76F1 JUMP JUMPDEST PUSH1 0x40 DUP3 ADD SWAP1 POP SWAP2 SWAP1 POP JUMP JUMPDEST PUSH1 0x0 PUSH1 0x20 DUP3 ADD SWAP1 POP DUP2 DUP2 SUB PUSH1 0x0 DUP4 ADD MSTORE PUSH2 0x777C DUP2 PUSH2 0x7740 JUMP JUMPDEST SWAP1 POP SWAP2 SWAP1 POP JUMP JUMPDEST PUSH32 0x5265656E7472616E637947756172643A207265656E7472616E742063616C6C00 PUSH1 0x0 DUP3 ADD MSTORE POP JUMP JUMPDEST PUSH1 0x0 PUSH2 0x77B9 PUSH1 0x1F DUP4 PUSH2 0x5AE6 JUMP JUMPDEST SWAP2 POP PUSH2 0x77C4 DUP3 PUSH2 0x7783 JUMP JUMPDEST PUSH1 0x20 DUP3 ADD SWAP1 POP SWAP2 SWAP1 POP JUMP JUMPDEST PUSH1 0x0 PUSH1 0x20 DUP3 ADD SWAP1 POP DUP2 DUP2 SUB PUSH1 0x0 DUP4 ADD MSTORE PUSH2 0x77E8 DUP2 PUSH2 0x77AC JUMP JUMPDEST SWAP1 POP SWAP2 SWAP1 POP JUMP JUMPDEST PUSH32 0x496E73756666696369656E74207061796D656E74000000000000000000000000 PUSH1 0x0 DUP3 ADD MSTORE POP JUMP JUMPDEST PUSH1 0x0 PUSH2 0x7825 PUSH1 0x14 DUP4 PUSH2 0x5AE6 JUMP JUMPDEST SWAP2 POP PUSH2 0x7830 DUP3 PUSH2 0x77EF JUMP JUMPDEST PUSH1 0x20 DUP3 ADD SWAP1 POP SWAP2 SWAP1 POP JUMP JUMPDEST PUSH1 0x0 PUSH1 0x20 DUP3 ADD SWAP1 POP DUP2 DUP2 SUB PUSH1 0x0 DUP4 ADD MSTORE PUSH2 0x7854 DUP2 PUSH2 0x7818 JUMP JUMPDEST SWAP1 POP SWAP2 SWAP1 POP JUMP JUMPDEST PUSH32 0x546F6B656E20646F6573206E6F74206578697374000000000000000000000000 PUSH1 0x0 DUP3 ADD MSTORE POP JUMP JUMPDEST PUSH1 0x0 PUSH2 0x7891 PUSH1 0x14 DUP4 PUSH2 0x5AE6 JUMP JUMPDEST SWAP2 POP PUSH2 0x789C DUP3 PUSH2 0x785B JUMP JUMPDEST PUSH1 0x20 DUP3 ADD SWAP1 POP SWAP2 SWAP1 POP JUMP JUMPDEST PUSH1 0x0 PUSH1 0x20 DUP3 ADD SWAP1 POP DUP2 DUP2 SUB PUSH1 0x0 DUP4 ADD MSTORE PUSH2 0x78C0 DUP2 PUSH2 0x7884 JUMP JUMPDEST SWAP1 POP SWAP2 SWAP1 POP JUMP JUMPDEST PUSH32 0x55736572206E6F74207265676973746572656400000000000000000000000000 PUSH1 0x0 DUP3 ADD MSTORE POP JUMP JUMPDEST PUSH1 0x0 PUSH2 0x78FD PUSH1 0x13 DUP4 PUSH2 0x5AE6 JUMP JUMPDEST SWAP2 POP PUSH2 0x7908 DUP3 PUSH2 0x78C7 JUMP JUMPDEST PUSH1 0x20 DUP3 ADD SWAP1 POP SWAP2 SWAP1 POP JUMP JUMPDEST PUSH1 0x0 PUSH1 0x20 DUP3 ADD SWAP1 POP DUP2 DUP2 SUB PUSH1 0x0 DUP4 ADD MSTORE PUSH2 0x792C DUP2 PUSH2 0x78F0 JUMP JUMPDEST SWAP1 POP SWAP2 SWAP1 POP JUMP JUMPDEST PUSH32 0x4F776E61626C653A206E6577206F776E657220697320746865207A65726F2061 PUSH1 0x0 DUP3 ADD MSTORE PUSH32 0x6464726573730000000000000000000000000000000000000000000000000000 PUSH1 0x20 DUP3 ADD MSTORE POP JUMP JUMPDEST PUSH1 0x0 PUSH2 0x798F PUSH1 0x26 DUP4 PUSH2 0x5AE6 JUMP JUMPDEST SWAP2 POP PUSH2 0x799A DUP3 PUSH2 0x7933 JUMP JUMPDEST PUSH1 0x40 DUP3 ADD SWAP1 POP SWAP2 SWAP1 POP JUMP JUMPDEST PUSH1 0x0 PUSH1 0x20 DUP3 ADD SWAP1 POP DUP2 DUP2 SUB PUSH1 0x0 DUP4 ADD MSTORE PUSH2 0x79BE DUP2 PUSH2 0x7982 JUMP JUMPDEST SWAP1 POP SWAP2 SWAP1 POP JUMP JUMPDEST PUSH32 0x436F6D6D756E697479206E616D652063616E6E6F7420626520656D7074790000 PUSH1 0x0 DUP3 ADD MSTORE POP JUMP JUMPDEST PUSH1 0x0 PUSH2 0x79FB PUSH1 0x1E DUP4 PUSH2 0x5AE6 JUMP JUMPDEST SWAP2 POP PUSH2 0x7A06 DUP3 PUSH2 0x79C5 JUMP JUMPDEST PUSH1 0x20 DUP3 ADD SWAP1 POP SWAP2 SWAP1 POP JUMP JUMPDEST PUSH1 0x0 PUSH1 0x20 DUP3 ADD SWAP1 POP DUP2 DUP2 SUB PUSH1 0x0 DUP4 ADD MSTORE PUSH2 0x7A2A DUP2 PUSH2 0x79EE JUMP JUMPDEST SWAP1 POP SWAP2 SWAP1 POP JUMP JUMPDEST PUSH32 0x436F6D6D756E69747920616C7265616479206578697374730000000000000000 PUSH1 0x0 DUP3 ADD MSTORE POP JUMP JUMPDEST PUSH1 0x0 PUSH2 0x7A67 PUSH1 0x18 DUP4 PUSH2 0x5AE6 JUMP JUMPDEST SWAP2 POP PUSH2 0x7A72 DUP3 PUSH2 0x7A31 JUMP JUMPDEST PUSH1 0x20 DUP3 ADD SWAP1 POP SWAP2 SWAP1 POP JUMP JUMPDEST PUSH1 0x0 PUSH1 0x20 DUP3 ADD SWAP1 POP DUP2 DUP2 SUB PUSH1 0x0 DUP4 ADD MSTORE PUSH2 0x7A96 DUP2 PUSH2 0x7A5A JUMP JUMPDEST SWAP1 POP SWAP2 SWAP1 POP JUMP JUMPDEST PUSH32 0x4552433732313A206D696E7420746F20746865207A65726F2061646472657373 PUSH1 0x0 DUP3 ADD MSTORE POP JUMP JUMPDEST PUSH1 0x0 PUSH2 0x7AD3 PUSH1 0x20 DUP4 PUSH2 0x5AE6 JUMP JUMPDEST SWAP2 POP PUSH2 0x7ADE DUP3 PUSH2 0x7A9D JUMP JUMPDEST PUSH1 0x20 DUP3 ADD SWAP1 POP SWAP2 SWAP1 POP JUMP JUMPDEST PUSH1 0x0 PUSH1 0x20 DUP3 ADD SWAP1 POP DUP2 DUP2 SUB PUSH1 0x0 DUP4 ADD MSTORE PUSH2 0x7B02 DUP2 PUSH2 0x7AC6 JUMP JUMPDEST SWAP1 POP SWAP2 SWAP1 POP JUMP JUMPDEST PUSH32 0x4552433732313A20746F6B656E20616C7265616479206D696E74656400000000 PUSH1 0x0 DUP3 ADD MSTORE POP JUMP JUMPDEST PUSH1 0x0 PUSH2 0x7B3F PUSH1 0x1C DUP4 PUSH2 0x5AE6 JUMP JUMPDEST SWAP2 POP PUSH2 0x7B4A DUP3 PUSH2 0x7B09 JUMP JUMPDEST PUSH1 0x20 DUP3 ADD SWAP1 POP SWAP2 SWAP1 POP JUMP JUMPDEST PUSH1 0x0 PUSH1 0x20 DUP3 ADD SWAP1 POP DUP2 DUP2 SUB PUSH1 0x0 DUP4 ADD MSTORE PUSH2 0x7B6E DUP2 PUSH2 0x7B32 JUMP JUMPDEST SWAP1 POP SWAP2 SWAP1 POP JUMP JUMPDEST PUSH1 0x0 PUSH2 0x7B80 DUP3 PUSH2 0x5B8D JUMP JUMPDEST SWAP2 POP PUSH2 0x7B8B DUP4 PUSH2 0x5B8D JUMP JUMPDEST SWAP3 POP DUP3 DUP3 ADD SWAP1 POP DUP1 DUP3 GT ISZERO PUSH2 0x7BA3 JUMPI PUSH2 0x7BA2 PUSH2 0x6D8B JUMP JUMPDEST JUMPDEST SWAP3 SWAP2 POP POP JUMP JUMPDEST PUSH32 0x4552433732313A206F70657261746F7220717565727920666F72206E6F6E6578 PUSH1 0x0 DUP3 ADD MSTORE PUSH32 0x697374656E7420746F6B656E0000000000000000000000000000000000000000 PUSH1 0x20 DUP3 ADD MSTORE POP JUMP JUMPDEST PUSH1 0x0 PUSH2 0x7C05 PUSH1 0x2C DUP4 PUSH2 0x5AE6 JUMP JUMPDEST SWAP2 POP PUSH2 0x7C10 DUP3 PUSH2 0x7BA9 JUMP JUMPDEST PUSH1 0x40 DUP3 ADD SWAP1 POP SWAP2 SWAP1 POP JUMP JUMPDEST PUSH1 0x0 PUSH1 0x20 DUP3 ADD SWAP1 POP DUP2 DUP2 SUB PUSH1 0x0 DUP4 ADD MSTORE PUSH2 0x7C34 DUP2 PUSH2 0x7BF8 JUMP JUMPDEST SWAP1 POP SWAP2 SWAP1 POP JUMP JUMPDEST PUSH32 0x4552433732313A207472616E736665722066726F6D20696E636F727265637420 PUSH1 0x0 DUP3 ADD MSTORE PUSH32 0x6F776E6572000000000000000000000000000000000000000000000000000000 PUSH1 0x20 DUP3 ADD MSTORE POP JUMP JUMPDEST PUSH1 0x0 PUSH2 0x7C97 PUSH1 0x25 DUP4 PUSH2 0x5AE6 JUMP JUMPDEST SWAP2 POP PUSH2 0x7CA2 DUP3 PUSH2 0x7C3B JUMP JUMPDEST PUSH1 0x40 DUP3 ADD SWAP1 POP SWAP2 SWAP1 POP JUMP JUMPDEST PUSH1 0x0 PUSH1 0x20 DUP3 ADD SWAP1 POP DUP2 DUP2 SUB PUSH1 0x0 DUP4 ADD MSTORE PUSH2 0x7CC6 DUP2 PUSH2 0x7C8A JUMP JUMPDEST SWAP1 POP SWAP2 SWAP1 POP JUMP JUMPDEST PUSH32 0x4552433732313A207472616E7366657220746F20746865207A65726F20616464 PUSH1 0x0 DUP3 ADD MSTORE PUSH32 0x7265737300000000000000000000000000000000000000000000000000000000 PUSH1 0x20 DUP3 ADD MSTORE POP JUMP JUMPDEST PUSH1 0x0 PUSH2 0x7D29 PUSH1 0x24 DUP4 PUSH2 0x5AE6 JUMP JUMPDEST SWAP2 POP PUSH2 0x7D34 DUP3 PUSH2 0x7CCD JUMP JUMPDEST PUSH1 0x40 DUP3 ADD SWAP1 POP SWAP2 SWAP1 POP JUMP JUMPDEST PUSH1 0x0 PUSH1 0x20 DUP3 ADD SWAP1 POP DUP2 DUP2 SUB PUSH1 0x0 DUP4 ADD MSTORE PUSH2 0x7D58 DUP2 PUSH2 0x7D1C JUMP JUMPDEST SWAP1 POP SWAP2 SWAP1 POP JUMP JUMPDEST PUSH1 0x0 PUSH2 0x7D6A DUP3 PUSH2 0x5B8D JUMP JUMPDEST SWAP2 POP PUSH2 0x7D75 DUP4 PUSH2 0x5B8D JUMP JUMPDEST SWAP3 POP DUP3 DUP3 SUB SWAP1 POP DUP2 DUP2 GT ISZERO PUSH2 0x7D8D JUMPI PUSH2 0x7D8C PUSH2 0x6D8B JUMP JUMPDEST JUMPDEST SWAP3 SWAP2 POP POP JUMP JUMPDEST PUSH32 0x476F616C2049442063616E6E6F7420626520656D707479000000000000000000 PUSH1 0x0 DUP3 ADD MSTORE POP JUMP JUMPDEST PUSH1 0x0 PUSH2 0x7DC9 PUSH1 0x17 DUP4 PUSH2 0x5AE6 JUMP JUMPDEST SWAP2 POP PUSH2 0x7DD4 DUP3 PUSH2 0x7D93 JUMP JUMPDEST PUSH1 0x20 DUP3 ADD SWAP1 POP SWAP2 SWAP1 POP JUMP JUMPDEST PUSH1 0x0 PUSH1 0x20 DUP3 ADD SWAP1 POP DUP2 DUP2 SUB PUSH1 0x0 DUP4 ADD MSTORE PUSH2 0x7DF8 DUP2 PUSH2 0x7DBC JUMP JUMPDEST SWAP1 POP SWAP2 SWAP1 POP JUMP JUMPDEST PUSH32 0x436F6D6D756E69747920726F6F6D20646F6573206E6F74206578697374000000 PUSH1 0x0 DUP3 ADD MSTORE POP JUMP JUMPDEST PUSH1 0x0 PUSH2 0x7E35 PUSH1 0x1D DUP4 PUSH2 0x5AE6 JUMP JUMPDEST SWAP2 POP PUSH2 0x7E40 DUP3 PUSH2 0x7DFF JUMP JUMPDEST PUSH1 0x20 DUP3 ADD SWAP1 POP SWAP2 SWAP1 POP JUMP JUMPDEST PUSH1 0x0 PUSH1 0x20 DUP3 ADD SWAP1 POP DUP2 DUP2 SUB PUSH1 0x0 DUP4 ADD MSTORE PUSH2 0x7E64 DUP2 PUSH2 0x7E28 JUMP JUMPDEST SWAP1 POP SWAP2 SWAP1 POP JUMP JUMPDEST PUSH32 0x4E487B7100000000000000000000000000000000000000000000000000000000 PUSH1 0x0 MSTORE PUSH1 0x32 PUSH1 0x4 MSTORE PUSH1 0x24 PUSH1 0x0 REVERT JUMPDEST PUSH32 0x416C72656164792061206D656D62657200000000000000000000000000000000 PUSH1 0x0 DUP3 ADD MSTORE POP JUMP JUMPDEST PUSH1 0x0 PUSH2 0x7ED0 PUSH1 0x10 DUP4 PUSH2 0x5AE6 JUMP JUMPDEST SWAP2 POP PUSH2 0x7EDB DUP3 PUSH2 0x7E9A JUMP JUMPDEST PUSH1 0x20 DUP3 ADD SWAP1 POP SWAP2 SWAP1 POP JUMP JUMPDEST PUSH1 0x0 PUSH1 0x20 DUP3 ADD SWAP1 POP DUP2 DUP2 SUB PUSH1 0x0 DUP4 ADD MSTORE PUSH2 0x7EFF DUP2 PUSH2 0x7EC3 JUMP JUMPDEST SWAP1 POP SWAP2 SWAP1 POP JUMP JUMPDEST PUSH32 0x496E6A7572792049442063616E6E6F7420626520656D70747900000000000000 PUSH1 0x0 DUP3 ADD MSTORE POP JUMP JUMPDEST PUSH1 0x0 PUSH2 0x7F3C PUSH1 0x19 DUP4 PUSH2 0x5AE6 JUMP JUMPDEST SWAP2 POP PUSH2 0x7F47 DUP3 PUSH2 0x7F06 JUMP JUMPDEST PUSH1 0x20 DUP3 ADD SWAP1 POP SWAP2 SWAP1 POP JUMP JUMPDEST PUSH1 0x0 PUSH1 0x20 DUP3 ADD SWAP1 POP DUP2 DUP2 SUB PUSH1 0x0 DUP4 ADD MSTORE PUSH2 0x7F6B DUP2 PUSH2 0x7F2F JUMP JUMPDEST SWAP1 POP SWAP2 SWAP1 POP JUMP JUMPDEST PUSH1 0x0 PUSH2 0x7F7E DUP4 DUP6 PUSH2 0x73D9 JUMP JUMPDEST SWAP4 POP PUSH2 0x7F8B DUP4 DUP6 DUP5 PUSH2 0x5EAF JUMP JUMPDEST DUP3 DUP5 ADD SWAP1 POP SWAP4 SWAP3 POP POP POP JUMP JUMPDEST PUSH1 0x0 PUSH2 0x7FA4 DUP3 DUP5 DUP7 PUSH2 0x7F72 JUMP JUMPDEST SWAP2 POP DUP2 SWAP1 POP SWAP4 SWAP3 POP POP POP JUMP JUMPDEST PUSH1 0x0 DUP2 SWAP1 POP DUP2 PUSH1 0x0 MSTORE PUSH1 0x20 PUSH1 0x0 KECCAK256 SWAP1 POP SWAP2 SWAP1 POP JUMP JUMPDEST PUSH1 0x0 DUP2 SLOAD PUSH2 0x7FD2 DUP2 PUSH2 0x6ACC JUMP JUMPDEST PUSH2 0x7FDC DUP2 DUP7 PUSH2 0x73D9 JUMP JUMPDEST SWAP5 POP PUSH1 0x1 DUP3 AND PUSH1 0x0 DUP2 EQ PUSH2 0x7FF7 JUMPI PUSH1 0x1 DUP2 EQ PUSH2 0x800C JUMPI PUSH2 0x803F JUMP JUMPDEST PUSH1 0xFF NOT DUP4 AND DUP7 MSTORE DUP2 ISZERO ISZERO DUP3 MUL DUP7 ADD SWAP4 POP PUSH2 0x803F JUMP JUMPDEST PUSH2 0x8015 DUP6 PUSH2 0x7FB0 JUMP JUMPDEST PUSH1 0x0 JUMPDEST DUP4 DUP2 LT ISZERO PUSH2 0x8037 JUMPI DUP2 SLOAD DUP2 DUP10 ADD MSTORE PUSH1 0x1 DUP3 ADD SWAP2 POP PUSH1 0x20 DUP2 ADD SWAP1 POP PUSH2 0x8018 JUMP JUMPDEST DUP4 DUP9 ADD SWAP6 POP POP POP JUMPDEST POP POP POP SWAP3 SWAP2 POP POP JUMP JUMPDEST PUSH1 0x0 PUSH2 0x8054 DUP3 DUP5 PUSH2 0x7FC5 JUMP JUMPDEST SWAP2 POP DUP2 SWAP1 POP SWAP3 SWAP2 POP POP JUMP JUMPDEST PUSH1 0x0 DUP2 SLOAD SWAP1 POP PUSH2 0x806E DUP2 PUSH2 0x6ACC JUMP JUMPDEST SWAP1 POP SWAP2 SWAP1 POP JUMP JUMPDEST PUSH1 0x0 DUP2 SWAP1 POP DUP2 PUSH1 0x0 MSTORE PUSH1 0x20 PUSH1 0x0 KECCAK256 SWAP1 POP SWAP2 SWAP1 POP JUMP JUMPDEST DUP2 DUP2 SUB PUSH2 0x8098 JUMPI POP POP PUSH2 0x8170 JUMP JUMPDEST PUSH2 0x80A1 DUP3 PUSH2 0x805F JUMP JUMPDEST PUSH8 0xFFFFFFFFFFFFFFFF DUP2 GT ISZERO PUSH2 0x80BA JUMPI PUSH2 0x80B9 PUSH2 0x5E03 JUMP JUMPDEST JUMPDEST PUSH2 0x80C4 DUP3 SLOAD PUSH2 0x6ACC JUMP JUMPDEST PUSH2 0x80CF DUP3 DUP3 DUP6 PUSH2 0x6F2C JUMP JUMPDEST PUSH1 0x0 PUSH1 0x1F DUP4 GT PUSH1 0x1 DUP2 EQ PUSH2 0x80FE JUMPI PUSH1 0x0 DUP5 ISZERO PUSH2 0x80EC JUMPI DUP3 DUP8 ADD SLOAD SWAP1 POP JUMPDEST PUSH2 0x80F6 DUP6 DUP3 PUSH2 0x6F9D JUMP JUMPDEST DUP7 SSTORE POP PUSH2 0x8169 JUMP JUMPDEST PUSH1 0x1F NOT DUP5 AND PUSH2 0x810C DUP8 PUSH2 0x8075 JUMP JUMPDEST SWAP7 POP PUSH2 0x8117 DUP7 PUSH2 0x6E0D JUMP JUMPDEST PUSH1 0x0 JUMPDEST DUP3 DUP2 LT ISZERO PUSH2 0x813F JUMPI DUP5 DUP10 ADD SLOAD DUP3 SSTORE PUSH1 0x1 DUP3 ADD SWAP2 POP PUSH1 0x1 DUP6 ADD SWAP5 POP PUSH1 0x20 DUP2 ADD SWAP1 POP PUSH2 0x811A JUMP JUMPDEST DUP7 DUP4 LT ISZERO PUSH2 0x815C JUMPI DUP5 DUP10 ADD SLOAD PUSH2 0x8158 PUSH1 0x1F DUP10 AND DUP3 PUSH2 0x6F7F JUMP JUMPDEST DUP4 SSTORE POP JUMPDEST PUSH1 0x1 PUSH1 0x2 DUP9 MUL ADD DUP9 SSTORE POP POP POP JUMPDEST POP POP POP POP POP POP JUMPDEST JUMP JUMPDEST PUSH32 0x4E487B7100000000000000000000000000000000000000000000000000000000 PUSH1 0x0 MSTORE PUSH1 0x31 PUSH1 0x4 MSTORE PUSH1 0x24 PUSH1 0x0 REVERT JUMPDEST PUSH32 0x4552433732313A20617070726F766520746F2063616C6C657200000000000000 PUSH1 0x0 DUP3 ADD MSTORE POP JUMP JUMPDEST PUSH1 0x0 PUSH2 0x81D7 PUSH1 0x19 DUP4 PUSH2 0x5AE6 JUMP JUMPDEST SWAP2 POP PUSH2 0x81E2 DUP3 PUSH2 0x81A1 JUMP JUMPDEST PUSH1 0x20 DUP3 ADD SWAP1 POP SWAP2 SWAP1 POP JUMP JUMPDEST PUSH1 0x0 PUSH1 0x20 DUP3 ADD SWAP1 POP DUP2 DUP2 SUB PUSH1 0x0 DUP4 ADD MSTORE PUSH2 0x8206 DUP2 PUSH2 0x81CA JUMP JUMPDEST SWAP1 POP SWAP2 SWAP1 POP JUMP JUMPDEST PUSH32 0x41637469766974792049442063616E6E6F7420626520656D7074790000000000 PUSH1 0x0 DUP3 ADD MSTORE POP JUMP JUMPDEST PUSH1 0x0 PUSH2 0x8243 PUSH1 0x1B DUP4 PUSH2 0x5AE6 JUMP JUMPDEST SWAP2 POP PUSH2 0x824E DUP3 PUSH2 0x820D JUMP JUMPDEST PUSH1 0x20 DUP3 ADD SWAP1 POP SWAP2 SWAP1 POP JUMP JUMPDEST PUSH1 0x0 PUSH1 0x20 DUP3 ADD SWAP1 POP DUP2 DUP2 SUB PUSH1 0x0 DUP4 ADD MSTORE PUSH2 0x8272 DUP2 PUSH2 0x8236 JUMP JUMPDEST SWAP1 POP SWAP2 SWAP1 POP JUMP JUMPDEST PUSH32 0x4552433732313A207472616E7366657220746F206E6F6E204552433732315265 PUSH1 0x0 DUP3 ADD MSTORE PUSH32 0x63656976657220696D706C656D656E7465720000000000000000000000000000 PUSH1 0x20 DUP3 ADD MSTORE POP JUMP JUMPDEST PUSH1 0x0 PUSH2 0x82D5 PUSH1 0x32 DUP4 PUSH2 0x5AE6 JUMP JUMPDEST SWAP2 POP PUSH2 0x82E0 DUP3 PUSH2 0x8279 JUMP JUMPDEST PUSH1 0x40 DUP3 ADD SWAP1 POP SWAP2 SWAP1 POP JUMP JUMPDEST PUSH1 0x0 PUSH1 0x20 DUP3 ADD SWAP1 POP DUP2 DUP2 SUB PUSH1 0x0 DUP4 ADD MSTORE PUSH2 0x8304 DUP2 PUSH2 0x82C8 JUMP JUMPDEST SWAP1 POP SWAP2 SWAP1 POP JUMP JUMPDEST PUSH32 0x426F74206E616D652063616E6E6F7420626520656D7074790000000000000000 PUSH1 0x0 DUP3 ADD MSTORE POP JUMP JUMPDEST PUSH1 0x0 PUSH2 0x8341 PUSH1 0x18 DUP4 PUSH2 0x5AE6 JUMP JUMPDEST SWAP2 POP PUSH2 0x834C DUP3 PUSH2 0x830B JUMP JUMPDEST PUSH1 0x20 DUP3 ADD SWAP1 POP SWAP2 SWAP1 POP JUMP JUMPDEST PUSH1 0x0 PUSH1 0x20 DUP3 ADD SWAP1 POP DUP2 DUP2 SUB PUSH1 0x0 DUP4 ADD MSTORE PUSH2 0x8370 DUP2 PUSH2 0x8334 JUMP JUMPDEST SWAP1 POP SWAP2 SWAP1 POP JUMP JUMPDEST PUSH32 0x426F7420616C7265616479206578697374730000000000000000000000000000 PUSH1 0x0 DUP3 ADD MSTORE POP JUMP JUMPDEST PUSH1 0x0 PUSH2 0x83AD PUSH1 0x12 DUP4 PUSH2 0x5AE6 JUMP JUMPDEST SWAP2 POP PUSH2 0x83B8 DUP3 PUSH2 0x8377 JUMP JUMPDEST PUSH1 0x20 DUP3 ADD SWAP1 POP SWAP2 SWAP1 POP JUMP JUMPDEST PUSH1 0x0 PUSH1 0x20 DUP3 ADD SWAP1 POP DUP2 DUP2 SUB PUSH1 0x0 DUP4 ADD MSTORE PUSH2 0x83DC DUP2 PUSH2 0x83A0 JUMP JUMPDEST SWAP1 POP SWAP2 SWAP1 POP JUMP JUMPDEST PUSH1 0x0 DUP2 MLOAD SWAP1 POP SWAP2 SWAP1 POP JUMP JUMPDEST PUSH1 0x0 DUP3 DUP3 MSTORE PUSH1 0x20 DUP3 ADD SWAP1 POP SWAP3 SWAP2 POP POP JUMP JUMPDEST PUSH1 0x0 PUSH2 0x840A DUP3 PUSH2 0x83E3 JUMP JUMPDEST PUSH2 0x8414 DUP2 DUP6 PUSH2 0x83EE JUMP JUMPDEST SWAP4 POP PUSH2 0x8424 DUP2 DUP6 PUSH1 0x20 DUP7 ADD PUSH2 0x5AF7 JUMP JUMPDEST PUSH2 0x842D DUP2 PUSH2 0x5B21 JUMP JUMPDEST DUP5 ADD SWAP2 POP POP SWAP3 SWAP2 POP POP JUMP JUMPDEST PUSH1 0x0 PUSH1 0x80 DUP3 ADD SWAP1 POP PUSH2 0x844D PUSH1 0x0 DUP4 ADD DUP8 PUSH2 0x5C22 JUMP JUMPDEST PUSH2 0x845A PUSH1 0x20 DUP4 ADD DUP7 PUSH2 0x5C22 JUMP JUMPDEST PUSH2 0x8467 PUSH1 0x40 DUP4 ADD DUP6 PUSH2 0x6191 JUMP JUMPDEST DUP2 DUP2 SUB PUSH1 0x60 DUP4 ADD MSTORE PUSH2 0x8479 DUP2 DUP5 PUSH2 0x83FF JUMP JUMPDEST SWAP1 POP SWAP6 SWAP5 POP POP POP POP POP JUMP JUMPDEST PUSH1 0x0 DUP2 MLOAD SWAP1 POP PUSH2 0x8493 DUP2 PUSH2 0x5A4C JUMP JUMPDEST SWAP3 SWAP2 POP POP JUMP JUMPDEST PUSH1 0x0 PUSH1 0x20 DUP3 DUP5 SUB SLT ISZERO PUSH2 0x84AF JUMPI PUSH2 0x84AE PUSH2 0x5A16 JUMP JUMPDEST JUMPDEST PUSH1 0x0 PUSH2 0x84BD DUP5 DUP3 DUP6 ADD PUSH2 0x8484 JUMP JUMPDEST SWAP2 POP POP SWAP3 SWAP2 POP POP JUMP INVALID LOG2 PUSH5 0x6970667358 0x22 SLT KECCAK256 DUP8 0xBD 0xAB PUSH32 0xECCE5089E88001C3293A9A9A3AFC6ABA56F972E24AA565C78C3368BE64736F6C PUSH4 0x43000814 STOP CALLER PUSH1 0xA0 PUSH1 0x40 MSTORE CALLVALUE DUP1 ISZERO PUSH3 0x11 JUMPI PUSH1 0x0 DUP1 REVERT JUMPDEST POP PUSH1 0x40 MLOAD PUSH3 0x1C2C CODESIZE SUB DUP1 PUSH3 0x1C2C DUP4 CODECOPY DUP2 DUP2 ADD PUSH1 0x40 MSTORE DUP2 ADD SWAP1 PUSH3 0x37 SWAP2 SWAP1 PUSH3 0xDC JUMP JUMPDEST DUP1 PUSH20 0xFFFFFFFFFFFFFFFFFFFFFFFFFFFFFFFFFFFFFFFF AND PUSH1 0x80 DUP2 PUSH20 0xFFFFFFFFFFFFFFFFFFFFFFFFFFFFFFFFFFFFFFFF AND DUP2 MSTORE POP POP POP PUSH3 0x10E JUMP JUMPDEST PUSH1 0x0 DUP1 REVERT JUMPDEST PUSH1 0x0 PUSH20 0xFFFFFFFFFFFFFFFFFFFFFFFFFFFFFFFFFFFFFFFF DUP3 AND SWAP1 POP SWAP2 SWAP1 POP JUMP JUMPDEST PUSH1 0x0 PUSH3 0xA4 DUP3 PUSH3 0x77 JUMP JUMPDEST SWAP1 POP SWAP2 SWAP1 POP JUMP JUMPDEST PUSH3 0xB6 DUP2 PUSH3 0x97 JUMP JUMPDEST DUP2 EQ PUSH3 0xC2 JUMPI PUSH1 0x0 DUP1 REVERT JUMPDEST POP JUMP JUMPDEST PUSH1 0x0 DUP2 MLOAD SWAP1 POP PUSH3 0xD6 DUP2 PUSH3 0xAB JUMP JUMPDEST SWAP3 SWAP2 POP POP JUMP JUMPDEST PUSH1 0x0 PUSH1 0x20 DUP3 DUP5 SUB SLT ISZERO PUSH3 0xF5 JUMPI PUSH3 0xF4 PUSH3 0x72 JUMP JUMPDEST JUMPDEST PUSH1 0x0 PUSH3 0x105 DUP5 DUP3 DUP6 ADD PUSH3 0xC5 JUMP JUMPDEST SWAP2 POP POP SWAP3 SWAP2 POP POP JUMP JUMPDEST PUSH1 0x80 MLOAD PUSH2 0x1AE6 PUSH3 0x146 PUSH1 0x0 CODECOPY PUSH1 0x0 DUP2 DUP2 PUSH2 0x13A ADD MSTORE DUP2 DUP2 PUSH2 0x2B9 ADD MSTORE DUP2 DUP2 PUSH2 0x433 ADD MSTORE DUP2 DUP2 PUSH2 0x83D ADD MSTORE PUSH2 0xB13 ADD MSTORE PUSH2 0x1AE6 PUSH1 0x0 RETURN INVALID PUSH1 0x80 PUSH1 0x40 MSTORE CALLVALUE DUP1 ISZERO PUSH2 0x10 JUMPI PUSH1 0x0 DUP1 REVERT JUMPDEST POP PUSH1 0x4 CALLDATASIZE LT PUSH2 0x57 JUMPI PUSH1 0x0 CALLDATALOAD PUSH1 0xE0 SHR DUP1 PUSH4 0x4E43603A EQ PUSH2 0x5C JUMPI DUP1 PUSH4 0x6C6AF867 EQ PUSH2 0x91 JUMPI DUP1 PUSH4 0xAD0B2555 EQ PUSH2 0xAF JUMPI DUP1 PUSH4 0xD03AAE12 EQ PUSH2 0xDF JUMPI DUP1 PUSH4 0xD270E7AB EQ PUSH2 0x10F JUMPI JUMPDEST PUSH1 0x0 DUP1 REVERT JUMPDEST PUSH2 0x76 PUSH1 0x4 DUP1 CALLDATASIZE SUB DUP2 ADD SWAP1 PUSH2 0x71 SWAP2 SWAP1 PUSH2 0xBA7 JUMP JUMPDEST PUSH2 0x12D JUMP JUMPDEST PUSH1 0x40 MLOAD PUSH2 0x88 SWAP7 SWAP6 SWAP5 SWAP4 SWAP3 SWAP2 SWAP1 PUSH2 0xBED JUMP JUMPDEST PUSH1 0x40 MLOAD DUP1 SWAP2 SUB SWAP1 RETURN JUMPDEST PUSH2 0x99 PUSH2 0x2B4 JUMP JUMPDEST PUSH1 0x40 MLOAD PUSH2 0xA6 SWAP2 SWAP1 PUSH2 0xC4E JUMP JUMPDEST PUSH1 0x40 MLOAD DUP1 SWAP2 SUB SWAP1 RETURN JUMPDEST PUSH2 0xC9 PUSH1 0x4 DUP1 CALLDATASIZE SUB DUP2 ADD SWAP1 PUSH2 0xC4 SWAP2 SWAP1 PUSH2 0xCCE JUMP JUMPDEST PUSH2 0x42D JUMP JUMPDEST PUSH1 0x40 MLOAD PUSH2 0xD6 SWAP2 SWAP1 PUSH2 0xDD9 JUMP JUMPDEST PUSH1 0x40 MLOAD DUP1 SWAP2 SUB SWAP1 RETURN JUMPDEST PUSH2 0xF9 PUSH1 0x4 DUP1 CALLDATASIZE SUB DUP2 ADD SWAP1 PUSH2 0xF4 SWAP2 SWAP1 PUSH2 0xCCE JUMP JUMPDEST PUSH2 0x837 JUMP JUMPDEST PUSH1 0x40 MLOAD PUSH2 0x106 SWAP2 SWAP1 PUSH2 0xF4D JUMP JUMPDEST PUSH1 0x40 MLOAD DUP1 SWAP2 SUB SWAP1 RETURN JUMPDEST PUSH2 0x117 PUSH2 0xB11 JUMP JUMPDEST PUSH1 0x40 MLOAD PUSH2 0x124 SWAP2 SWAP1 PUSH2 0xF7E JUMP JUMPDEST PUSH1 0x40 MLOAD DUP1 SWAP2 SUB SWAP1 RETURN JUMPDEST PUSH1 0x0 DUP1 PUSH1 0x0 DUP1 PUSH1 0x0 DUP1 PUSH1 0x0 PUSH32 0x0 SWAP1 POP DUP1 PUSH20 0xFFFFFFFFFFFFFFFFFFFFFFFFFFFFFFFFFFFFFFFF AND PUSH4 0x163F7522 DUP10 PUSH1 0x40 MLOAD DUP3 PUSH4 0xFFFFFFFF AND PUSH1 0xE0 SHL DUP2 MSTORE PUSH1 0x4 ADD PUSH2 0x194 SWAP2 SWAP1 PUSH2 0xF7E JUMP JUMPDEST PUSH1 0x20 PUSH1 0x40 MLOAD DUP1 DUP4 SUB DUP2 DUP7 GAS STATICCALL ISZERO DUP1 ISZERO PUSH2 0x1B1 JUMPI RETURNDATASIZE PUSH1 0x0 DUP1 RETURNDATACOPY RETURNDATASIZE PUSH1 0x0 REVERT JUMPDEST POP POP POP POP PUSH1 0x40 MLOAD RETURNDATASIZE PUSH1 0x1F NOT PUSH1 0x1F DUP3 ADD AND DUP3 ADD DUP1 PUSH1 0x40 MSTORE POP DUP2 ADD SWAP1 PUSH2 0x1D5 SWAP2 SWAP1 PUSH2 0xFD1 JUMP JUMPDEST PUSH2 0x1F4 JUMPI PUSH1 0x0 DUP1 PUSH1 0x0 DUP1 PUSH1 0x0 DUP1 SWAP7 POP SWAP7 POP SWAP7 POP SWAP7 POP SWAP7 POP SWAP7 POP POP PUSH2 0x2AB JUMP JUMPDEST PUSH1 0x0 DUP2 PUSH20 0xFFFFFFFFFFFFFFFFFFFFFFFFFFFFFFFFFFFFFFFF AND PUSH4 0xCC3D967B DUP11 PUSH1 0x40 MLOAD DUP3 PUSH4 0xFFFFFFFF AND PUSH1 0xE0 SHL DUP2 MSTORE PUSH1 0x4 ADD PUSH2 0x22F SWAP2 SWAP1 PUSH2 0xF7E JUMP JUMPDEST PUSH1 0x0 PUSH1 0x40 MLOAD DUP1 DUP4 SUB DUP2 DUP7 GAS STATICCALL ISZERO DUP1 ISZERO PUSH2 0x24C JUMPI RETURNDATASIZE PUSH1 0x0 DUP1 RETURNDATACOPY RETURNDATASIZE PUSH1 0x0 REVERT JUMPDEST POP POP POP POP PUSH1 0x40 MLOAD RETURNDATASIZE PUSH1 0x0 DUP3 RETURNDATACOPY RETURNDATASIZE PUSH1 0x1F NOT PUSH1 0x1F DUP3 ADD AND DUP3 ADD DUP1 PUSH1 0x40 MSTORE POP DUP2 ADD SWAP1 PUSH2 0x275 SWAP2 SWAP1 PUSH2 0x1606 JUMP JUMPDEST SWAP1 POP DUP1 PUSH1 0x20 ADD MLOAD MLOAD DUP2 PUSH1 0x40 ADD MLOAD MLOAD DUP3 PUSH1 0x60 ADD MLOAD MLOAD DUP4 PUSH1 0xC0 ADD MLOAD MLOAD DUP5 PUSH2 0x100 ADD MLOAD MLOAD DUP6 PUSH1 0x80 ADD MLOAD MLOAD SWAP8 POP SWAP8 POP SWAP8 POP SWAP8 POP SWAP8 POP SWAP8 POP POP POP JUMPDEST SWAP2 SWAP4 SWAP6 POP SWAP2 SWAP4 SWAP6 JUMP JUMPDEST PUSH1 0x0 DUP1 PUSH32 0x0 SWAP1 POP PUSH1 0x0 DUP2 PUSH20 0xFFFFFFFFFFFFFFFFFFFFFFFFFFFFFFFFFFFFFFFF AND PUSH4 0x8272E1D4 PUSH1 0x40 MLOAD DUP2 PUSH4 0xFFFFFFFF AND PUSH1 0xE0 SHL DUP2 MSTORE PUSH1 0x4 ADD PUSH1 0x0 PUSH1 0x40 MLOAD DUP1 DUP4 SUB DUP2 DUP7 GAS STATICCALL ISZERO DUP1 ISZERO PUSH2 0x327 JUMPI RETURNDATASIZE PUSH1 0x0 DUP1 RETURNDATACOPY RETURNDATASIZE PUSH1 0x0 REVERT JUMPDEST POP POP POP POP PUSH1 0x40 MLOAD RETURNDATASIZE PUSH1 0x0 DUP3 RETURNDATACOPY RETURNDATASIZE PUSH1 0x1F NOT PUSH1 0x1F DUP3 ADD AND DUP3 ADD DUP1 PUSH1 0x40 MSTORE POP DUP2 ADD SWAP1 PUSH2 0x350 SWAP2 SWAP1 PUSH2 0x164F JUMP JUMPDEST SWAP1 POP PUSH1 0x0 DUP1 JUMPDEST DUP3 MLOAD DUP2 LT ISZERO PUSH2 0x423 JUMPI PUSH1 0x0 DUP5 PUSH20 0xFFFFFFFFFFFFFFFFFFFFFFFFFFFFFFFFFFFFFFFF AND PUSH4 0x54D9EA15 DUP6 DUP5 DUP2 MLOAD DUP2 LT PUSH2 0x390 JUMPI PUSH2 0x38F PUSH2 0x1698 JUMP JUMPDEST JUMPDEST PUSH1 0x20 MUL PUSH1 0x20 ADD ADD MLOAD PUSH1 0x40 MLOAD DUP3 PUSH4 0xFFFFFFFF AND PUSH1 0xE0 SHL DUP2 MSTORE PUSH1 0x4 ADD PUSH2 0x3B4 SWAP2 SWAP1 PUSH2 0x1711 JUMP JUMPDEST PUSH1 0x0 PUSH1 0x40 MLOAD DUP1 DUP4 SUB DUP2 DUP7 GAS STATICCALL ISZERO DUP1 ISZERO PUSH2 0x3D1 JUMPI RETURNDATASIZE PUSH1 0x0 DUP1 RETURNDATACOPY RETURNDATASIZE PUSH1 0x0 REVERT JUMPDEST POP POP POP POP PUSH1 0x40 MLOAD RETURNDATASIZE PUSH1 0x0 DUP3 RETURNDATACOPY RETURNDATASIZE PUSH1 0x1F NOT PUSH1 0x1F DUP3 ADD AND DUP3 ADD DUP1 PUSH1 0x40 MSTORE POP DUP2 ADD SWAP1 PUSH2 0x3FA SWAP2 SWAP1 PUSH2 0x191B JUMP JUMPDEST SWAP1 POP DUP1 PUSH1 0xA0 ADD MLOAD MLOAD DUP4 PUSH2 0x40D SWAP2 SWAP1 PUSH2 0x1993 JUMP JUMPDEST SWAP3 POP POP DUP1 DUP1 PUSH2 0x41B SWAP1 PUSH2 0x19C7 JUMP JUMPDEST SWAP2 POP POP PUSH2 0x356 JUMP JUMPDEST POP DUP1 SWAP4 POP POP POP POP SWAP1 JUMP JUMPDEST PUSH1 0x60 PUSH1 0x0 PUSH32 0x0 SWAP1 POP PUSH1 0x0 DUP2 PUSH20 0xFFFFFFFFFFFFFFFFFFFFFFFFFFFFFFFFFFFFFFFF AND PUSH4 0xE2842D79 PUSH1 0x40 MLOAD DUP2 PUSH4 0xFFFFFFFF AND PUSH1 0xE0 SHL DUP2 MSTORE PUSH1 0x4 ADD PUSH1 0x0 PUSH1 0x40 MLOAD DUP1 DUP4 SUB DUP2 DUP7 GAS STATICCALL ISZERO DUP1 ISZERO PUSH2 0x4A1 JUMPI RETURNDATASIZE PUSH1 0x0 DUP1 RETURNDATACOPY RETURNDATASIZE PUSH1 0x0 REVERT JUMPDEST POP POP POP POP PUSH1 0x40 MLOAD RETURNDATASIZE PUSH1 0x0 DUP3 RETURNDATACOPY RETURNDATASIZE PUSH1 0x1F NOT PUSH1 0x1F DUP3 ADD AND DUP3 ADD DUP1 PUSH1 0x40 MSTORE POP DUP2 ADD SWAP1 PUSH2 0x4CA SWAP2 SWAP1 PUSH2 0x1A0F JUMP JUMPDEST SWAP1 POP PUSH1 0x0 DUP2 MLOAD PUSH8 0xFFFFFFFFFFFFFFFF DUP2 GT ISZERO PUSH2 0x4E9 JUMPI PUSH2 0x4E8 PUSH2 0x1003 JUMP JUMPDEST JUMPDEST PUSH1 0x40 MLOAD SWAP1 DUP1 DUP3 MSTORE DUP1 PUSH1 0x20 MUL PUSH1 0x20 ADD DUP3 ADD PUSH1 0x40 MSTORE DUP1 ISZERO PUSH2 0x517 JUMPI DUP2 PUSH1 0x20 ADD PUSH1 0x20 DUP3 MUL DUP1 CALLDATASIZE DUP4 CALLDATACOPY DUP1 DUP3 ADD SWAP2 POP POP SWAP1 POP JUMPDEST POP SWAP1 POP PUSH1 0x0 DUP1 JUMPDEST DUP4 MLOAD DUP2 LT ISZERO PUSH2 0x754 JUMPI DUP5 PUSH20 0xFFFFFFFFFFFFFFFFFFFFFFFFFFFFFFFFFFFFFFFF AND PUSH4 0x163F7522 DUP6 DUP4 DUP2 MLOAD DUP2 LT PUSH2 0x556 JUMPI PUSH2 0x555 PUSH2 0x1698 JUMP JUMPDEST JUMPDEST PUSH1 0x20 MUL PUSH1 0x20 ADD ADD MLOAD PUSH1 0x40 MLOAD DUP3 PUSH4 0xFFFFFFFF AND PUSH1 0xE0 SHL DUP2 MSTORE PUSH1 0x4 ADD PUSH2 0x57A SWAP2 SWAP1 PUSH2 0xF7E JUMP JUMPDEST PUSH1 0x20 PUSH1 0x40 MLOAD DUP1 DUP4 SUB DUP2 DUP7 GAS STATICCALL ISZERO DUP1 ISZERO PUSH2 0x597 JUMPI RETURNDATASIZE PUSH1 0x0 DUP1 RETURNDATACOPY RETURNDATASIZE PUSH1 0x0 REVERT JUMPDEST POP POP POP POP PUSH1 0x40 MLOAD RETURNDATASIZE PUSH1 0x1F NOT PUSH1 0x1F DUP3 ADD AND DUP3 ADD DUP1 PUSH1 0x40 MSTORE POP DUP2 ADD SWAP1 PUSH2 0x5BB SWAP2 SWAP1 PUSH2 0xFD1 JUMP JUMPDEST ISZERO PUSH2 0x741 JUMPI PUSH1 0x0 DUP6 PUSH20 0xFFFFFFFFFFFFFFFFFFFFFFFFFFFFFFFFFFFFFFFF AND PUSH4 0xCC3D967B DUP7 DUP5 DUP2 MLOAD DUP2 LT PUSH2 0x5F1 JUMPI PUSH2 0x5F0 PUSH2 0x1698 JUMP JUMPDEST JUMPDEST PUSH1 0x20 MUL PUSH1 0x20 ADD ADD MLOAD PUSH1 0x40 MLOAD DUP3 PUSH4 0xFFFFFFFF AND PUSH1 0xE0 SHL DUP2 MSTORE PUSH1 0x4 ADD PUSH2 0x615 SWAP2 SWAP1 PUSH2 0xF7E JUMP JUMPDEST PUSH1 0x0 PUSH1 0x40 MLOAD DUP1 DUP4 SUB DUP2 DUP7 GAS STATICCALL ISZERO DUP1 ISZERO PUSH2 0x632 JUMPI RETURNDATASIZE PUSH1 0x0 DUP1 RETURNDATACOPY RETURNDATASIZE PUSH1 0x0 REVERT JUMPDEST POP POP POP POP PUSH1 0x40 MLOAD RETURNDATASIZE PUSH1 0x0 DUP3 RETURNDATACOPY RETURNDATASIZE PUSH1 0x1F NOT PUSH1 0x1F DUP3 ADD AND DUP3 ADD DUP1 PUSH1 0x40 MSTORE POP DUP2 ADD SWAP1 PUSH2 0x65B SWAP2 SWAP1 PUSH2 0x1606 JUMP JUMPDEST SWAP1 POP PUSH1 0x0 JUMPDEST DUP2 PUSH1 0x20 ADD MLOAD MLOAD DUP2 LT ISZERO PUSH2 0x73E JUMPI DUP10 DUP10 PUSH1 0x40 MLOAD PUSH2 0x67D SWAP3 SWAP2 SWAP1 PUSH2 0x1A97 JUMP JUMPDEST PUSH1 0x40 MLOAD DUP1 SWAP2 SUB SWAP1 KECCAK256 DUP3 PUSH1 0x20 ADD MLOAD DUP3 DUP2 MLOAD DUP2 LT PUSH2 0x69C JUMPI PUSH2 0x69B PUSH2 0x1698 JUMP JUMPDEST JUMPDEST PUSH1 0x20 MUL PUSH1 0x20 ADD ADD MLOAD DUP1 MLOAD SWAP1 PUSH1 0x20 ADD KECCAK256 SUB PUSH2 0x72B JUMPI DUP6 DUP4 DUP2 MLOAD DUP2 LT PUSH2 0x6C3 JUMPI PUSH2 0x6C2 PUSH2 0x1698 JUMP JUMPDEST JUMPDEST PUSH1 0x20 MUL PUSH1 0x20 ADD ADD MLOAD DUP6 DUP6 DUP2 MLOAD DUP2 LT PUSH2 0x6DE JUMPI PUSH2 0x6DD PUSH2 0x1698 JUMP JUMPDEST JUMPDEST PUSH1 0x20 MUL PUSH1 0x20 ADD ADD SWAP1 PUSH20 0xFFFFFFFFFFFFFFFFFFFFFFFFFFFFFFFFFFFFFFFF AND SWAP1 DUP2 PUSH20 0xFFFFFFFFFFFFFFFFFFFFFFFFFFFFFFFFFFFFFFFF AND DUP2 MSTORE POP POP DUP4 DUP1 PUSH2 0x723 SWAP1 PUSH2 0x19C7 JUMP JUMPDEST SWAP5 POP POP PUSH2 0x73E JUMP JUMPDEST DUP1 DUP1 PUSH2 0x736 SWAP1 PUSH2 0x19C7 JUMP JUMPDEST SWAP2 POP POP PUSH2 0x660 JUMP JUMPDEST POP POP JUMPDEST DUP1 DUP1 PUSH2 0x74C SWAP1 PUSH2 0x19C7 JUMP JUMPDEST SWAP2 POP POP PUSH2 0x51E JUMP JUMPDEST POP PUSH1 0x0 DUP2 PUSH8 0xFFFFFFFFFFFFFFFF DUP2 GT ISZERO PUSH2 0x771 JUMPI PUSH2 0x770 PUSH2 0x1003 JUMP JUMPDEST JUMPDEST PUSH1 0x40 MLOAD SWAP1 DUP1 DUP3 MSTORE DUP1 PUSH1 0x20 MUL PUSH1 0x20 ADD DUP3 ADD PUSH1 0x40 MSTORE DUP1 ISZERO PUSH2 0x79F JUMPI DUP2 PUSH1 0x20 ADD PUSH1 0x20 DUP3 MUL DUP1 CALLDATASIZE DUP4 CALLDATACOPY DUP1 DUP3 ADD SWAP2 POP POP SWAP1 POP JUMPDEST POP SWAP1 POP PUSH1 0x0 JUMPDEST DUP3 DUP2 LT ISZERO PUSH2 0x828 JUMPI DUP4 DUP2 DUP2 MLOAD DUP2 LT PUSH2 0x7C0 JUMPI PUSH2 0x7BF PUSH2 0x1698 JUMP JUMPDEST JUMPDEST PUSH1 0x20 MUL PUSH1 0x20 ADD ADD MLOAD DUP3 DUP3 DUP2 MLOAD DUP2 LT PUSH2 0x7DB JUMPI PUSH2 0x7DA PUSH2 0x1698 JUMP JUMPDEST JUMPDEST PUSH1 0x20 MUL PUSH1 0x20 ADD ADD SWAP1 PUSH20 0xFFFFFFFFFFFFFFFFFFFFFFFFFFFFFFFFFFFFFFFF AND SWAP1 DUP2 PUSH20 0xFFFFFFFFFFFFFFFFFFFFFFFFFFFFFFFFFFFFFFFF AND DUP2 MSTORE POP POP DUP1 DUP1 PUSH2 0x820 SWAP1 PUSH2 0x19C7 JUMP JUMPDEST SWAP2 POP POP PUSH2 0x7A5 JUMP JUMPDEST POP DUP1 SWAP6 POP POP POP POP POP POP SWAP3 SWAP2 POP POP JUMP JUMPDEST PUSH1 0x60 PUSH1 0x0 PUSH32 0x0 SWAP1 POP PUSH1 0x0 DUP2 PUSH20 0xFFFFFFFFFFFFFFFFFFFFFFFFFFFFFFFFFFFFFFFF AND PUSH4 0x8272E1D4 PUSH1 0x40 MLOAD DUP2 PUSH4 0xFFFFFFFF AND PUSH1 0xE0 SHL DUP2 MSTORE PUSH1 0x4 ADD PUSH1 0x0 PUSH1 0x40 MLOAD DUP1 DUP4 SUB DUP2 DUP7 GAS STATICCALL ISZERO DUP1 ISZERO PUSH2 0x8AB JUMPI RETURNDATASIZE PUSH1 0x0 DUP1 RETURNDATACOPY RETURNDATASIZE PUSH1 0x0 REVERT JUMPDEST POP POP POP POP PUSH1 0x40 MLOAD RETURNDATASIZE PUSH1 0x0 DUP3 RETURNDATACOPY RETURNDATASIZE PUSH1 0x1F NOT PUSH1 0x1F DUP3 ADD AND DUP3 ADD DUP1 PUSH1 0x40 MSTORE POP DUP2 ADD SWAP1 PUSH2 0x8D4 SWAP2 SWAP1 PUSH2 0x164F JUMP JUMPDEST SWAP1 POP PUSH1 0x0 DUP2 MLOAD PUSH8 0xFFFFFFFFFFFFFFFF DUP2 GT ISZERO PUSH2 0x8F3 JUMPI PUSH2 0x8F2 PUSH2 0x1003 JUMP JUMPDEST JUMPDEST PUSH1 0x40 MLOAD SWAP1 DUP1 DUP3 MSTORE DUP1 PUSH1 0x20 MUL PUSH1 0x20 ADD DUP3 ADD PUSH1 0x40 MSTORE DUP1 ISZERO PUSH2 0x926 JUMPI DUP2 PUSH1 0x20 ADD JUMPDEST PUSH1 0x60 DUP2 MSTORE PUSH1 0x20 ADD SWAP1 PUSH1 0x1 SWAP1 SUB SWAP1 DUP2 PUSH2 0x911 JUMPI SWAP1 POP JUMPDEST POP SWAP1 POP PUSH1 0x0 DUP1 JUMPDEST DUP4 MLOAD DUP2 LT ISZERO PUSH2 0xA58 JUMPI PUSH1 0x0 DUP6 PUSH20 0xFFFFFFFFFFFFFFFFFFFFFFFFFFFFFFFFFFFFFFFF AND PUSH4 0x54D9EA15 DUP7 DUP5 DUP2 MLOAD DUP2 LT PUSH2 0x967 JUMPI PUSH2 0x966 PUSH2 0x1698 JUMP JUMPDEST JUMPDEST PUSH1 0x20 MUL PUSH1 0x20 ADD ADD MLOAD PUSH1 0x40 MLOAD DUP3 PUSH4 0xFFFFFFFF AND PUSH1 0xE0 SHL DUP2 MSTORE PUSH1 0x4 ADD PUSH2 0x98B SWAP2 SWAP1 PUSH2 0x1711 JUMP JUMPDEST PUSH1 0x0 PUSH1 0x40 MLOAD DUP1 DUP4 SUB DUP2 DUP7 GAS STATICCALL ISZERO DUP1 ISZERO PUSH2 0x9A8 JUMPI RETURNDATASIZE PUSH1 0x0 DUP1 RETURNDATACOPY RETURNDATASIZE PUSH1 0x0 REVERT JUMPDEST POP POP POP POP PUSH1 0x40 MLOAD RETURNDATASIZE PUSH1 0x0 DUP3 RETURNDATACOPY RETURNDATASIZE PUSH1 0x1F NOT PUSH1 0x1F DUP3 ADD AND DUP3 ADD DUP1 PUSH1 0x40 MSTORE POP DUP2 ADD SWAP1 PUSH2 0x9D1 SWAP2 SWAP1 PUSH2 0x191B JUMP JUMPDEST SWAP1 POP DUP9 DUP9 PUSH1 0x40 MLOAD PUSH2 0x9E3 SWAP3 SWAP2 SWAP1 PUSH2 0x1A97 JUMP JUMPDEST PUSH1 0x40 MLOAD DUP1 SWAP2 SUB SWAP1 KECCAK256 DUP2 PUSH1 0x40 ADD MLOAD DUP1 MLOAD SWAP1 PUSH1 0x20 ADD KECCAK256 SUB PUSH2 0xA44 JUMPI DUP5 DUP3 DUP2 MLOAD DUP2 LT PUSH2 0xA0F JUMPI PUSH2 0xA0E PUSH2 0x1698 JUMP JUMPDEST JUMPDEST PUSH1 0x20 MUL PUSH1 0x20 ADD ADD MLOAD DUP5 DUP5 DUP2 MLOAD DUP2 LT PUSH2 0xA2A JUMPI PUSH2 0xA29 PUSH2 0x1698 JUMP JUMPDEST JUMPDEST PUSH1 0x20 MUL PUSH1 0x20 ADD ADD DUP2 SWAP1 MSTORE POP DUP3 DUP1 PUSH2 0xA40 SWAP1 PUSH2 0x19C7 JUMP JUMPDEST SWAP4 POP POP JUMPDEST POP DUP1 DUP1 PUSH2 0xA50 SWAP1 PUSH2 0x19C7 JUMP JUMPDEST SWAP2 POP POP PUSH2 0x92D JUMP JUMPDEST POP PUSH1 0x0 DUP2 PUSH8 0xFFFFFFFFFFFFFFFF DUP2 GT ISZERO PUSH2 0xA75 JUMPI PUSH2 0xA74 PUSH2 0x1003 JUMP JUMPDEST JUMPDEST PUSH1 0x40 MLOAD SWAP1 DUP1 DUP3 MSTORE DUP1 PUSH1 0x20 MUL PUSH1 0x20 ADD DUP3 ADD PUSH1 0x40 MSTORE DUP1 ISZERO PUSH2 0xAA8 JUMPI DUP2 PUSH1 0x20 ADD JUMPDEST PUSH1 0x60 DUP2 MSTORE PUSH1 0x20 ADD SWAP1 PUSH1 0x1 SWAP1 SUB SWAP1 DUP2 PUSH2 0xA93 JUMPI SWAP1 POP JUMPDEST POP SWAP1 POP PUSH1 0x0 JUMPDEST DUP3 DUP2 LT ISZERO PUSH2 0xB02 JUMPI DUP4 DUP2 DUP2 MLOAD DUP2 LT PUSH2 0xAC9 JUMPI PUSH2 0xAC8 PUSH2 0x1698 JUMP JUMPDEST JUMPDEST PUSH1 0x20 MUL PUSH1 0x20 ADD ADD MLOAD DUP3 DUP3 DUP2 MLOAD DUP2 LT PUSH2 0xAE4 JUMPI PUSH2 0xAE3 PUSH2 0x1698 JUMP JUMPDEST JUMPDEST PUSH1 0x20 MUL PUSH1 0x20 ADD ADD DUP2 SWAP1 MSTORE POP DUP1 DUP1 PUSH2 0xAFA SWAP1 PUSH2 0x19C7 JUMP JUMPDEST SWAP2 POP POP PUSH2 0xAAE JUMP JUMPDEST POP DUP1 SWAP6 POP POP POP POP POP POP SWAP3 SWAP2 POP POP JUMP JUMPDEST PUSH32 0x0 DUP2 JUMP JUMPDEST PUSH1 0x0 PUSH1 0x40 MLOAD SWAP1 POP SWAP1 JUMP JUMPDEST PUSH1 0x0 DUP1 REVERT JUMPDEST PUSH1 0x0 DUP1 REVERT JUMPDEST PUSH1 0x0 PUSH20 0xFFFFFFFFFFFFFFFFFFFFFFFFFFFFFFFFFFFFFFFF DUP3 AND SWAP1 POP SWAP2 SWAP1 POP JUMP JUMPDEST PUSH1 0x0 PUSH2 0xB74 DUP3 PUSH2 0xB49 JUMP JUMPDEST SWAP1 POP SWAP2 SWAP1 POP JUMP JUMPDEST PUSH2 0xB84 DUP2 PUSH2 0xB69 JUMP JUMPDEST DUP2 EQ PUSH2 0xB8F JUMPI PUSH1 0x0 DUP1 REVERT JUMPDEST POP JUMP JUMPDEST PUSH1 0x0 DUP2 CALLDATALOAD SWAP1 POP PUSH2 0xBA1 DUP2 PUSH2 0xB7B JUMP JUMPDEST SWAP3 SWAP2 POP POP JUMP JUMPDEST PUSH1 0x0 PUSH1 0x20 DUP3 DUP5 SUB SLT ISZERO PUSH2 0xBBD JUMPI PUSH2 0xBBC PUSH2 0xB3F JUMP JUMPDEST JUMPDEST PUSH1 0x0 PUSH2 0xBCB DUP5 DUP3 DUP6 ADD PUSH2 0xB92 JUMP JUMPDEST SWAP2 POP POP SWAP3 SWAP2 POP POP JUMP JUMPDEST PUSH1 0x0 DUP2 SWAP1 POP SWAP2 SWAP1 POP JUMP JUMPDEST PUSH2 0xBE7 DUP2 PUSH2 0xBD4 JUMP JUMPDEST DUP3 MSTORE POP POP JUMP JUMPDEST PUSH1 0x0 PUSH1 0xC0 DUP3 ADD SWAP1 POP PUSH2 0xC02 PUSH1 0x0 DUP4 ADD DUP10 PUSH2 0xBDE JUMP JUMPDEST PUSH2 0xC0F PUSH1 0x20 DUP4 ADD DUP9 PUSH2 0xBDE JUMP JUMPDEST PUSH2 0xC1C PUSH1 0x40 DUP4 ADD DUP8 PUSH2 0xBDE JUMP JUMPDEST PUSH2 0xC29 PUSH1 0x60 DUP4 ADD DUP7 PUSH2 0xBDE JUMP JUMPDEST PUSH2 0xC36 PUSH1 0x80 DUP4 ADD DUP6 PUSH2 0xBDE JUMP JUMPDEST PUSH2 0xC43 PUSH1 0xA0 DUP4 ADD DUP5 PUSH2 0xBDE JUMP JUMPDEST SWAP8 SWAP7 POP POP POP POP POP POP POP JUMP JUMPDEST PUSH1 0x0 PUSH1 0x20 DUP3 ADD SWAP1 POP PUSH2 0xC63 PUSH1 0x0 DUP4 ADD DUP5 PUSH2 0xBDE JUMP JUMPDEST SWAP3 SWAP2 POP POP JUMP JUMPDEST PUSH1 0x0 DUP1 REVERT JUMPDEST PUSH1 0x0 DUP1 REVERT JUMPDEST PUSH1 0x0 DUP1 REVERT JUMPDEST PUSH1 0x0 DUP1 DUP4 PUSH1 0x1F DUP5 ADD SLT PUSH2 0xC8E JUMPI PUSH2 0xC8D PUSH2 0xC69 JUMP JUMPDEST JUMPDEST DUP3 CALLDATALOAD SWAP1 POP PUSH8 0xFFFFFFFFFFFFFFFF DUP2 GT ISZERO PUSH2 0xCAB JUMPI PUSH2 0xCAA PUSH2 0xC6E JUMP JUMPDEST JUMPDEST PUSH1 0x20 DUP4 ADD SWAP2 POP DUP4 PUSH1 0x1 DUP3 MUL DUP4 ADD GT ISZERO PUSH2 0xCC7 JUMPI PUSH2 0xCC6 PUSH2 0xC73 JUMP JUMPDEST JUMPDEST SWAP3 POP SWAP3 SWAP1 POP JUMP JUMPDEST PUSH1 0x0 DUP1 PUSH1 0x20 DUP4 DUP6 SUB SLT ISZERO PUSH2 0xCE5 JUMPI PUSH2 0xCE4 PUSH2 0xB3F JUMP JUMPDEST JUMPDEST PUSH1 0x0 DUP4 ADD CALLDATALOAD PUSH8 0xFFFFFFFFFFFFFFFF DUP2 GT ISZERO PUSH2 0xD03 JUMPI PUSH2 0xD02 PUSH2 0xB44 JUMP JUMPDEST JUMPDEST PUSH2 0xD0F DUP6 DUP3 DUP7 ADD PUSH2 0xC78 JUMP JUMPDEST SWAP3 POP SWAP3 POP POP SWAP3 POP SWAP3 SWAP1 POP JUMP JUMPDEST PUSH1 0x0 DUP2 MLOAD SWAP1 POP SWAP2 SWAP1 POP JUMP JUMPDEST PUSH1 0x0 DUP3 DUP3 MSTORE PUSH1 0x20 DUP3 ADD SWAP1 POP SWAP3 SWAP2 POP POP JUMP JUMPDEST PUSH1 0x0 DUP2 SWAP1 POP PUSH1 0x20 DUP3 ADD SWAP1 POP SWAP2 SWAP1 POP JUMP JUMPDEST PUSH2 0xD50 DUP2 PUSH2 0xB69 JUMP JUMPDEST DUP3 MSTORE POP POP JUMP JUMPDEST PUSH1 0x0 PUSH2 0xD62 DUP4 DUP4 PUSH2 0xD47 JUMP JUMPDEST PUSH1 0x20 DUP4 ADD SWAP1 POP SWAP3 SWAP2 POP POP JUMP JUMPDEST PUSH1 0x0 PUSH1 0x20 DUP3 ADD SWAP1 POP SWAP2 SWAP1 POP JUMP JUMPDEST PUSH1 0x0 PUSH2 0xD86 DUP3 PUSH2 0xD1B JUMP JUMPDEST PUSH2 0xD90 DUP2 DUP6 PUSH2 0xD26 JUMP JUMPDEST SWAP4 POP PUSH2 0xD9B DUP4 PUSH2 0xD37 JUMP JUMPDEST DUP1 PUSH1 0x0 JUMPDEST DUP4 DUP2 LT ISZERO PUSH2 0xDCC JUMPI DUP2 MLOAD PUSH2 0xDB3 DUP9 DUP3 PUSH2 0xD56 JUMP JUMPDEST SWAP8 POP PUSH2 0xDBE DUP4 PUSH2 0xD6E JUMP JUMPDEST SWAP3 POP POP PUSH1 0x1 DUP2 ADD SWAP1 POP PUSH2 0xD9F JUMP JUMPDEST POP DUP6 SWAP4 POP POP POP POP SWAP3 SWAP2 POP POP JUMP JUMPDEST PUSH1 0x0 PUSH1 0x20 DUP3 ADD SWAP1 POP DUP2 DUP2 SUB PUSH1 0x0 DUP4 ADD MSTORE PUSH2 0xDF3 DUP2 DUP5 PUSH2 0xD7B JUMP JUMPDEST SWAP1 POP SWAP3 SWAP2 POP POP JUMP JUMPDEST PUSH1 0x0 DUP2 MLOAD SWAP1 POP SWAP2 SWAP1 POP JUMP JUMPDEST PUSH1 0x0 DUP3 DUP3 MSTORE PUSH1 0x20 DUP3 ADD SWAP1 POP SWAP3 SWAP2 POP POP JUMP JUMPDEST PUSH1 0x0 DUP2 SWAP1 POP PUSH1 0x20 DUP3 ADD SWAP1 POP SWAP2 SWAP1 POP JUMP JUMPDEST PUSH1 0x0 DUP2 MLOAD SWAP1 POP SWAP2 SWAP1 POP JUMP JUMPDEST PUSH1 0x0 DUP3 DUP3 MSTORE PUSH1 0x20 DUP3 ADD SWAP1 POP SWAP3 SWAP2 POP POP JUMP JUMPDEST PUSH1 0x0 JUMPDEST DUP4 DUP2 LT ISZERO PUSH2 0xE61 JUMPI DUP1 DUP3 ADD MLOAD DUP2 DUP5 ADD MSTORE PUSH1 0x20 DUP2 ADD SWAP1 POP PUSH2 0xE46 JUMP JUMPDEST PUSH1 0x0 DUP5 DUP5 ADD MSTORE POP POP POP POP JUMP JUMPDEST PUSH1 0x0 PUSH1 0x1F NOT PUSH1 0x1F DUP4 ADD AND SWAP1 POP SWAP2 SWAP1 POP JUMP JUMPDEST PUSH1 0x0 PUSH2 0xE89 DUP3 PUSH2 0xE27 JUMP JUMPDEST PUSH2 0xE93 DUP2 DUP6 PUSH2 0xE32 JUMP JUMPDEST SWAP4 POP PUSH2 0xEA3 DUP2 DUP6 PUSH1 0x20 DUP7 ADD PUSH2 0xE43 JUMP JUMPDEST PUSH2 0xEAC DUP2 PUSH2 0xE6D JUMP JUMPDEST DUP5 ADD SWAP2 POP POP SWAP3 SWAP2 POP POP JUMP JUMPDEST PUSH1 0x0 PUSH2 0xEC3 DUP4 DUP4 PUSH2 0xE7E JUMP JUMPDEST SWAP1 POP SWAP3 SWAP2 POP POP JUMP JUMPDEST PUSH1 0x0 PUSH1 0x20 DUP3 ADD SWAP1 POP SWAP2 SWAP1 POP JUMP JUMPDEST PUSH1 0x0 PUSH2 0xEE3 DUP3 PUSH2 0xDFB JUMP JUMPDEST PUSH2 0xEED DUP2 DUP6 PUSH2 0xE06 JUMP JUMPDEST SWAP4 POP DUP4 PUSH1 0x20 DUP3 MUL DUP6 ADD PUSH2 0xEFF DUP6 PUSH2 0xE17 JUMP JUMPDEST DUP1 PUSH1 0x0 JUMPDEST DUP6 DUP2 LT ISZERO PUSH2 0xF3B JUMPI DUP5 DUP5 SUB DUP10 MSTORE DUP2 MLOAD PUSH2 0xF1C DUP6 DUP3 PUSH2 0xEB7 JUMP JUMPDEST SWAP5 POP PUSH2 0xF27 DUP4 PUSH2 0xECB JUMP JUMPDEST SWAP3 POP PUSH1 0x20 DUP11 ADD SWAP10 POP POP PUSH1 0x1 DUP2 ADD SWAP1 POP PUSH2 0xF03 JUMP JUMPDEST POP DUP3 SWAP8 POP DUP8 SWAP6 POP POP POP POP POP POP SWAP3 SWAP2 POP POP JUMP JUMPDEST PUSH1 0x0 PUSH1 0x20 DUP3 ADD SWAP1 POP DUP2 DUP2 SUB PUSH1 0x0 DUP4 ADD MSTORE PUSH2 0xF67 DUP2 DUP5 PUSH2 0xED8 JUMP JUMPDEST SWAP1 POP SWAP3 SWAP2 POP POP JUMP JUMPDEST PUSH2 0xF78 DUP2 PUSH2 0xB69 JUMP JUMPDEST DUP3 MSTORE POP POP JUMP JUMPDEST PUSH1 0x0 PUSH1 0x20 DUP3 ADD SWAP1 POP PUSH2 0xF93 PUSH1 0x0 DUP4 ADD DUP5 PUSH2 0xF6F JUMP JUMPDEST SWAP3 SWAP2 POP POP JUMP JUMPDEST PUSH1 0x0 DUP2 ISZERO ISZERO SWAP1 POP SWAP2 SWAP1 POP JUMP JUMPDEST PUSH2 0xFAE DUP2 PUSH2 0xF99 JUMP JUMPDEST DUP2 EQ PUSH2 0xFB9 JUMPI PUSH1 0x0 DUP1 REVERT JUMPDEST POP JUMP JUMPDEST PUSH1 0x0 DUP2 MLOAD SWAP1 POP PUSH2 0xFCB DUP2 PUSH2 0xFA5 JUMP JUMPDEST SWAP3 SWAP2 POP POP JUMP JUMPDEST PUSH1 0x0 PUSH1 0x20 DUP3 DUP5 SUB SLT ISZERO PUSH2 0xFE7 JUMPI PUSH2 0xFE6 PUSH2 0xB3F JUMP JUMPDEST JUMPDEST PUSH1 0x0 PUSH2 0xFF5 DUP5 DUP3 DUP6 ADD PUSH2 0xFBC JUMP JUMPDEST SWAP2 POP POP SWAP3 SWAP2 POP POP JUMP JUMPDEST PUSH1 0x0 DUP1 REVERT JUMPDEST PUSH32 0x4E487B7100000000000000000000000000000000000000000000000000000000 PUSH1 0x0 MSTORE PUSH1 0x41 PUSH1 0x4 MSTORE PUSH1 0x24 PUSH1 0x0 REVERT JUMPDEST PUSH2 0x103B DUP3 PUSH2 0xE6D JUMP JUMPDEST DUP2 ADD DUP2 DUP2 LT PUSH8 0xFFFFFFFFFFFFFFFF DUP3 GT OR ISZERO PUSH2 0x105A JUMPI PUSH2 0x1059 PUSH2 0x1003 JUMP JUMPDEST JUMPDEST DUP1 PUSH1 0x40 MSTORE POP POP POP JUMP JUMPDEST PUSH1 0x0 PUSH2 0x106D PUSH2 0xB35 JUMP JUMPDEST SWAP1 POP PUSH2 0x1079 DUP3 DUP3 PUSH2 0x1032 JUMP JUMPDEST SWAP2 SWAP1 POP JUMP JUMPDEST PUSH1 0x0 DUP1 REVERT JUMPDEST PUSH1 0x0 DUP1 REVERT JUMPDEST PUSH1 0x0 PUSH8 0xFFFFFFFFFFFFFFFF DUP3 GT ISZERO PUSH2 0x10A3 JUMPI PUSH2 0x10A2 PUSH2 0x1003 JUMP JUMPDEST JUMPDEST PUSH2 0x10AC DUP3 PUSH2 0xE6D JUMP JUMPDEST SWAP1 POP PUSH1 0x20 DUP2 ADD SWAP1 POP SWAP2 SWAP1 POP JUMP JUMPDEST PUSH1 0x0 PUSH2 0x10CC PUSH2 0x10C7 DUP5 PUSH2 0x1088 JUMP JUMPDEST PUSH2 0x1063 JUMP JUMPDEST SWAP1 POP DUP3 DUP2 MSTORE PUSH1 0x20 DUP2 ADD DUP5 DUP5 DUP5 ADD GT ISZERO PUSH2 0x10E8 JUMPI PUSH2 0x10E7 PUSH2 0x1083 JUMP JUMPDEST JUMPDEST PUSH2 0x10F3 DUP5 DUP3 DUP6 PUSH2 0xE43 JUMP JUMPDEST POP SWAP4 SWAP3 POP POP POP JUMP JUMPDEST PUSH1 0x0 DUP3 PUSH1 0x1F DUP4 ADD SLT PUSH2 0x1110 JUMPI PUSH2 0x110F PUSH2 0xC69 JUMP JUMPDEST JUMPDEST DUP2 MLOAD PUSH2 0x1120 DUP5 DUP3 PUSH1 0x20 DUP7 ADD PUSH2 0x10B9 JUMP JUMPDEST SWAP2 POP POP SWAP3 SWAP2 POP POP JUMP JUMPDEST PUSH1 0x0 PUSH8 0xFFFFFFFFFFFFFFFF DUP3 GT ISZERO PUSH2 0x1144 JUMPI PUSH2 0x1143 PUSH2 0x1003 JUMP JUMPDEST JUMPDEST PUSH1 0x20 DUP3 MUL SWAP1 POP PUSH1 0x20 DUP2 ADD SWAP1 POP SWAP2 SWAP1 POP JUMP JUMPDEST PUSH1 0x0 PUSH2 0x1168 PUSH2 0x1163 DUP5 PUSH2 0x1129 JUMP JUMPDEST PUSH2 0x1063 JUMP JUMPDEST SWAP1 POP DUP1 DUP4 DUP3 MSTORE PUSH1 0x20 DUP3 ADD SWAP1 POP PUSH1 0x20 DUP5 MUL DUP4 ADD DUP6 DUP2 GT ISZERO PUSH2 0x118B JUMPI PUSH2 0x118A PUSH2 0xC73 JUMP JUMPDEST JUMPDEST DUP4 JUMPDEST DUP2 DUP2 LT ISZERO PUSH2 0x11D2 JUMPI DUP1 MLOAD PUSH8 0xFFFFFFFFFFFFFFFF DUP2 GT ISZERO PUSH2 0x11B0 JUMPI PUSH2 0x11AF PUSH2 0xC69 JUMP JUMPDEST JUMPDEST DUP1 DUP7 ADD PUSH2 0x11BD DUP10 DUP3 PUSH2 0x10FB JUMP JUMPDEST DUP6 MSTORE PUSH1 0x20 DUP6 ADD SWAP5 POP POP POP PUSH1 0x20 DUP2 ADD SWAP1 POP PUSH2 0x118D JUMP JUMPDEST POP POP POP SWAP4 SWAP3 POP POP POP JUMP JUMPDEST PUSH1 0x0 DUP3 PUSH1 0x1F DUP4 ADD SLT PUSH2 0x11F1 JUMPI PUSH2 0x11F0 PUSH2 0xC69 JUMP JUMPDEST JUMPDEST DUP2 MLOAD PUSH2 0x1201 DUP5 DUP3 PUSH1 0x20 DUP7 ADD PUSH2 0x1155 JUMP JUMPDEST SWAP2 POP POP SWAP3 SWAP2 POP POP JUMP JUMPDEST PUSH1 0x0 PUSH8 0xFFFFFFFFFFFFFFFF DUP3 GT ISZERO PUSH2 0x1225 JUMPI PUSH2 0x1224 PUSH2 0x1003 JUMP JUMPDEST JUMPDEST PUSH1 0x20 DUP3 MUL SWAP1 POP PUSH1 0x20 DUP2 ADD SWAP1 POP SWAP2 SWAP1 POP JUMP JUMPDEST PUSH2 0x123F DUP2 PUSH2 0xBD4 JUMP JUMPDEST DUP2 EQ PUSH2 0x124A JUMPI PUSH1 0x0 DUP1 REVERT JUMPDEST POP JUMP JUMPDEST PUSH1 0x0 DUP2 MLOAD SWAP1 POP PUSH2 0x125C DUP2 PUSH2 0x1236 JUMP JUMPDEST SWAP3 SWAP2 POP POP JUMP JUMPDEST PUSH1 0x0 PUSH1 0x40 DUP3 DUP5 SUB SLT ISZERO PUSH2 0x1278 JUMPI PUSH2 0x1277 PUSH2 0xFFE JUMP JUMPDEST JUMPDEST PUSH2 0x1282 PUSH1 0x40 PUSH2 0x1063 JUMP JUMPDEST SWAP1 POP PUSH1 0x0 DUP3 ADD MLOAD PUSH8 0xFFFFFFFFFFFFFFFF DUP2 GT ISZERO PUSH2 0x12A2 JUMPI PUSH2 0x12A1 PUSH2 0x107E JUMP JUMPDEST JUMPDEST PUSH2 0x12AE DUP5 DUP3 DUP6 ADD PUSH2 0x10FB JUMP JUMPDEST PUSH1 0x0 DUP4 ADD MSTORE POP PUSH1 0x20 PUSH2 0x12C2 DUP5 DUP3 DUP6 ADD PUSH2 0x124D JUMP JUMPDEST PUSH1 0x20 DUP4 ADD MSTORE POP SWAP3 SWAP2 POP POP JUMP JUMPDEST PUSH1 0x0 PUSH2 0x12E1 PUSH2 0x12DC DUP5 PUSH2 0x120A JUMP JUMPDEST PUSH2 0x1063 JUMP JUMPDEST SWAP1 POP DUP1 DUP4 DUP3 MSTORE PUSH1 0x20 DUP3 ADD SWAP1 POP PUSH1 0x20 DUP5 MUL DUP4 ADD DUP6 DUP2 GT ISZERO PUSH2 0x1304 JUMPI PUSH2 0x1303 PUSH2 0xC73 JUMP JUMPDEST JUMPDEST DUP4 JUMPDEST DUP2 DUP2 LT ISZERO PUSH2 0x134B JUMPI DUP1 MLOAD PUSH8 0xFFFFFFFFFFFFFFFF DUP2 GT ISZERO PUSH2 0x1329 JUMPI PUSH2 0x1328 PUSH2 0xC69 JUMP JUMPDEST JUMPDEST DUP1 DUP7 ADD PUSH2 0x1336 DUP10 DUP3 PUSH2 0x1262 JUMP JUMPDEST DUP6 MSTORE PUSH1 0x20 DUP6 ADD SWAP5 POP POP POP PUSH1 0x20 DUP2 ADD SWAP1 POP PUSH2 0x1306 JUMP JUMPDEST POP POP POP SWAP4 SWAP3 POP POP POP JUMP JUMPDEST PUSH1 0x0 DUP3 PUSH1 0x1F DUP4 ADD SLT PUSH2 0x136A JUMPI PUSH2 0x1369 PUSH2 0xC69 JUMP JUMPDEST JUMPDEST DUP2 MLOAD PUSH2 0x137A DUP5 DUP3 PUSH1 0x20 DUP7 ADD PUSH2 0x12CE JUMP JUMPDEST SWAP2 POP POP SWAP3 SWAP2 POP POP JUMP JUMPDEST PUSH1 0x0 PUSH8 0xFFFFFFFFFFFFFFFF DUP3 GT ISZERO PUSH2 0x139E JUMPI PUSH2 0x139D PUSH2 0x1003 JUMP JUMPDEST JUMPDEST PUSH1 0x20 DUP3 MUL SWAP1 POP PUSH1 0x20 DUP2 ADD SWAP1 POP SWAP2 SWAP1 POP JUMP JUMPDEST PUSH1 0x0 PUSH2 0x13C2 PUSH2 0x13BD DUP5 PUSH2 0x1383 JUMP JUMPDEST PUSH2 0x1063 JUMP JUMPDEST SWAP1 POP DUP1 DUP4 DUP3 MSTORE PUSH1 0x20 DUP3 ADD SWAP1 POP PUSH1 0x20 DUP5 MUL DUP4 ADD DUP6 DUP2 GT ISZERO PUSH2 0x13E5 JUMPI PUSH2 0x13E4 PUSH2 0xC73 JUMP JUMPDEST JUMPDEST DUP4 JUMPDEST DUP2 DUP2 LT ISZERO PUSH2 0x140E JUMPI DUP1 PUSH2 0x13FA DUP9 DUP3 PUSH2 0x124D JUMP JUMPDEST DUP5 MSTORE PUSH1 0x20 DUP5 ADD SWAP4 POP POP PUSH1 0x20 DUP2 ADD SWAP1 POP PUSH2 0x13E7 JUMP JUMPDEST POP POP POP SWAP4 SWAP3 POP POP POP JUMP JUMPDEST PUSH1 0x0 DUP3 PUSH1 0x1F DUP4 ADD SLT PUSH2 0x142D JUMPI PUSH2 0x142C PUSH2 0xC69 JUMP JUMPDEST JUMPDEST DUP2 MLOAD PUSH2 0x143D DUP5 DUP3 PUSH1 0x20 DUP7 ADD PUSH2 0x13AF JUMP JUMPDEST SWAP2 POP POP SWAP3 SWAP2 POP POP JUMP JUMPDEST PUSH1 0x0 PUSH2 0x120 DUP3 DUP5 SUB SLT ISZERO PUSH2 0x145D JUMPI PUSH2 0x145C PUSH2 0xFFE JUMP JUMPDEST JUMPDEST PUSH2 0x1468 PUSH2 0x120 PUSH2 0x1063 JUMP JUMPDEST SWAP1 POP PUSH1 0x0 DUP3 ADD MLOAD PUSH8 0xFFFFFFFFFFFFFFFF DUP2 GT ISZERO PUSH2 0x1488 JUMPI PUSH2 0x1487 PUSH2 0x107E JUMP JUMPDEST JUMPDEST PUSH2 0x1494 DUP5 DUP3 DUP6 ADD PUSH2 0x10FB JUMP JUMPDEST PUSH1 0x0 DUP4 ADD MSTORE POP PUSH1 0x20 DUP3 ADD MLOAD PUSH8 0xFFFFFFFFFFFFFFFF DUP2 GT ISZERO PUSH2 0x14B8 JUMPI PUSH2 0x14B7 PUSH2 0x107E JUMP JUMPDEST JUMPDEST PUSH2 0x14C4 DUP5 DUP3 DUP6 ADD PUSH2 0x11DC JUMP JUMPDEST PUSH1 0x20 DUP4 ADD MSTORE POP PUSH1 0x40 DUP3 ADD MLOAD PUSH8 0xFFFFFFFFFFFFFFFF DUP2 GT ISZERO PUSH2 0x14E8 JUMPI PUSH2 0x14E7 PUSH2 0x107E JUMP JUMPDEST JUMPDEST PUSH2 0x14F4 DUP5 DUP3 DUP6 ADD PUSH2 0x11DC JUMP JUMPDEST PUSH1 0x40 DUP4 ADD MSTORE POP PUSH1 0x60 DUP3 ADD MLOAD PUSH8 0xFFFFFFFFFFFFFFFF DUP2 GT ISZERO PUSH2 0x1518 JUMPI PUSH2 0x1517 PUSH2 0x107E JUMP JUMPDEST JUMPDEST PUSH2 0x1524 DUP5 DUP3 DUP6 ADD PUSH2 0x11DC JUMP JUMPDEST PUSH1 0x60 DUP4 ADD MSTORE POP PUSH1 0x80 DUP3 ADD MLOAD PUSH8 0xFFFFFFFFFFFFFFFF DUP2 GT ISZERO PUSH2 0x1548 JUMPI PUSH2 0x1547 PUSH2 0x107E JUMP JUMPDEST JUMPDEST PUSH2 0x1554 DUP5 DUP3 DUP6 ADD PUSH2 0x1355 JUMP JUMPDEST PUSH1 0x80 DUP4 ADD MSTORE POP PUSH1 0xA0 DUP3 ADD MLOAD PUSH8 0xFFFFFFFFFFFFFFFF DUP2 GT ISZERO PUSH2 0x1578 JUMPI PUSH2 0x1577 PUSH2 0x107E JUMP JUMPDEST JUMPDEST PUSH2 0x1584 DUP5 DUP3 DUP6 ADD PUSH2 0x10FB JUMP JUMPDEST PUSH1 0xA0 DUP4 ADD MSTORE POP PUSH1 0xC0 DUP3 ADD MLOAD PUSH8 0xFFFFFFFFFFFFFFFF DUP2 GT ISZERO PUSH2 0x15A8 JUMPI PUSH2 0x15A7 PUSH2 0x107E JUMP JUMPDEST JUMPDEST PUSH2 0x15B4 DUP5 DUP3 DUP6 ADD PUSH2 0x1418 JUMP JUMPDEST PUSH1 0xC0 DUP4 ADD MSTORE POP PUSH1 0xE0 PUSH2 0x15C8 DUP5 DUP3 DUP6 ADD PUSH2 0xFBC JUMP JUMPDEST PUSH1 0xE0 DUP4 ADD MSTORE POP PUSH2 0x100 DUP3 ADD MLOAD PUSH8 0xFFFFFFFFFFFFFFFF DUP2 GT ISZERO PUSH2 0x15ED JUMPI PUSH2 0x15EC PUSH2 0x107E JUMP JUMPDEST JUMPDEST PUSH2 0x15F9 DUP5 DUP3 DUP6 ADD PUSH2 0x11DC JUMP JUMPDEST PUSH2 0x100 DUP4 ADD MSTORE POP SWAP3 SWAP2 POP POP JUMP JUMPDEST PUSH1 0x0 PUSH1 0x20 DUP3 DUP5 SUB SLT ISZERO PUSH2 0x161C JUMPI PUSH2 0x161B PUSH2 0xB3F JUMP JUMPDEST JUMPDEST PUSH1 0x0 DUP3 ADD MLOAD PUSH8 0xFFFFFFFFFFFFFFFF DUP2 GT ISZERO PUSH2 0x163A JUMPI PUSH2 0x1639 PUSH2 0xB44 JUMP JUMPDEST JUMPDEST PUSH2 0x1646 DUP5 DUP3 DUP6 ADD PUSH2 0x1446 JUMP JUMPDEST SWAP2 POP POP SWAP3 SWAP2 POP POP JUMP JUMPDEST PUSH1 0x0 PUSH1 0x20 DUP3 DUP5 SUB SLT ISZERO PUSH2 0x1665 JUMPI PUSH2 0x1664 PUSH2 0xB3F JUMP JUMPDEST JUMPDEST PUSH1 0x0 DUP3 ADD MLOAD PUSH8 0xFFFFFFFFFFFFFFFF DUP2 GT ISZERO PUSH2 0x1683 JUMPI PUSH2 0x1682 PUSH2 0xB44 JUMP JUMPDEST JUMPDEST PUSH2 0x168F DUP5 DUP3 DUP6 ADD PUSH2 0x11DC JUMP JUMPDEST SWAP2 POP POP SWAP3 SWAP2 POP POP JUMP JUMPDEST PUSH32 0x4E487B7100000000000000000000000000000000000000000000000000000000 PUSH1 0x0 MSTORE PUSH1 0x32 PUSH1 0x4 MSTORE PUSH1 0x24 PUSH1 0x0 REVERT JUMPDEST PUSH1 0x0 DUP3 DUP3 MSTORE PUSH1 0x20 DUP3 ADD SWAP1 POP SWAP3 SWAP2 POP POP JUMP JUMPDEST PUSH1 0x0 PUSH2 0x16E3 DUP3 PUSH2 0xE27 JUMP JUMPDEST PUSH2 0x16ED DUP2 DUP6 PUSH2 0x16C7 JUMP JUMPDEST SWAP4 POP PUSH2 0x16FD DUP2 DUP6 PUSH1 0x20 DUP7 ADD PUSH2 0xE43 JUMP JUMPDEST PUSH2 0x1706 DUP2 PUSH2 0xE6D JUMP JUMPDEST DUP5 ADD SWAP2 POP POP SWAP3 SWAP2 POP POP JUMP JUMPDEST PUSH1 0x0 PUSH1 0x20 DUP3 ADD SWAP1 POP DUP2 DUP2 SUB PUSH1 0x0 DUP4 ADD MSTORE PUSH2 0x172B DUP2 DUP5 PUSH2 0x16D8 JUMP JUMPDEST SWAP1 POP SWAP3 SWAP2 POP POP JUMP JUMPDEST PUSH1 0x0 DUP2 MLOAD SWAP1 POP PUSH2 0x1742 DUP2 PUSH2 0xB7B JUMP JUMPDEST SWAP3 SWAP2 POP POP JUMP JUMPDEST PUSH1 0x0 PUSH8 0xFFFFFFFFFFFFFFFF DUP3 GT ISZERO PUSH2 0x1763 JUMPI PUSH2 0x1762 PUSH2 0x1003 JUMP JUMPDEST JUMPDEST PUSH1 0x20 DUP3 MUL SWAP1 POP PUSH1 0x20 DUP2 ADD SWAP1 POP SWAP2 SWAP1 POP JUMP JUMPDEST PUSH1 0x0 PUSH2 0x1787 PUSH2 0x1782 DUP5 PUSH2 0x1748 JUMP JUMPDEST PUSH2 0x1063 JUMP JUMPDEST SWAP1 POP DUP1 DUP4 DUP3 MSTORE PUSH1 0x20 DUP3 ADD SWAP1 POP PUSH1 0x20 DUP5 MUL DUP4 ADD DUP6 DUP2 GT ISZERO PUSH2 0x17AA JUMPI PUSH2 0x17A9 PUSH2 0xC73 JUMP JUMPDEST JUMPDEST DUP4 JUMPDEST DUP2 DUP2 LT ISZERO PUSH2 0x17D3 JUMPI DUP1 PUSH2 0x17BF DUP9 DUP3 PUSH2 0x1733 JUMP JUMPDEST DUP5 MSTORE PUSH1 0x20 DUP5 ADD SWAP4 POP POP PUSH1 0x20 DUP2 ADD SWAP1 POP PUSH2 0x17AC JUMP JUMPDEST POP POP POP SWAP4 SWAP3 POP POP POP JUMP JUMPDEST PUSH1 0x0 DUP3 PUSH1 0x1F DUP4 ADD SLT PUSH2 0x17F2 JUMPI PUSH2 0x17F1 PUSH2 0xC69 JUMP JUMPDEST JUMPDEST DUP2 MLOAD PUSH2 0x1802 DUP5 DUP3 PUSH1 0x20 DUP7 ADD PUSH2 0x1774 JUMP JUMPDEST SWAP2 POP POP SWAP3 SWAP2 POP POP JUMP JUMPDEST PUSH1 0x0 PUSH1 0xC0 DUP3 DUP5 SUB SLT ISZERO PUSH2 0x1821 JUMPI PUSH2 0x1820 PUSH2 0xFFE JUMP JUMPDEST JUMPDEST PUSH2 0x182B PUSH1 0xC0 PUSH2 0x1063 JUMP JUMPDEST SWAP1 POP PUSH1 0x0 DUP3 ADD MLOAD PUSH8 0xFFFFFFFFFFFFFFFF DUP2 GT ISZERO PUSH2 0x184B JUMPI PUSH2 0x184A PUSH2 0x107E JUMP JUMPDEST JUMPDEST PUSH2 0x1857 DUP5 DUP3 DUP6 ADD PUSH2 0x10FB JUMP JUMPDEST PUSH1 0x0 DUP4 ADD MSTORE POP PUSH1 0x20 DUP3 ADD MLOAD PUSH8 0xFFFFFFFFFFFFFFFF DUP2 GT ISZERO PUSH2 0x187B JUMPI PUSH2 0x187A PUSH2 0x107E JUMP JUMPDEST JUMPDEST PUSH2 0x1887 DUP5 DUP3 DUP6 ADD PUSH2 0x10FB JUMP JUMPDEST PUSH1 0x20 DUP4 ADD MSTORE POP PUSH1 0x40 DUP3 ADD MLOAD PUSH8 0xFFFFFFFFFFFFFFFF DUP2 GT ISZERO PUSH2 0x18AB JUMPI PUSH2 0x18AA PUSH2 0x107E JUMP JUMPDEST JUMPDEST PUSH2 0x18B7 DUP5 DUP3 DUP6 ADD PUSH2 0x10FB JUMP JUMPDEST PUSH1 0x40 DUP4 ADD MSTORE POP PUSH1 0x60 PUSH2 0x18CB DUP5 DUP3 DUP6 ADD PUSH2 0x1733 JUMP JUMPDEST PUSH1 0x60 DUP4 ADD MSTORE POP PUSH1 0x80 PUSH2 0x18DF DUP5 DUP3 DUP6 ADD PUSH2 0x124D JUMP JUMPDEST PUSH1 0x80 DUP4 ADD MSTORE POP PUSH1 0xA0 DUP3 ADD MLOAD PUSH8 0xFFFFFFFFFFFFFFFF DUP2 GT ISZERO PUSH2 0x1903 JUMPI PUSH2 0x1902 PUSH2 0x107E JUMP JUMPDEST JUMPDEST PUSH2 0x190F DUP5 DUP3 DUP6 ADD PUSH2 0x17DD JUMP JUMPDEST PUSH1 0xA0 DUP4 ADD MSTORE POP SWAP3 SWAP2 POP POP JUMP JUMPDEST PUSH1 0x0 PUSH1 0x20 DUP3 DUP5 SUB SLT ISZERO PUSH2 0x1931 JUMPI PUSH2 0x1930 PUSH2 0xB3F JUMP JUMPDEST JUMPDEST PUSH1 0x0 DUP3 ADD MLOAD PUSH8 0xFFFFFFFFFFFFFFFF DUP2 GT ISZERO PUSH2 0x194F JUMPI PUSH2 0x194E PUSH2 0xB44 JUMP JUMPDEST JUMPDEST PUSH2 0x195B DUP5 DUP3 DUP6 ADD PUSH2 0x180B JUMP JUMPDEST SWAP2 POP POP SWAP3 SWAP2 POP POP JUMP JUMPDEST PUSH32 0x4E487B7100000000000000000000000000000000000000000000000000000000 PUSH1 0x0 MSTORE PUSH1 0x11 PUSH1 0x4 MSTORE PUSH1 0x24 PUSH1 0x0 REVERT JUMPDEST PUSH1 0x0 PUSH2 0x199E DUP3 PUSH2 0xBD4 JUMP JUMPDEST SWAP2 POP PUSH2 0x19A9 DUP4 PUSH2 0xBD4 JUMP JUMPDEST SWAP3 POP DUP3 DUP3 ADD SWAP1 POP DUP1 DUP3 GT ISZERO PUSH2 0x19C1 JUMPI PUSH2 0x19C0 PUSH2 0x1964 JUMP JUMPDEST JUMPDEST SWAP3 SWAP2 POP POP JUMP JUMPDEST PUSH1 0x0 PUSH2 0x19D2 DUP3 PUSH2 0xBD4 JUMP JUMPDEST SWAP2 POP PUSH32 0xFFFFFFFFFFFFFFFFFFFFFFFFFFFFFFFFFFFFFFFFFFFFFFFFFFFFFFFFFFFFFFFF DUP3 SUB PUSH2 0x1A04 JUMPI PUSH2 0x1A03 PUSH2 0x1964 JUMP JUMPDEST JUMPDEST PUSH1 0x1 DUP3 ADD SWAP1 POP SWAP2 SWAP1 POP JUMP JUMPDEST PUSH1 0x0 PUSH1 0x20 DUP3 DUP5 SUB SLT ISZERO PUSH2 0x1A25 JUMPI PUSH2 0x1A24 PUSH2 0xB3F JUMP JUMPDEST JUMPDEST PUSH1 0x0 DUP3 ADD MLOAD PUSH8 0xFFFFFFFFFFFFFFFF DUP2 GT ISZERO PUSH2 0x1A43 JUMPI PUSH2 0x1A42 PUSH2 0xB44 JUMP JUMPDEST JUMPDEST PUSH2 0x1A4F DUP5 DUP3 DUP6 ADD PUSH2 0x17DD JUMP JUMPDEST SWAP2 POP POP SWAP3 SWAP2 POP POP JUMP JUMPDEST PUSH1 0x0 DUP2 SWAP1 POP SWAP3 SWAP2 POP POP JUMP JUMPDEST DUP3 DUP2 DUP4 CALLDATACOPY PUSH1 0x0 DUP4 DUP4 ADD MSTORE POP POP POP JUMP JUMPDEST PUSH1 0x0 PUSH2 0x1A7E DUP4 DUP6 PUSH2 0x1A58 JUMP JUMPDEST SWAP4 POP PUSH2 0x1A8B DUP4 DUP6 DUP5 PUSH2 0x1A63 JUMP JUMPDEST DUP3 DUP5 ADD SWAP1 POP SWAP4 SWAP3 POP POP POP JUMP JUMPDEST PUSH1 0x0 PUSH2 0x1AA4 DUP3 DUP5 DUP7 PUSH2 0x1A72 JUMP JUMPDEST SWAP2 POP DUP2 SWAP1 POP SWAP4 SWAP3 POP POP POP JUMP INVALID LOG2 PUSH5 0x6970667358 0x22 SLT KECCAK256 PC PUSH0 CODESIZE 0xEE 0xE7 0xFB PUSH12 0x7C233DD828118B1ECC138EE9 PUSH1 0x34 0xAF DUP4 0x2D CREATE2 PUSH12 0xDB543884BF6C64736F6C6343 STOP ADDMOD EQ STOP CALLER LOG2 PUSH5 0x6970667358 0x22 SLT KECCAK256 0xBD PUSH20 0x9BA641C4CB9A74F0A1ABD85BC3AE1EE98F27109F ADDMOD DUP5 SIGNEXTEND DUP7 ORIGIN SSTORE CREATE PUSH24 0x8A3964736F6C634300081400330000000000000000000000 "},"methodIdentifiers":{"deployAthl3te(string,string)":"7cc48ac7"}}}}}