{
  "_format": "hh-sol-artifact-1",
  "contractName": "Athl3teView",
  "sourceName": "contracts/Athl3teView.sol",
  "abi": [
    {
      "inputs": [
        {
          "internalType": "address",
          "name": "_mainContract",
          "type": "address"
        }
      ],
      "stateMutability": "nonpayable",
      "type": "constructor"
    },
    {
      "inputs": [
        {
          "internalType": "string",
          "name": "botName",
          "type": "string"
        }
      ],
      "name": "getCommunitiesWithBot",
      "outputs": [
        {
          "internalType": "string[]",
          "name": "",
          "type": "string[]"
        }
      ],
      "stateMutability": "view",
      "type": "function"
    },
    {
      "inputs": [],
      "name": "getTotalCommunityMembers",
      "outputs": [
        {
          "internalType": "uint256",
          "name": "",
          "type": "uint256"
        }
      ],
      "stateMutability": "view",
      "type": "function"
    },
    {
      "inputs": [
        {
          "internalType": "address",
          "name": "userAddress",
          "type": "address"
        }
      ],
      "name": "getUserStats",
      "outputs": [
        {
          "internalType": "uint256",
          "name": "activitiesCount",
          "type": "uint256"
        },
        {
          "internalType": "uint256",
          "name": "sportGoalsCount",
          "type": "uint256"
        },
        {
          "internalType": "uint256",
          "name": "nutritionGoalsCount",
          "type": "uint256"
        },
        {
          "internalType": "uint256",
          "name": "nftsCount",
          "type": "uint256"
        },
        {
          "internalType": "uint256",
          "name": "communitiesCount",
          "type": "uint256"
        },
        {
          "internalType": "uint256",
          "name": "botsCount",
          "type": "uint256"
        }
      ],
      "stateMutability": "view",
      "type": "function"
    },
    {
      "inputs": [
        {
          "internalType": "string",
          "name": "activityType",
          "type": "string"
        }
      ],
      "name": "getUsersByActivity",
      "outputs": [
        {
          "internalType": "address[]",
          "name": "",
          "type": "address[]"
        }
      ],
      "stateMutability": "view",
      "type": "function"
    },
    {
      "inputs": [],
      "name": "mainContract",
      "outputs": [
        {
          "internalType": "address",
          "name": "",
          "type": "address"
        }
      ],
      "stateMutability": "view",
      "type": "function"
    }
  ],
  "bytecode": "0x60a06040523480156200001157600080fd5b5060405162001c2c38038062001c2c8339818101604052810190620000379190620000dc565b8073ffffffffffffffffffffffffffffffffffffffff1660808173ffffffffffffffffffffffffffffffffffffffff1681525050506200010e565b600080fd5b600073ffffffffffffffffffffffffffffffffffffffff82169050919050565b6000620000a48262000077565b9050919050565b620000b68162000097565b8114620000c257600080fd5b50565b600081519050620000d681620000ab565b92915050565b600060208284031215620000f557620000f462000072565b5b60006200010584828501620000c5565b91505092915050565b608051611ae6620001466000396000818161013a015281816102b9015281816104330152818161083d0152610b130152611ae66000f3fe608060405234801561001057600080fd5b50600436106100575760003560e01c80634e43603a1461005c5780636c6af86714610091578063ad0b2555146100af578063d03aae12146100df578063d270e7ab1461010f575b600080fd5b61007660048036038101906100719190610ba7565b61012d565b60405161008896959493929190610bed565b60405180910390f35b6100996102b4565b6040516100a69190610c4e565b60405180910390f35b6100c960048036038101906100c49190610cce565b61042d565b6040516100d69190610dd9565b60405180910390f35b6100f960048036038101906100f49190610cce565b610837565b6040516101069190610f4d565b60405180910390f35b610117610b11565b6040516101249190610f7e565b60405180910390f35b60008060008060008060007f000000000000000000000000000000000000000000000000000000000000000090508073ffffffffffffffffffffffffffffffffffffffff1663163f7522896040518263ffffffff1660e01b81526004016101949190610f7e565b602060405180830381865afa1580156101b1573d6000803e3d6000fd5b505050506040513d601f19601f820116820180604052508101906101d59190610fd1565b6101f457600080600080600080965096509650965096509650506102ab565b60008173ffffffffffffffffffffffffffffffffffffffff1663cc3d967b8a6040518263ffffffff1660e01b815260040161022f9190610f7e565b600060405180830381865afa15801561024c573d6000803e3d6000fd5b505050506040513d6000823e3d601f19601f820116820180604052508101906102759190611606565b90508060200151518160400151518260600151518360c00151518461010001515185608001515197509750975097509750975050505b91939550919395565b6000807f0000000000000000000000000000000000000000000000000000000000000000905060008173ffffffffffffffffffffffffffffffffffffffff16638272e1d46040518163ffffffff1660e01b8152600401600060405180830381865afa158015610327573d6000803e3d6000fd5b505050506040513d6000823e3d601f19601f82011682018060405250810190610350919061164f565b90506000805b82518110156104235760008473ffffffffffffffffffffffffffffffffffffffff166354d9ea158584815181106103905761038f611698565b5b60200260200101516040518263ffffffff1660e01b81526004016103b49190611711565b600060405180830381865afa1580156103d1573d6000803e3d6000fd5b505050506040513d6000823e3d601f19601f820116820180604052508101906103fa919061191b565b90508060a00151518361040d9190611993565b925050808061041b906119c7565b915050610356565b5080935050505090565b606060007f0000000000000000000000000000000000000000000000000000000000000000905060008173ffffffffffffffffffffffffffffffffffffffff1663e2842d796040518163ffffffff1660e01b8152600401600060405180830381865afa1580156104a1573d6000803e3d6000fd5b505050506040513d6000823e3d601f19601f820116820180604052508101906104ca9190611a0f565b90506000815167ffffffffffffffff8111156104e9576104e8611003565b5b6040519080825280602002602001820160405280156105175781602001602082028036833780820191505090505b5090506000805b8351811015610754578473ffffffffffffffffffffffffffffffffffffffff1663163f752285838151811061055657610555611698565b5b60200260200101516040518263ffffffff1660e01b815260040161057a9190610f7e565b602060405180830381865afa158015610597573d6000803e3d6000fd5b505050506040513d601f19601f820116820180604052508101906105bb9190610fd1565b156107415760008573ffffffffffffffffffffffffffffffffffffffff1663cc3d967b8684815181106105f1576105f0611698565b5b60200260200101516040518263ffffffff1660e01b81526004016106159190610f7e565b600060405180830381865afa158015610632573d6000803e3d6000fd5b505050506040513d6000823e3d601f19601f8201168201806040525081019061065b9190611606565b905060005b81602001515181101561073e57898960405161067d929190611a97565b60405180910390208260200151828151811061069c5761069b611698565b5b6020026020010151805190602001200361072b578583815181106106c3576106c2611698565b5b60200260200101518585815181106106de576106dd611698565b5b602002602001019073ffffffffffffffffffffffffffffffffffffffff16908173ffffffffffffffffffffffffffffffffffffffff16815250508380610723906119c7565b94505061073e565b8080610736906119c7565b915050610660565b50505b808061074c906119c7565b91505061051e565b5060008167ffffffffffffffff81111561077157610770611003565b5b60405190808252806020026020018201604052801561079f5781602001602082028036833780820191505090505b50905060005b82811015610828578381815181106107c0576107bf611698565b5b60200260200101518282815181106107db576107da611698565b5b602002602001019073ffffffffffffffffffffffffffffffffffffffff16908173ffffffffffffffffffffffffffffffffffffffff16815250508080610820906119c7565b9150506107a5565b50809550505050505092915050565b606060007f0000000000000000000000000000000000000000000000000000000000000000905060008173ffffffffffffffffffffffffffffffffffffffff16638272e1d46040518163ffffffff1660e01b8152600401600060405180830381865afa1580156108ab573d6000803e3d6000fd5b505050506040513d6000823e3d601f19601f820116820180604052508101906108d4919061164f565b90506000815167ffffffffffffffff8111156108f3576108f2611003565b5b60405190808252806020026020018201604052801561092657816020015b60608152602001906001900390816109115790505b5090506000805b8351811015610a585760008573ffffffffffffffffffffffffffffffffffffffff166354d9ea1586848151811061096757610966611698565b5b60200260200101516040518263ffffffff1660e01b815260040161098b9190611711565b600060405180830381865afa1580156109a8573d6000803e3d6000fd5b505050506040513d6000823e3d601f19601f820116820180604052508101906109d1919061191b565b905088886040516109e3929190611a97565b604051809103902081604001518051906020012003610a4457848281518110610a0f57610a0e611698565b5b6020026020010151848481518110610a2a57610a29611698565b5b60200260200101819052508280610a40906119c7565b9350505b508080610a50906119c7565b91505061092d565b5060008167ffffffffffffffff811115610a7557610a74611003565b5b604051908082528060200260200182016040528015610aa857816020015b6060815260200190600190039081610a935790505b50905060005b82811015610b0257838181518110610ac957610ac8611698565b5b6020026020010151828281518110610ae457610ae3611698565b5b60200260200101819052508080610afa906119c7565b915050610aae565b50809550505050505092915050565b7f000000000000000000000000000000000000000000000000000000000000000081565b6000604051905090565b600080fd5b600080fd5b600073ffffffffffffffffffffffffffffffffffffffff82169050919050565b6000610b7482610b49565b9050919050565b610b8481610b69565b8114610b8f57600080fd5b50565b600081359050610ba181610b7b565b92915050565b600060208284031215610bbd57610bbc610b3f565b5b6000610bcb84828501610b92565b91505092915050565b6000819050919050565b610be781610bd4565b82525050565b600060c082019050610c026000830189610bde565b610c0f6020830188610bde565b610c1c6040830187610bde565b610c296060830186610bde565b610c366080830185610bde565b610c4360a0830184610bde565b979650505050505050565b6000602082019050610c636000830184610bde565b92915050565b600080fd5b600080fd5b600080fd5b60008083601f840112610c8e57610c8d610c69565b5b8235905067ffffffffffffffff811115610cab57610caa610c6e565b5b602083019150836001820283011115610cc757610cc6610c73565b5b9250929050565b60008060208385031215610ce557610ce4610b3f565b5b600083013567ffffffffffffffff811115610d0357610d02610b44565b5b610d0f85828601610c78565b92509250509250929050565b600081519050919050565b600082825260208201905092915050565b6000819050602082019050919050565b610d5081610b69565b82525050565b6000610d628383610d47565b60208301905092915050565b6000602082019050919050565b6000610d8682610d1b565b610d908185610d26565b9350610d9b83610d37565b8060005b83811015610dcc578151610db38882610d56565b9750610dbe83610d6e565b925050600181019050610d9f565b5085935050505092915050565b60006020820190508181036000830152610df38184610d7b565b905092915050565b600081519050919050565b600082825260208201905092915050565b6000819050602082019050919050565b600081519050919050565b600082825260208201905092915050565b60005b83811015610e61578082015181840152602081019050610e46565b60008484015250505050565b6000601f19601f8301169050919050565b6000610e8982610e27565b610e938185610e32565b9350610ea3818560208601610e43565b610eac81610e6d565b840191505092915050565b6000610ec38383610e7e565b905092915050565b6000602082019050919050565b6000610ee382610dfb565b610eed8185610e06565b935083602082028501610eff85610e17565b8060005b85811015610f3b5784840389528151610f1c8582610eb7565b9450610f2783610ecb565b925060208a01995050600181019050610f03565b50829750879550505050505092915050565b60006020820190508181036000830152610f678184610ed8565b905092915050565b610f7881610b69565b82525050565b6000602082019050610f936000830184610f6f565b92915050565b60008115159050919050565b610fae81610f99565b8114610fb957600080fd5b50565b600081519050610fcb81610fa5565b92915050565b600060208284031215610fe757610fe6610b3f565b5b6000610ff584828501610fbc565b91505092915050565b600080fd5b7f4e487b7100000000000000000000000000000000000000000000000000000000600052604160045260246000fd5b61103b82610e6d565b810181811067ffffffffffffffff8211171561105a57611059611003565b5b80604052505050565b600061106d610b35565b90506110798282611032565b919050565b600080fd5b600080fd5b600067ffffffffffffffff8211156110a3576110a2611003565b5b6110ac82610e6d565b9050602081019050919050565b60006110cc6110c784611088565b611063565b9050828152602081018484840111156110e8576110e7611083565b5b6110f3848285610e43565b509392505050565b600082601f8301126111105761110f610c69565b5b81516111208482602086016110b9565b91505092915050565b600067ffffffffffffffff82111561114457611143611003565b5b602082029050602081019050919050565b600061116861116384611129565b611063565b9050808382526020820190506020840283018581111561118b5761118a610c73565b5b835b818110156111d257805167ffffffffffffffff8111156111b0576111af610c69565b5b8086016111bd89826110fb565b8552602085019450505060208101905061118d565b5050509392505050565b600082601f8301126111f1576111f0610c69565b5b8151611201848260208601611155565b91505092915050565b600067ffffffffffffffff82111561122557611224611003565b5b602082029050602081019050919050565b61123f81610bd4565b811461124a57600080fd5b50565b60008151905061125c81611236565b92915050565b60006040828403121561127857611277610ffe565b5b6112826040611063565b9050600082015167ffffffffffffffff8111156112a2576112a161107e565b5b6112ae848285016110fb565b60008301525060206112c28482850161124d565b60208301525092915050565b60006112e16112dc8461120a565b611063565b9050808382526020820190506020840283018581111561130457611303610c73565b5b835b8181101561134b57805167ffffffffffffffff81111561132957611328610c69565b5b8086016113368982611262565b85526020850194505050602081019050611306565b5050509392505050565b600082601f83011261136a57611369610c69565b5b815161137a8482602086016112ce565b91505092915050565b600067ffffffffffffffff82111561139e5761139d611003565b5b602082029050602081019050919050565b60006113c26113bd84611383565b611063565b905080838252602082019050602084028301858111156113e5576113e4610c73565b5b835b8181101561140e57806113fa888261124d565b8452602084019350506020810190506113e7565b5050509392505050565b600082601f83011261142d5761142c610c69565b5b815161143d8482602086016113af565b91505092915050565b6000610120828403121561145d5761145c610ffe565b5b611468610120611063565b9050600082015167ffffffffffffffff8111156114885761148761107e565b5b611494848285016110fb565b600083015250602082015167ffffffffffffffff8111156114b8576114b761107e565b5b6114c4848285016111dc565b602083015250604082015167ffffffffffffffff8111156114e8576114e761107e565b5b6114f4848285016111dc565b604083015250606082015167ffffffffffffffff8111156115185761151761107e565b5b611524848285016111dc565b606083015250608082015167ffffffffffffffff8111156115485761154761107e565b5b61155484828501611355565b60808301525060a082015167ffffffffffffffff8111156115785761157761107e565b5b611584848285016110fb565b60a08301525060c082015167ffffffffffffffff8111156115a8576115a761107e565b5b6115b484828501611418565b60c08301525060e06115c884828501610fbc565b60e08301525061010082015167ffffffffffffffff8111156115ed576115ec61107e565b5b6115f9848285016111dc565b6101008301525092915050565b60006020828403121561161c5761161b610b3f565b5b600082015167ffffffffffffffff81111561163a57611639610b44565b5b61164684828501611446565b91505092915050565b60006020828403121561166557611664610b3f565b5b600082015167ffffffffffffffff81111561168357611682610b44565b5b61168f848285016111dc565b91505092915050565b7f4e487b7100000000000000000000000000000000000000000000000000000000600052603260045260246000fd5b600082825260208201905092915050565b60006116e382610e27565b6116ed81856116c7565b93506116fd818560208601610e43565b61170681610e6d565b840191505092915050565b6000602082019050818103600083015261172b81846116d8565b905092915050565b60008151905061174281610b7b565b92915050565b600067ffffffffffffffff82111561176357611762611003565b5b602082029050602081019050919050565b600061178761178284611748565b611063565b905080838252602082019050602084028301858111156117aa576117a9610c73565b5b835b818110156117d357806117bf8882611733565b8452602084019350506020810190506117ac565b5050509392505050565b600082601f8301126117f2576117f1610c69565b5b8151611802848260208601611774565b91505092915050565b600060c0828403121561182157611820610ffe565b5b61182b60c0611063565b9050600082015167ffffffffffffffff81111561184b5761184a61107e565b5b611857848285016110fb565b600083015250602082015167ffffffffffffffff81111561187b5761187a61107e565b5b611887848285016110fb565b602083015250604082015167ffffffffffffffff8111156118ab576118aa61107e565b5b6118b7848285016110fb565b60408301525060606118cb84828501611733565b60608301525060806118df8482850161124d565b60808301525060a082015167ffffffffffffffff8111156119035761190261107e565b5b61190f848285016117dd565b60a08301525092915050565b60006020828403121561193157611930610b3f565b5b600082015167ffffffffffffffff81111561194f5761194e610b44565b5b61195b8482850161180b565b91505092915050565b7f4e487b7100000000000000000000000000000000000000000000000000000000600052601160045260246000fd5b600061199e82610bd4565b91506119a983610bd4565b92508282019050808211156119c1576119c0611964565b5b92915050565b60006119d282610bd4565b91507fffffffffffffffffffffffffffffffffffffffffffffffffffffffffffffffff8203611a0457611a03611964565b5b600182019050919050565b600060208284031215611a2557611a24610b3f565b5b600082015167ffffffffffffffff811115611a4357611a42610b44565b5b611a4f848285016117dd565b91505092915050565b600081905092915050565b82818337600083830152505050565b6000611a7e8385611a58565b9350611a8b838584611a63565b82840190509392505050565b6000611aa4828486611a72565b9150819050939250505056fea2646970667358221220585f38eee7fb6b7c233dd828118b1ecc138ee96034af832df56bdb543884bf6c64736f6c63430008140033",
  "linkReferences": {},
  "deployedLinkReferences": {}
}