{
  "_format": "hh-sol-artifact-1",
  "contractName": "Athl3teCommunities",
  "sourceName": "contracts/Athl3teCommunities.sol",
  "abi": [
    {
      "inputs": [
        {
          "internalType": "address",
          "name": "_coreContract",
          "type": "address"
        },
        {
          "internalType": "address",
          "name": "_botsContract",
          "type": "address"
        }
      ],
      "stateMutability": "nonpayable",
      "type": "constructor"
    },
    {
      "anonymous": false,
      "inputs": [
        {
          "indexed": true,
          "internalType": "address",
          "name": "userAddress",
          "type": "address"
        },
        {
          "indexed": false,
          "internalType": "string",
          "name": "activityId",
          "type": "string"
        }
      ],
      "name": "ActivityAdded",
      "type": "event"
    },
    {
      "anonymous": false,
      "inputs": [
        {
          "indexed": true,
          "internalType": "address",
          "name": "userAddress",
          "type": "address"
        },
        {
          "indexed": false,
          "internalType": "string",
          "name": "botName",
          "type": "string"
        },
        {
          "indexed": false,
          "internalType": "uint256",
          "name": "messagesId",
          "type": "uint256"
        }
      ],
      "name": "BotPurchased",
      "type": "event"
    },
    {
      "anonymous": false,
      "inputs": [
        {
          "indexed": true,
          "internalType": "string",
          "name": "communityName",
          "type": "string"
        },
        {
          "indexed": true,
          "internalType": "address",
          "name": "creator",
          "type": "address"
        },
        {
          "indexed": false,
          "internalType": "string",
          "name": "botName",
          "type": "string"
        },
        {
          "indexed": false,
          "internalType": "uint256",
          "name": "messagesId",
          "type": "uint256"
        }
      ],
      "name": "CommunityRoomCreated",
      "type": "event"
    },
    {
      "anonymous": false,
      "inputs": [
        {
          "indexed": true,
          "internalType": "address",
          "name": "userAddress",
          "type": "address"
        },
        {
          "indexed": false,
          "internalType": "string",
          "name": "communityName",
          "type": "string"
        }
      ],
      "name": "CommunityRoomJoined",
      "type": "event"
    },
    {
      "anonymous": false,
      "inputs": [
        {
          "indexed": true,
          "internalType": "address",
          "name": "userAddress",
          "type": "address"
        },
        {
          "indexed": false,
          "internalType": "string",
          "name": "injuryId",
          "type": "string"
        }
      ],
      "name": "InjuryUpdated",
      "type": "event"
    },
    {
      "anonymous": false,
      "inputs": [
        {
          "indexed": true,
          "internalType": "address",
          "name": "owner",
          "type": "address"
        },
        {
          "indexed": true,
          "internalType": "uint256",
          "name": "tokenId",
          "type": "uint256"
        },
        {
          "indexed": false,
          "internalType": "string",
          "name": "tokenUri",
          "type": "string"
        }
      ],
      "name": "Minted",
      "type": "event"
    },
    {
      "anonymous": false,
      "inputs": [
        {
          "indexed": true,
          "internalType": "address",
          "name": "userAddress",
          "type": "address"
        },
        {
          "indexed": false,
          "internalType": "string",
          "name": "goalId",
          "type": "string"
        }
      ],
      "name": "NutritionGoalAdded",
      "type": "event"
    },
    {
      "anonymous": false,
      "inputs": [
        {
          "indexed": true,
          "internalType": "address",
          "name": "userAddress",
          "type": "address"
        },
        {
          "indexed": false,
          "internalType": "string",
          "name": "goalId",
          "type": "string"
        }
      ],
      "name": "SportGoalAdded",
      "type": "event"
    },
    {
      "anonymous": false,
      "inputs": [
        {
          "indexed": true,
          "internalType": "address",
          "name": "userAddress",
          "type": "address"
        },
        {
          "indexed": false,
          "internalType": "string",
          "name": "metadata",
          "type": "string"
        }
      ],
      "name": "UserRegistered",
      "type": "event"
    },
    {
      "inputs": [
        {
          "internalType": "uint256",
          "name": "",
          "type": "uint256"
        }
      ],
      "name": "allCommunityNames",
      "outputs": [
        {
          "internalType": "string",
          "name": "",
          "type": "string"
        }
      ],
      "stateMutability": "view",
      "type": "function"
    },
    {
      "inputs": [],
      "name": "botsContract",
      "outputs": [
        {
          "internalType": "address",
          "name": "",
          "type": "address"
        }
      ],
      "stateMutability": "view",
      "type": "function"
    },
    {
      "inputs": [
        {
          "internalType": "string",
          "name": "",
          "type": "string"
        }
      ],
      "name": "communityRooms",
      "outputs": [
        {
          "internalType": "string",
          "name": "communityName",
          "type": "string"
        },
        {
          "internalType": "string",
          "name": "communityImage",
          "type": "string"
        },
        {
          "internalType": "string",
          "name": "botName",
          "type": "string"
        },
        {
          "internalType": "address",
          "name": "createdBy",
          "type": "address"
        },
        {
          "internalType": "uint256",
          "name": "messagesId",
          "type": "uint256"
        }
      ],
      "stateMutability": "view",
      "type": "function"
    },
    {
      "inputs": [],
      "name": "coreContract",
      "outputs": [
        {
          "internalType": "address",
          "name": "",
          "type": "address"
        }
      ],
      "stateMutability": "view",
      "type": "function"
    },
    {
      "inputs": [
        {
          "internalType": "string",
          "name": "_communityName",
          "type": "string"
        },
        {
          "internalType": "string",
          "name": "_communityImage",
          "type": "string"
        },
        {
          "internalType": "string",
          "name": "_botName",
          "type": "string"
        }
      ],
      "name": "createCommunityRoom",
      "outputs": [],
      "stateMutability": "nonpayable",
      "type": "function"
    },
    {
      "inputs": [],
      "name": "getAllCommunityNames",
      "outputs": [
        {
          "internalType": "string[]",
          "name": "",
          "type": "string[]"
        }
      ],
      "stateMutability": "view",
      "type": "function"
    },
    {
      "inputs": [],
      "name": "getCommunityCount",
      "outputs": [
        {
          "internalType": "uint256",
          "name": "",
          "type": "uint256"
        }
      ],
      "stateMutability": "view",
      "type": "function"
    },
    {
      "inputs": [
        {
          "internalType": "string",
          "name": "_communityName",
          "type": "string"
        }
      ],
      "name": "getCommunityMembers",
      "outputs": [
        {
          "internalType": "address[]",
          "name": "",
          "type": "address[]"
        }
      ],
      "stateMutability": "view",
      "type": "function"
    },
    {
      "inputs": [
        {
          "internalType": "string",
          "name": "_communityName",
          "type": "string"
        }
      ],
      "name": "getCommunityRoomDetails",
      "outputs": [
        {
          "components": [
            {
              "internalType": "string",
              "name": "communityName",
              "type": "string"
            },
            {
              "internalType": "string",
              "name": "communityImage",
              "type": "string"
            },
            {
              "internalType": "string",
              "name": "botName",
              "type": "string"
            },
            {
              "internalType": "address",
              "name": "createdBy",
              "type": "address"
            },
            {
              "internalType": "uint256",
              "name": "messagesId",
              "type": "uint256"
            },
            {
              "internalType": "address[]",
              "name": "members",
              "type": "address[]"
            }
          ],
          "internalType": "struct IAthl3teStructs.CommunityRoom",
          "name": "",
          "type": "tuple"
        }
      ],
      "stateMutability": "view",
      "type": "function"
    },
    {
      "inputs": [
        {
          "internalType": "string",
          "name": "_communityName",
          "type": "string"
        }
      ],
      "name": "joinCommunityRoom",
      "outputs": [],
      "stateMutability": "nonpayable",
      "type": "function"
    },
    {
      "inputs": [],
      "name": "messageIdGenerator",
      "outputs": [
        {
          "internalType": "uint256",
          "name": "",
          "type": "uint256"
        }
      ],
      "stateMutability": "view",
      "type": "function"
    }
  ],
  "bytecode": "0x60806040523480156200001157600080fd5b50604051620025c1380380620025c183398181016040528101906200003791906200012b565b81600360006101000a81548173ffffffffffffffffffffffffffffffffffffffff021916908373ffffffffffffffffffffffffffffffffffffffff16021790555080600460006101000a81548173ffffffffffffffffffffffffffffffffffffffff021916908373ffffffffffffffffffffffffffffffffffffffff160217905550505062000172565b600080fd5b600073ffffffffffffffffffffffffffffffffffffffff82169050919050565b6000620000f382620000c6565b9050919050565b6200010581620000e6565b81146200011157600080fd5b50565b6000815190506200012581620000fa565b92915050565b60008060408385031215620001455762000144620000c1565b5b6000620001558582860162000114565b9250506020620001688582860162000114565b9150509250929050565b61243f80620001826000396000f3fe608060405234801561001057600080fd5b50600436106100a95760003560e01c8063940e0aa611610071578063940e0aa614610168578063c122b3cb14610198578063c56aaa18146101b6578063d0987097146101d4578063e7d98840146101f2578063e80db5db14610222576100a9565b80631dd20a8b146100ae57806343dfc73c146100ca57806354d9ea15146100e65780638028dab7146101165780638272e1d41461014a575b600080fd5b6100c860048036038101906100c39190611336565b610240565b005b6100e460048036038101906100df91906113ea565b6104f5565b005b61010060048036038101906100fb91906113ea565b61063c565b60405161010d919061166e565b60405180910390f35b610130600480360381019061012b91906117c0565b610970565b604051610141959493929190611871565b60405180910390f35b610152610b74565b60405161015f919061199b565b60405180910390f35b610182600480360381019061017d91906119e9565b610c4d565b60405161018f9190611a16565b60405180910390f35b6101a0610cf9565b6040516101ad9190611a38565b60405180910390f35b6101be610d06565b6040516101cb9190611a53565b60405180910390f35b6101dc610d2c565b6040516101e99190611a38565b60405180910390f35b61020c600480360381019061020791906113ea565b610d32565b6040516102199190611add565b60405180910390f35b61022a610d52565b6040516102379190611a53565b60405180910390f35b600360009054906101000a900473ffffffffffffffffffffffffffffffffffffffff1673ffffffffffffffffffffffffffffffffffffffff1663163f7522336040518263ffffffff1660e01b815260040161029b9190611a53565b602060405180830381865afa1580156102b8573d6000803e3d6000fd5b505050506040513d601f19601f820116820180604052508101906102dc9190611b37565b61031b576040517f08c379a000000000000000000000000000000000000000000000000000000000815260040161031290611bb0565b60405180910390fd5b6000600460009054906101000a900473ffffffffffffffffffffffffffffffffffffffff1673ffffffffffffffffffffffffffffffffffffffff1663c687027d84846040518363ffffffff1660e01b815260040161037a929190611bfd565b600060405180830381865afa158015610397573d6000803e3d6000fd5b505050506040513d6000823e3d601f19601f820116820180604052508101906103c09190611d30565b90508060400151610406576040517f08c379a00000000000000000000000000000000000000000000000000000000081526004016103fd90611dc5565b60405180910390fd5b6002600081548092919061041990611e14565b9190505550610442878787878787336002546000610d789098979695949392919063ffffffff16565b600187879091806001815401808255809150506001900390600052602060002001600090919290919290919290919250918261047f929190612073565b503373ffffffffffffffffffffffffffffffffffffffff1687876040516104a7929190612173565b60405180910390207f966070ce2ff7cfd3f6ec46ed7394a2f5ee5e3021344a9878eee674334b84b08085856002546040516104e49392919061218c565b60405180910390a350505050505050565b600360009054906101000a900473ffffffffffffffffffffffffffffffffffffffff1673ffffffffffffffffffffffffffffffffffffffff1663163f7522336040518263ffffffff1660e01b81526004016105509190611a53565b602060405180830381865afa15801561056d573d6000803e3d6000fd5b505050506040513d601f19601f820116820180604052508101906105919190611b37565b6105d0576040517f08c379a00000000000000000000000000000000000000000000000000000000081526004016105c790611bb0565b60405180910390fd5b6105e88282336000610f4b909392919063ffffffff16565b3373ffffffffffffffffffffffffffffffffffffffff167f48bc22b3eab0c993cd29049a8e0a06fa00e13ec87407c1eabd56c3100205d6ad8383604051610630929190611bfd565b60405180910390a25050565b610644611271565b61065a838360006111129092919063ffffffff16565b610699576040517f08c379a00000000000000000000000000000000000000000000000000000000081526004016106909061220a565b60405180910390fd5b600083836040516106ab929190612173565b90815260200160405180910390206040518060c00160405290816000820180546106d490611e96565b80601f016020809104026020016040519081016040528092919081815260200182805461070090611e96565b801561074d5780601f106107225761010080835404028352916020019161074d565b820191906000526020600020905b81548152906001019060200180831161073057829003601f168201915b5050505050815260200160018201805461076690611e96565b80601f016020809104026020016040519081016040528092919081815260200182805461079290611e96565b80156107df5780601f106107b4576101008083540402835291602001916107df565b820191906000526020600020905b8154815290600101906020018083116107c257829003601f168201915b505050505081526020016002820180546107f890611e96565b80601f016020809104026020016040519081016040528092919081815260200182805461082490611e96565b80156108715780601f1061084657610100808354040283529160200191610871565b820191906000526020600020905b81548152906001019060200180831161085457829003601f168201915b505050505081526020016003820160009054906101000a900473ffffffffffffffffffffffffffffffffffffffff1673ffffffffffffffffffffffffffffffffffffffff1673ffffffffffffffffffffffffffffffffffffffff168152602001600482015481526020016005820180548060200260200160405190810160405280929190818152602001828054801561095f57602002820191906000526020600020905b8160009054906101000a900473ffffffffffffffffffffffffffffffffffffffff1673ffffffffffffffffffffffffffffffffffffffff1681526020019060010190808311610915575b505050505081525050905092915050565b6000818051602081018201805184825260208301602085012081835280955050505050506000915090508060000180546109a990611e96565b80601f01602080910402602001604051908101604052809291908181526020018280546109d590611e96565b8015610a225780601f106109f757610100808354040283529160200191610a22565b820191906000526020600020905b815481529060010190602001808311610a0557829003601f168201915b505050505090806001018054610a3790611e96565b80601f0160208091040260200160405190810160405280929190818152602001828054610a6390611e96565b8015610ab05780601f10610a8557610100808354040283529160200191610ab0565b820191906000526020600020905b815481529060010190602001808311610a9357829003601f168201915b505050505090806002018054610ac590611e96565b80601f0160208091040260200160405190810160405280929190818152602001828054610af190611e96565b8015610b3e5780601f10610b1357610100808354040283529160200191610b3e565b820191906000526020600020905b815481529060010190602001808311610b2157829003601f168201915b5050505050908060030160009054906101000a900473ffffffffffffffffffffffffffffffffffffffff16908060040154905085565b60606001805480602002602001604051908101604052809291908181526020016000905b82821015610c44578382906000526020600020018054610bb790611e96565b80601f0160208091040260200160405190810160405280929190818152602001828054610be390611e96565b8015610c305780601f10610c0557610100808354040283529160200191610c30565b820191906000526020600020905b815481529060010190602001808311610c1357829003601f168201915b505050505081526020019060010190610b98565b50505050905090565b60018181548110610c5d57600080fd5b906000526020600020016000915090508054610c7890611e96565b80601f0160208091040260200160405190810160405280929190818152602001828054610ca490611e96565b8015610cf15780601f10610cc657610100808354040283529160200191610cf1565b820191906000526020600020905b815481529060010190602001808311610cd457829003601f168201915b505050505081565b6000600180549050905090565b600460009054906101000a900473ffffffffffffffffffffffffffffffffffffffff1681565b60025481565b6060610d4a8383600061114e9092919063ffffffff16565b905092915050565b600360009054906101000a900473ffffffffffffffffffffffffffffffffffffffff1681565b60008888905011610dbe576040517f08c379a0000000000000000000000000000000000000000000000000000000008152600401610db590612276565b60405180910390fd5b6000898989604051610dd1929190612173565b90815260200160405180910390206000018054610ded90611e96565b905014610e2f576040517f08c379a0000000000000000000000000000000000000000000000000000000008152600401610e26906122e2565b60405180910390fd5b6000898989604051610e42929190612173565b908152602001604051809103902090508888826000019182610e65929190612073565b508686826001019182610e79929190612073565b508484826002019182610e8d929190612073565b50818160040181905550828160030160006101000a81548173ffffffffffffffffffffffffffffffffffffffff021916908373ffffffffffffffffffffffffffffffffffffffff16021790555080600501839080600181540180825580915050600190039060005260206000200160009091909190916101000a81548173ffffffffffffffffffffffffffffffffffffffff021916908373ffffffffffffffffffffffffffffffffffffffff16021790555050505050505050505050565b6000848484604051610f5e929190612173565b908152602001604051809103902090506000816000018054610f7f90611e96565b905011610fc1576040517f08c379a0000000000000000000000000000000000000000000000000000000008152600401610fb89061234e565b60405180910390fd5b6000805b8260050180549050811015611063578373ffffffffffffffffffffffffffffffffffffffff168360050182815481106110015761100061236e565b5b9060005260206000200160009054906101000a900473ffffffffffffffffffffffffffffffffffffffff1673ffffffffffffffffffffffffffffffffffffffff16036110505760019150611063565b808061105b90611e14565b915050610fc5565b5080156110a5576040517f08c379a000000000000000000000000000000000000000000000000000000000815260040161109c906123e9565b60405180910390fd5b81600501839080600181540180825580915050600190039060005260206000200160009091909190916101000a81548173ffffffffffffffffffffffffffffffffffffffff021916908373ffffffffffffffffffffffffffffffffffffffff160217905550505050505050565b600080848484604051611126929190612173565b9081526020016040518091039020600001805461114290611e96565b90501190509392505050565b60606000848484604051611163929190612173565b9081526020016040518091039020600001805461117f90611e96565b9050116111c1576040517f08c379a00000000000000000000000000000000000000000000000000000000081526004016111b89061220a565b60405180910390fd5b8383836040516111d2929190612173565b908152602001604051809103902060050180548060200260200160405190810160405280929190818152602001828054801561126357602002820191906000526020600020905b8160009054906101000a900473ffffffffffffffffffffffffffffffffffffffff1673ffffffffffffffffffffffffffffffffffffffff1681526020019060010190808311611219575b505050505090509392505050565b6040518060c00160405280606081526020016060815260200160608152602001600073ffffffffffffffffffffffffffffffffffffffff16815260200160008152602001606081525090565b6000604051905090565b600080fd5b600080fd5b600080fd5b600080fd5b600080fd5b60008083601f8401126112f6576112f56112d1565b5b8235905067ffffffffffffffff811115611313576113126112d6565b5b60208301915083600182028301111561132f5761132e6112db565b5b9250929050565b60008060008060008060608789031215611353576113526112c7565b5b600087013567ffffffffffffffff811115611371576113706112cc565b5b61137d89828a016112e0565b9650965050602087013567ffffffffffffffff8111156113a05761139f6112cc565b5b6113ac89828a016112e0565b9450945050604087013567ffffffffffffffff8111156113cf576113ce6112cc565b5b6113db89828a016112e0565b92509250509295509295509295565b60008060208385031215611401576114006112c7565b5b600083013567ffffffffffffffff81111561141f5761141e6112cc565b5b61142b858286016112e0565b92509250509250929050565b600081519050919050565b600082825260208201905092915050565b60005b83811015611471578082015181840152602081019050611456565b60008484015250505050565b6000601f19601f8301169050919050565b600061149982611437565b6114a38185611442565b93506114b3818560208601611453565b6114bc8161147d565b840191505092915050565b600073ffffffffffffffffffffffffffffffffffffffff82169050919050565b60006114f2826114c7565b9050919050565b611502816114e7565b82525050565b6000819050919050565b61151b81611508565b82525050565b600081519050919050565b600082825260208201905092915050565b6000819050602082019050919050565b600061155983836114f9565b60208301905092915050565b6000602082019050919050565b600061157d82611521565b611587818561152c565b93506115928361153d565b8060005b838110156115c35781516115aa888261154d565b97506115b583611565565b925050600181019050611596565b5085935050505092915050565b600060c08301600083015184820360008601526115ed828261148e565b91505060208301518482036020860152611607828261148e565b91505060408301518482036040860152611621828261148e565b915050606083015161163660608601826114f9565b5060808301516116496080860182611512565b5060a083015184820360a08601526116618282611572565b9150508091505092915050565b6000602082019050818103600083015261168881846115d0565b905092915050565b600080fd5b7f4e487b7100000000000000000000000000000000000000000000000000000000600052604160045260246000fd5b6116cd8261147d565b810181811067ffffffffffffffff821117156116ec576116eb611695565b5b80604052505050565b60006116ff6112bd565b905061170b82826116c4565b919050565b600067ffffffffffffffff82111561172b5761172a611695565b5b6117348261147d565b9050602081019050919050565b82818337600083830152505050565b600061176361175e84611710565b6116f5565b90508281526020810184848401111561177f5761177e611690565b5b61178a848285611741565b509392505050565b600082601f8301126117a7576117a66112d1565b5b81356117b7848260208601611750565b91505092915050565b6000602082840312156117d6576117d56112c7565b5b600082013567ffffffffffffffff8111156117f4576117f36112cc565b5b61180084828501611792565b91505092915050565b600082825260208201905092915050565b600061182582611437565b61182f8185611809565b935061183f818560208601611453565b6118488161147d565b840191505092915050565b61185c816114e7565b82525050565b61186b81611508565b82525050565b600060a082019050818103600083015261188b818861181a565b9050818103602083015261189f818761181a565b905081810360408301526118b3818661181a565b90506118c26060830185611853565b6118cf6080830184611862565b9695505050505050565b600081519050919050565b600082825260208201905092915050565b6000819050602082019050919050565b6000611911838361148e565b905092915050565b6000602082019050919050565b6000611931826118d9565b61193b81856118e4565b93508360208202850161194d856118f5565b8060005b85811015611989578484038952815161196a8582611905565b945061197583611919565b925060208a01995050600181019050611951565b50829750879550505050505092915050565b600060208201905081810360008301526119b58184611926565b905092915050565b6119c681611508565b81146119d157600080fd5b50565b6000813590506119e3816119bd565b92915050565b6000602082840312156119ff576119fe6112c7565b5b6000611a0d848285016119d4565b91505092915050565b60006020820190508181036000830152611a30818461181a565b905092915050565b6000602082019050611a4d6000830184611862565b92915050565b6000602082019050611a686000830184611853565b92915050565b600082825260208201905092915050565b6000611a8a82611521565b611a948185611a6e565b9350611a9f8361153d565b8060005b83811015611ad0578151611ab7888261154d565b9750611ac283611565565b925050600181019050611aa3565b5085935050505092915050565b60006020820190508181036000830152611af78184611a7f565b905092915050565b60008115159050919050565b611b1481611aff565b8114611b1f57600080fd5b50565b600081519050611b3181611b0b565b92915050565b600060208284031215611b4d57611b4c6112c7565b5b6000611b5b84828501611b22565b91505092915050565b7f4e6f742072656769737465726564000000000000000000000000000000000000600082015250565b6000611b9a600e83611809565b9150611ba582611b64565b602082019050919050565b60006020820190508181036000830152611bc981611b8d565b9050919050565b6000611bdc8385611809565b9350611be9838584611741565b611bf28361147d565b840190509392505050565b60006020820190508181036000830152611c18818486611bd0565b90509392505050565b600080fd5b600080fd5b6000611c3e611c3984611710565b6116f5565b905082815260208101848484011115611c5a57611c59611690565b5b611c65848285611453565b509392505050565b600082601f830112611c8257611c816112d1565b5b8151611c92848260208601611c2b565b91505092915050565b600081519050611caa816119bd565b92915050565b600060608284031215611cc657611cc5611c21565b5b611cd060606116f5565b9050600082015167ffffffffffffffff811115611cf057611cef611c26565b5b611cfc84828501611c6d565b6000830152506020611d1084828501611c9b565b6020830152506040611d2484828501611b22565b60408301525092915050565b600060208284031215611d4657611d456112c7565b5b600082015167ffffffffffffffff811115611d6457611d636112cc565b5b611d7084828501611cb0565b91505092915050565b7f426f7420646f6573206e6f742065786973740000000000000000000000000000600082015250565b6000611daf601283611809565b9150611dba82611d79565b602082019050919050565b60006020820190508181036000830152611dde81611da2565b9050919050565b7f4e487b7100000000000000000000000000000000000000000000000000000000600052601160045260246000fd5b6000611e1f82611508565b91507fffffffffffffffffffffffffffffffffffffffffffffffffffffffffffffffff8203611e5157611e50611de5565b5b600182019050919050565b600082905092915050565b7f4e487b7100000000000000000000000000000000000000000000000000000000600052602260045260246000fd5b60006002820490506001821680611eae57607f821691505b602082108103611ec157611ec0611e67565b5b50919050565b60008190508160005260206000209050919050565b60006020601f8301049050919050565b600082821b905092915050565b600060088302611f297fffffffffffffffffffffffffffffffffffffffffffffffffffffffffffffffff82611eec565b611f338683611eec565b95508019841693508086168417925050509392505050565b6000819050919050565b6000611f70611f6b611f6684611508565b611f4b565b611508565b9050919050565b6000819050919050565b611f8a83611f55565b611f9e611f9682611f77565b848454611ef9565b825550505050565b600090565b611fb3611fa6565b611fbe818484611f81565b505050565b5b81811015611fe257611fd7600082611fab565b600181019050611fc4565b5050565b601f82111561202757611ff881611ec7565b61200184611edc565b81016020851015612010578190505b61202461201c85611edc565b830182611fc3565b50505b505050565b600082821c905092915050565b600061204a6000198460080261202c565b1980831691505092915050565b60006120638383612039565b9150826002028217905092915050565b61207d8383611e5c565b67ffffffffffffffff81111561209657612095611695565b5b6120a08254611e96565b6120ab828285611fe6565b6000601f8311600181146120da57600084156120c8578287013590505b6120d28582612057565b86555061213a565b601f1984166120e886611ec7565b60005b82811015612110578489013582556001820191506020850194506020810190506120eb565b8683101561212d5784890135612129601f891682612039565b8355505b6001600288020188555050505b50505050505050565b600081905092915050565b600061215a8385612143565b9350612167838584611741565b82840190509392505050565b600061218082848661214e565b91508190509392505050565b600060408201905081810360008301526121a7818587611bd0565b90506121b66020830184611862565b949350505050565b7f436f6d6d756e69747920646f6573206e6f742065786973740000000000000000600082015250565b60006121f4601883611809565b91506121ff826121be565b602082019050919050565b60006020820190508181036000830152612223816121e7565b9050919050565b7f436f6d6d756e697479206e616d652063616e6e6f7420626520656d7074790000600082015250565b6000612260601e83611809565b915061226b8261222a565b602082019050919050565b6000602082019050818103600083015261228f81612253565b9050919050565b7f436f6d6d756e69747920616c7265616479206578697374730000000000000000600082015250565b60006122cc601883611809565b91506122d782612296565b602082019050919050565b600060208201905081810360008301526122fb816122bf565b9050919050565b7f436f6d6d756e69747920726f6f6d20646f6573206e6f74206578697374000000600082015250565b6000612338601d83611809565b915061234382612302565b602082019050919050565b600060208201905081810360008301526123678161232b565b9050919050565b7f4e487b7100000000000000000000000000000000000000000000000000000000600052603260045260246000fd5b7f416c72656164792061206d656d62657200000000000000000000000000000000600082015250565b60006123d3601083611809565b91506123de8261239d565b602082019050919050565b60006020820190508181036000830152612402816123c6565b905091905056fea2646970667358221220a9e9f32386d1348bc84c6895c4a031566405866f13fb5d63b354663fefbd20a064736f6c63430008140033",
  "linkReferences": {},
  "deployedLinkReferences": {}
}