{
  "_format": "hh-sol-artifact-1",
  "contractName": "Athl3teNFT",
  "sourceName": "contracts/Athl3teNFT.sol",
  "abi": [
    {
      "inputs": [
        {
          "internalType": "string",
          "name": "name",
          "type": "string"
        },
        {
          "internalType": "string",
          "name": "symbol",
          "type": "string"
        },
        {
          "internalType": "address",
          "name": "_coreContract",
          "type": "address"
        }
      ],
      "stateMutability": "nonpayable",
      "type": "constructor"
    },
    {
      "anonymous": false,
      "inputs": [
        {
          "indexed": true,
          "internalType": "address",
          "name": "userAddress",
          "type": "address"
        },
        {
          "indexed": false,
          "internalType": "string",
          "name": "activityId",
          "type": "string"
        }
      ],
      "name": "ActivityAdded",
      "type": "event"
    },
    {
      "anonymous": false,
      "inputs": [
        {
          "indexed": true,
          "internalType": "address",
          "name": "owner",
          "type": "address"
        },
        {
          "indexed": true,
          "internalType": "address",
          "name": "approved",
          "type": "address"
        },
        {
          "indexed": true,
          "internalType": "uint256",
          "name": "tokenId",
          "type": "uint256"
        }
      ],
      "name": "Approval",
      "type": "event"
    },
    {
      "anonymous": false,
      "inputs": [
        {
          "indexed": true,
          "internalType": "address",
          "name": "owner",
          "type": "address"
        },
        {
          "indexed": true,
          "internalType": "address",
          "name": "operator",
          "type": "address"
        },
        {
          "indexed": false,
          "internalType": "bool",
          "name": "approved",
          "type": "bool"
        }
      ],
      "name": "ApprovalForAll",
      "type": "event"
    },
    {
      "anonymous": false,
      "inputs": [
        {
          "indexed": true,
          "internalType": "address",
          "name": "userAddress",
          "type": "address"
        },
        {
          "indexed": false,
          "internalType": "string",
          "name": "botName",
          "type": "string"
        },
        {
          "indexed": false,
          "internalType": "uint256",
          "name": "messagesId",
          "type": "uint256"
        }
      ],
      "name": "BotPurchased",
      "type": "event"
    },
    {
      "anonymous": false,
      "inputs": [
        {
          "indexed": true,
          "internalType": "string",
          "name": "communityName",
          "type": "string"
        },
        {
          "indexed": true,
          "internalType": "address",
          "name": "creator",
          "type": "address"
        },
        {
          "indexed": false,
          "internalType": "string",
          "name": "botName",
          "type": "string"
        },
        {
          "indexed": false,
          "internalType": "uint256",
          "name": "messagesId",
          "type": "uint256"
        }
      ],
      "name": "CommunityRoomCreated",
      "type": "event"
    },
    {
      "anonymous": false,
      "inputs": [
        {
          "indexed": true,
          "internalType": "address",
          "name": "userAddress",
          "type": "address"
        },
        {
          "indexed": false,
          "internalType": "string",
          "name": "communityName",
          "type": "string"
        }
      ],
      "name": "CommunityRoomJoined",
      "type": "event"
    },
    {
      "anonymous": false,
      "inputs": [
        {
          "indexed": true,
          "internalType": "address",
          "name": "userAddress",
          "type": "address"
        },
        {
          "indexed": false,
          "internalType": "string",
          "name": "injuryId",
          "type": "string"
        }
      ],
      "name": "InjuryUpdated",
      "type": "event"
    },
    {
      "anonymous": false,
      "inputs": [
        {
          "indexed": true,
          "internalType": "address",
          "name": "owner",
          "type": "address"
        },
        {
          "indexed": true,
          "internalType": "uint256",
          "name": "tokenId",
          "type": "uint256"
        },
        {
          "indexed": false,
          "internalType": "string",
          "name": "tokenUri",
          "type": "string"
        }
      ],
      "name": "Minted",
      "type": "event"
    },
    {
      "anonymous": false,
      "inputs": [
        {
          "indexed": true,
          "internalType": "address",
          "name": "userAddress",
          "type": "address"
        },
        {
          "indexed": false,
          "internalType": "string",
          "name": "goalId",
          "type": "string"
        }
      ],
      "name": "NutritionGoalAdded",
      "type": "event"
    },
    {
      "anonymous": false,
      "inputs": [
        {
          "indexed": true,
          "internalType": "address",
          "name": "previousOwner",
          "type": "address"
        },
        {
          "indexed": true,
          "internalType": "address",
          "name": "newOwner",
          "type": "address"
        }
      ],
      "name": "OwnershipTransferred",
      "type": "event"
    },
    {
      "anonymous": false,
      "inputs": [
        {
          "indexed": true,
          "internalType": "address",
          "name": "userAddress",
          "type": "address"
        },
        {
          "indexed": false,
          "internalType": "string",
          "name": "goalId",
          "type": "string"
        }
      ],
      "name": "SportGoalAdded",
      "type": "event"
    },
    {
      "anonymous": false,
      "inputs": [
        {
          "indexed": true,
          "internalType": "address",
          "name": "from",
          "type": "address"
        },
        {
          "indexed": true,
          "internalType": "address",
          "name": "to",
          "type": "address"
        },
        {
          "indexed": true,
          "internalType": "uint256",
          "name": "tokenId",
          "type": "uint256"
        }
      ],
      "name": "Transfer",
      "type": "event"
    },
    {
      "anonymous": false,
      "inputs": [
        {
          "indexed": true,
          "internalType": "address",
          "name": "userAddress",
          "type": "address"
        },
        {
          "indexed": false,
          "internalType": "string",
          "name": "metadata",
          "type": "string"
        }
      ],
      "name": "UserRegistered",
      "type": "event"
    },
    {
      "inputs": [
        {
          "internalType": "address",
          "name": "to",
          "type": "address"
        },
        {
          "internalType": "uint256",
          "name": "tokenId",
          "type": "uint256"
        }
      ],
      "name": "approve",
      "outputs": [],
      "stateMutability": "nonpayable",
      "type": "function"
    },
    {
      "inputs": [
        {
          "internalType": "address",
          "name": "owner",
          "type": "address"
        }
      ],
      "name": "balanceOf",
      "outputs": [
        {
          "internalType": "uint256",
          "name": "",
          "type": "uint256"
        }
      ],
      "stateMutability": "view",
      "type": "function"
    },
    {
      "inputs": [],
      "name": "coreContract",
      "outputs": [
        {
          "internalType": "address",
          "name": "",
          "type": "address"
        }
      ],
      "stateMutability": "view",
      "type": "function"
    },
    {
      "inputs": [
        {
          "internalType": "uint256",
          "name": "tokenId",
          "type": "uint256"
        }
      ],
      "name": "getApproved",
      "outputs": [
        {
          "internalType": "address",
          "name": "",
          "type": "address"
        }
      ],
      "stateMutability": "view",
      "type": "function"
    },
    {
      "inputs": [
        {
          "internalType": "uint256",
          "name": "tokenId",
          "type": "uint256"
        }
      ],
      "name": "getNftUri",
      "outputs": [
        {
          "internalType": "string",
          "name": "",
          "type": "string"
        }
      ],
      "stateMutability": "view",
      "type": "function"
    },
    {
      "inputs": [],
      "name": "getTotalNfts",
      "outputs": [
        {
          "internalType": "uint256",
          "name": "",
          "type": "uint256"
        }
      ],
      "stateMutability": "view",
      "type": "function"
    },
    {
      "inputs": [
        {
          "internalType": "address",
          "name": "_user",
          "type": "address"
        }
      ],
      "name": "getUserNftCount",
      "outputs": [
        {
          "internalType": "uint256",
          "name": "",
          "type": "uint256"
        }
      ],
      "stateMutability": "view",
      "type": "function"
    },
    {
      "inputs": [
        {
          "internalType": "address",
          "name": "owner",
          "type": "address"
        },
        {
          "internalType": "address",
          "name": "operator",
          "type": "address"
        }
      ],
      "name": "isApprovedForAll",
      "outputs": [
        {
          "internalType": "bool",
          "name": "",
          "type": "bool"
        }
      ],
      "stateMutability": "view",
      "type": "function"
    },
    {
      "inputs": [
        {
          "internalType": "string",
          "name": "uri",
          "type": "string"
        }
      ],
      "name": "mintNftWithUri",
      "outputs": [
        {
          "internalType": "uint256",
          "name": "",
          "type": "uint256"
        }
      ],
      "stateMutability": "nonpayable",
      "type": "function"
    },
    {
      "inputs": [],
      "name": "name",
      "outputs": [
        {
          "internalType": "string",
          "name": "",
          "type": "string"
        }
      ],
      "stateMutability": "view",
      "type": "function"
    },
    {
      "inputs": [],
      "name": "owner",
      "outputs": [
        {
          "internalType": "address",
          "name": "",
          "type": "address"
        }
      ],
      "stateMutability": "view",
      "type": "function"
    },
    {
      "inputs": [
        {
          "internalType": "uint256",
          "name": "tokenId",
          "type": "uint256"
        }
      ],
      "name": "ownerOf",
      "outputs": [
        {
          "internalType": "address",
          "name": "",
          "type": "address"
        }
      ],
      "stateMutability": "view",
      "type": "function"
    },
    {
      "inputs": [],
      "name": "renounceOwnership",
      "outputs": [],
      "stateMutability": "nonpayable",
      "type": "function"
    },
    {
      "inputs": [
        {
          "internalType": "address",
          "name": "from",
          "type": "address"
        },
        {
          "internalType": "address",
          "name": "to",
          "type": "address"
        },
        {
          "internalType": "uint256",
          "name": "tokenId",
          "type": "uint256"
        }
      ],
      "name": "safeTransferFrom",
      "outputs": [],
      "stateMutability": "nonpayable",
      "type": "function"
    },
    {
      "inputs": [
        {
          "internalType": "address",
          "name": "from",
          "type": "address"
        },
        {
          "internalType": "address",
          "name": "to",
          "type": "address"
        },
        {
          "internalType": "uint256",
          "name": "tokenId",
          "type": "uint256"
        },
        {
          "internalType": "bytes",
          "name": "_data",
          "type": "bytes"
        }
      ],
      "name": "safeTransferFrom",
      "outputs": [],
      "stateMutability": "nonpayable",
      "type": "function"
    },
    {
      "inputs": [
        {
          "internalType": "address",
          "name": "operator",
          "type": "address"
        },
        {
          "internalType": "bool",
          "name": "approved",
          "type": "bool"
        }
      ],
      "name": "setApprovalForAll",
      "outputs": [],
      "stateMutability": "nonpayable",
      "type": "function"
    },
    {
      "inputs": [
        {
          "internalType": "bytes4",
          "name": "interfaceId",
          "type": "bytes4"
        }
      ],
      "name": "supportsInterface",
      "outputs": [
        {
          "internalType": "bool",
          "name": "",
          "type": "bool"
        }
      ],
      "stateMutability": "view",
      "type": "function"
    },
    {
      "inputs": [],
      "name": "symbol",
      "outputs": [
        {
          "internalType": "string",
          "name": "",
          "type": "string"
        }
      ],
      "stateMutability": "view",
      "type": "function"
    },
    {
      "inputs": [
        {
          "internalType": "uint256",
          "name": "tokenId",
          "type": "uint256"
        }
      ],
      "name": "tokenURI",
      "outputs": [
        {
          "internalType": "string",
          "name": "",
          "type": "string"
        }
      ],
      "stateMutability": "view",
      "type": "function"
    },
    {
      "inputs": [
        {
          "internalType": "address",
          "name": "from",
          "type": "address"
        },
        {
          "internalType": "address",
          "name": "to",
          "type": "address"
        },
        {
          "internalType": "uint256",
          "name": "tokenId",
          "type": "uint256"
        }
      ],
      "name": "transferFrom",
      "outputs": [],
      "stateMutability": "nonpayable",
      "type": "function"
    },
    {
      "inputs": [
        {
          "internalType": "address",
          "name": "newOwner",
          "type": "address"
        }
      ],
      "name": "transferOwnership",
      "outputs": [],
      "stateMutability": "nonpayable",
      "type": "function"
    }
  ],
  "bytecode": "0x60806040523480156200001157600080fd5b50604051620037a4380380620037a4833981810160405281019062000037919062000397565b828281600090816200004a91906200067c565b5080600190816200005c91906200067c565b5050506200007f62000073620000d160201b60201c565b620000d960201b60201c565b600160078190555080600960006101000a81548173ffffffffffffffffffffffffffffffffffffffff021916908373ffffffffffffffffffffffffffffffffffffffff16021790555050505062000763565b600033905090565b6000600660009054906101000a900473ffffffffffffffffffffffffffffffffffffffff16905081600660006101000a81548173ffffffffffffffffffffffffffffffffffffffff021916908373ffffffffffffffffffffffffffffffffffffffff1602179055508173ffffffffffffffffffffffffffffffffffffffff168173ffffffffffffffffffffffffffffffffffffffff167f8be0079c531659141344cd1fd0a4f28419497f9722a3daafe3b4186f6b6457e060405160405180910390a35050565b6000604051905090565b600080fd5b600080fd5b600080fd5b600080fd5b6000601f19601f8301169050919050565b7f4e487b7100000000000000000000000000000000000000000000000000000000600052604160045260246000fd5b6200020882620001bd565b810181811067ffffffffffffffff821117156200022a5762000229620001ce565b5b80604052505050565b60006200023f6200019f565b90506200024d8282620001fd565b919050565b600067ffffffffffffffff82111562000270576200026f620001ce565b5b6200027b82620001bd565b9050602081019050919050565b60005b83811015620002a85780820151818401526020810190506200028b565b60008484015250505050565b6000620002cb620002c58462000252565b62000233565b905082815260208101848484011115620002ea57620002e9620001b8565b5b620002f784828562000288565b509392505050565b600082601f830112620003175762000316620001b3565b5b815162000329848260208601620002b4565b91505092915050565b600073ffffffffffffffffffffffffffffffffffffffff82169050919050565b60006200035f8262000332565b9050919050565b620003718162000352565b81146200037d57600080fd5b50565b600081519050620003918162000366565b92915050565b600080600060608486031215620003b357620003b2620001a9565b5b600084015167ffffffffffffffff811115620003d457620003d3620001ae565b5b620003e286828701620002ff565b935050602084015167ffffffffffffffff811115620004065762000405620001ae565b5b6200041486828701620002ff565b9250506040620004278682870162000380565b9150509250925092565b600081519050919050565b7f4e487b7100000000000000000000000000000000000000000000000000000000600052602260045260246000fd5b600060028204905060018216806200048457607f821691505b6020821081036200049a57620004996200043c565b5b50919050565b60008190508160005260206000209050919050565b60006020601f8301049050919050565b600082821b905092915050565b600060088302620005047fffffffffffffffffffffffffffffffffffffffffffffffffffffffffffffffff82620004c5565b620005108683620004c5565b95508019841693508086168417925050509392505050565b6000819050919050565b6000819050919050565b60006200055d62000557620005518462000528565b62000532565b62000528565b9050919050565b6000819050919050565b62000579836200053c565b62000591620005888262000564565b848454620004d2565b825550505050565b600090565b620005a862000599565b620005b58184846200056e565b505050565b5b81811015620005dd57620005d16000826200059e565b600181019050620005bb565b5050565b601f8211156200062c57620005f681620004a0565b6200060184620004b5565b8101602085101562000611578190505b620006296200062085620004b5565b830182620005ba565b50505b505050565b600082821c905092915050565b6000620006516000198460080262000631565b1980831691505092915050565b60006200066c83836200063e565b9150826002028217905092915050565b620006878262000431565b67ffffffffffffffff811115620006a357620006a2620001ce565b5b620006af82546200046b565b620006bc828285620005e1565b600060209050601f831160018114620006f45760008415620006df578287015190505b620006eb85826200065e565b8655506200075b565b601f1984166200070486620004a0565b60005b828110156200072e5784890151825560018201915060208501945060208101905062000707565b868310156200074e57848901516200074a601f8916826200063e565b8355505b6001600288020188555050505b505050505050565b61303180620007736000396000f3fe608060405234801561001057600080fd5b50600436106101375760003560e01c8063715018a6116100b8578063b88d4fde1161007c578063b88d4fde1461034e578063ba0fac151461036a578063c87b56dd1461039a578063e80db5db146103ca578063e985e9c5146103e8578063f2fde38b1461041857610137565b8063715018a6146102ce5780638da5cb5b146102d857806395d89b41146102f65780639ffd36b014610314578063a22cb4651461033257610137565b806323b872dd116100ff57806323b872dd146102065780632980d80b1461022257806342842e0e146102525780636352211e1461026e57806370a082311461029e57610137565b806301ffc9a71461013c57806306fdde031461016c578063081812fc1461018a578063095ea7b3146101ba578063226e4fd5146101d6575b600080fd5b61015660048036038101906101519190611ba7565b610434565b6040516101639190611bef565b60405180910390f35b610174610516565b6040516101819190611c9a565b60405180910390f35b6101a4600480360381019061019f9190611cf2565b6105a8565b6040516101b19190611d60565b60405180910390f35b6101d460048036038101906101cf9190611da7565b61062d565b005b6101f060048036038101906101eb9190611f1c565b610744565b6040516101fd9190611f74565b60405180910390f35b610220600480360381019061021b9190611f8f565b610907565b005b61023c60048036038101906102379190611cf2565b610967565b6040516102499190611c9a565b60405180910390f35b61026c60048036038101906102679190611f8f565b610a0c565b005b61028860048036038101906102839190611cf2565b610a2c565b6040516102959190611d60565b60405180910390f35b6102b860048036038101906102b39190611fe2565b610add565b6040516102c59190611f74565b60405180910390f35b6102d6610b94565b005b6102e0610c1c565b6040516102ed9190611d60565b60405180910390f35b6102fe610c46565b60405161030b9190611c9a565b60405180910390f35b61031c610cd8565b6040516103299190611f74565b60405180910390f35b61034c6004803603810190610347919061203b565b610cee565b005b6103686004803603810190610363919061211c565b610d04565b005b610384600480360381019061037f9190611fe2565b610d66565b6040516103919190611f74565b60405180910390f35b6103b460048036038101906103af9190611cf2565b610d78565b6040516103c19190611c9a565b60405180910390f35b6103d2610e94565b6040516103df9190611d60565b60405180910390f35b61040260048036038101906103fd919061219f565b610eba565b60405161040f9190611bef565b60405180910390f35b610432600480360381019061042d9190611fe2565b610f4e565b005b60007f80ac58cd000000000000000000000000000000000000000000000000000000007bffffffffffffffffffffffffffffffffffffffffffffffffffffffff1916827bffffffffffffffffffffffffffffffffffffffffffffffffffffffff191614806104ff57507f5b5e139f000000000000000000000000000000000000000000000000000000007bffffffffffffffffffffffffffffffffffffffffffffffffffffffff1916827bffffffffffffffffffffffffffffffffffffffffffffffffffffffff1916145b8061050f575061050e82611045565b5b9050919050565b6060600080546105259061220e565b80601f01602080910402602001604051908101604052809291908181526020018280546105519061220e565b801561059e5780601f106105735761010080835404028352916020019161059e565b820191906000526020600020905b81548152906001019060200180831161058157829003601f168201915b5050505050905090565b60006105b3826110af565b6105f2576040517f08c379a00000000000000000000000000000000000000000000000000000000081526004016105e9906122b1565b60405180910390fd5b6004600083815260200190815260200160002060009054906101000a900473ffffffffffffffffffffffffffffffffffffffff169050919050565b600061063882610a2c565b90508073ffffffffffffffffffffffffffffffffffffffff168373ffffffffffffffffffffffffffffffffffffffff16036106a8576040517f08c379a000000000000000000000000000000000000000000000000000000000815260040161069f90612343565b60405180910390fd5b8073ffffffffffffffffffffffffffffffffffffffff166106c761111b565b73ffffffffffffffffffffffffffffffffffffffff1614806106f657506106f5816106f061111b565b610eba565b5b610735576040517f08c379a000000000000000000000000000000000000000000000000000000000815260040161072c906123d5565b60405180910390fd5b61073f8383611123565b505050565b6000600960009054906101000a900473ffffffffffffffffffffffffffffffffffffffff1673ffffffffffffffffffffffffffffffffffffffff1663163f7522336040518263ffffffff1660e01b81526004016107a19190611d60565b602060405180830381865afa1580156107be573d6000803e3d6000fd5b505050506040513d601f19601f820116820180604052508101906107e2919061240a565b610821576040517f08c379a000000000000000000000000000000000000000000000000000000000815260040161081890612483565b60405180910390fd5b6000825111610865576040517f08c379a000000000000000000000000000000000000000000000000000000000815260040161085c906124ef565b60405180910390fd5b600060075490506007600081548092919061087f9061253e565b919050555061088e33826111dc565b826008600083815260200190815260200160002090816108ae9190612732565b50803373ffffffffffffffffffffffffffffffffffffffff167fe7cd4ce7f2a465edc730269a1305e8a48bad821e8fb7e152ec413829c01a53c4856040516108f69190611c9a565b60405180910390a380915050919050565b61091861091261111b565b826113b5565b610957576040517f08c379a000000000000000000000000000000000000000000000000000000000815260040161094e90612876565b60405180910390fd5b610962838383611493565b505050565b60606008600083815260200190815260200160002080546109879061220e565b80601f01602080910402602001604051908101604052809291908181526020018280546109b39061220e565b8015610a005780601f106109d557610100808354040283529160200191610a00565b820191906000526020600020905b8154815290600101906020018083116109e357829003601f168201915b50505050509050919050565b610a2783838360405180602001604052806000815250610d04565b505050565b6000806002600084815260200190815260200160002060009054906101000a900473ffffffffffffffffffffffffffffffffffffffff169050600073ffffffffffffffffffffffffffffffffffffffff168173ffffffffffffffffffffffffffffffffffffffff1603610ad4576040517f08c379a0000000000000000000000000000000000000000000000000000000008152600401610acb90612908565b60405180910390fd5b80915050919050565b60008073ffffffffffffffffffffffffffffffffffffffff168273ffffffffffffffffffffffffffffffffffffffff1603610b4d576040517f08c379a0000000000000000000000000000000000000000000000000000000008152600401610b449061299a565b60405180910390fd5b600360008373ffffffffffffffffffffffffffffffffffffffff1673ffffffffffffffffffffffffffffffffffffffff168152602001908152602001600020549050919050565b610b9c61111b565b73ffffffffffffffffffffffffffffffffffffffff16610bba610c1c565b73ffffffffffffffffffffffffffffffffffffffff1614610c10576040517f08c379a0000000000000000000000000000000000000000000000000000000008152600401610c0790612a06565b60405180910390fd5b610c1a60006116f9565b565b6000600660009054906101000a900473ffffffffffffffffffffffffffffffffffffffff16905090565b606060018054610c559061220e565b80601f0160208091040260200160405190810160405280929190818152602001828054610c819061220e565b8015610cce5780601f10610ca357610100808354040283529160200191610cce565b820191906000526020600020905b815481529060010190602001808311610cb157829003601f168201915b5050505050905090565b60006001600754610ce99190612a26565b905090565b610d00610cf961111b565b83836117bf565b5050565b610d15610d0f61111b565b836113b5565b610d54576040517f08c379a0000000000000000000000000000000000000000000000000000000008152600401610d4b90612876565b60405180910390fd5b610d608484848461192b565b50505050565b6000610d7182610add565b9050919050565b6060600073ffffffffffffffffffffffffffffffffffffffff16610d9b83610a2c565b73ffffffffffffffffffffffffffffffffffffffff1603610df1576040517f08c379a0000000000000000000000000000000000000000000000000000000008152600401610de890612aa6565b60405180910390fd5b600860008381526020019081526020016000208054610e0f9061220e565b80601f0160208091040260200160405190810160405280929190818152602001828054610e3b9061220e565b8015610e885780601f10610e5d57610100808354040283529160200191610e88565b820191906000526020600020905b815481529060010190602001808311610e6b57829003601f168201915b50505050509050919050565b600960009054906101000a900473ffffffffffffffffffffffffffffffffffffffff1681565b6000600560008473ffffffffffffffffffffffffffffffffffffffff1673ffffffffffffffffffffffffffffffffffffffff16815260200190815260200160002060008373ffffffffffffffffffffffffffffffffffffffff1673ffffffffffffffffffffffffffffffffffffffff16815260200190815260200160002060009054906101000a900460ff16905092915050565b610f5661111b565b73ffffffffffffffffffffffffffffffffffffffff16610f74610c1c565b73ffffffffffffffffffffffffffffffffffffffff1614610fca576040517f08c379a0000000000000000000000000000000000000000000000000000000008152600401610fc190612a06565b60405180910390fd5b600073ffffffffffffffffffffffffffffffffffffffff168173ffffffffffffffffffffffffffffffffffffffff1603611039576040517f08c379a000000000000000000000000000000000000000000000000000000000815260040161103090612b38565b60405180910390fd5b611042816116f9565b50565b60007f01ffc9a7000000000000000000000000000000000000000000000000000000007bffffffffffffffffffffffffffffffffffffffffffffffffffffffff1916827bffffffffffffffffffffffffffffffffffffffffffffffffffffffff1916149050919050565b60008073ffffffffffffffffffffffffffffffffffffffff166002600084815260200190815260200160002060009054906101000a900473ffffffffffffffffffffffffffffffffffffffff1673ffffffffffffffffffffffffffffffffffffffff1614159050919050565b600033905090565b816004600083815260200190815260200160002060006101000a81548173ffffffffffffffffffffffffffffffffffffffff021916908373ffffffffffffffffffffffffffffffffffffffff160217905550808273ffffffffffffffffffffffffffffffffffffffff1661119683610a2c565b73ffffffffffffffffffffffffffffffffffffffff167f8c5be1e5ebec7d5bd14f71427d1e84f3dd0314c0f7b2291e5b200ac8c7c3b92560405160405180910390a45050565b600073ffffffffffffffffffffffffffffffffffffffff168273ffffffffffffffffffffffffffffffffffffffff160361124b576040517f08c379a000000000000000000000000000000000000000000000000000000000815260040161124290612ba4565b60405180910390fd5b611254816110af565b15611294576040517f08c379a000000000000000000000000000000000000000000000000000000000815260040161128b90612c10565b60405180910390fd5b6112a060008383611987565b6001600360008473ffffffffffffffffffffffffffffffffffffffff1673ffffffffffffffffffffffffffffffffffffffff16815260200190815260200160002060008282546112f09190612c30565b92505081905550816002600083815260200190815260200160002060006101000a81548173ffffffffffffffffffffffffffffffffffffffff021916908373ffffffffffffffffffffffffffffffffffffffff160217905550808273ffffffffffffffffffffffffffffffffffffffff16600073ffffffffffffffffffffffffffffffffffffffff167fddf252ad1be2c89b69c2b068fc378daa952ba7f163c4a11628f55a4df523b3ef60405160405180910390a46113b16000838361198c565b5050565b60006113c0826110af565b6113ff576040517f08c379a00000000000000000000000000000000000000000000000000000000081526004016113f690612cd6565b60405180910390fd5b600061140a83610a2c565b90508073ffffffffffffffffffffffffffffffffffffffff168473ffffffffffffffffffffffffffffffffffffffff16148061144c575061144b8185610eba565b5b8061148a57508373ffffffffffffffffffffffffffffffffffffffff16611472846105a8565b73ffffffffffffffffffffffffffffffffffffffff16145b91505092915050565b8273ffffffffffffffffffffffffffffffffffffffff166114b382610a2c565b73ffffffffffffffffffffffffffffffffffffffff1614611509576040517f08c379a000000000000000000000000000000000000000000000000000000000815260040161150090612d68565b60405180910390fd5b600073ffffffffffffffffffffffffffffffffffffffff168273ffffffffffffffffffffffffffffffffffffffff1603611578576040517f08c379a000000000000000000000000000000000000000000000000000000000815260040161156f90612dfa565b60405180910390fd5b611583838383611987565b61158e600082611123565b6001600360008573ffffffffffffffffffffffffffffffffffffffff1673ffffffffffffffffffffffffffffffffffffffff16815260200190815260200160002060008282546115de9190612a26565b925050819055506001600360008473ffffffffffffffffffffffffffffffffffffffff1673ffffffffffffffffffffffffffffffffffffffff16815260200190815260200160002060008282546116359190612c30565b92505081905550816002600083815260200190815260200160002060006101000a81548173ffffffffffffffffffffffffffffffffffffffff021916908373ffffffffffffffffffffffffffffffffffffffff160217905550808273ffffffffffffffffffffffffffffffffffffffff168473ffffffffffffffffffffffffffffffffffffffff167fddf252ad1be2c89b69c2b068fc378daa952ba7f163c4a11628f55a4df523b3ef60405160405180910390a46116f483838361198c565b505050565b6000600660009054906101000a900473ffffffffffffffffffffffffffffffffffffffff16905081600660006101000a81548173ffffffffffffffffffffffffffffffffffffffff021916908373ffffffffffffffffffffffffffffffffffffffff1602179055508173ffffffffffffffffffffffffffffffffffffffff168173ffffffffffffffffffffffffffffffffffffffff167f8be0079c531659141344cd1fd0a4f28419497f9722a3daafe3b4186f6b6457e060405160405180910390a35050565b8173ffffffffffffffffffffffffffffffffffffffff168373ffffffffffffffffffffffffffffffffffffffff160361182d576040517f08c379a000000000000000000000000000000000000000000000000000000000815260040161182490612e66565b60405180910390fd5b80600560008573ffffffffffffffffffffffffffffffffffffffff1673ffffffffffffffffffffffffffffffffffffffff16815260200190815260200160002060008473ffffffffffffffffffffffffffffffffffffffff1673ffffffffffffffffffffffffffffffffffffffff16815260200190815260200160002060006101000a81548160ff0219169083151502179055508173ffffffffffffffffffffffffffffffffffffffff168373ffffffffffffffffffffffffffffffffffffffff167f17307eab39ab6107e8899845ad3d59bd9653f200f220920489ca2b5937696c318360405161191e9190611bef565b60405180910390a3505050565b611936848484611493565b61194284848484611991565b611981576040517f08c379a000000000000000000000000000000000000000000000000000000000815260040161197890612ef8565b60405180910390fd5b50505050565b505050565b505050565b60006119b28473ffffffffffffffffffffffffffffffffffffffff16611b18565b15611b0b578373ffffffffffffffffffffffffffffffffffffffff1663150b7a026119db61111b565b8786866040518563ffffffff1660e01b81526004016119fd9493929190612f6d565b6020604051808303816000875af1925050508015611a3957506040513d601f19601f82011682018060405250810190611a369190612fce565b60015b611abb573d8060008114611a69576040519150601f19603f3d011682016040523d82523d6000602084013e611a6e565b606091505b506000815103611ab3576040517f08c379a0000000000000000000000000000000000000000000000000000000008152600401611aaa90612ef8565b60405180910390fd5b805181602001fd5b63150b7a0260e01b7bffffffffffffffffffffffffffffffffffffffffffffffffffffffff1916817bffffffffffffffffffffffffffffffffffffffffffffffffffffffff191614915050611b10565b600190505b949350505050565b6000808273ffffffffffffffffffffffffffffffffffffffff163b119050919050565b6000604051905090565b600080fd5b600080fd5b60007fffffffff0000000000000000000000000000000000000000000000000000000082169050919050565b611b8481611b4f565b8114611b8f57600080fd5b50565b600081359050611ba181611b7b565b92915050565b600060208284031215611bbd57611bbc611b45565b5b6000611bcb84828501611b92565b91505092915050565b60008115159050919050565b611be981611bd4565b82525050565b6000602082019050611c046000830184611be0565b92915050565b600081519050919050565b600082825260208201905092915050565b60005b83811015611c44578082015181840152602081019050611c29565b60008484015250505050565b6000601f19601f8301169050919050565b6000611c6c82611c0a565b611c768185611c15565b9350611c86818560208601611c26565b611c8f81611c50565b840191505092915050565b60006020820190508181036000830152611cb48184611c61565b905092915050565b6000819050919050565b611ccf81611cbc565b8114611cda57600080fd5b50565b600081359050611cec81611cc6565b92915050565b600060208284031215611d0857611d07611b45565b5b6000611d1684828501611cdd565b91505092915050565b600073ffffffffffffffffffffffffffffffffffffffff82169050919050565b6000611d4a82611d1f565b9050919050565b611d5a81611d3f565b82525050565b6000602082019050611d756000830184611d51565b92915050565b611d8481611d3f565b8114611d8f57600080fd5b50565b600081359050611da181611d7b565b92915050565b60008060408385031215611dbe57611dbd611b45565b5b6000611dcc85828601611d92565b9250506020611ddd85828601611cdd565b9150509250929050565b600080fd5b600080fd5b7f4e487b7100000000000000000000000000000000000000000000000000000000600052604160045260246000fd5b611e2982611c50565b810181811067ffffffffffffffff82111715611e4857611e47611df1565b5b80604052505050565b6000611e5b611b3b565b9050611e678282611e20565b919050565b600067ffffffffffffffff821115611e8757611e86611df1565b5b611e9082611c50565b9050602081019050919050565b82818337600083830152505050565b6000611ebf611eba84611e6c565b611e51565b905082815260208101848484011115611edb57611eda611dec565b5b611ee6848285611e9d565b509392505050565b600082601f830112611f0357611f02611de7565b5b8135611f13848260208601611eac565b91505092915050565b600060208284031215611f3257611f31611b45565b5b600082013567ffffffffffffffff811115611f5057611f4f611b4a565b5b611f5c84828501611eee565b91505092915050565b611f6e81611cbc565b82525050565b6000602082019050611f896000830184611f65565b92915050565b600080600060608486031215611fa857611fa7611b45565b5b6000611fb686828701611d92565b9350506020611fc786828701611d92565b9250506040611fd886828701611cdd565b9150509250925092565b600060208284031215611ff857611ff7611b45565b5b600061200684828501611d92565b91505092915050565b61201881611bd4565b811461202357600080fd5b50565b6000813590506120358161200f565b92915050565b6000806040838503121561205257612051611b45565b5b600061206085828601611d92565b925050602061207185828601612026565b9150509250929050565b600067ffffffffffffffff82111561209657612095611df1565b5b61209f82611c50565b9050602081019050919050565b60006120bf6120ba8461207b565b611e51565b9050828152602081018484840111156120db576120da611dec565b5b6120e6848285611e9d565b509392505050565b600082601f83011261210357612102611de7565b5b81356121138482602086016120ac565b91505092915050565b6000806000806080858703121561213657612135611b45565b5b600061214487828801611d92565b945050602061215587828801611d92565b935050604061216687828801611cdd565b925050606085013567ffffffffffffffff81111561218757612186611b4a565b5b612193878288016120ee565b91505092959194509250565b600080604083850312156121b6576121b5611b45565b5b60006121c485828601611d92565b92505060206121d585828601611d92565b9150509250929050565b7f4e487b7100000000000000000000000000000000000000000000000000000000600052602260045260246000fd5b6000600282049050600182168061222657607f821691505b602082108103612239576122386121df565b5b50919050565b7f4552433732313a20617070726f76656420717565727920666f72206e6f6e657860008201527f697374656e7420746f6b656e0000000000000000000000000000000000000000602082015250565b600061229b602c83611c15565b91506122a68261223f565b604082019050919050565b600060208201905081810360008301526122ca8161228e565b9050919050565b7f4552433732313a20617070726f76616c20746f2063757272656e74206f776e6560008201527f7200000000000000000000000000000000000000000000000000000000000000602082015250565b600061232d602183611c15565b9150612338826122d1565b604082019050919050565b6000602082019050818103600083015261235c81612320565b9050919050565b7f4552433732313a20617070726f76652063616c6c6572206973206e6f74206f7760008201527f6e6572206e6f7220617070726f76656420666f7220616c6c0000000000000000602082015250565b60006123bf603883611c15565b91506123ca82612363565b604082019050919050565b600060208201905081810360008301526123ee816123b2565b9050919050565b6000815190506124048161200f565b92915050565b6000602082840312156124205761241f611b45565b5b600061242e848285016123f5565b91505092915050565b7f4e6f742072656769737465726564000000000000000000000000000000000000600082015250565b600061246d600e83611c15565b915061247882612437565b602082019050919050565b6000602082019050818103600083015261249c81612460565b9050919050565b7f5552492063616e6e6f7420626520656d70747900000000000000000000000000600082015250565b60006124d9601383611c15565b91506124e4826124a3565b602082019050919050565b60006020820190508181036000830152612508816124cc565b9050919050565b7f4e487b7100000000000000000000000000000000000000000000000000000000600052601160045260246000fd5b600061254982611cbc565b91507fffffffffffffffffffffffffffffffffffffffffffffffffffffffffffffffff820361257b5761257a61250f565b5b600182019050919050565b60008190508160005260206000209050919050565b60006020601f8301049050919050565b600082821b905092915050565b6000600883026125e87fffffffffffffffffffffffffffffffffffffffffffffffffffffffffffffffff826125ab565b6125f286836125ab565b95508019841693508086168417925050509392505050565b6000819050919050565b600061262f61262a61262584611cbc565b61260a565b611cbc565b9050919050565b6000819050919050565b61264983612614565b61265d61265582612636565b8484546125b8565b825550505050565b600090565b612672612665565b61267d818484612640565b505050565b5b818110156126a15761269660008261266a565b600181019050612683565b5050565b601f8211156126e6576126b781612586565b6126c08461259b565b810160208510156126cf578190505b6126e36126db8561259b565b830182612682565b50505b505050565b600082821c905092915050565b6000612709600019846008026126eb565b1980831691505092915050565b600061272283836126f8565b9150826002028217905092915050565b61273b82611c0a565b67ffffffffffffffff81111561275457612753611df1565b5b61275e825461220e565b6127698282856126a5565b600060209050601f83116001811461279c576000841561278a578287015190505b6127948582612716565b8655506127fc565b601f1984166127aa86612586565b60005b828110156127d2578489015182556001820191506020850194506020810190506127ad565b868310156127ef57848901516127eb601f8916826126f8565b8355505b6001600288020188555050505b505050505050565b7f4552433732313a207472616e736665722063616c6c6572206973206e6f74206f60008201527f776e6572206e6f7220617070726f766564000000000000000000000000000000602082015250565b6000612860603183611c15565b915061286b82612804565b604082019050919050565b6000602082019050818103600083015261288f81612853565b9050919050565b7f4552433732313a206f776e657220717565727920666f72206e6f6e657869737460008201527f656e7420746f6b656e0000000000000000000000000000000000000000000000602082015250565b60006128f2602983611c15565b91506128fd82612896565b604082019050919050565b60006020820190508181036000830152612921816128e5565b9050919050565b7f4552433732313a2062616c616e636520717565727920666f7220746865207a6560008201527f726f206164647265737300000000000000000000000000000000000000000000602082015250565b6000612984602a83611c15565b915061298f82612928565b604082019050919050565b600060208201905081810360008301526129b381612977565b9050919050565b7f4f776e61626c653a2063616c6c6572206973206e6f7420746865206f776e6572600082015250565b60006129f0602083611c15565b91506129fb826129ba565b602082019050919050565b60006020820190508181036000830152612a1f816129e3565b9050919050565b6000612a3182611cbc565b9150612a3c83611cbc565b9250828203905081811115612a5457612a5361250f565b5b92915050565b7f546f6b656e20646f6573206e6f74206578697374000000000000000000000000600082015250565b6000612a90601483611c15565b9150612a9b82612a5a565b602082019050919050565b60006020820190508181036000830152612abf81612a83565b9050919050565b7f4f776e61626c653a206e6577206f776e657220697320746865207a65726f206160008201527f6464726573730000000000000000000000000000000000000000000000000000602082015250565b6000612b22602683611c15565b9150612b2d82612ac6565b604082019050919050565b60006020820190508181036000830152612b5181612b15565b9050919050565b7f4552433732313a206d696e7420746f20746865207a65726f2061646472657373600082015250565b6000612b8e602083611c15565b9150612b9982612b58565b602082019050919050565b60006020820190508181036000830152612bbd81612b81565b9050919050565b7f4552433732313a20746f6b656e20616c7265616479206d696e74656400000000600082015250565b6000612bfa601c83611c15565b9150612c0582612bc4565b602082019050919050565b60006020820190508181036000830152612c2981612bed565b9050919050565b6000612c3b82611cbc565b9150612c4683611cbc565b9250828201905080821115612c5e57612c5d61250f565b5b92915050565b7f4552433732313a206f70657261746f7220717565727920666f72206e6f6e657860008201527f697374656e7420746f6b656e0000000000000000000000000000000000000000602082015250565b6000612cc0602c83611c15565b9150612ccb82612c64565b604082019050919050565b60006020820190508181036000830152612cef81612cb3565b9050919050565b7f4552433732313a207472616e736665722066726f6d20696e636f72726563742060008201527f6f776e6572000000000000000000000000000000000000000000000000000000602082015250565b6000612d52602583611c15565b9150612d5d82612cf6565b604082019050919050565b60006020820190508181036000830152612d8181612d45565b9050919050565b7f4552433732313a207472616e7366657220746f20746865207a65726f2061646460008201527f7265737300000000000000000000000000000000000000000000000000000000602082015250565b6000612de4602483611c15565b9150612def82612d88565b604082019050919050565b60006020820190508181036000830152612e1381612dd7565b9050919050565b7f4552433732313a20617070726f766520746f2063616c6c657200000000000000600082015250565b6000612e50601983611c15565b9150612e5b82612e1a565b602082019050919050565b60006020820190508181036000830152612e7f81612e43565b9050919050565b7f4552433732313a207472616e7366657220746f206e6f6e20455243373231526560008201527f63656976657220696d706c656d656e7465720000000000000000000000000000602082015250565b6000612ee2603283611c15565b9150612eed82612e86565b604082019050919050565b60006020820190508181036000830152612f1181612ed5565b9050919050565b600081519050919050565b600082825260208201905092915050565b6000612f3f82612f18565b612f498185612f23565b9350612f59818560208601611c26565b612f6281611c50565b840191505092915050565b6000608082019050612f826000830187611d51565b612f8f6020830186611d51565b612f9c6040830185611f65565b8181036060830152612fae8184612f34565b905095945050505050565b600081519050612fc881611b7b565b92915050565b600060208284031215612fe457612fe3611b45565b5b6000612ff284828501612fb9565b9150509291505056fea2646970667358221220e8984025508467a7e111fe71a76dd08b4c233b30825c335027bcc2bfc5961b1e64736f6c63430008140033",
  "linkReferences": {},
  "deployedLinkReferences": {}
}